:02000002F0000C
:10800000000004205D830F0045830F0047830F00AD
:1080100049830F004B830F004D830F0000000000C9
:1080200000000000000000000000000005A10F009B
:1080300051830F000000000053830F0055830F0091
:1080400057830F0057830F0057830F0057830F008C
:1080500057830F0057830F0057830F0057830F007C
:1080600057830F0057830F0057830F0057830F006C
:1080700057830F0057830F0057830F0057830F005C
:10808000B1A80F0057830F0057830F0057830F00CD
:1080900057830F0057830F00059B0F0057830F0076
:1080A00057830F0057830F0057830F0057830F002C
:1080B00057830F0057830F000000000000000000EE
:1080C00057830F0057830F0057830F0057830F000C
:1080D00041A50F0057830F0057830F0057830F00F0
:1080E00057830F0057830F007DD80F00000000005A
:1080F0000000000057830F000000000057830F00AE
:10810000000000000000000000000000000000006F
:10811000000000000000000000000000000000005F
:10812000000000000000000000000000000000004F
:10813000000000000000000000000000000000003F
:10814000000000000000000000000000000000002F
:10815000000000000000000000000000000000001F
:10816000000000000000000000000000000000000F
:1081700000000000000000000000000000000000FF
:1081800000000000000000000000000000000000EF
:1081900000000000000000000000000000000000DF
:1081A00000000000000000000000000000000000CF
:1081B00000000000000000000000000000000000BF
:1081C00000000000000000000000000000000000AF
:1081D000000000000000000000000000000000009F
:1081E000000000000000000000000000000000008F
:1081F000000000000000000000000000000000007F
:10820000314932480A1A02D0072291438D4630493B
:1082100030480A1A06D00722914381F309880222C6
:1082200082F314882C482D492D4A00F03CF82D4843
:108230002D492E4A00F037F82D482E492E4A00F0DD
:1082400032F82E482E492F4A00F02DF82E482F499B
:108250002F4A00F028F82F482F49304A00F023F821
:108260002F483049304A00F01EF83048304900228B
:1082700000F024F82F483049002200F01FF82F4A60
:1082800090471F481F49884205D00268043003B454
:10829000904703BCF7E700208646EC46002000210B
:1082A000274A9047FEE7884207D0521A05D0037844
:1082B00001300B700131013AF9D17047884202D088
:1082C00002700130FAE770470000042000F8032034
:1082D0000000042000000420ACDE0F007C590020C8
:1082E000B4590020B8830F00B8830F001EDA0F00C6
:1082F000ACDE0F007C5900207C59002094DA0F007E
:1083000094DA0F0094DA0F0094DA0F0094DA0F0079
:1083100094DA0F0094DA0F0094DA0F00ACDE0F004D
:10832000E4DE0F00B4590020B4590020B4590020F5
:10833000708F0020708F0020708F002085830F00C9
:10834000F99F0F00FEE7FEE7FEE7FEE7FEE7FEE728
:10835000FEE7FEE7FEE7FEE700F002B8FFF7FCBF2E
:108360000F484FF00701884385460E4880470E4866
:10837000016841F470010160BFF34F8FBFF36F8F4D
:10838000FFF73EBF09480A490A4A884207D0521AF5
:1083900005D0037801300B700131013AF9D17047F3
:1083A0000000042049A90F0088ED00E080DA0F00EA
:0883B000685900207C590020EF
:1083B8004B1C30B5DB00044612F003009BB20DD114
:1083C800074D2A601A44074B1A60074B1870074B71
:1083D8001870074B1C80074B198030BD0720FCE73D
:1083E800BC590020B8590020B4590020C4590020B5
:1083F800C0590020C25900202DE9F3472B4F3B8874
:108408008B4206460D4690464BD300240DF10700DB
:108418008DF8074000F086F8254B26481A78264B39
:10842800008893F800C084455FFA8CF138BF4C1C73
:10843800D2B238BFE4B2A2422DD01C781A78D1B299
:10844800904286BF0131C9B2002119709DF807001A
:1084580000F08CF84FF6FF739C4224D0DFF8609050
:10846800D9F800204FEAC40A42F8348002EBC4036A
:10847800A6B19DB1114B38881B682A4604FB003011
:10848800314605F03CFAD9F80030534400209D806D
:1084980002B0BDE8F0874FF6FF74D7E70020988058
:1084A800F6E70920F4E70420F2E700BFC0590020EE
:1084B800C4590020C2590020B4590020B8590020DE
:1084C800BC590020F8B5114C114D264622782B785E
:1084D8009A4200D1F8BD0F480F4A237812680788DE
:1084E8000E4802EBC301006852F83320898803FB69
:1084F800070090470A4922780988D3B2914286BF7B
:108508000133DBB200233370E0E700BFC459002019
:10851800B4590020C0590020BC590020B859002087
:10852800C259002070B5EFF3108672B60C4A9468F1
:1085380001239CB993600B4B0B4DD3F88010294055
:108548001160C3F88050D3F8841051604FF0FF32A7
:10855800C3F88420047006B962B670BD0370FAE7E8
:10856800C859002000E100E0FC06FFBD084B9A68EE
:1085780010B55AB150B9EFF3108172B6054A1C68AC
:1085880014605C685460986001B962B610BD00BFA1
:10859800C859002000E100E030B53AB11368DB4368
:1085A8000A4D0144814204D1D84330BD4FF0FF3316
:1085B800F6E710F8012B5340082213F0010418BF06
:1085C8002C46013A84EA5303F7D1EBE72083B8ED50
:1085D80010B561B1B2FBF3F403FB1424A4B244B99F
:1085E800C0E9001484608281C381204610BD0E203A
:1085F800FCE70920FAE782B050E8022FC188B2EB05
:10860800324F4FF0000317BF92B241EA014142EAEC
:10861800014104E04268B2EB324F08BF012340E851
:108628000212002AE8D18DF807309DF80730002B98
:108638000CBF1120002002B0704737B550E8013F49
:108648009DB2C48925448489A54228BF2D1B04896D
:10865800A54202BFBFF32F8F002207E0C5EA03053A
:1086680040E80154002CE9D14FF001028DF80320B5
:108678000193019B9DF803200B6002F0FF0322B1D8
:108688000B880068184403B030BD1846FBE70A8819
:108698004B889A4209D150E8012FC2EA024240E8C9
:1086A8000123002BF7D1012070470020704737B510
:1086B80050E8023F1FFAA3F5C488A54202BFBFF3E2
:1086C8002F8F00220DE0C48925448489A54228BF44
:1086D8002D1BC3EA054540E80254002CE8D14FF0B1
:1086E80001028DF803200193019B9DF803200B6084
:1086F80002F0FF0322B14B880068184403B030BD74
:108708001846FBE70A884B889A4209D150E8022F9D
:10871800C2EA224240E80223002BF7D10120704729
:108728000020704710B5034653E8000F0A4643E897
:10873800002494F0000FF7D110BD10B5034653E89C
:10874800000F40EA010243E8002494F0000FF6D13C
:1087580010BD10B5034653E8002F02EA010043E8B4
:10876800000494F0000FF6D110BD0121FFF7E5BF1A
:108778000021FFF7EEBF10B590B1D0E901230168E1
:108788009B1ADBB20A60013BDBB2FF2B026802D105
:108798000020107110BD11684C1C14600B70F2E7BA
:1087A8000E20F7E737B5054600240DF107008DF8D0
:1087B8000740FFF7B7FE2A686B68116899420ED91F
:1087C800481E106011F8014CEB68298A01FB04343B
:1087D800AB6811791B1ADBB2994238BF13719DF847
:1087E8000700FFF7C3FE204603B030BD37B5054686
:1087F80000230DF107000C468DF80730FFF792FEB5
:108808002A681368591C1160E968641A298AB4FB3C
:10881800F1F41C709DF80700FFF7A8FE03B030BD07
:108828000B6801601146184710B40468E468A44650
:108838005DF8044B604710B404682469A4465DF8E9
:10884800044B604770B550B90E4D0F4C0026641BA1
:108858001423B4FBF3F4B44208D1002010E00368F9
:10886800002BF1D0BDE87040DB6918472B6813B9BD
:1088780001361435EFE7DB69284698470028F7D01A
:1088880070BD00BF685900207C590020014B43602F
:108898000020704794DA0F000846704700207047A0
:1088A800024B1868003818BF01207047D4590020BF
:1088B80008B50248FFF75CFF002008BDD459002026
:1088C80008B510461A4605F01AF8002008BD000041
:1088D8002DE9F043814687B014480E461546984660
:1088E800FFF743FF0446F0B90746BD4215D10F48CC
:1088F800FFF73EFFD9F808305BB102228DF800205F
:108908000022CDE90126CDE90325CDF8148068467B
:108918009847204607B0BDE8F08306EB073001F022
:10892800C7F90137E1E71124F3E700BFD459002064
:108938002DE9F041804686B011480F4616461D467F
:10894800FFF713FF0446C8B9AA083146384601F0B4
:10895800DDF90B48FFF70CFFD8F8083053B10122B6
:108968008DF800200C9A0592CDE90147CDE9036501
:1089780068469847204606B0BDE8F0811124F9E71B
:10898800D459002029DF704728DF704770B5036885
:108998009E6886B004460D466EB1142200216846D2
:1089A80004F0D6FFA3680593237901952BB1012B19
:1089B8000DD06846B04706B070BD01238DF8003071
:1089C80023690293E368039363690493F1E702233D
:1089D8008DF80030E3681B030293F5E708467047FB
:1089E80000207047024B187A003818BF01207047E2
:1089F800C45B0020034B187A0122B0FA80F05A7445
:108A080040097047C45B002008B510461A4604F0B8
:108A180076FF002008BD000008B514220021044894
:108A280004F096FF0348FFF7E6FD002008BD00BFED
:108A3800C45B0020B45B002010B5094C094B4360AF
:108A48002046FFF792FE48B901F03EF80649207427
:108A58001C2306484FF4EE72FFF7BAFD002010BD44
:108A6800C45B0020C0DA0F00D8590020B45B002096
:108A780070B5234C234E237A25463BB92249234817
:108A8800FFF715FE306008B9606070BD02233468D6
:108A98002B72237973B1012B22D020460321FFF7D3
:108AA80075FF00232B726B6017491848BDE87040AA
:108AB800FFF728BED4E90523D21A142AD4E90310F3
:108AC80028BF14229208012A38BF012219441844E9
:108AD800FFF758FF50B11128DFD101232B72D4E7DB
:108AE800D4E903031844FFF74FFFF3E72B7C002B6F
:108AF800CBD10146BDE87040022000F009B800BFA4
:108B0800C45B0020DC5B0020D85B0020B45B002045
:108B180038B5831E012B43D8224C237A002B3FD033
:108B2800022B09D103282ED01F4B00221B68E260BC
:108B38001A793AB1012A20D0637C6BBBBDE8384072
:108B4800FFF796BFD3E905128D1A142D94BF521959
:108B580014329A619142EFD102284FF0000308BF06
:108B680019462372104B18BF0D211868FFF70EFF26
:108B78000E490F48FFF7C6FDDEE71A6901321A6190
:108B88005B699A42E7E7E3680133082B01D8E360A1
:108B9800D2E70023E360DFE7BDE8384000F084BF98
:108BA80038BD00BFC45B0020DC5B0020D85B002020
:108BB800B45B002000F0FD03012B08D1044B002218
:108BC8005A74421E504250411874FFF751BF704703
:108BD800C45B002010B5064C201DFFF7C6FD28B960
:108BE800637C1BB9BDE81040FFF742BF10BD00BF52
:108BF800C45B00202DE9F34180460D460F4801A9CA
:108C080016461F46FFF719FD0446A8B11C2200218D
:108C180004F09EFE2D0B0123237101A90748C4F817
:108C28000080A760E5606661FFF731FDFFF7D2FFBE
:108C3800002002B0BDE8F0810420FAE7B45B002010
:108C48002DE9F74381468846104801A917461E4674
:108C5800FFF7F3FC0446B0B11C22002104F078FEB3
:108C680000250A9BA36001A9C4E903780748257178
:108C7800C4F800906661FFF70AFDFFF7ABFF2846CE
:108C880003B0BDE8F0830420FAE700BFB45B00201E
:108C98000B684A684360934208BF0023016008BF1D
:108CA80043607047436843B10268916852680B4457
:108CB8009342436004BF0023436070470023C0E928
:108CC80002328B881A44B1F9063002611A44C0E9AD
:108CD800001142610888003818BF012070474268B7
:108CE800118838B50346002937D0148A02F11001DB
:108CF80041602CB9C2680168FFF7E0FF204638BD23
:108D08009078118900F03005302D14D1947C04F04E
:108D18003004302C1BD190881969091A1961002177
:108D2800908AB2F91620084419690144196111445E
:108D380059610120E3E700F0F004202C07D15089A5
:108D48004143002DECD1986801309860E8E700F0C5
:108D5800C000802808BF0421F3E70846CFE770B5B4
:108D6800466804460D4663681A88AA4204D19B786F
:108D780003F00F03082B07D12046FFF7B0FF636805
:108D8800B342F0D1002070BD0120FCE743681A44CB
:108D9800426011B101399A4201D10120704713F89C
:108DA800010B01F8010FF6E783682DE9F34104464A
:108DB800884623B90026304602B0BDE8F081036832
:108DC80001220DF10701984706460028F2D0A36852
:108DD8009DF80750013BA3609DF90730002B1ADA74
:108DE80005F07F050727A368002BE3D0236801223D
:108DF8000DF10701204698470028DBD0A3689DF8AD
:108E08000720013BA36002F07F03BB401D4313060C
:108E180007F1070702D4C8F80050CCE7232FE2D1A6
:108E2800C8E770B54568AA7802F00F06082E86B024
:108E380003461FD103691C6800260CB906B070BD33
:108E4800236862689D68267329466846FFF736FFDF
:108E58006368049304F10C030593AB7803F0C00333
:108E6800802B08BF231D684608BF0493FFF7D9FF6E
:108E7800A468E2E712F0C0011CD102F0300010280B
:108E88000AD15A691170072EEC68186909D1014690
:108E9800204600F017F8D1E79006F4D55B691980F1
:108EA800CCE72A89214614B104F029FDC6E704F06D
:108EB8004FFDC3E78029C1D10069002192060160F6
:108EC800BCD5EBE77FB50A4601466846FFF7F6FED4
:108ED80030B16846FFF7A5FF6846FFF700FFF7E7E0
:108EE80007B05DF804FB000030B5044685B01546B0
:108EF800A9B90268114B9A4211D0102D06D82A46FA
:108F080069462046FFF7F0FF05B030BD10226946DC
:108F18002046FFF7E9FF0028F6D0103DEDE7A368EB
:108F2800AB4201D20020EFE723682A462046984743
:108F38000028F7D0A268521BA260E5E7958D0F00C4
:108F4800F7B50E4601A907461546FFF72DFFA8B14C
:108F5800019A0123D3184FF0000404D2B17801F02C
:108F6800C001802901D1204608E031899942FAD30D
:108F780029463846FFF7B8FF019BEC5403B0F0BD13
:108F880073B50D4601A906461446FFF70DFF98B1C3
:108F9800019AB2F5803F11D2AB7803F0C003802B61
:108FA80002F102010AD02B898B4207D321463046B1
:108FB80021F8022BFFF798FF02B070BD0020FBE7F5
:108FC80010B5034C82600022C0E90041C26010BDA8
:108FD800958D0F002DE9F341002604460F46B04653
:108FE8003546A3682BB3236801220DF107012046FB
:108FF8009847F0B1A3689DF807C0013B0CF07F02C9
:10900800C5F12001A360A5F1200302FA03F322FAB7
:1090180001F10B43AA401CF0800F46EA020643EA1E
:10902800080805F1070502D1C7E9006802E0462DE6
:10903800D7D1002002B0BDE8F08173B50C4669466F
:109048001646FFF7C7FF68B12389082B0CD1DDE965
:109058000045C6E90045DDE90023AB4206BFA24250
:109068000120002002B070BD042B04D1009B3360A6
:109078001C460025EFE7022B4FF0000004D1009BAF
:1090880033809CB20546E6E7012BEBD1009B337099
:1090980003F0FF04F6E737B50D4669461446FFF7B7
:1090A80099FF30B12A89082ADDE9003103D1C4E9E2
:1090B800003103B030BD042A18464FEAE37108D1E5
:1090C80023601A460B468B4206BF824201200020CD
:1090D800EFE7022A04D11BB223801AB2D317F2E7B2
:1090E800012A03D15BB223705AB2F7E70020E0E708
:1090F800F7B51F4600233B700D460B70136001A99E
:1091080004461646FFF750FE30B9A36813B9012389
:109118003B70002003B0F0BD019C002CF7D0E308A1
:1091280004F0070433602C70F4E713B504460529EE
:109138001FD8DFE801F0030F151E1E1C012201A92C
:109148002046FFF7D1FE18B19DF90430002BF5DB5E
:1091580002B010BD082200212046FFF7C5FEF7E740
:1091680001A9FFF721FE0028F2D0019AF3E70422B3
:10917800F1E70020ECE773B50D4601A90446FFF7B7
:1091880013FE064618B90026304602B070BD94E8B2
:109198000F0085E80F0001998A42F4D3A960A368FB
:1091A8005B1AA360F0E700002DE9F0435668B37836
:1091B80013F0C00489B007468C46154603D0402CEE
:1091C80067D000240CE003F00F025D4903F0300380
:1091D800202B51F8228023D006D8E3B1102B17D0CA
:1091E800204609B0BDE8F083302BF9D16B6931888E
:1091F8001980072A09D121463289286904F0A8FB79
:109208006B682969D868FFF75DFE2A6969683EE0DE
:109218006B6901221A702A693146C0470446DFE7A4
:10922800BCF1020FD5F8149024D1042A22D804A93D
:10923800FFF7A1FF04460028C3D0069B2BB169683D
:10924800B9F800304A899A4205D8059B7B60069B8D
:10925800002BC5D0B5E708892A6903FB002204A8BA
:10926800C04728B1B9F800300133A9F80030E4E765
:109278000446EAE7B9F8003072899A42A1D93189DF
:109288002A69581C03FB0122A9F800003146384618
:10929800C3E7D2F81080464656F8043B13B9FFF7E7
:1092A80044FFBBE7022914D104A9FFF764FF002893
:1092B80087D0D8F800306968324604A89847044631
:1092C80000283FF47EAF069B002BF2D1059B7B6004
:1092D80086E7012925D005292BD000297FF471AF15
:1092E8000C460DF1040901340B2C3FF46AAF01223E
:1092F80049463846FFF7F8FD00283FF462AF19F9F0
:10930800013B002BEFDB0F4B049301ABCDE9053498
:10931800002307936968D8F80030324604A89847B4
:109328007CE7082201A9FFF7DFFD08240028EAD11D
:1093380047E704220DEB0201FFF7D6FD0424F5E709
:10934800ECDA0F00958D0F002DE9F04F91B004462F
:10935800002604A8CDE90266FFF7B0FCA3683BBB72
:10936800DDE9053404A89D78FFF7B9FC0028F7D19A
:1093780015F0300F03D1059B1B8803B10134002C75
:1093880000F0A9806309002202A9934240F09C8062
:1093980010AA02EB830304F01F0453F8383CC4F10D
:1093A80020044FF0FF30E040C31A584258410DE006
:1093B8000DF1030301AA0DF102012046FFF798FE03
:1093C80038B99DF80330002BCAD1002011B0BDE890
:1093D800F08F019904A8FFF7C2FC002850D1019B27
:1093E800B3427DD3059D059A937803F00F03082BAC
:1093F8007FD004A8FFF773FC059B9D42F3D14FF083
:10940800FF36019FB7426BD3089B9DF802A0D4F8A2
:1094180008801D684FF00109A368002D5DD09845AC
:109428009CD12B68D3F800B0BBF1000F08D053468D
:109438003A4629462046D8470028C6D0AD68EBE70B
:10944800D3F808B0BBF800309F42F7D16A68594694
:109458000AA8FFF733FC6B680E9305F10C030F9312
:109468009BF8023003F0C003802B04BF2B1D0E9322
:109478000AAA85F80C9051462046FFF795FEDBE7CF
:10948800059B9B7813F0300F0FD1069A3F2A0CD812
:10949800510910AB03EB810102F01F020123934035
:1094A80051F8382C134341F8383CE5682DB19DF844
:1094B8000220019904AB2046A8479DF8021004AA8F
:1094C8002046FFF771FE10E051F8225001357FF475
:1094D8007DAF013259E7012078E798457FF43EAF28
:1094E8009DF802102046FFF720FE00287FF436AFD3
:1094F8006BE7168885E737B50C46054611462046C2
:109508000192FFF7DFFC019A2146284603B0BDE827
:109518003040FFF719BF70B586B0CE6801920C468F
:1095280002A90546FFF727FE68B1E06858B1A3789D
:10953800019A03F03003202B314602A805D1FFF72A
:10954800DAFF039B6B6006B070BDFFF7FDFEF8E71E
:10955800D3B50C466946FFF73DFD80B1DDE9001340
:1095680000274A0801F0010642EAC37256EA0701D9
:109578004FEA53031CBFD243DB43C4E9002302B0C4
:10958800D0BD37B50D4669461446FFF7E1FF68B10F
:109598002B89082B0CD1DDE90001C4E90001DDE9C4
:1095A80000238B4206BF82420120002003B030BD59
:1095B800042B03D100982060C117F0E7022B04D1D7
:1095C800BDF90000208000B2F6E7012B04D19DF917
:1095D8000000207040B2EFE70020E7E713B504224F
:1095E8000C460DEB0201FFF77FFC08B1019B2360DD
:1095F80002B010BD1146FFF7F1BF13B508220C46A3
:109608006946FFF771FC18B1DDE90023C4E90023BE
:1096180002B010BD1146FFF7F0BF38B5202204464E
:1096280008300D4604F06BF92022A91804F128002F
:1096380004F065F9002038BD2DE9F743DFF86C80A8
:109648009946184B036004460E46404601211746CA
:10965800FFF768F80546BFF35F8FF8B900F0E6F842
:109668000A9ACDF800903B4606F10801204602F020
:10967800AFFF044600F0E8F8BFF35F8FC8F800506A
:1096880044B1094948F2165248F242538C4214BF79
:1096980014461C46204603B0BDE8F08348F2045443
:1096A800F8E700BFDD55AABB8408F000E06B002096
:1096B8000E4B984214D00AD8B8B10D4948F2165248
:1096C80048F20153884214BF104618467047094BA8
:1096D800984208D0084948F2165248F20353F1E775
:1096E80048F20350704748F2025070470102F000F8
:1096F8000002F0000202F0000F02F00008B5083086
:1097080002F0D0FFBDE80840FFF7D2BF13681F2B57
:109718002DE9F34106460F46144620D9DFF84C8060
:1097280001214046FEF7FEFF0546BFF35F8FC8B92B
:1097380000F07CF8394606F1080003F025F801909E
:1097480000F082F8BFF35F8F0198C8F80050FFF768
:10975800AFFF08B92023236002B0BDE8F08148F2CA
:109768001450F9E748F20450F6E700BFE06B002018
:109778002DE9F04105460E46194801211446FEF729
:10978800D1FFBFF35F8F38BB00F050F8DFF854808B
:109798000835B4F5805F274628BF4FF48057314617
:1097A8003A46404604F0ABF83A464146284602F0AD
:1097B80093FFE41B3E4468B9002CEAD100F044F85A
:1097C800BFF35F8F064B00222046BDE8F0411A60C8
:1097D800FFF76EBF0446F1E748F20450BDE8F08198
:1097E800E06B0020E05B0020024B0020C3F800057E
:1097F800704700BF00A0025038B50A4B00251D6015
:10980800BFF35F8F084C0123C4F8003502F0ECFF6A
:10981800C4F8005520B1052848F2035018BF0320AA
:1098280038BD00BFE06B002000A00250044B0122AD
:10983800C3F80025034B4FF480625A60704700BF9D
:1098480000A0025000E100E0044B0022C3F800250C
:10985800034B4FF48062C3F88420704700A0025085
:1098680000E100E0074B1B5C1F2B86BF064903F095
:109878001F034FF0A041012202FA03F3C1F80C358F
:10988800704700BF34DB0F0000030050074B1B5C20
:109898001F2B86BF064903F01F034FF0A04101228A
:1098A80002FA03F3C1F80835704700BF34DB0F0034
:1098B8000003005008B50020FFF7E8FF0120FFF77C
:1098C800E5FF0220FFF7E2FFBDE808400320FFF7AD
:1098D800DDBFC20710B504460CD54FF0A0430322E4
:1098E800C3F83427C3F83827C3F83C27C3F8402700
:1098F800FFF7E0FFA3070AD54FF0A0430C22C3F8F7
:109908002C27C3F83027C3F86027C3F8642710BD95
:1099180010DF704711DF704713B5044609496846E0
:10992800FFF7B6F9019808B902B010BDD0E90021D7
:109938002046904718B16846FFF7B4F9F2E71120BE
:10994800F2E700BF3CDB0F0013B504460749684641
:10995800FFF79EF9019B0BB902B010BD2046D3E971
:10996800002190476846FFF79DF9F3E754DB0F00A5
:10997800064B9A6822B11A6822F480021A6070476E
:10998800034B4FF48002C3F880207047C859002069
:1099980000E100E00B4991F816335A09EC23134112
:1099A800DB0706D5084B9A683AB94FF480030B6079
:1099B800704742F2020000F018BB1A6842F48002B5
:1099C8001A60704700E100E0C8590020F7B5194F48
:1099D8003C7864BB184E012520463570FFF79CFF84
:1099E800112821D02046FFF7AFFF144B8DF8034014
:1099F800186801900DF10300FEF794FD104901A8C5
:109A0800FFF786FF0446B0FA80F0400938709DF8E9
:109A18000300FEF7ABFD3CB90A4B34701C70FFF72E
:109A2800B9FF2846FFF790FF204603B0F0BD082491
:109A3800FAE700BFE56B0020E46B002038DB0F007D
:109A4800ED9F0F00E66B0020F7B5154F3B781BB371
:109A5800144E01203070FFF75FFF11284FF000050A
:109A68001CD00220FFF770FF0DF107008DF807509A
:109A7800FEF758FDFFF74EFF04469DF807003D70BE
:109A8800FEF774FD2CB93470FFF772FF0320FFF75F
:109A98005BFF204603B0F0BD0824FAE72C46F8E740
:109AA800E56B0020E46B0020054B1B7833B1054BB8
:109AB8001B780BB1FFF7C8BFFFF788BF08207047B6
:109AC800E46B0020E56B0020014B1878704700BF5D
:109AD800E56B002007B508496846FFF7D9F8019BF0
:109AE80013B903B05DF804FBD3E90020904768463A
:109AF800FFF7D8F8F3E700BF48DB0F00FFF7EABF2E
:109B080060DF704769DF704761DF704730B5114D1E
:109B1800ADF5017D4FF4FA740DF1020103A8ADF81B
:109B28000240FFF7F1FF70B9294601A8FFF7B0F826
:109B3800029B002BF0D003A8D3E90021904701A88D
:109B4800FFF7B0F8F4E7052801D000F04EFA0DF55C
:109B5800017D30BD60DB0F00024B1B780BB1FFF7B6
:109B6800D5BF7047E76B002018B1034B0360002096
:109B780070470E20704700BF68590020F0B50746AF
:109B880085B00D4600295DD02F4B0B600C220021BB
:109B980001A803F0DDFE012606232A68ADF8083087
:109BA80001A920208DF804708DF80660FFF7AAFF40
:109BB8000C22002101A803F0CBFE00242A688DF8AE
:109BC800056001A94020ADF80640FFF79BFF0C2275
:109BD800214601A803F0BCFEF7232A68ADF8063039
:109BE80001A923208DF80470FFF78CFF0C22214671
:109BF80001A803F0ADFE2A688DF8046001A930467B
:109C0800FFF780FF0C22214601A803F0A1FE4FF4C4
:109C1800B0632A68019301A9A120FFF773FF0C2202
:109C2800214601A803F094FE9DF804302A6864F3E5
:109C3800000301A9A0208DF80430FFF763FF204638
:109C480005B0F0BD0E20FBE76859002008B5FFF706
:109C580057FF10B9014B01221A7008BDE76B0020AD
:109C68004BDF70471FB50D4C01A8FFF7F9FF70B91E
:109C7800214602A8FFF70CF8039B002BF4D00198AB
:109C8800D3E90021904702A8FFF70CF8F4E705286C
:109C980001D000F0AAF904B010BD00BF6CDB0F00C2
:109CA800024AD2F80034002BFBD0704700E0014094
:109CB8000A4908B50223C1F80435BFF36F8FBFF313
:109CC8004F8FC1F80805FFF7EBFF0023C1F80435F3
:109CD800BFF36F8FBFF34F8F08BD00BF00E0014097
:109CE80010B5094C0123C4F80435BFF36F8FBFF3D7
:109CF8004F8F0160FFF7D4FF0023C4F80435BFF38A
:109D08006F8FBFF34F8F10BD00E001400E4B10B5B1
:109D18000124C3F80445BFF36F8FBFF34F8F01EBE6
:109D28008204401AA14208D1074B0022C3F8042537
:109D3800BFF36F8FBFF34F8F10BD431851F8042B3B
:109D48001A60FFF7ADFFEDE700E0014028B139B137
:109D58000023C1E900301846704748F21050704798
:109D680048F21350704738B1006848F240538842AF
:109D780014BF18460020704748F21050704730B1A1
:109D880048F21153914214BF18460020704748F218
:109D98001050704770B506460C461D46FFF7D6FFB3
:109DA80050B9B3794AB1AB420AD111462046FFF700
:109DB80034FC08B9044B236070BD48F21050FBE72F
:109DC80048F21150F8E700BF7052464D2DE9F047B0
:109DD8000C46054611492046DDE9088916461F4606
:109DE800FFF7C1FFA8B963685A794946520040464F
:109DF800FFF7C5FF68B956B16DB1CDF820803B4675
:109E0800324621462846BDE8F047FFF715BC48F220
:109E18001050BDE8F08748F21550FAE77052464DE9
:109E280010B5044638B149B10B684160984708B984
:109E3800044B236010BD48F20150FBE748F2105074
:109E4800F8E700BF6E524648F0B4134648B10768B9
:109E5800094EB7420AD161B12AB14368F0BC5B68C8
:109E6800184748F201531846F0BC704748F20253AD
:109E7800F9E748F21053F6E76E524648F0B460B17D
:109E880007680C4EB7420CD171B143681568DC689D
:109E9800A5420CD3F0BC9B68184748F20150F0BCAF
:109EA800704748F20250FAE748F21350F7E748F2D1
:109EB8001450F4E76E524648F7B50446DDE90867E2
:109EC80015460193FFF7ACFF68B9019A2946204669
:109ED800FFF7BAFF38B93A463146204603B0BDE825
:109EE800F040FFF7CBBF03B0F0BD0000F8B50A4F54
:109EF8000A4C0B4DE41B0121E40829700026A642F8
:109F080003D102232B700020F8BD57F8363098474C
:109F18000028F9D10136F2E720DA0F0028DA0F001D
:109F2800E86B002001390144814200D27047037870
:109F38000A7800F8012B01F80139F5E7013A0244E3
:109F48000139824200D2704711F8013F02F8013905
:109F5800F7E770B516460D46FFF7F0FF3246A91928
:109F68003044BDE87040FFF7E9BF38B50D460446F8
:109F7800FFF7D8FF29466019BDE83840FFF7D2BF80
:109F8800BFF34F8F0549064BCA6802F4E0621343DA
:109F9800CB60BFF34F8F00BFFDE700BF00ED00E0CF
:109FA8000400FA0508B507281BD8DFE800F00412FA
:109FB8001A1A1A041A040120FFF78BFC0020FFF775
:109FC80051FC0120FFF74EFCBDE808400220FFF7D6
:109FD8005DBC0120FFF75AFCBDE808400220FFF7EE
:109FE80041BC08BD08B5FFF7CBFF08B5FFF7C8FFB0
:109FF80008B500F025FC002210464FF4805100F00F
:10A00800B3F9024608B1FFF7BBFF0548C0F57E214A
:10A0180000F0AAF90028F6D1024800F0CDF8F2E7DE
:10A0280000800F00AD9F0F0038B1054B0360054B52
:10A03800436001230372002070470E20704700BF61
:10A0480077A00F0051A00F0069B10B78022B0CD13B
:10A05800022804D0032814BF0820112070470323C6
:10A068000B70002070470E2070470820704710B50D
:10A078000C4681B10B78012B06D00ED9033B012B7E
:10A0880094BF0820112010BD01F070FC0028FAD1FF
:10A0980002232370F7E70E20F5E70820F3E7000016
:10A0A80070B5144B144A0C21D21AB2FBF1F2816933
:10A0B80011F8025C044635B900690021914205D1C6
:10A0C800012323600EE04FF0FF30F6E71E68AE4232
:10A0D8000CD1461C07D19D68D4E90001D4E90223BC
:10A0E800A847206070BD5E688642F4D001310C3309
:10A0F800E4E700BF30DA0F003CDA0F001EF0040F6F
:10A108000CBFEFF30880EFF30980FFF7C9BF00BF6A
:10A11800007800F00100704741DF7047014B0122D1
:10A128001A7070470C700020BFF34F8F0549064B1B
:10A13800CA6802F4E0621343CB60BFF34F8F00BFDD
:10A14800FDE700BF00ED00E00400FA05024B0348FC
:10A1580000221A7001F0E4BB0C70002031A10F003E
:10A16800042810B5044609D8022811D816D00D4B7A
:10A178001B68B3B12046BDE810401847831F012B68
:10A18800F5D8094B094800221A7001F0C9FBEEE71F
:10A1980007494FF4701000F02DFAE8E701F008FBCA
:10A1A800E5E710BD107000200C70002031A10F00F1
:10A1B80055A10F000020704738B5554B554A186017
:10A1C8004FF0A0430020C3F8642701F0BFFB04460A
:10A1D800002840F0988000F0DDFA012800F08E8019
:10A1E800022800F09280002840F08D804FF08043D4
:10A1F800D3F8004414F4803435D04FF48032C3F8D7
:10A2080000240446444D2B6A012B3FD04FF47014B0
:10A2180000F056FB414A20211820FEF7C9F808B182
:10A22800FFF7E3FE3E4B1A6802F0F802B02A06D1A7
:10A238001A68D20742BF1A6802F04E021A60FFF786
:10A24800B9FF00285FD12046364900F0D3F93648D7
:10A2580000F064FC002856D100F058FBFEF732F9F4
:10A26800FFF75AFFF8E7D3F8202502F0F802A82AEA
:10A278000AD1D3F82025D00706D5D3F8202502F037
:10A288005602C3F82025BDE70124BBE743F20403C7
:10A298001A68264B9A4209D001F0F4FBAA690146D4
:10A2A80094B1234801F0E6FE90B9AFE76A6B1CB998
:10A2B80095F86032012BEFD01E484FF4805101F021
:10A2C800D9FE0028E8D1A1E795F8A132012BE8D101
:10A2D8004FF0A043D3F81035990197D5104B1B6860
:10A2E80013F0B10F92D101F079FB60B9124B1870DD
:10A2F800124801F015FB00F025F804E00E4B104859
:10A308001C7001F00DFB032038BD4FF4A0247FE73B
:10A31800107000200C000300E0870020EC6B002088
:10A328001C05004055A10F0069A10F00DBE5B151E4
:10A33800818A0020408A00200C70002025A10F008F
:10A3480031A10F0008B5074B4FF0FF32C3F880204A
:10A35800C3F8802101F050F8BDE808404FF4805060
:10A3680000F03EB800E100E0F0B50646C1F30B008E
:10A3780078BBB6F57F2F2CD8174CDFF860C0236860
:10A38800002A14BF062702270246072B05D902B167
:10A3980023600420F0BD0122F7E71D0105F180428A
:10A3A80002F5F0326544C2F80068C2F80418C5F82E
:10A3B8000878D2F800E8764503F10103EBD1D2F82A
:10A3C80004289142E7D1D5F808289742E3D12360C1
:10A3D800E0E70720DEE700BF1470002000E001403E
:10A3E80010B5044617480022C0F57F21FFF7BCFFCF
:10A3F80008B1FFF7FAFD01F045FB134B9B6903F623
:10A40800FF7323F47F6323F00F030022191810460B
:10A41800FFF7AAFF08B1FFF7E8FDEFF30583002374
:10A42800D4E9001283F3148883F3108883F3118826
:10A4380083F3138881F308884FF0FF339E46104753
:10A4480010BD00BF00800F00E087002037B56FF017
:10A458007F42154C057BD4F804358A4228BF0A464A
:10A46800891A13444A1E942A23F07F4305F5A872DB
:10A478009BBF963B96314160416044F822300B4BBC
:10A488004FF4F86043F001039847094BAA001344BE
:10A4980000221A601B680193019B4FF48033AB4084
:10A4A800C4F8043303B030BD00400240C0DB0F00E5
:10A4B8004041024018490A7884B0002A29D14FF057
:10A4C8008043A020D3F81834DB035EBF134B01226E
:10A4D8001A60134A0023136012680392039A114A00
:10A4E800136012680292029A0F4A1360126801926E
:10A4F800019A0E4A82F82403102050600C4A0D4835
:10A50800C2F808350123036002201360C2F804036F
:10A518000B7004B0704700BF1C700020080000409A
:10A5280000410240404102404441024000E100E055
:10A538000040024008400240284B1A6813B542B157
:10A5480027490A6801320A6000221A601B680093D2
:10A55800009B244B1A68A2B100221A6022481B688B
:10A56800027B0193019B4FF4803393401F4AC2F84A
:10A5780008334168044601BB8168D9B9236803B12F
:10A5880098471B4B1A6832B300221A6016481B689A
:10A59800027F0193019B4FF480339340134AC2F822
:10A5A80008334169044659B1103002B0BDE8104083
:10A5B800FFF74CBFFFF74AFFE0E7FFF747FFE0E789
:10A5C800816911B11030FFF741FF23691BB102B057
:10A5D800BDE81040184702B010BD00BF044102405A
:10A5E80018700020404102407C5900200040024081
:10A5F8004441024070B50B4B1D682A7B4FF48033F1
:10A608009340094A0E46C2F80833044640B1FFF7A2
:10A6180051FF2E6021462846BDE87040FFF716BF5F
:10A6280070BD00BF9C5900200040024070B5074B28
:10A638001D6804460E46A860FFF73CFF2E602146C1
:10A648002846BDE87040FFF701BF00BFA0590020B1
:10A65800014B01221A7070471D70002038B50F4B4E
:10A66800DA6A5D6A9C6CAC2A10D15B6B1C44ED1AEB
:10A678000B482A46214603F00FF968B100F046F965
:10A6880029462046BDE8384000F098BE002CEFD19E
:10A6980001F00EFA0446EBE738BD00BFE087002062
:10A6A80000800F002DE9F74F06468846A8EB0605FF
:10A6B8002D0B02F6FF77144600F002F9082D28BF8B
:10A6C80008252B03DFF868B001933F0B0CB923462C
:10A6D80029E0BD422CBFBA46AA464FF000025146B7
:10A6E800304634BFDDF80490A14600F04FFE034623
:10A6F800C8B909F1030222F003024146304600F0CE
:10A7080037FE034678B9DBF830304B44CBF83030AD
:10A7180001F00CF9A7EB0A07A4EB09044E44C8445E
:10A7280003460028D2D0184603B0BDE8F08F00BF1A
:10A73800E087002010B501F0CBF9154A42F2040376
:10A74800916CCC5803F1A34303F5471303F2D75395
:10A758009C4218D1D2E90C32934216D0884204D1D7
:10A76800BDE81040002001F0E1B8D21A02F6FF72ED
:10A7780022F47F6222F00F0219441844FFF792FF77
:10A788000028EDD010BD0320FCE70020FAE700BF49
:10A79800E087002070B5264CE36AAA2B37D005D88D
:10A7A800012B0BD0A52B2ED0002070BDAC2BFBD1DC
:10A7B800FFF7C0FF48BBFFF751FF26E0A66C656AAC
:10A7C80001F060F9864229D101F05CF9002229469E
:10A7D800FDF7E2FEA36A984202BF0123C4E907031A
:10A7E800A5610025134801F041F9134B13480022D5
:10A7F8001A7001F09BF868B975B1236A012B14BF70
:10A8080001200220D1E7FFF795FF0125EAE7FFF7CE
:10A8180025FFE6E70320C8E70120C6E7236BEA1A0D
:10A82800F1181844FFF73EFF0028DAD1CCE700BF43
:10A83800E0870020048800201D70002059A60F0022
:10A8480040F6F87008B50368013302D10749FFF7ED
:10A8580047FA40F6FC700368013305D1BDE80840AB
:10A868004FF47E21FFF73CBA08BD00BF00800F00FF
:10A878000A4AD2F800347BB109480023D2F80815F7
:10A88800D940C90748BF03F5C07103F1010348BFA8
:10A8980042F82100072BF1D1704700BF00000140AA
:10A8A8003546526EFFF7E4BF044B002282B01A60AF
:10A8B8001B680193019B02B0704700BF0001014073
:10A8C80038B50E4C2278BAB90D4BD3F800248AB1AA
:10A8D800D3F80455FFF7CCFF40F61650A842B8BF8E
:10A8E80028460849A0F54860FFF7A0FE064B4FF43C
:10A8F80080321A600123237038BD00BF1E7000200B
:10A9080000000140ADA80F0000E100E0034BD3F8C0
:10A9180000340BB1FFF7ACBF704700BF0000014027
:10A92800054B1B68082B01BF044B1868B0FA80F070
:10A93800400918BF00207047300100103401001092
:10A9480008B54FF080430022C3F80C21C3F810214A
:10A95800C3F838254FF0805203F54043D2F8041469
:10A96800C3F82015D2F80814C3F82415D2F80C142B
:10A97800C3F82815D2F81014C3F82C15D2F81414FB
:10A98800C3F83015D2F81814C3F83415D2F81C14CB
:10A99800C3F84015D2F82014C3F84415D2F824148B
:10A9A800C3F84815D2F82814C3F84C15D2F82C145B
:10A9B800C3F85015D2F83014C3F85415D2F834142B
:10A9C800C3F86015D2F83814C3F86415D2F83C14EB
:10A9D800C3F86815D2F84014C3F86C15D2F84424AB
:10A9E800C3F87025FFF79CFF10B1384B384A1A603E
:10A9F800FFF796FF18B1374BFB22C3F81825FFF76E
:10AA08008FFF48B13449354B0A681B6822F00F02A2
:10AA180003F00F0313430B60FFF782FF18B1304BAD
:10AA28004FF400721A604FF08043D3F80024D20725
:10AA380044BF6FF00102C3F800242A4AD2F88830D4
:10AA480043F47003C2F88830BFF34F8FBFF36F8FA2
:10AA58004FF01023D3F80022002A03DBD3F8043286
:10AA6800002B2FDA204B0122C3F80425D3F8002449
:10AA7800002AFBD04FF010221221C2F80012D3F89E
:10AA88000024002AFBD04FF010231222C3F804221E
:10AA9800154B1A46D3F800140029FBD00021C3F83F
:10AAA8000415D2F80034002BFBD0BFF34F8F0D49AB
:10AAB8000E4BCA6802F4E0621343CB60BFF34F8FBA
:10AAC80000BFFDE70A4B0B4A1A6008BD8C560040D0
:10AAD8004881030000F00040E40E004058020010D6
:10AAE8004096024000ED00E000E001400400FA0555
:10AAF800A45900200090D003831F012B10B50446F1
:10AB080002D8002000F09AFF034B1B681BB12046B7
:10AB1800BDE81040184710BD2070002008B5074B4D
:10AB280018600020FFF7E8FF054800F06FFF20B924
:10AB3800BDE80840024800F0EFBD08BD20700020C5
:10AB480001AB0F006CDF70476DDF704772DF704735
:10AB580073DF704774DF704775DF704776DF7047C3
:10AB68007ADF70477CDF70477DDF70477FDF704793
:10AB780086DF70478FDF704790DF7047A8DF704728
:10AB8800AADF7047ADDF7047AEDF7047B0DF7047B0
:10AB9800B1DF7047B5DF704762DF704766DF704727
:10ABA80013DF70477FB50023CDF80B308DF80F30D9
:10ABB8000A4BADF806109B89ADF8083001238DF8D3
:10ABC8000A300DF10603CDE90430054B02A91888B7
:10ABD800FFF7DAFF07B05DF804FB00BF8E800020A6
:10ABE800AA59002001460148FDF700BE3CDA0F00D3
:10ABF80070B518228CB000210DEB020002F0A8FEFF
:10AC08002823089316231E4CADF806300023CDE9FF
:10AC1800033305930223092606222370237159233F
:10AC28000125A27063710322FE230DF10601A0190C
:10AC38008DF818508DF82D500294ADF80C606570A1
:10AC4800E270A371FFF790FFB8B9BDF8063026721D
:10AC58005A19E271BDF80C200A4C134402A906AA3D
:10AC68002046ADF80C30FFF771FF30B92078FFF7B8
:10AC780071FF20782946FFF76BFF0CB070BD00BF4D
:10AC8800A2800020A85900202DE9F0410388232B39
:10AC98008AB0044636D80F2B05D8012B00F0F28075
:10ACA8000AB0BDE8F081103B132BF9D801A252F885
:10ACB80023F000BF3DAD0F0059AD0F00A9AC0F0048
:10ACC80029AE0F0089AF0F00A9AC0F00A9AC0F0087
:10ACD800A9AC0F00A9AC0F00A9AC0F0097AF0F00EB
:10ACE800A9AC0F00A9AC0F00A9AC0F00A9AC0F00CC
:10ACF8005BAE0F00A9AC0F0069AE0F00A9AC0F0046
:10AD080019AE0F00503B9AB2062AC9D8062BC7D8ED
:10AD180001A252F823F000BF81AD0F0099AE0F00D9
:10AD280097AF0F00A9AC0F00A9AC0F00D9AD0F0069
:10AD380079AE0F00994B82881A80994A12681C468E
:10AD48000AB10120904797492088FFF705FFA7E738
:10AD5800924B4FF6FF721A80934B1B685A0704D424
:10AD6800FFF746FF08B1FFF740F98D4B1B68002B32
:10AD780096D00220984793E78C4EE288B3889A428F
:10AD88008ED18B48FDF70EFD0546002888D0228A13
:10AD980004F1120102F0B3FD1822002104A802F008
:10ADA800D7FD08238DF81030824B0693824B059609
:10ADB800CDE9073504A8238AADF8243000F0A2FCB9
:10ADC80000283FF46DAF7A482946FDF70FFD67E785
:10ADD800E188F6291AD8CB1E9B070DD0CB1F9BB252
:10ADE800013B5A4202F0030203F0030301F1FF3171
:10ADF80058BF5342C91A89B2684B1888FFF7CAFE70
:10AE080000283FF44DAFFFF7F0F849E7F721F3E7E3
:10AE1800002204A98088CDE90422FFF7ADFEEFE700
:10AE280000235E4CADF812300223ADF810302088B4
:10AE380002AB04AA42F605210593FFF7A3FE08B169
:10AE4800FFF7D3F8002320881A468521FFF78EFEE6
:10AE5800D6E7524B00F108011888FFF77DFECFE7CF
:10AE6800002304A98088ADF81030FFF783FEC7E7F8
:10AE7800A379002B7FF414AF484B13211888FFF7F0
:10AE88006DFEBDE7454B00211888FFF787FEB7E741
:10AE9800A379002B3FF404AF022B7FF401AF4349A1
:10AEA80020898A8990420E467FF4FAAEA27B012A55
:10AEB8007FF4F6AE00220120CDE904228DF81600B9
:10AEC800208A364DADF81800608AADF81A0004F1F2
:10AED80014000790ADF80A20098A28888DF81030E8
:10AEE80001AF02AAADF808300397FFF74BFEA8465A
:10AEF80060B93846FFF70CF940B940F2FD132888CD
:10AF0800ADF8143004A9FFF741FEC9E6002304A9EF
:10AF1800B8F80000ADF81430FFF738FE01460028F5
:10AF28007FF4BEAE182204A802F012FD237D214A48
:10AF38008DF81030022B0596069218D0062B10D0EB
:10AF4800012B10D11D4B1A881D4B1A80637DD4F834
:10AF580016200893012B099205D11A4800F06EFDBE
:10AF680001E0637D089304A800F0CCFB98E6A27D7D
:10AF7800637D43EA0223114A1380114A1380F2E7E2
:10AF880000231A4619468088FFF7F2FD38E70023A8
:10AF9800A0881A461946FFF7FBFD31E7AA59002099
:10AFA800C8800020A6DD0F00C48000208E8000200D
:10AFB8003CDA0F003DB00F00EDAB0F00CC80002055
:10AFC800CE80002028DA0F00154938B50B680246F4
:10AFD80013F0010022D0134882421ED0124A108872
:10AFE8004FF6FF72904213D043F004030B60132115
:10AFF800FFF7B4FD90B90D4DC82445F001054FF495
:10B008007A40A847013CFAD1BDE83840FEF71CBD9C
:10B01800074B1878FFF79EFDF6E7002038BD00BF04
:10B02800C480002028DA0F00AA590020A0DD0F00F4
:10B03800A859002010B5044686B000210D2202A8A8
:10B04800019102F085FC2378082B0BD1364A374949
:10B0580013880988013B9BB21380D9B1D3B9032364
:10B0680011802370627823788DF805306021012AD9
:10B078008DF804108DF806200ED00B2A12D100F09E
:10B0880093F98DF80700002000F088F9042101A841
:10B09800FFF788FD06B010BD062B05D0082B29D078
:10B0A800032B27D00321F2E7E1688DF80710D4E9D4
:10B0B8000123080A8DF80800080C090E8DF80A10FB
:10B0C800110A8DF80B208DF80C10110C120E8DF84A
:10B0D8000E201A0A8DF80F308DF810201A0C1B0E4E
:10B0E8008DF80D108DF809008DF811208DF81230AB
:10B0F8000F21CCE7D4E90123110A8DF807208DF838
:10B108000810110C120E8DF80A201A0A8DF80B304F
:10B118008DF80C201A0C1B0E8DF809108DF80D20D7
:10B128008DF80E300B21B2E7CE800020CC800020B5
:10B138002DE9F043444B95B005464FF6FF721A804F
:10B1480001204FF659632A4602A98DF80A00ADF886
:10B158000830FFF713FD0446002871D13B4B04AAC1
:10B1680003F11007164618685968144603C40833D3
:10B17800BB422246F7D1A91C3046FFF70DFD044615
:10B1880000285DD101461C220DA802F0E1FB9DF8C4
:10B198003430ADF8044043F004038DF83430022312
:10B1A800ADF80C30AB788DF80E3004F0F80343F0AE
:10B1B80003038DF80630F423CDE90A44ADF82C30AA
:10B1C8002B4601AE33F8040B0C944FF0110903AF72
:10B1D80008AA0DA9CDE908768DF80590FFF7D0FCEF
:10B1E800A046044660BB01461C220DA802F0B0FB35
:10B1F8009DF83430ADF8044023F0180343F01803E9
:10B208008DF834300123ADF80C30AB788DF80E3062
:10B218001723CDE90A44ADF82C302B4608F0E8088E
:10B2280033F80C0B0C9448F0130808AA0DA9CDE9C3
:10B2380008768DF805908DF80680FFF7A1FC044686
:10B24800204615B0BDE8F083AA59002084DD0F0020
:10B2580030B5334C236813F0010585B05DD1314B0F
:10B2680018603148FDF787FA029500F0B8F8002811
:10B278004CD12E48FFF794FC002847D1FEF7A6FBD7
:10B28800002843D102A8FEF76FFC00283ED102A98E
:10B298000120FEF773FC002838D102A8FEF7D6FC7F
:10B2A800002833D100F08AFB30B1214800F07AFB46
:10B2B800236843F002032360112302A88DF80430A9
:10B2C800FFF742FC10BB9DF8093002A801338DF846
:10B2D8000930FFF737FCC8B923689B0718D514490C
:10B2E8008869043182B201A8FFF73CFC70B91148A3
:10B2F800FFF736FC50B91048FFF71AFF30B9FFF7CF
:10B3080077FC18B9236843F00103236005B030BD0A
:10B318000A4802F050FB0949E4E70020F6E700BFBD
:10B32800C4800020C88000203CDA0F0000800F0095
:10B3380024700020A6DD0F008E8000207CDD0F0029
:10B3480043690BB1C06818477047000010B405493D
:10B35800054C0022904218BF214604485DF8044B72
:10B36800FDF75EBAA0DA0F00CCDA0F0068590020AA
:10B3780007B5009313460A4601460348FDF754FAF9
:10B3880003B05DF804FB00BF6859002013460A4665
:10B3980001460148FDF74FBA68590020014B187063
:10B3A8000B207047D0800020024B002218781A70BA
:10B3B800704700BFD080002018DF704730B585B0D7
:10B3C800054610220C466846002102F0C1FAA4087E
:10B3D800684601950294FFF7EFFF05B030BD1FB531
:10B3E8000023CDE901330393684602230093FFF756
:10B3F800E3FF05B05DF804FB4FF000534FF48052B3
:10B408001A60002070470000014B06201B6818478F
:10B41800DC8000200A2803D90B38C0B2FFF7BEBF72
:10B428007047000010B5044686B00020FDF70AFA00
:10B43800014630B1164A18212046FCF7DDFF06B058
:10B4480010BD1822684602F083FA0423114A8DF8C9
:10B458000030114B116D1B68994211D10F4B1868C0
:10B4680000F068FF8DF80100FFF7D4FFD4E901135D
:10B478008DF8010068469847094800F057FADEE75A
:10B4880001238DF801306846D4E901139847D6E7BF
:10B498002DB40F00E0870020D4800020D880002041
:10B4A80011B40F00F0B5044687B018220021684691
:10B4B80002F04EFA22788DF8002001238DF8013031
:10B4C800531E0B2B00F21281DFE813F01D00100051
:10B4D8001D001D0010011D0010011D0010011001AC
:10B4E80010010C00824B07201B689847D4E9011310
:10B4F800684698479DF80130012B00F0EC807C4BA2
:10B5080005201B68E6E0062A7A4901D0012A01D104
:10B5180022690A700A78012A04D0022A53D000232B
:10B528000B7093E0072BE1D801A252F823F000BF7B
:10B5380059B50F00F5B40F00C3B50F0097B50F004C
:10B54800F5B40F00BDB50F00F5B40F0071B50F00CD
:10B55800674B03201B689847606900F0D9FCFFF728
:10B5680059FF8DF80100C1E7A18A206900F0E8FCC5
:10B57800FFF750FF604B8DF80100DA6B1B6C0293EC
:10B58800E3680192002BB1D020699847AEE75B4988
:10B598005B4800F023FDFFF73DFF01288DF801000F
:10B5A800A4D1002000F0C2F900289FD00A238DF80A
:10B5B80001309BE74FF4007303934F4BDA6B1B6C1E
:10B5C8000192029392E7072B90D801A252F823F038
:10B5D800F9B50F00F5B40F00AFB60F00B9B60F00FC
:10B5E800F5B40F00E3B60F00F5B40F0059B60F001D
:10B5F80000F0C6FC08B90823D9E762690AB9032331
:10B60800D5E7C2F30B0333B13B4B3C495B6D09688B
:10B6180013448B42F3D1B2F5805F01D90423C6E706
:10B62800354B3649586D096815188D42E3D85A6468
:10B63800DA6C9A6418651863314B1B680022012183
:10B648001844FFF7A3FE00283FF450AF0523AEE7E8
:10B6580000F096FC0028CED0274DA18AD5E91432F7
:10B668009B1A6A6C0B449342C9D8254B2F6B1B68F5
:10B67800206905F148021F44FCF78EFFE368A28A9F
:10B68800216906463846FFF773FE08B1E3687BE791
:10B69800A38A2A6BAE641A442A632A6D029613445D
:10B6A8002B65019322E7144B9A6C02921B6DF8E705
:10B6B800114BD3E91402596C821A8A429BD19A6CB5
:10B6C8005865002120465964DA64FFF7ABFE084B41
:10B6D8001B680420984707B0F0BD074B9A6C1B6D98
:10B6E80001934FF4805302920393FFE602235EE72F
:10B6F800DC800020AC590020E0870020D4800020A6
:10B70800D880002083681BB1024A1821FCF774BE58
:10B7180007207047ADB40F0038B50546C0B1012009
:10B72800FFF714FE044648B900F0E4FB00F028FCDB
:10B7380030B9084B00201D60FFF730FE204638BDA9
:10B748000549064800F04AFC0128F2D00324F5E731
:10B758000724F3E7DC800020D4800020D880002074
:10B768002DE9F04115464FF46072064688461F469B
:10B7780002F092F828B915B90020BDE8F081A84771
:10B78800FAE7002201213046FFF700FE70B94FF4B6
:10B7980060724146384602F0B2F82B464FF46072A8
:10B7A80039463046FFF7E4FD0028E5D00320E4E7FA
:10B7B8002DE9F0413D4C236801335CD0002258212B
:10B7C800201DFCF7E9FED4F80080A8EB0002D2F1B6
:10B7D800000848EB0208364D364E2F683B680133A7
:10B7E8005ED000225821381DFCF7D6FE3B68834204
:10B7F80044D17C68012C0AD00022C32107F51870B7
:10B80800FCF7CAFED7F85C42231A5C425C41B8F1E7
:10B81800000F35D0254927484FF4607202F06FF8C1
:10B8280064B1296824485422043102F068F8296870
:10B8380022484FF432725C3102F061F87468012CCE
:10B848002CD11F49402201F5E47002F058F81D4937
:10B858001C2201F5E47002F052F81B4986F8A14257
:10B868000023042201F2862086F8603286F8E2324C
:10B8780002F045F810E04FF00008ACE70024C6E7F6
:10B8880024B129680B484FF46072D5E709484FF492
:10B898006072002102F05CF802237360BDE8F08159
:10B8A800B8F1000FF2D00024B4E700BF00F00F0099
:10B8B800B0590020E0870020E48700203C88002061
:10B8C8003C8900207C890020FC87002070B50C4C46
:10B8D800054600225821201DFCF75EFE002220604C
:10B8E800C32104F51870FCF757FE2A46C4F85C0219
:10B8F8002146044B0448BDE87040FFF731BF00BF44
:10B90800E0870020E080002000F00F000246024897
:10B91800024B0068FFF724BFB05900206084002064
:10B928000149FFF7F3BF00BF00F00F0038B5054627
:10B938000020FFF7CBFF044618B903492846FFF754
:10B94800E5FF204638BD00BFE087002010B5FFF7AF
:10B95800FDFC044628B9FFF72BFF2046FFF7E6FF5A
:10B9680000B1032010BD29DF7047000038B50C4D29
:10B978000446D5F8643378B101330FD10022182179
:10B988000430FCF709FE21462060072205F55970AE
:10B99800BDE83840FFF7E7BF0E2038BD0820FCE7B8
:10B9A80000F00F0008B528B103491C2201F0A7FFD9
:10B9B800002008BD0E20FCE764F30F0010B5064C0C
:10B9C800002218212046FCF7E7FD54F8043C1B1A16
:10B9D8005842584110BD00BF68F30F0010B50A4C1B
:10B9E800D4F82433D4F864231340013309D04FF436
:10B9F8007F20FEF75DF9C92221464FF47F20FEF72C
:10BA080085F9002010BD00BFE0870020F8B5094E79
:10BA1800094CA41B0746E4080025A54201D10020D3
:10BA2800F8BD56F83530384698470028F8D1013522
:10BA3800F3E700BF28DA0F0030DA0F00F8B5094E37
:10BA4800094CA41B0746E40800250436A54201D189
:10BA58000020F8BD56F83530384698470028F8D108
:10BA68000135F3E728DA0F0030DA0F0008B50C22A9
:10BA7800002101F06DFF024B00221A6308BD00BFD0
:10BA8800E087002043F204031A68084B9A4201BF7A
:10BA980043F20803186800F6FF7020F47F600CBFBB
:10BAA80020F00F004FF48050704700BFDBE5B15124
:10BAB80008B5FFF7E7FF054B9B69184400F6FF70D0
:10BAC80020F47F6020F00F0008BD00BFE087002051
:10BAD8004FF48050704700002DE9F74F0193244B35
:10BAE800DFF894B01B6ADFF8949000930546164679
:10BAF8004FF0000843F2040AB8F1010F5FFA88F723
:10BB080014D0022F1FD0FFF7D3FF6EB1009B013B6B
:10BB18005C425C41A9EB0000A84200D3F9B1B4B182
:10BB2800A8421CD204201FE03446F3E7FFF7AAFF1F
:10BB3800019B33B9DAF80040B4EB0B0418BF0124B9
:10BB4800E8E74446E6E701244FF48050E2E708F1CD
:10BB58000108B8F1030FCFD1A842E3D300E017B131
:10BB68000448FFF783FF002003B0BDE8F08F00BF53
:10BB7800E0870020F8870020DBE5B15100500F0076
:10BB880090F8552012F0FB0F07D190F8643023B1DC
:10BB9800836ECBB10B600120704712F0010303D014
:10BBA80090F8563003B1836D9207F2D590F85C2077
:10BBB800002AEED0054A006EC2F57E22904201D8D6
:10BBC8000344E6E7042070470F20704700800F0009
:10BBD80010B5084C4FF40072FF21204601F0B8FE62
:10BBE80020220021A4F1240001F0B2FE002344F831
:10BBF8002C3C10BD3C8800205B68DA680D4B9A42EB
:10BC080030B508D10C490A6812B90C4A14681CB13D
:10BC18000B4B00221A7030BDD0E90134181913F902
:10BC2800015B002DA0EB0304F9DB0B601460044BEF
:10BC38000122EFE758DC0F00888B0020848B00205E
:10BC48008C8B002043F2040310B519491C688C4200
:10BC580002462BD042F20403C358581A43424341C8
:10BC68008C42184621D142F20403D358A3421CD176
:10BC78004FF4405302F500511B780978142B81BF0B
:10BC880043F214030B481B68B3FBF0F398BF00237F
:10BC9800142989BF42F2140100205058054A88BF70
:10BCA800B0FBF2F0181A18BF012010BD0023D7E727
:10BCB800DBE5B15140420F002DE9FF472F49304DD8
:10BCC8008A6B304C304FDFF8D490DFF8D4A06E4642
:10BCD8005C313046FDF774F996E80F0085E80F00EF
:10BCE80000212A4B39704FF447722046C9F80010DA
:10BCF800CAF80010EB6001F02BFE254922462846C1
:10BD0800FDF7F9FB20B90027384604B0BDE8F087F5
:10BD18003F78002FF7D094F86C3194F800801BB36B
:10BD2800B8F1000FEFD194F87231002BEBD0DAF8AC
:10BD38000020D9F800103046FDF742F996E80F00C8
:10BD480085E80F004FF4B272414604F5BA7001F06D
:10BD5800FFFD104904F5BA722846FDF7CCFB002810
:10BD6800D1D004F5BA7406E0B8F1000FCBD0A379AE
:10BD7800002BC8D00834084B1C60C5E7E0870020BA
:10BD8800AC8E0020908B00208C8B002001BC0F0013
:10BD98000CDD0F0058DC0F00688F0020888B002016
:10BDA800848B002000B591B0FEF7A0F868460849DA
:10BDB8002022FEF7CEF86A46064907484023FDF7D9
:10BDC800E9FF064B01221A7011B05DF804FB00BFB1
:10BDD80078DB0F00BC8E002010DB0F00608B00208A
:10BDE8002DE9F041CCB003AE80460D461446002143
:10BDF8007C221F4604A82023336001F0A9FDA42259
:10BE0800002123A801F0A4FD1A4B1B780BB9FFF7FA
:10BE1800C9FF4DB3B8F1000F28D1DFF86880529BF5
:10BE280015490196CDF800803A4604A8FEF744F873
:10BE3800F0B9402C1CD1114F22462946384601F052
:10BE48005EFD20213846FEF790F8CDE900740C49D4
:10BE58003368424623A8FDF7B9FF00280CBF01202C
:10BE680005204CB0BDE8F0811320FAE71620F8E76A
:10BE78000A20F6E7608B00201CDB0F00248F0020CF
:10BE8800BC8E0020048F0020F0B5ABB004460D46F0
:10BE980016461F467C22202300210BA8029301F09E
:10BEA80057FD114B1B780BB9FFF77CFF2FB12146CB
:10BEB800202203A8FEF742F803AC02AB0B4F019314
:10BEC8000B49009733462A460BA8FDF7F5FF48B9FA
:10BED80020222146384601F0DFFCB0FA80F0400904
:10BEE8002BB0F0BD0020FBE7608B0020618B0020A9
:10BEF8001CDB0F0008B5044B986B08B1FFF7DCFE9C
:10BF0800024B187008BD00BFE0870020648F002036
:10BF180010B5044658B1B0F5007F0AD8064B002288
:10BF28001A70FFF755FE054B01209C6310BD0320D6
:10BF3800FCE70420FAE700BF648F0020E0870020B8
:10BF480070B50E4C0646E06BA36B42189A420D463C
:10BF580011D85C300A462044314601F0D0FCE36B2E
:10BF680004F140022B4429463046E363FCF714FBF6
:10BF78002064012070BD0320FCE700BFE08700209B
:10BF8800014B1878704700BF648F002013B5104C20
:10BF980094F86C21B2B194F8D802B4F8DA2204F516
:10BFA800377104F5B8740B4B1B6800930A4B1B6878
:10BFB800FFF716FF012809D1201D02B0BDE8104087
:10BFC80000F0BCB9114610460434ECE702B010BDCD
:10BFD800908B0020848B0020888B0020204BD3E995
:10BFE8000E329A422DE9F04106460D4633D1DFF86C
:10BFF800788098F800704FB1FFF75AFD194B306000
:10C0080029461868BDE8F041FFF7BABDFFF754FEAE
:10C0180018B3FFF7BBFF0128376004462F6017D11C
:10C02800104B29461868FFF7ABFD012804460FD1CD
:10C0380003463A4628683946FFF74EFD38B9FFF7F8
:10C0480037FD88F8004030602046BDE8F0810424C0
:10C05800FFF7BEFDF8E70824F6E70524F4E700BF7C
:10C06800E0870020688F0020648F00200123723051
:10C07800FFF70ABF13B50446084623781146032B79
:10C0880003D8DFE803F021050F18002002B010BD27
:10C098000022D4F80140FCF77FFA844214BF002044
:10C0A8000120F3E70A4600230146601C02B0BDE800
:10C0B8001040FFF7E9BE009103464022611C0020B2
:10C0C800FFF78EFE0128E9E70120DFE72DE9F041BF
:10C0D800A2B004460D46164600217C221F4603A83E
:10C0E800202302939DF8A08001F032FC4122002118
:10C0F800204601F02DFCB5F894300BB195F89680E8
:10C1080084F80080B8F1030F1ED8DFE808F00902B0
:10C11800111F002239463046FCF73EFAC4F80100E8
:10C128003A4631462046FFF7A5FF22B0BDE8F08128
:10C1380002AB0193631C009308493B46324603A8AF
:10C14800FDF7BAFE0028EBD00020EEE7B5F89820FE
:10C1580005F19A01601C01F0D2FBE1E71CDB0F003E
:10C168002DE9F0476D4B1D68A4B004460F46904674
:10C178000A4601462846FFF779FF002800F0CC80E0
:10C1880095F855601EBB4FF00109CDF800903B466D
:10C198002246294613A8FFF799FF00287FD0B8F157
:10C1A800000F6DD041225E4813A901F0A8FB5D4B3A
:10C1B8006A68C3F82C901E629A60002239462046AD
:10C1C800FCF7EAF9574B0125C3E909709FE04122C2
:10C1D800002102A801F0BCFB06F001094122002160
:10C1E80013A806F0020601F0B3FBB9F1000F4BD01B
:10C1F80042F20403E15803F1A34303F5471303F2A2
:10C20800D75399424BD1D5F858A00AF5FF520AF6F0
:10C21800FF73C3F30B031F32D21A42F20803E35829
:10C2280093423CD343F204031B688B4213D14FF46F
:10C2380040531B78102B8ABF43F2100300221A6860
:10C2480004F500531B78102B8ABF42F21003002319
:10C25800E3589A4223D12046FFF7F4FC00B1F6B127
:10C268000123009322465346294602A8FFF72EFFD2
:10C27800A8B1AB6DE218FB1A4EB9B8F1000F18D18E
:10C28800284B01255D6110E03B462246F4E700217A
:10C29800009113A82946FFF719FF0028EDD10525BD
:10C2A800B8F1000F30D1FFF793FC284624B0BDE861
:10C2B800F087DFF87080B9F1000F21D02046FFF732
:10C2C800C1FC18B108F11800FFF7D0FB164841224D
:10C2D80002A901F014FB002E14BFAC23A523C8F853
:10C2E8002C30AB6DC8F83430002E3FF466AF0F48E1
:10C2F800412213A901F003FB6B68C8F80C305CE716
:10C30800AA23C8F82C30EFE70948FFF7AFFBFFF77F
:10C318005FFC044B9C64C8E71725C1E7688F0020C1
:10C32800818A0020E0870020408A0020C28A0020FD
:10C33800048800200122FFF713BF000090F8542062
:10C34800F0B50346002A51D090F8550003284DD87F
:10C3580093F86E20032A47D11A7A002A46D0DA6861
:10C36800342A45D143F204011A8A0C6821498C42C7
:10C378002AD152B15969E9B1D2B2002103F11405A9
:10C3880043F20C06CCB2A24201D8122011E055F8B3
:10C3980021703488A74201F10101F3D11A78FAB16A
:10C3A80001285B68144A15D89068834234BF10206E
:10C3B8000120F0BD10B9012AE7D8EFE7421E18BFE7
:10C3C8000122002AEAD1E0E712B15A69002ADCD139
:10C3D8001A78F6E7D06883428CBF01201020E8E77E
:10C3E800012818BF0F20E4E71420E2E70F20E0E758
:10C3F8001120DEE7DBE5B151E087002030B10268AB
:10C40800034B04489A4208BF00207047024870470F
:10C41800DD55AABB8208F0007108F00038B50D465A
:10C428000446B0B1A0220021043000F041FD95B1CE
:10C438000822294604F1640000F040FD082205F1B5
:10C44800200104F1840000F039FD044B2360002032
:10C4580038BD0348FCE70348FAE700BFDD55AABB2F
:10C468007108F0008308F0002DE9F74305460E46F1
:10C4780099461146FFF7C2FF0446002840F0848021
:10C48800002E00F08580002900F08480B9F1200F8B
:10C4980040F0828005F14404082205F10408204692
:10C4A80000F00CFD05F1240708223146404600F053
:10C4B80005FD06F120010822384600F0FFFC02A91C
:10C4C8004FF4807041F8049D00F0A4FA002865D16B
:10C4D800334A4FF480731360012193600823314A73
:10C4E80000F046FB0121084605232F4A00F040FBD7
:10C4F8000823424601211C2000F03AFB08233A4653
:10C508000121032000F034FB2246082301210220E8
:10C5180000F02EFB0823254A01211A2000F028FBF1
:10C528000523234A01211B2000F022FB0823214A6E
:10C538000121142000F01CFB08231F4A01211520AB
:10C5480000F016FB082305F164020121162000F013
:10C558000FFB082305F184020121172000F008FBD6
:10C568000823164A01210B2000F002FB00F05CFBB7
:10C578000446019800F0EAFA114B002C18BF1C463B
:10C58800A421284600F096FC204603B0BDE8F083BD
:10C598000C4CF9E70C4CF7E70C4CF5E7084CEFE7C7
:10C5A80090B00250F0DD0F0068DE0F00B0DD0F0024
:10C5B80054DE0F0014DE0F0034DE0F00D0DD0F0054
:10C5C8008408F0007608F0008008F0008108F00088
:10C5D8002DE9F041069F044615461E46FFF71EFF4B
:10C5E80038B93B46324629462046BDE8F041FFF7B8
:10C5F8003BBFBDE8F08100000C4BC2691A6082693C
:10C6080043F8042C426943F8082C026943F80C2CBF
:10C61800C26843F8102C826843F8142C426843F827
:10C62800182C026843F81C2C704700BF5CB60250F7
:10C638000C4B1B68C3610C4B1B6883610B4B1B685D
:10C6480043610B4B1B6803610A4B1B68C3600A4BB1
:10C658001B688360094B1B684360094B1B680360B8
:10C66800704700BF5CB6025058B6025054B602502C
:10C6780050B602504CB6025048B6025044B602506A
:10C6880040B6025030B10268034B04489A4208BFD2
:10C698000020704702487047DD55AABB0202F0002F
:10C6A8000002F00038B5044668B1051D702128461F
:10C6B80000F000FC28462022044900F0F7FB044B58
:10C6C8002360002038BD0348FCE700BF8CDE0F0064
:10C6D800DD55AABB0002F0002DE9F043284B0446C3
:10C6E8000E4615460FCB85B06F4687E80F002DB96B
:10C6F8004FF00009484605B0BDE8F0832046FFF733
:10C70800C1FF81460028F5D1231D0193636AA3BBAD
:10C71800236F8BB1C3F14008A84528BFA84604F190
:10C72800300031461844424600F0C0FB236F4344B2
:10C7380046442367A5EB0805226F402A06D104F179
:10C748003001384600F0C8FB0023236705F03F0896
:10C7580035F03F0505D031462A46384600F0BCFB87
:10C768002E44B8F1000FC3D04246314604F13000E0
:10C7780000F09CFBC4F87080BCE7DFF80890B9E7CC
:10C788007CDE0F000C02F0002DE9FF41144B04463B
:10C798000E460FCB6F4687E80F002046FFF772FF63
:10C7A8008046B0B9CEB1636A251D01953BB9012316
:10C7B8006362226F04F13001384600F08DFB2B468E
:10C7C800043E243453F8042B12BAA34246F8042F2B
:10C7D800F8D1404604B0BDE8F081DFF80880F8E7FA
:10C7E8007CDE0F000502F000084B1B681B0EF02BC7
:10C7F80008D1074B1A68074B9A4205D1064B00200F
:10C8080018607047052070470620704728B9025005
:10C8180024BA02500000E0200CBA0250002230B5C1
:10C8280049001346023840F6FC7502F1A05404F59D
:10C838002C44A400904202F10102CABF2360256083
:10C848005B181E2AF1D1044A13600B445360034B52
:10C85800034A1A6030BD00BF78B0025084B002505D
:10C8680020F80F0030B51E4B85B01A4619680091A4
:10C878000099CC07FAD500F1A05000F52C408000B3
:10C88800016813680193019BD807FAD5154B164C1C
:10C898001868164D1F30202390FBF3F0013800284C
:10C8A80010DA00230130400153B1A0F120014FF00C
:10C8B8000042134204D1013888424FEA5202F8D1AB
:10C8C80005B030BD13680393039BDB07FAD5431803
:10C8D80023602B680293029B002BE3D10138DEE72B
:10C8E800B4B00250ACB00250E4B00250DCB0025018
:10C8F800F0B51D6885B001F01F040DB91F2C25D1B6
:10C90800154D2E462F680197019FFF07FAD500F1B4
:10C91800A05000F52C408000006835680395039D01
:10C92800ED07FAD50D4D00EB611028600C48006842
:10C9380002901F2C18BFC94302980FBF106001F066
:10C948001F0100FA01F1116000211960106843000D
:10C95800C00F136005B0F0BDB4B00250E4B002508F
:10C96800DCB002500C4B18603F3020F03F008901CA
:10C97800403058609960D9601961596199611C33D8
:10C988000648196082B002680192019AD207FAD566
:10C99800196002B0704700BF90B00250B4B00250A6
:10C9A80038B5A0F12003B3F5426F05462CD88F287F
:10C9B80026D800F1470300F16604DB064FEA541459
:10C9C80000D0013464013F34A409013411B1A142FB
:10C9D8001AD30C46E3004FF48050B0FBF3F0202844
:10C9E80028BF202002B11060084B01221A6021469E
:10C9F800FFF714FF28462146FFF7B4FF002038BD93
:10CA080000F11F046409DDE70148F8E71CB802508B
:10CA18002221F0000A460021FFF7C2BFF0B5454BBE
:10CA280089B01D461C680194019CE407FAD5424B65
:10CA3800DFF80CE1DFF80CC113449B0000241A68EE
:10CA48000B181E2B88BFC0F11E011F320B1852098C
:10CA58005343B3F5806F82BF4FF48061B1FBF2F1AD
:10CA6800091A00F1A05000F52C402746A14233DCFA
:10CA78002B680493049BDB07FAD5304B1B682968A5
:10CA880005910599CF07FAD52D4C2E49236000232F
:10CA98001E46934203F1010040D120F001022948CB
:10CAA800194600268A423CD8296806910699CE077D
:10CAB800FAD525490968286807900798C007FAD564
:10CAC8002160204800210C468B422DD11D490020B1
:10CAD8009A422CD809B0F0BD2B680293029BDB0761
:10CAE800FAD503199B001B682E680396039EF60768
:10CAF800FAD5CEF800300023934203F1010306D1A2
:10CB0800164623F00103B34204D80134AEE7CCF84B
:10CB18000070F1E7CCF800700136F4E70E600346C8
:10CB2800B7E706600131BDE704600131CCE7086072
:10CB38000133CDE7B4B0025024AC00147CB00250ED
:10CB4800D4B00250D8B0025078B0025008B540B105
:10CB5800202801464FF0070228BF20210020FFF7B8
:10CB68005DFF024B00221A6008BD00BF1CB80250CE
:10CB7800F0B5294D85B02C462E680096009EF60724
:10CB8800FAD500F1A05000F52C4080000568206817
:10CB980001900198C707FAD52048214F056002EB9C
:10CBA8008306B24229D15A1C1D4E22F001020027E9
:10CBB8009A4227D823680293029BDE07FAD5194BBD
:10CBC8000B449B001B681F335B099A4213D22168F0
:10CBD80003910399C907FAD5154400219B1A104AF5
:10CBE800056008468B4210D85A1C0D4922F00102F4
:10CBF80000209A420CD805B0F0BD52F804CBC7F813
:10CC080000C0CEE737600133D2E710600131E9E7B1
:10CC180008600133EDE700BFB4B00250D4B0025051
:10CC2800D8B0025024AC00142DE9F041814B1D68A6
:10CC380098682033A0B01E461A680192019AD70757
:10CC4800FAD57D4B7D4A1A6032680292029AD4075F
:10CC5800FAD57B4A1A607B4A1446116803910399F6
:10CC6800C907FAD5784A1168C1F340213768049793
:10CC7800049FFF07FAD5754F1F6027680597059F22
:10CC8800FF07FAD51768002900F0CF80B90540F1F1
:10CC9800CC80316806910699CF07FAD56C4919609E
:10CCA800216807910799C907FAD51168C1F340218E
:10CCB80037680897089FFF07FAD5664F1F602768EF
:10CCC8000997099FFF07FAD51268002900F0AF807D
:10CCD800910540F1AC8032680A920A9AD207FAD5D7
:10CCE800564A1A6032680B920B9AD707FAD55A4AF5
:10CCF8001A6031680C910C99CC07FAD5574919601C
:10CD080031680D910D99C907FAD5554919603168EF
:10CD18000E910E99CF07FAD55249196031680F91D3
:10CD28000F99CC07FAD550491960504B1E4619681F
:10CD380010911099C907FAD53F4C4D4B23603368C1
:10CD48001193119BDB07FAD54A4B23603368129382
:10CD5800129BDF07FAD5484B23603A4B984619686F
:10CD680013911399C907FAD5324F38603368149371
:10CD7800149BDB07FAD5226033681593159BD807F7
:10CD8800FAD53E4B236033681693169BD907FAD51C
:10CD98003B4B236033681793179BDA07FAD5394B57
:10CDA800236033681893189BDB07FAD5364B23604A
:10CDB80033681993199BD807FAD5344B2360336825
:10CDC8001A931A9BD907FAD5314B236033681B9302
:10CDD8001B9BDA07FAD52F4B236000F033FC08BB06
:10CDE800D8F800301C931C9BDB07F9D53D603368ED
:10CDF8001D931D9BD907FAD5274B236033681E93D3
:10CE08001E9BDA07FAD5254B2360D8F800301F930C
:10CE18001F9BDB07F9D50C4B1B6813F4805F204B75
:10CE280008BF184620B0BDE8F0811E48FAE71E4842
:10CE3800F8E700BF90B0025080B0025000100251D5
:10CE4800C01F7229B4B0025088B00250C0CF012967
:10CE5800C01F0E29C03F002940010249003184A8A3
:10CE680000001649400108A180440888B0B002506B
:10CE7800C044708880077A41C0077E4100006A4933
:10CE88008006164940006E490002002100822021D8
:10CE9800408220218082242140A161A100C86151E3
:10CEA8000308F1000108F1000208F10000F027BDB5
:10CEB80000F04EBD0A46002100F04ABD01EB820297
:10CEC80004388A4201D10020704752F8043D1BBA49
:10CED80040F8043FF5E700002DE9F74F314B44686F
:10CEE8008046924699461A68002AFCD12E4B9B46EA
:10CEF8001A68002AFCD14FF0FF30019100F094FC31
:10CF0800802000F097FC294D294A2A4F2A4E0123F8
:10CF180007202B60A2F59E72C2F83C011360636A79
:10CF28003B60A36A3360D8F8003042F8043CD8F874
:10CF38000830204698470199D9F80030002BFBD1DA
:10CF4800BAF1000F20D11D4B04221A60D9F8003025
:10CF5800002BFBD1DBF800A0BAF1000FFAD1D8F80A
:10CF68000C30204698473B6863623368A362144BD1
:10CF7800C3F800A0C3F844A1D9F80030002BFBD1B6
:10CF88002B6003B0BDE8F08F236A012B04BF0C4A65
:10CF980013600C4B40201960C3F804A000F050FC4B
:10CFA800D4E700BF10B9025020BC025018B8025094
:10CFB80000B90250CCB70250D0B70250C8B70250DF
:10CFC80084B6025028BC025010B5544B98B019468C
:10CFD8001A680192019AD207FAD5514B514A1A6040
:10CFE8000A680292029AD407FAD54F4A1A600A6868
:10CFF8000392039AD007FAD54C4818600A6804923D
:10D00800049AD207FAD54A4A1A600A680592059A1C
:10D01800D407FAD5474A1A600A680692069AD207D0
:10D02800FAD5454A1A600A680792079AD407FAD5CA
:10D03800424A1A600A680892089AD207FAD5404A02
:10D048001A600A680992099AD407FAD53D4A1A6003
:10D058000A680A920A9AD207FAD53B4A1A600A68FD
:10D068000B920B9AD407FAD5384A1A600A680C92C0
:10D078000C9AD207FAD5364A1A600A680D920D9AA8
:10D08800D407FAD5334A1A600A680E920E9AD20764
:10D09800FAD5314A1A600A680F920F9AD407FAD55E
:10D0A8002E4A1A600A681092109AD207FAD52C4AAA
:10D0B8001A601A4B19461C681194119CE407FAD59A
:10D0C800174B1860086812901298C407FAD51A60AE
:10D0D8000A681392139AD007FAD5124A1A600A6896
:10D0E8001492149AD207FAD51E4A1A600A68159241
:10D0F800159AD407FAD51C4A1A600A681692169A25
:10D10800D007FAD5194A1A600A681792179AD207EF
:10D11800FAD5174A1A6018B010BD00BFB0B0025057
:10D1280080B00250009365210004319040966590CC
:10D138000083612100C3302100C3649000816190A5
:10D1480000461021008111210041442100C32029FB
:10D158000C4610C80086312100C3602140C128292F
:10D16800409665210013319040962529594614C8E8
:10D178004004324910B5494B94B019461A680092D8
:10D18800009AD207FAD5464B464A1A600A680192B5
:10D19800019AD407FAD5444A1A600A680292029A98
:10D1A800D007FAD5414818600A680392039AD20753
:10D1B800FAD53F4A1A600A680492049AD407FAD545
:10D1C8003C4A1A600A680592059AD207FAD53A4A83
:10D1D8001A600A680692069AD407FAD5374A1A607E
:10D1E8000A680792079AD207FAD5354A1A600A6878
:10D1F8000892089AD407FAD5324A1A600A6809923E
:10D20800099AD207FAD5304A1A600A680A920A9A25
:10D21800D407FAD52D4A1A600A680B920B9AD207DE
:10D22800FAD52B4A1A600A680C920C9AD407FAD5D8
:10D23800284A1A600A680D920D9AD207FAD5264A2A
:10D248001A600A680E920E9AD407FAD5234A1A6011
:10D258000A680F920F9AD207FAD5214A1A600F4B23
:10D2680019461C681094109CE407FAD50C4B1860FA
:10D27800086811901198C407FAD51A600A681292C2
:10D28800129AD007FAD5174A1A600A681392139AA5
:10D29800D207FAD5144A1A6014B010BDB0B00250C3
:10D2A80080B00250809065210004099040966590F6
:10D2B8008080612180200821802064900081619015
:10D2C800004610210081112100414421802020299D
:10D2D800024610C8008609218020602140212829A3
:10D2E8004096652140962529594614C810B5504BDB
:10D2F80096B01C461A680192019AD207FAD54D4B8E
:10D308004D4A1A6022680292029AD207FAD54B4A0D
:10D318001A604B4A42EA804022680392039AD20775
:10D32800FAD5186022680492049AD007FAD5454ABB
:10D338001A60A2F5800242EA814122680592059AA4
:10D34800D207FAD5196022680692069AD007FAD54C
:10D358003D4A1A6022680792079AD107FAD53B4AD4
:10D368001A6022680892089AD207FAD5384A1A60D1
:10D3780022680992099AD007FAD5364A1A602268B3
:10D388000A920A9AD107FAD5334A1A6022680B9290
:10D398000B9AD207FAD5314A1A6022680C920C9A75
:10D3A800D007FAD52E4A1A6022680D920D9AD10735
:10D3B800FAD52C4A1A6022680E920E9AD207FAD52C
:10D3C800294A1A6022680F920F9AD007FAD5274A7D
:10D3D8001A60216810911099C907FAD51A60144B80
:10D3E8001A46196811911199C807FAD5114B2049A5
:10D3F8001960116812911299C907FAD51D49196067
:10D40800116813911399CC07FAD50B491960116863
:10D4180014911499C807FAD517491960116815911C
:10D428001599C907FAD5154A1A6016B010BD00BF7C
:10D43800B0B0025080B002504004419000862929C3
:10D44800D81001C840144190401421294014652186
:10D458000034409000310C90C0400C90C03020291E
:10D4680040960D9000416090031645C80086112132
:10D4780000416021594644C84014459040142D90FD
:10D4880070B5264888B0054604680094009CE607F5
:10D49800FAD52348234C0460234C44EA83432C6880
:10D4A8000194019CE407FAD50360930143EA8242A0
:10D4B80042F0104444F4C0442B680293029BDE07F8
:10D4C800FAD504602B680393039BDB07FAD5174B47
:10D4D80003608B0143EA814141F0104343F4C043A8
:10D4E8002E680496049EF607FAD503602B68059308
:10D4F800059BDE07FAD5046041F058412B68069376
:10D50800069BDC07FAD5016042F058422B68079366
:10D51800079BDB07FAD5026008B070BDB0B00250B7
:10D5280080B00250C0210229807100988061189053
:10D53800354B8EB019461A680092009AD207FAD570
:10D54800324B334A1A600A680192019AD007FAD519
:10D55800304A1A600A680292029AD207FAD52E4A0D
:10D568001A600A680392039AD007FAD52B4A1A6000
:10D578000A680492049AD207FAD5294A1A600A68F6
:10D588000592059AD007FAD5264A1A600A680692C3
:10D59800069AD207FAD5244A1A600A680792079AA7
:10D5A800D007FAD5214A1A600A680892089AD20761
:10D5B800FAD51F4A1A600A680992099AD007FAD55B
:10D5C8001C4A1A600A680A920A9AD207FAD51A4AB5
:10D5D8001A6008680B900B98C007FAD51A600A6899
:10D5E8000C920C9AD007FAD5144A1A600A680D9260
:10D5F8000D9AD207FAD5124A1A600E210D230F226E
:10D6080000200EB0FFF73CBFB0B0025080B002500F
:10D6180080430129406339218070012980205421E9
:10D6280000D13490C0403490C0302029C0530D90B0
:10D6380000413890832308C880E310210041382135
:10D64800CF4308C82DE9F041012392B0CDE9033357
:10D65800624B1D461A680592059AD207FAD5604CA6
:10D66800604B2360604B19461A680692069AD707E2
:10D67800FAD55E4B1A68D60400F1A8802A6807928A
:10D68800079AD007FAD55A4A22600A680892089A77
:10D69800D207FAD51E68C6F30036002E40F09880EF
:10D6A8001220FFF7DFF807461320FFF7DBF8874261
:10D6B8008CBF12201320FFF7D5F8471EFFF738FF5D
:10D6C80003AB01AA39461220FFF712F904AB8046D2
:10D6D80002AA39461320FFF70BF900EB480002288D
:10D6E80032D003283ED0012874D12B680993099BB6
:10D6F800DB07FAD53F4B23602B680A930A9BD807B0
:10D70800FAD53D4B23602B680F930F9BD907FAD5A9
:10D718003A4B23602B681093109BDA07FAD5384BE5
:10D7280023602B681193119BDB07FAD5354B2360D7
:10D73800013F25D51023192218210020FFF7A0FE4C
:10D74800304612B0BDE8F0812B680B930B9BD907CC
:10D75800FAD52D4B23602B680C930C9BDA07FAD56E
:10D768002A4BCFE72B680D930D9BDB07FAD5284B87
:10D7780023602B680E930E9BD807FAD5254BC1E77B
:10D7880003AB01AA39461220FFF7B2F804AB0446EE
:10D7980002AA39461320FFF7ABF810EB440402D174
:10D7A800FFF712FCC4E7FFF7E5FC022C08D0032CB6
:10D7B80009D0012C10D117211620FFF797FDB7E7E4
:10D7C80015211420F9E70F210E20F6E7124EB7E7CE
:10D7D800124EB5E7124EB3E7124EB1E7B0B00250A1
:10D7E80080B0025000084A51B4B0025088B00250CC
:10D7F80000084E5100065A4940065E49000442415D
:10D808000014424940042E49000652494006564930
:10D8180000063A4940063E490608F1000708F100AB
:10D828000408F1000508F100014B1860704700BFBB
:10D8380008BA0250014B1860704700BF04BA025082
:10D84800094BC2431A60043B82B01B680193074B23
:10D85800019A024204D0064A1060186802B0704764
:10D8680020BF1A680192F3E704BA02506C8F0020B7
:10D8780008BA0250054B4FF0FF321A6053F8042CD7
:10D88800034B1A601A68034B1A60704704BA0250B7
:10D898006C8F002008BA02507AB370B414460F2A6D
:10D8A80015D902460B4640EA010515F0030F01D0D1
:10D8B800013C0EE0194610460432043306680D6830
:10D8C800AE4204D110461946043C042CF2D8013C5F
:10D8D8000ED00A4603460444114618460133013265
:10D8E80006780D78AE4203D118461146A342F3D10B
:10D8F80000780B78C01A70BC7047002070478446C7
:10D9080040EA010313F0030F18D18446202A0BD3F1
:10D918002DE9F007B1E8F807A0E8F807A2F120021E
:10D92800202AF7D2BDE8F007042A07D351F8043BB0
:10D9380040F8043BA2F10402042AF7D2002A05D0D9
:10D9480011F8013B00F8013B013AF9D160467047F4
:10D958008446002A2DD010F0030F04D000F8011BD4
:10D96800013A26D0F7E7C9B241EA012141EA01416B
:10D97800202A12D3A2F120022DE9F0030B460C460F
:10D988000D460E460F4688468946A0E8FA03203A17
:10D99800FBD2BDE8F00320320BD0042A05D340F8AF
:10D9A800041B043A05D0042AF9D200F8011B013AF5
:10D9B800FBD16046704700F1010110F0030F11D050
:10D9C80010F8012B002A23D010F0030F0AD010F80A
:10D9D800012B002A1CD010F0030F03D010F8012BE4
:10D9E800002A15D02DE970004FF001324FF0803336
:10D9F80050F8044BA4EB020525EA04051D4000D1AC
:10DA0800F6E7A0F1040070BC10F8012B002AFBD146
:06DA1800A0EB01007047C5
:08DA200001980F00F1970F00BF
:08DA280059B20F00D1AF0F004D
:0CDA3000000000000300000031A00F0007
:10DA3C00407000207C8000208D80002048700020E9
:04DA4C00F4000000E2
:08DA500091AC0F000000000082
:08DA5800BD8B0F00000000006F
:10DA6000619B0F00000000006D9C0F000000000093
:08DA7000FD890F000000000019
:08DA7800198B0F0000000000F3
:10DA8000000000000000000049B30F00001000007B
:04DA90000000100082
:10DA940000100000040000000100000095880F0041
:10DAA400B9880F00C9880F0039890F00D9880F0081
:10DAB400A1880F00A5880F00A9880F00001000009E
