:020000040002F8
:1070000000000420757302005D7302005F730200CC
:1070100061730200637302006573020000000000E8
:107020000000000000000000000000006773020084
:1070300069730200000000006B7302006D730200B0
:1070400099B902006F73020059C802006F73020001
:1070500091D202006F73020071C5020089D602004E
:107060006F7302006F7302006F7302006F73020090
:107070006F7302006F7302006F7302006F73020080
:107080006F730200C19702006F7302006F730200FA
:107090006F7302006F730200852B03006F73020091
:1070A0006F7302006F7302006F7302006F73020050
:1070B0006F7302006F730200000000000000000008
:1070C0006F7302006F7302006F7302006F73020030
:1070D0006F7302006F7302006F7302000000000004
:1070E00000000000000000000000000000000000A0
:1070F0000000000000000000000000000000000090
:10710000000000000000000000000000000000007F
:10711000000000000000000000000000000000006F
:10712000000000000000000000000000000000005F
:10713000000000000000000000000000000000004F
:10714000000000000000000000000000000000003F
:10715000000000000000000000000000000000002F
:10716000000000000000000000000000000000001F
:10717000000000000000000000000000000000000F
:1071800000000000000000000000000000000000FF
:1071900000000000000000000000000000000000EF
:1071A00000000000000000000000000000000000DF
:1071B00000000000000000000000000000000000CF
:1071C00000000000000000000000000000000000BF
:1071D00000000000000000000000000000000000AF
:1071E000000000000000000000000000000000009F
:1071F000000000000000000000000000000000008F
:10720000354936480A1A02D0072291438D4634493F
:1072100034480A1A06D00722914381F309880222D2
:1072200082F3148830483149314A00F044F831483B
:107230003149324A00F03FF831483249324A00F0D1
:107240003AF832483249334A00F035F83248334987
:10725000334A00F030F833483349344A00F02BF811
:1072600033483449344A00F026F83448344900227F
:1072700000F02CF833483449002200F027F8334856
:107280003349091A082902DB002202604160314AB1
:1072900090471F481F49884205D00268043003B454
:1072A000904703BCF7E700208646EC46002000210B
:1072B000294A9047FEE7884207D0521A05D0037842
:1072C00001300B700131013AF9D17047884202D088
:1072D00002700130FAE770470000042000E003204C
:1072E000000004200000042090BE0300082B0020B2
:1072F000A02B0020D0730200D0730200C846030008
:1073000090BE0300082B0020082B0020F847030044
:10731000F8470300F8470300F8470300F847030065
:10732000F8470300F8470300F84703008EBE030048
:1073300028BF0300A02B0020A02B0020A02B0020A2
:107340003877002038770020387700203877002001
:10735000389700209D73020035F00200FEE7FEE73B
:10736000FEE7FEE7FEE7FEE7FEE7FEE7FEE7FEE7F5
:1073700000F002B8FFF7FCBF0F484FF00701884349
:1073800085460E4880470E48016841F4700101604F
:10739000BFF34F8FBFF36F8FFFF732BF09480A4922
:1073A0000A4A884207D0521A05D0037801300B7080
:1073B0000131013AF9D1704700000420B5AE020056
:1073C00088ED00E0F8470300082B0020082B002080
:1073D00000B585B00190019B002B0AD0074B43F00C
:1073E00001030393019B9B010293039B029898471F
:1073F00000E000BF05B05DF804FB00BF10480300CB
:1074000000B583B00190019B002B0AD04FF47A7035
:10741000FFF7DEFF019B013B0193019B002BF5D1A0
:1074200000E000BF03B05DF804FB08B507F0E0FF23
:1074300000BF08BD00B589B0039002910192019B85
:10744000002B33D00023079303230693029A079B54
:107450001344019A1946002007F07AFF0590079A15
:10746000059B13440793019A059BD31A0193059B2F
:10747000002B13D10F4B1B7883F00103DBB2002BE1
:1074800013D10120FFF7BCFF069B013B0693069B2F
:10749000002B03D1074B00221A7007E0054B012295
:1074A0001A70019B002BD1D100E000BF00BF09B0D2
:1074B0005DF804FBA02B002000B585B0039002917D
:1074C000054B00934023054A0299039800F012F8F7
:1074D00000BF05B05DF804FB35740200A42B00204A
:1074E00082B0019000BF02B0704782B0019000BF2F
:1074F00002B0704700B5A1B00590049103920293C9
:10750000049803F0CDF8039B1593029B1693002378
:10751000179300238DF8603000231993229B1A9350
:1075200000231F930FA91F9B0822049803F092F9D0
:1075300008231F93119B1293BDF84030ADF84C30D7
:10754000BDF84230ADF84E3000238DF851309DF833
:107550003C3003F00303DBB2012B26D10F9BC3F3B6
:1075600095231C939DF83C30C3F3C203DBB28DF826
:107570005030BDF83C30C3F38313DBB21B931B9B2D
:107580009A0009A91F9B049803F064F91B9B9B00B8
:107590001F9A13441F9312AA09A915AB009313460F
:1075A0001B9A1C9800F0D6FE2FE09DF83C3003F0AB
:1075B0000303DBB2022B28D1BDF83E30C3F389139D
:1075C0009BB21E939DF83C30C3F3C203DBB28DF82F
:1075D00050301E9B082B28BF08231D9307A91F9B13
:1075E0001D9A049803F036F91F9A1D9B13441F93AC
:1075F0001E9A1D9BD31A1E9315AB12AA07A81D999C
:1076000000F04AFF1E9B002BE3D1049803F057F8CB
:1076100000BF21B05DF804FB82B00190019BDB68E4
:1076200001225A7100BF02B07047000000B583B05C
:107630004FF0FF330193FFF7F8FE0421084800F0F4
:10764000A3FD0190019B002B03DA0649412006F0BF
:10765000DFFD0348FFF7E0FF00BF03B05DF804FB68
:10766000E84703002848030000B583B0019000916B
:10767000019B1B681B6800990198984700BF03B0E5
:107680005DF804FB00B583B00190019B1B685B684B
:107690000198984700BF03B05DF804FB00B583B0C4
:1076A0000190019B1B689B680198984700BF03B03D
:1076B0005DF804FB82B001900B468DF80330019B0E
:1076C000DB689DF803201A7100BF02B0704782B0DA
:1076D0000190019BDB681B79184602B0704782B0AD
:1076E0000190019BDB6801225A7100BF02B0704714
:1076F00082B00190019BDB685B79184602B070474D
:1077000000B585B001900091154BFF229A60144B93
:1077100000221A60124B00225A60114B0022C3F85B
:1077200018240F4B0022C3F814240D4B002283F8B9
:1077300020240C4802F018FF0390039B002B01D07B
:10774000039B08E0084803F043FA084A084BD31AA1
:10775000DB0802930023184605B05DF804FB00BF68
:107760004C2D00204C47030090480300E8470300DD
:1077700060470300024A034BD31ADB0818467047E0
:10778000E84703006047030000B587B001900B464F
:107790008DF803309DF80330002B1FD0FFF7EAFF70
:1077A00004900023059313E0059B9B000E4A1344AD
:1077B0000393039B1B881A46019B1B689A4204D1C2
:1077C000019B059A1A60002309E0059B013305938C
:1077D000059A049B9A42E7D3052300E0002318464C
:1077E00007B05DF804FB00BF082B002000B585B092
:1077F00001900B468DF803309DF8032001AB114634
:107800001846FFF7C1FF0346002B07D1019BDB00A1
:10781000054A13440393039B1B6800E000231846AA
:1078200005B05DF804FB00BF6047030084B0019021
:107830000B468DF80330019BDB00174A134402937B
:107840009DF80330013B032B1CD801A252F823F012
:107850006178020069780200717802007B7802008A
:1078600002238DF80F3011E004238DF80F300DE066
:10787000029B1B798DF80F3008E0029B5B798DF835
:107880000F3003E000238DF80F3000BF9DF80F305C
:10789000184604B0704700BF6047030084B00190F1
:1078A000009100238DF80F30019B1B7803F0040337
:1078B000DBB2002B24D0019B1B78C3F30103DBB2A6
:1078C000012B02D0022B0CD017E0009B1B68019A01
:1078D0001288C2F38312D2B213449A1C009B1A601E
:1078E0000BE0009B1B68019A5288C2F3891292B286
:1078F00013449A1C009B1A6000BF01238DF80F30BF
:107900009DF80F30184604B07047000000B58BB0EA
:107910000023ADF826303E4802F03AF93D4802F027
:1079200037F93D4B5B6804933B4B9B680693049A85
:10793000069B134002339B00374A134404330893D9
:1079400004AB19460898FFF7A9FF0346002B09D09E
:10795000049A069B134002339B002F4A13440433BE
:107960000893EDE700BF0023079311E0049B5A1C26
:107970000492069A1340079A920001A90A442649E4
:1079800002339B000B445B681360079B0133079332
:10799000079B012BEAD99DF80430C3F30103DBB246
:1079A000012B10D0022B1CD1BDF80A30ADF82630C7
:1079B000BDF80630C3F389139BB203339A08049BC6
:1079C0001344049313E0BDF80A30ADF82630BDF837
:1079D0000430C3F38313DBB21A46049B13440493AD
:1079E00005E00E494FF4BF7006F012FC00BF0948D5
:1079F00002F0DAF80590059B002B02D0049B064AA2
:107A00005360BDF8263018460BB05DF804FB00BF8C
:107A100064310020603100204C2D0020A04803007C
:107A200000B585B00021074802F023F80390039BBE
:107A30000293029B83F310030193019B184605B048
:107A40005DF804FB6831002000B589B00390029115
:107A500001920093039B1B0C0793FFF7E1FF069035
:107A6000FFF788FE0246079B934204D3214940F268
:107A7000A31006F0CDFB069B1904009B5A1C0A9B21
:107A80001340079A0A431C4902339B000B445A6077
:107A9000009A0A9B134002339B00174A1344043395
:107AA0000593039B03F00703D9B2059A137861F39A
:107AB000C5031370019B03F00F03D9B2059A138815
:107AC00061F389131380029BC3F31501059A1368B0
:107AD00061F39F231360059A1378012161F3010379
:107AE0001370059A13786FF38203137000BF09B007
:107AF0005DF804FBA04803004C2D002000B58DB0BC
:107B00000390029113468DF80730039B02330A93CA
:107B100001238DF8273000238DF81B300DF11B0356
:107B2000184601F039FA404B1A68029B1A603E4B26
:107B30009A683D4B59683C4B1B68CB1A1344013380
:107B40000B9314E00121394801F0F2FFFFF7DEFE4C
:107B500007900799354801F0EBFF334B9A68324B99
:107B60005968314B1B68CB1A134401330B930A9AA3
:107B70000B9B9A42E6D89DF82730002B48D0002373
:107B800005939DF80730002B17D09DF81430012283
:107B900062F301038DF814309DF8143043F00403B0
:107BA0008DF81430039B03F00F03DAB2BDF81430E4
:107BB00062F38913ADF8143016E09DF814300222F8
:107BC00062F301038DF814309DF8143043F0040380
:107BD0008DF81430039BC3F309039AB2BDF8163035
:107BE00062F38F13ADF816300F4B1A680E4B9B687B
:107BF000134002339B000C4A134404330893059A44
:107C0000089B1A60084B1A680A9B1344064A1360C3
:107C10009DF81B30184601F0D5F99DF8273018461D
:107C20000DB05DF804FB00BF4C2D00206831002032
:107C300000B58BB005900491039202931F4B9B6893
:107C4000079306AB012219460298FFF757FF034638
:107C5000002B24D0069B023309930023089311E0E4
:107C6000089B9B00039A1A44099B591C0991079988
:107C70000B401268114902339B000B445A60089B69
:107C800001330893089A029B9A42E9D3069A079B0C
:107C900000931346029A04990598FFF7D5FE074B07
:107CA00093F82034002B05D000BF00F065F80346A0
:107CB000002BFAD100BF0BB05DF804FB4C2D002067
:107CC00000B583B001900091002300220099019833
:107CD000FFF7AEFF00BF03B05DF804FB00B587B04F
:107CE000039002910192019B059305AA0123029939
:107CF0000398FFF79DFF00BF07B05DF804FB00B5D8
:107D000087B00390029101920093019B0493009B22
:107D1000059304AA022302990398FFF789FF00BF85
:107D200007B05DF804FB00B58BB00390029101929F
:107D30000093019B0593009B06930C9B07930D9B5F
:107D400008930E9B099305AA052302990398FFF750
:107D50006FFF00BF0BB05DF804FB0000054B5A68D5
:107D6000044B1B689A420CBF01230023DBB2184668
:107D7000704700BF4C2D002000B599B0FFF7EEFF13
:107D80000346002B01D00023BEE19B4B0022C3F829
:107D90001824BFF34F8F00BF974B5B680493964B3B
:107DA0009B681093049A109B134002339B00924AE5
:107DB00013440433119300231793002316930023D5
:107DC0000F9304AB19461198FFF768FD0346002B8B
:107DD00019D0894BD3F81834002B14D1864B1A686C
:107DE000049B9A4205D8844B1B68834A5360002346
:107DF0008AE1049A109B134002339B007E4A13448D
:107E000004331193DDE70023159311E0049B5A1C02
:107E10000492109A1340159A920001A90A447649D7
:107E200002339B000B445B681360159B0133159371
:107E3000159B012BEAD99DF8043003F00303DBB254
:107E4000022B40F09C80BDF80630C3F389139BB22F
:107E50000D93BDF80630C3F389139BB2502B28BF96
:107E600050239BB20C930C9BC3F309039AB2BDF849
:107E7000063062F38F13ADF806300C9B08330B937A
:107E80009DF80430C3F3C203DBB20F930B995B4838
:107E900002F075FB1790179B002B00F0D18017980C
:107EA00002F0FEFB01A9169B0822179802F0B4FC11
:107EB000169B08331693049BDA43109B134001333F
:107EC0009B000A930C9A0A9B9A4242D90A9B002B68
:107ED00008D0049A109B134002339B00464A134477
:107EE000043300E0464B08930A9B002B02D00A9B08
:107EF000DBB201E00C9BDBB28DF81F300A9B002B3C
:107F000001D03F4B00E0002306930A9B002B06D0D4
:107F10000C9BDAB20A9BDBB2D31ADBB200E000237F
:107F20008DF817309DF81F20169B0899179802F0BE
:107F300073FC9DF81F30169A13441693069B002B72
:107F400016D09DF81720169B0699179802F064FC2E
:107F50000EE0049A109B134002339B00264A134400
:107F600004330993169B0C9A0999179802F054FC54
:107F70000D9B03339A08049B1344049360E09DF81F
:107F8000043003F00303DBB2012B59D1BDF80430F8
:107F9000C3F38313DBB2062B28BF0623DAB2BDF886
:107FA000043062F38913ADF80430BDF80430C3F334
:107FB0008313DBB202330E939DF80430C3F3C20384
:107FC000DBB20F930E9B9B0019460C4802F0D7FAC8
:107FD0001790179B002B33D0179802F061FB01A973
:107FE000169B0822179802F017FC169B083316936D
:107FF000002315931BE000BF4C2D00204C470300CD
:10800000582D0020049B5A1C0492109A13400233EE
:108010009B003F4A1344191D169B0422179802F037
:10802000FBFB169B04331693159B01331593BDF888
:108030000430C3F38313DBB21A46159B9342E1D39A
:10804000179B002B40D0324BD3F810341493304B95
:10805000D3F81834002B1BD0179802F030FB4DE0FA
:1080600000238DF84F301498FFF742FB0346002B96
:1080700002D001238DF84F309DF84F30002B03D0F4
:1080800017991498FFF7F0FA149BDB681B68149398
:10809000149B002BE4D1179802F011FB00238DF8FC
:1080A00003300DF10303184600F076FF184BD3F8A8
:1080B0001834002B02D1049B154A53609DF80330FD
:1080C000184600F07FFF19E0114BD3F810341293DB
:1080D00006E01298FFF7E2FA129BDB681B68129326
:1080E000129B002BF5D10B4A0B4BD31ADB081B0458
:1080F00043F0020309491846FFF7E2FDFFF72EFEA1
:10810000034683F00103DBB2184619B05DF804FBA7
:108110004C2D0020884703006047030000490300FE
:1081200000B585B00023039323E0164BD3F8103439
:10813000029301238DF807300FE00298FFF7C7FA8A
:1081400003461A46039B934203D100238DF8073060
:1081500006E0029BDB681B680293029B002BECD1BC
:108160009DF80730002B01D0039B07E0039B0133F0
:108170000393039B092BD8DD4FF0FF33184605B05E
:108180005DF804FB4C2D002000B585B001900B4636
:108190008DF80330FFF7C4FF0390039BB3F1FF3F5B
:1081A00001D1039B22E0039BDBB219460198FFF744
:1081B00081FA104BD3F81034002B08D10D4A019BE3
:1081C000C2F81034019BDB6800221A600DE0094BF5
:1081D000D3F81034DA68019BDB6812681A60054B2B
:1081E000D3F81034DB68019A1A60039B184605B077
:1081F0005DF804FB4C2D002000B583B00D4BD3F887
:10820000103401930B4B012283F8202409E00198DC
:10821000FFF765FA0198FFF735FA019BDB681B68E9
:108220000193019B002BF2D100BF00BF03B05DF8AA
:1082300004FB00BF4C2D002082B00190009100BFD4
:1082400002B0704710B584B003900291039BDB88A5
:10825000002B0AD0039BDB881A461F4B0093134662
:108260001E4A1F49029801F0DBFD039B1B7A052B78
:108270002ED0039B5B7A002B12D0039B9B881A465F
:10828000039B1B7A19461046FFF7D0FA03461A469D
:10829000144B53F822301A461349029801F0C0FDDE
:1082A000039B1B6819460298FFF7C6FF039B1B7AC6
:1082B0001A460E4B53F82240039B9B880021184618
:1082C000FFF794FA034622460949029801F0A8FDF7
:1082D00000BF04B010BD00BF34490300444903008F
:1082E0007C490300242B002094490300102B00201C
:1082F0009849030000B585B00390029113468DF8AC
:108300000730039B1B7A052B0FD0039B5B7A002B56
:1083100006D00D4B1B681A460C49029801F080FDEF
:108320000B49029801F07CFD07E09DF80730002B17
:1083300003D00749029801F073FD029801F04EFD49
:1083400000BF05B05DF804FB242B00209449030016
:10835000A449030030B58BB00790069105920493B1
:108360000E9B1B7B8DF827300E9B00221A730E99F3
:108370000498FFF767FF059B062B7FD801A252F8F0
:1083800023F000BFA1830200AB830200BB83020085
:10839000CF830200ED8302001584020045840200B1
:1083A00007990E9801F03CFD69E0069B1B681A4690
:1083B00007990E9801F034FD61E0069B1A68069B50
:1083C00004331B6807990E9801F02AFD57E0069BBD
:1083D0001A68069B04331968069B08331B680093D0
:1083E0000B4607990E9801F01BFD48E0069B1968A3
:1083F000069B04331868069B08331B68069A0C32E8
:1084000012680192009303460A4607990E9801F0FC
:1084100007FD34E0069B1868069B04331C68069B26
:1084200008331B68069A0C321268069910310968E5
:108430000291019200932346024607990E9801F09B
:10844000EFFC1CE0069B1C68069B04331D68069B22
:1084500008331B68069A0C321268069910310968B5
:1084600006981430006803900291019200932B4605
:10847000224607990E9801F0D3FC00E000BF0022CD
:108480000E990498FFF736FF0E9B9DF827201A736C
:1084900000BF0BB030BD00BF00B587B003900291A4
:1084A00001920093029B082B60D8009B1B7B8DF8E8
:1084B0001330009B00221A7300990198FFF7C2FE47
:1084C0000023059314E0059A029B9A4209D2039A6D
:1084D000059B13441B781A462649009801F0A0FC1E
:1084E00003E02549009801F09BFC059B01330593AF
:1084F000059B072BE7D92149009801F091FC002347
:10850000059326E0059A029B9A421BD2039A059B8B
:1085100013441B788DF812309DF812307E2B0AD848
:108520009DF8123018460BF099FF0346002B02D03D
:108530009DF8123000E02E231A461149009801F0F0
:108540006FFC03E00F49009801F06AFC059B0133C2
:108550000593059B072BD5D9012200990198FFF7B8
:10856000C9FE009B9DF813201A7300E000BF07B0FE
:108570005DF804FBA8490300B0490300B4490300B7
:10858000B8490300BC49030086B0039002910192F0
:1085900001238DF817309DF81730214A039B136093
:1085A0001F4A029B53601E4A019B9360039B44F247
:1085B0000102934213D0039B44F20202934221D161
:1085C000019B174AD360164BDB681B881A46144B75
:1085D0009A61134BDB685B68114AD36112E0019B1F
:1085E0000F4A13610E4B1B699B680D4A53610C4B7C
:1085F0001B691B680A4A9361094B1B695B68084A3F
:10860000D36100BF72B600BF00BF9DF81730DBB268
:10861000002BFAD162B600BF00BF06B0704700BFA2
:108620007031002000B583B002900091019244F2B5
:10863000010071466A4600F003F803B000BD00BFB8
:1086400030B58BB007900691059272B600BFFFF768
:10865000D3FD00BFFFF790FB0346002BFAD1079B29
:1086600044F2020293422FD0079B44F2020293424B
:1086700069D8079B44F20102934237D0079B44F22A
:10868000010293425FD8079B012B05D0079B41F263
:10869000010293420CD056E0394A3A4BD31ADB0818
:1086A0001B0443F0010338491846FFF709FB57E064
:1086B000334A344BD31ADB081B0443F0010333491C
:1086C0001846FFF7FDFA4BE0059B09932C4A2D4B0A
:1086D000D31ADB081B0443F00100099B5B681A46B0
:1086E000099B1B882A49FFF70AFB39E0059B089381
:1086F000234A244BD31ADB081B0443F00104089BD4
:108700009D68089B9B68184602F082FB034618464A
:10871000089B5B681946089B1B68069A02920193A6
:10872000009103462A461B492046FFF7FCFA144AEB
:10873000144BD31ADB081B0443F0010316491846F7
:10874000FFF7BEFA0CE00E4A0E4BD31ADB081B04EF
:1087500043F00103069A11491846FFF7BFFA00BF1C
:108760000F4B1B6803F00103002B00D000BE059ADD
:1087700006990798FFF708FF00BF0BB030BD00BF98
:108780008847030060470300244A0300444A03006B
:10879000684A0300844A0300AC4A0300C04A03004D
:1087A000F0ED00E0F0B583B0124800F0EFFF0346B3
:1087B00018464FF00001104BD3E90023861841EB17
:1087C0000307CDE900670D4BD3E90023DDE9000184
:1087D000994208BF904207D2DDE9002312F180746C
:1087E00043F10005CDE90045DDE9002310461946B7
:1087F00003B0F0BD482B002098310020A0310020AC
:1088000088B001900091019B0793009B0693079B02
:10881000D3E90223CDE90423069BD3E90223CDE962
:108820000223DDE90423DDE90201994208BF9042F9
:108830002CBF01230023DBB2184608B070470000AC
:1088400030B585B00190019B5B69002B03D12B49AA
:10885000A22005F0DDFC00238DF80F30284B1B789B
:10886000002B45D0019B002B42D0019B1B7FDBB22C
:10887000002B3DD0FFF796FF019BD3E902239942DD
:1088800008BF90422CD3019B1B69002B02D1019B96
:1088900000221A77019B5B69019A926910469847FA
:1088A000019B1B69002B23D0019B1B7FDBB2002B9C
:1088B0001ED0019BD3E90201019B1B691A464FF0B0
:1088C0000003841841EB0305019BC3E90245019BAA
:1088D00019460C4802F0F6F901238DF80F3007E035
:1088E000019B1946074802F0EDF901238DF80F307E
:1088F0009DF80F30184605B030BD00BFE44A0300B4
:1089000094310020404B0300F0B589B001900091F4
:108910000D230793009B00221A70019BD3E90245A7
:10892000FFF740FF02460B46A61A65EB0307CDE9A9
:108930000467DDE90423012A73F100031BDB049BB8
:10894000B3F5350F05D300F0A9FA0246154B1344D1
:1089500003E0019BD3E90223134603934FF49603EC
:10896000039A0021104800F013FE0790079B002B8C
:1089700005D1012313E000210B4800F0E1FE079B25
:108980000D2B07D10198FFF75BFF03461A46009BAA
:108990001A7003E00549F52005F03AFC002318465B
:1089A00009B0F0BDFFFFB400482B0020E44A0300EB
:1089B00000B583B0044802F0BFF90190019B18464E
:1089C00003B05DF804FB00BF404B030000B583B06B
:1089D000044802F0D3F90190019B184603B05DF8FA
:1089E00004FB00BF404B030000B583B0FFF7E0FF7E
:1089F0000190019B002B02D0019B00221A77019B62
:108A0000002BF3D100BF00BF03B05DF804FB0000F2
:108A1000054BD3E9002312F1807043F10001024BB2
:108A2000C3E9000100BF70479831002000B583B052
:108A30000190134B1B68002B1DD0019800F0A6FE7F
:108A40000F4B1B68D3E90223134623F07F431946DB
:108A500000F018FA0346B3F5960F04D309494FF412
:108A6000957005F0D5FB064B1B681846FFF7E8FE2E
:108A7000034B00221A6000BF03B05DF804FB00BF87
:108A800090310020E44A030000B583B00190FFF765
:108A900089FE02460B460349C1E9002300BF03B02B
:108AA0005DF804FBA031002000B585B00190FFF710
:108AB0008DFF039000238DF80B30039B002B48D0D3
:108AC0002B4B1B68002B03D101238DF80B3019E0D1
:108AD000039BD3E90201264B1B68D3E90223994289
:108AE00008BF90420ED201238DF80B30204B1B683B
:108AF0001B7FDBB2002B05D01D4B1B6819461D48A0
:108B000002F0E0F89DF80B30002B2AD0FFF750FF61
:108B100003900DF10A0319460398FFF7F5FE03468B
:108B2000002B12D0124B1B68002B02D1019800F0D1
:108B30003BFC0F4A039B13609DF80A3083F001034E
:108B4000DBB2002BB3D000BF0EE0094B00221A604D
:108B5000ADE7074B1B68002B05D1019800F03AFCEC
:108B600001E000BF00E000BF00BF05B05DF804FBFE
:108B700090310020404B030000B587B001902C4A93
:108B800003AB1946104600F0FEFE059048E0059B39
:108B90001B78022B2ED0022B32DC002B02D0012BB3
:108BA00014D02DE0059B5B681B7FDBB283F00103D3
:108BB000DBB2002B26D0059B5B6801221A77059B50
:108BC0005B6819461B4802F07DF81BE0059B5A685C
:108BD000194B1B689A4203D1174B00221A6012E00E
:108BE000059B5B681946134802F0DCF803468DF8D4
:108BF000133008E0FFF7F8FE104B01221A7002E074
:108C000000BF00E000BF0A4A03AB1946104600F05F
:108C1000D3FE074A03AB1946104600F0B4FE059098
:108C2000059B002BB3D100BF00BF07B05DF804FB6C
:108C300000320020404B030090310020943100208E
:108C400000B583B00190019800F06DFD0346002B44
:108C500001D0FFF7DDFE0021019800F082FD034600
:108C6000002B02D00198FFF7E1FE0121019800F0EE
:108C700078FD0346002B02D00198FFF705FF01980D
:108C8000FFF77AFF0198FFF70FFF00BF03B05DF811
:108C900004FB000008B5024800F085FD00BF08BDD8
:108CA000482B002000B585B0034600918DF80730B1
:108CB000114A02AB1946104600F038FE0390039BA0
:108CC000002B13D0039B9DF807201A70039B009A7A
:108CD0005A60094A02AB1946104600F040FE0346AE
:108CE000002B01D0FFF7D6FF002300E00423184635
:108CF00005B05DF804FB00BF0032002000B583B072
:108D0000164B1B680093164808235822154900F09B
:108D1000DAFD0190019B002B01D0019B19E06B460D
:108D2000114A1946114800F0C1FA0190019B002B2D
:108D300001D0019B0DE001210C4800F0E3FC012370
:108D40000B4A0121094800F05BFB0A4B01221A7013
:108D5000019B184603B05DF804FB00BF3C4B0300C9
:108D600000320020A8310020418C0200482B002056
:108D7000FFFF7F009431002000B587B003900B46C1
:108D800001928DF80B30039B002B04D1134940F264
:108D90002E2005F03DFA019B002B04D10F4940F233
:108DA0002F2005F035FA019B002B01D1072310E09D
:108DB000039B1B680593059B019A5A619DF80B3034
:108DC000012B0CBF01230023DBB21A46059B1A615D
:108DD0000023184607B05DF804FB00BFE44A030017
:108DE00030B587B0039002910192039B002B04D110
:108DF000154940F23E2005F00BFA039B0593059BB5
:108E00001B7FDBB2002B01D000231AE0059B019AE7
:108E10009A61FFF7C7FC029B1A464FF000038418C3
:108E200041EB0305059BC3E90245059B1B69002B2C
:108E300002D0059B029A1A6105990020FFF732FFC4
:108E40000346184607B030BDE44A030000B585B0BC
:108E50000190019B002B04D109494FF4157005F0D6
:108E6000D7F9019B0393039B00221A7703990120F2
:108E7000FFF718FF0346184605B05DF804FB00BF76
:108E8000E44A030082B001900091019A009BD31A3A
:108E900023F07F43184602B07047000008B503482E
:108EA00000F074FC0346184608BD00BF482B0020A4
:108EB00082B0EFF310830093009B019372B600BF62
:108EC000019B184602B0704762B600BF00BF7047F2
:108ED00000B585B00190FFF7EBFF0390164B9B6840
:108EE000002B1BD1144B01229A60144BD3F8802025
:108EF000134B1340104A1360104B114AC3F88020E3
:108F00000E4BD3F884300C4A53600C4B4FF0FF32B9
:108F1000C3F88420019B00221A7002E0019B012209
:108F20001A70039B002B01D1FFF7CEFF00231846D8
:108F300005B05DF804FB00BF1432002000E100E042
:108F4000FC06FFBD00B585B003468DF80730104B19
:108F50009B68002B16D09DF80730002B12D1FFF72D
:108F6000A7FF03900B4A0A4B1B681360094A084B82
:108F70005B685360064B00229A60039B002B01D173
:108F8000FFF7A2FF0023184605B05DF804FB00BF01
:108F90001432002000E100E000B583B0019000F041
:108FA0002BF80346012B03D00549432005F030F987
:108FB0000198FFF78DFF00BF03B05DF804FB00BF11
:108FC0004C4B030000B583B003468DF8073000F02A
:108FD00013F80346012B03D00649512005F018F978
:108FE0009DF807301846FFF7ADFF00BF03B05DF8EE
:108FF00004FB00BF4C4B030084B0EFF305830193E7
:10900000019BC3F308030393039B002B0DD1EFF3E4
:1090100014830093009B0293029B03F00103002B37
:109020000CBF01230023DBB200E00123184604B08B
:109030007047000082B003468DF807309DF8073076
:1090400003F01F0205499DF907305B09012000FA72
:1090500002F241F8232000BF02B0704700E100E0B7
:1090600082B003468DF807309DF8073003F01F02E9
:1090700006499DF907305B09012000FA02F24033EE
:1090800041F8232000BF02B0704700BF00E100E0BC
:1090900082B0034600918DF807309DF90730002B10
:1090A0000CDA009BDAB20C499DF8073003F00F038D
:1090B000043B5201D2B20B441A7609E0009BDAB2AB
:1090C00006499DF907305201D2B20B4483F80023C0
:1090D00000BF02B0704700BF00ED00E000E100E01B
:1090E00000B583B003460A468DF8073013468DF865
:1090F00006309DF80630012B03D99DF80630032B6E
:109100000BD99DF80630042B03D99DF80630072BA8
:1091100003D908496B2005F07BF89DF806209DF9DE
:10912000073011461846FFF7B3FF00BF03B05DF8E4
:1091300004FB00BFA84B030000B583B003468DF8C5
:1091400007309DF907301846FFF774FF00BF03B0E2
:109150005DF804FB00B585B00190019B002B0AD09F
:10916000074B43F001030393019B9B010293039B75
:109170000298984700E000BF05B05DF804FB00BF0F
:10918000B04C030084B0039002910192039B029AB9
:1091900002F5A872019943F8221000BF04B070478D
:1091A00082B001900091019B009A02F5A87253F8D9
:1091B0002230184602B0704782B001900091019BA6
:1091C000009AC3F8042300BF02B0704782B0019038
:1091D0000091019B009AC3F8082300BF02B07047BA
:1091E00082B001900B46ADF80230BDF80230019A12
:1091F00013441B68184602B0704784B001900B46B8
:10920000ADF80230BDF80230019A134400221A6012
:10921000BDF80230019A13441B680393039B00BFFF
:1092200004B0704782B00190019BD3F80435184612
:1092300002B0704700B583B001900091009BB3F578
:10924000805F04D306494FF4BE7004F0E1FF019B38
:10925000009AC3F8082500BF03B05DF804FB00BF07
:10926000DC4B030082B001900B468DF803309DF873
:109270000320019B13441A460123136000BF02B070
:10928000704782B001900091019B009AC3F844237B
:1092900000BF02B0704782B001900091019B009A1C
:1092A000C3F8482300BF02B07047000000B587B084
:1092B000039002910192039B002B03D13349552067
:1092C00004F0A6FF029B002B03D13049562004F086
:1092D0009FFF019B002B03D12C49572004F098FFDE
:1092E000039B5B7919462A4A019B42F82130039B74
:1092F0005B79284ADB0013441B79002B0ED008232E
:109300000593254A254BD31ADB081B0443F00203BF
:1093100023491846FEF7D4FC059B32E0039B1A68EC
:10932000029B1B8819461046FFF784FF039B93F9A5
:109330000420029B9B7819461046FFF7D1FE039B41
:1093400093F904301846FFF7F7FE039B5B79114A47
:10935000DB00134401221A71039B5B7919460D4A05
:10936000039B42F83130002305930B4A0B4BD31A71
:10937000DB081B0443F003030A491846FEF7A0FC70
:10938000059B184607B05DF804FB00BF0C4C0300BA
:109390002032002024320020984703006047030059
:1093A000604C0300844C030000B583B00190019B26
:1093B000002B03D10649872004F02AFF019B1B687C
:1093C00000211846FFF74EFF00BF03B05DF804FB15
:1093D0000C4C030000B583B00190019B002B03D11E
:1093E00006498D2004F014FF019B1B6804211846D8
:1093F000FFF738FF00BF03B05DF804FB0C4C03001F
:1094000000B587B00390029101928DF80330039B61
:10941000002B03D12149962004F0FAFE4FF480324C
:10942000029B02FA03F30593029B50339BB29B000D
:10943000ADF81230019B23F07F430193039B1B681F
:1094400005991846FFF7C2FE039B1B68059918464D
:10945000FFF721FF039B1B68BDF812201146184639
:10946000FFF7CBFE039B1B68019A02991846FFF792
:1094700089FE039B1B6805991846FFF702FF9DF8BC
:109480000330002B05D0039B1B6805991846FFF796
:1094900093FE00BF07B05DF804FB00BF0C4C030057
:1094A00000B585B00390029113468DF80730039BF9
:1094B000002B03D10B49A92004F0AAFE039B1B68D3
:1094C00002991846FFF7DDFE9DF80730002B05D006
:1094D000039B1B6802991846FFF76EFE00BF05B09C
:1094E0005DF804FB0C4C030000B583B001900091C3
:1094F000019B002B03D10A49B32004F089FE019B94
:109500001B6800991846FFF7C6FE019B1B6800996F
:109510001846FFF75BFE00BF03B05DF804FB00BF19
:109520000C4C030000B583B001900B46ADF802303F
:10953000019B002B03D10F49BA2004F069FE019B67
:109540001B68BDF8022011461846FFF749FE034686
:10955000002B09D0019B1B68BDF80220114618465C
:10956000FFF74BFE012300E00023184603B05DF82F
:1095700004FB00BF0C4C030082B001900091019AE3
:10958000009BD31A23F07F43184602B070470000B7
:1095900000B58BB00390029101920093039B002BC6
:1095A00003D15749CD2004F033FE4FF48032029BA3
:1095B00002FA03F30993029B50339BB29B00ADF870
:1095C0002230019B23F07F43019309990398FFF711
:1095D0008BFF039B1B681846FFF724FE0790039B35
:1095E0001B6802991846FFF7DBFD0690039B1B687A
:1095F000079A02991846FFF7C5FD039B1B68BDF843
:10960000222011461846FFF7F8FD07990698FFF744
:10961000B3FF0346012B0AD11020FFF79BFD039BEC
:109620001B68BDF8222011461846FFF7E6FD039B94
:109630001B681846FFF7F6FD079007990198FFF79A
:109640009BFF0590039B1B6809991846FFF719FEBD
:10965000059B012B15D1039B1868019B01331A460A
:109660000299FFF78FFD1020FFF774FD039B1B6825
:109670001846FFF7D7FD0246079B934235D00D23CE
:1096800039E0039B1B68019A02991846FFF77AFD9F
:10969000039B1B681846FFF7C5FD0790019B013B24
:1096A00007991846FFF768FF0590009BC3F1FF1369
:1096B00003F57F43059A9A4201D90D231BE0059BD0
:1096C000002B12D1039B1868019B01331A460299A3
:1096D000FFF758FD039B1B681846FFF7A3FD0246E2
:1096E000079B934201D00D2305E0012209990398BD
:1096F000FFF7D6FE002318460BB05DF804FB00BF51
:109700000C4C030000B583B001900B468DF803307C
:109710009DF803301A4602210198FFF7C1FE00BFF1
:1097200003B05DF804FB00B583B001904FF4827183
:109730000198FFF7F7FE0346184603B05DF804FBF7
:1097400000B583B0019000914FF48032009B02FA83
:1097500003F319460198FFF7C7FE00BF03B05DF899
:1097600004FB00B585B001900091009B50339BB283
:109770009B00ADF80E30BDF80E3019460198FFF78A
:10978000D1FE0346184605B05DF804FB00B583B072
:109790000190019B1B681846FFF744FD03461846DD
:1097A00003B05DF804FB00B583B00190019B93F911
:1097B00004301846FFF754FC00BF03B05DF804FB0B
:1097C00008B5044B1B68044A12681046984700BF4E
:1097D00008BD00BF203200202432002086B0019056
:1097E0000091019B53E8011F8AB2D88902449889ED
:1097F000824228BF121A1889824202BFBFF32F8FFC
:10980000002307E0C2EA010243E801200028E9D171
:109810004FF001038DF80F30059002910492029AE7
:10982000009B1A609DF80F30DBB2184606B07047F7
:1098300084B00190019951E8013FC3EA034341E834
:109840000132002AF7D10392029300BF04B070479F
:1098500086B001900091019B53E8021F1FFAA1F20C
:10986000D888824202BFBFF32F8F00230DE0D88932
:1098700002449889824228BF121AC1EA024243E890
:1098800002200028E8D14FF001038DF80F30059039
:1098900002910492029A009B1A609DF80F30DBB28D
:1098A000184606B0704784B00190019951E8023F14
:1098B000C3EA234341E80232002AF7D1039202931C
:1098C00000BF04B0704784B00390029111461A465D
:1098D0000B46ADF806301346ADF80430029B002B62
:1098E00001D10E231FE0BDF80630BDF80420B3FB04
:1098F000F2F102FB01F29B1A9BB2002B01D009236B
:1099000011E0039B029A1A60039B00225A60039B9A
:1099100000229A60039BBDF806209A81039BBDF844
:109920000420DA810023184604B0704700B585B0E2
:1099300001900091009B19460198FFF74FFF0346E5
:10994000002B07D0019B1B68009A128813440393D5
:10995000039B00E00023184605B05DF804FB00B54A
:1099600083B001900091009B1A88009B5B889A420B
:1099700004D10198FFF75CFF012300E000231846A3
:1099800003B05DF804FB00B585B001900091009B29
:1099900019460198FFF75CFF0346002B07D0019B97
:1099A0001B68009A528813440393039B00E0002332
:1099B000184605B05DF804FB00B583B00190009136
:1099C000009B1A88009B5B889A4204D10198FFF79C
:1099D0006AFF012300E00023184603B05DF804FB92
:1099E00000B585B001900091009B5B099B00019A36
:1099F0001A44009B03F01F03012101FA03F31946E7
:109A0000104600F04DF8039000BF05B05DF804FB70
:109A100000B585B001900091009B5B099B00019A05
:109A20001A44009B03F01F03012101FA03F3DB43F7
:109A30001946104600F064F8039000BF05B05DF8C9
:109A400004FB82B001900091009B5B099B00019A8E
:109A500013441A68009B03F01F0322FA03F303F078
:109A60000103002B14BF01230023DBB2184602B010
:109A7000704710B487B001900091019B009A53E8A1
:109A8000004F104643E8000191F0000FF7D1059414
:109A900004900391059B184607B05DF8044B70478E
:109AA00010B487B001900091019B009A53E8004FD9
:109AB00044EA020043E8000191F0000FF6D105945A
:109AC00004900391049B184607B05DF8044B70475F
:109AD00010B487B001900091019B009A53E8004FA9
:109AE00004EA020043E8000191F0000FF6D105946A
:109AF00004900391059B184607B05DF8044B70472E
:109B000010B487B001900091019B009A53E8004F78
:109B100004EA020043E8000191F0000FF6D1059439
:109B200004900391049B184607B05DF8044B7047FE
:109B300010B487B001900091019B009A53E8004F48
:109B400004EB020043E8000191F0000FF6D1059408
:109B500004900391049B184607B05DF8044B7047CE
:109B600010B487B001900091019B009A53E8004F18
:109B7000A4EB020043E8000191F0000FF6D1059438
:109B800004900391049B184607B05DF8044B70479E
:109B900000B583B0019001210198FFF781FF0346D2
:109BA000184603B05DF804FB00B583B001900021B6
:109BB0000198FFF78DFF0346184603B05DF804FBDC
:109BC00000B583B001900B468DF80330019B002B4C
:109BD00003D10849E82004F01BFB019BDA689DF8DB
:109BE00003300199098A01FB03F31344184603B0BB
:109BF0005DF804FBB84C030000B583B00190009100
:109C0000019B002B03D10849F52004F001FB009BC8
:109C1000019AD2689B1A019A128AB3FBF2F3DBB263
:109C2000184603B05DF804FBB84C030000B585B0DE
:109C30000190019B002B01D10E234CE0019B1B687E
:109C4000002B03D12649FF2004F0E2FA019B5B6858
:109C5000002B04D122494FF4807004F0D9FA019B03
:109C60009B68002B04D11E4940F2011004F0D0FA89
:109C7000019BDB68002B04D119494FF4817004F07B
:109C8000C7FA019B1B8A002B04D1154940F203102F
:109C900004F0BEFA019B9A68019B5B68D31A8DF8A9
:109CA0000F30019B1B68019A52681A6007E0019B04
:109CB0001A681368591C11609DF80F201A709DF8DE
:109CC0000F305A1E8DF80F20002BF0D1019B1B681E
:109CD00000221A710023184605B05DF804FB00BF8E
:109CE000B84C030000B585B00190019B002B04D156
:109CF0001F494FF4927004F08BFA00230393002362
:109D00008DF80A300DF10A031846FFF745F9019B5B
:109D10001B681A68019B5B689A421FD9019B1B68EC
:109D20001A68013A1A601B681B7819460198FFF7F8
:109D300047FF0390019B9A68019B1B681B68D31A1D
:109D40008DF80B30019B1B681B799DF80B209A4204
:109D500004D9019B1B689DF80B201A719DF80A30ED
:109D60001846FFF72FF9039B184605B05DF804FB72
:109D7000B84C030010B584B001900091019B002BFA
:109D800004D1154940F2471004F042FA009B002B21
:109D900004D111494FF4A47004F03AFA009B0393E4
:109DA00000238DF80B300DF10B031846FFF7F4F884
:109DB000019B1B681C68621C1A6003990198FFF7DD
:109DC0001BFF034623709DF80B301846FFF7FAF887
:109DD00000BF04B010BD00BFB84C030000B583B095
:109DE0000190019B002B03D10C49312004F010FAA3
:109DF000019B9B68002B0CD0019B5B69019A106949
:109E0000019A1168019A92689847019B00229A6012
:109E100000E000BF03B05DF804FB00BF104D03007D
:109E20000EB400B584B00190019B002B03D11849FA
:109E3000422004F0EDF9019B5B69002B03D114492A
:109E4000432004F0E5F9019B1B68002B03D1104966
:109E5000442004F0DDF9019B5B68002B03D10C4921
:109E6000452004F0D5F9059B002B0AD0002303936D
:109E700006AB039303AB1A460599019800F0B0F9BD
:109E800000E000BF04B05DF804EB03B0704700BF12
:109E9000104D030000B583B001900B468DF80330E0
:109EA000019B1A68019B9B68581C019988601344A8
:109EB0009DF803201A70019B9A68019B5B689A4287
:109EC00002D30198FFF78AFF00BF03B05DF804FBDF
:109ED00000B587B00390029101920093002305938F
:109EE000009B03F00103002B24D00BE0029B013305
:109EF0000293059B013305939DF81330194603988F
:109F0000FFF7C8FF029B1B788DF813309DF81330C4
:109F1000002BEBD106E0019B013B0193202103982C
:109F2000FFF7B8FF019A059B9A422ED9019B002B9F
:109F3000F1D12AE0029B002B0BD002980AF094FB8F
:109F4000059006E0019B013B019320210398FFF758
:109F5000A1FF019A059B9A420FD9019B002BF1D1D9
:109F60000BE0029B01330293059B013305939DF89F
:109F7000133019460398FFF78DFF029B1B788DF86D
:109F800013309DF81330002BEBD100BF07B05DF804
:109F900004FB000000B589B0039002910192009388
:109FA000029B07930123069307E0079A019BB2FBEC
:109FB000F3F30793069B01330693079A019B9A429A
:109FC000F3D2009A069B9A4201D9009B06930B9B01
:109FD00003F00103002B22D10A9B002B1FD00B9B07
:109FE00003F00203002B06D0009B002B03D130238B
:109FF0008DF8173002E020238DF8173008E00A9B17
:10A00000013B0A939DF8173019460398FFF742FF6A
:10A010000A9B002B03D0069A0A9B9A42EFD3012396
:10A020000793009B012B03D9009B013B009309E0A0
:10A03000029A079BB2FBF3F30493049A019B9A42A2
:10A0400000D205E0079B019A02FB03F30793E8E7C0
:10A05000029A079BB2FBF3F30493049B079A02FB5B
:10A0600003F3029AD31A0293154A049B13441B78F4
:10A0700019460398FFF70EFF079A019BB2FBF3F313
:10A080000793079B002BE3D10B9B03F00103002BED
:10A0900011D00A9B002B0ED006E00A9B013B0A93CD
:10A0A00020210398FFF7F6FE0A9B002B03D0069AA7
:10A0B0000A9B9A42F1D300BF09B05DF804FB00BFD0
:10A0C000B44D030000B589B005900491039202934A
:10A0D000049B002BB8BF5B4206930123079307E064
:10A0E000039B069A92FBF3F30693079B01330793B6
:10A0F000039B069A9A42F3DA029A079B9A4201D985
:10A10000029B07930A9B002B0AD0049B002B04DBC5
:10A110000B9B03F00403002B02D00A9B013B0A9324
:10A120000B9B03F00203002B02D0029B002B16D0E6
:10A130000B9B03F00103002B11D10A9B002B0ED0C7
:10A1400006E00A9B013B0A9320210598FFF7A2FE37
:10A150000A9B002B03D0079A0A9B9A42F1D3049BD7
:10A16000002B07DA049B5B4204932D210598FFF72F
:10A1700091FE08E00B9B03F00403002B03D02B217E
:10A180000598FFF787FE0B9B03F00203002B19D005
:10A190000B9B03F00103002B14D1029B002B11D168
:10A1A0000A9B002B0ED006E00A9B013B0A9330214C
:10A1B0000598FFF76FFE0A9B002B03D0079A0A9BB6
:10A1C0009A42F1D304990B9B01930A9B0093029B43
:10A1D000039A0598FFF7DEFE00BF09B05DF804FBA7
:10A1E00000B58FB0059004910392059B002B04D11C
:10A1F000B64940F2522004F00BF8059B5B69002B36
:10A2000004D1B2494FF4157004F002F8059B1B68A5
:10A21000002B04D1AD4940F2552003F0F9FF059B16
:10A220005B68002B04D1A94940F2562003F0F0FFEF
:10A23000049B002B00F09381049B1B788DF8373032
:10A24000049B013304939DF83730002B00F07E818E
:10A250009DF83730252B40F06D8100230A930123B0
:10A260000C93049B1B788DF837309DF83730302BDA
:10A270000DD0302B1BDC2B2B11D02D2B17D10A9B93
:10A2800043F001030A93049B0133049312E00A9BF9
:10A2900043F002030A93049B013304930AE00A9BF0
:10A2A00043F004030A93049B0133049302E0002368
:10A2B0000C9300BF0C9B002BD3D1002309939DF876
:10A2C00037302A2B0CD1039B1B68191D039A116090
:10A2D0001B68099A13440993049B013304931AE001
:10A2E000049B1B788DF837309DF837302F2B12D90F
:10A2F0009DF83730392B0ED8049B01330493099A0B
:10A3000013469B0013445B001A469DF837301344F4
:10A31000303B0993D3E700230B93049B1B788DF804
:10A3200037309DF837302E2B1DD1049B0133049319
:10A33000049B1B788DF837309DF837302F2B12D9BE
:10A340009DF83730392B0ED8049B013304930B9AB8
:10A3500013469B0013445B001A469DF837301344A4
:10A36000303B0B93E4E7049B1B788DF837309DF866
:10A3700037306C2B03D09DF83730682B07D1049B06
:10A3800001330493049B1B788DF83730EFE79DF879
:10A390003730252B00F0C480252BC0F2C680782BE7
:10A3A00000F3C380582BC0F2C080583B202B00F232
:10A3B000BC8001A252F823F0A7A402002BA5020042
:10A3C0002BA502002BA502002BA502002BA5020045
:10A3D0002BA502002BA502002BA502002BA5020035
:10A3E0002BA502003DA402005FA402002BA50200E1
:10A3F0002BA502002BA502002BA502005FA40200E2
:10A400002BA502002BA502002BA502002BA5020004
:10A410002BA502002BA50200EDA402002BA5020033
:10A420002BA50200D1A402002BA5020083A40200E8
:10A430002BA502002BA50200A7A40200039B1B680A
:10A44000191D039A11601B680C930C9B8DF81F302B
:10A450009DF81F3019460598FFF71CFD66E0039B29
:10A460001B68191D039A11601B680C930A9B0193CA
:10A47000099B00930B9B0A220C990598FFF722FE7B
:10A4800054E0039B1B68191D039A11601B680C9311
:10A490000C990A9B0193099B00930B9B0A22059838
:10A4A000FFF778FD42E0039B1B68191D039A1160BA
:10A4B0001B680C930C990A9B0193099B00930B9BBF
:10A4C00010220598FFF766FD30E000BF604D0300E5
:10A4D000039B1B68191D039A11601B6808930A9B54
:10A4E000099A08990598FFF7F3FC1FE0039B1B6886
:10A4F000191D039A11601B680C9330210598FFF712
:10A50000C9FC78210598FFF7C5FC0C99002301933D
:10A5100008230093082310220598FFF73BFD05E070
:10A5200025210598FFF7B6FC00E000BF049B01332E
:10A53000049305E09DF8373019460598FFF7AAFC0B
:10A54000049B1B78002B7FF477AE00E000BF059BD7
:10A550001B7B002B04D00598FFF740FC00E000BFF8
:10A560000FB05DF804FB00BF00B583B00190019807
:10A57000FFF75CFB0346184603B05DF804FB00B52B
:10A580008BB001900091019B1B8A043B0793009ABA
:10A59000079B1344DA1C079BB2FBF3F38DF81B30C7
:10A5A0000198FFF79FFB0590059B002B01D100232D
:10A5B00038E0059B00221A71059B01225A71079B06
:10A5C0009AB2059BDA80059B09939DF81B30013BED
:10A5D0000493099B019A1A60002308931DE00198D7
:10A5E000FFF780FB0390039B002B0ED0059B5B794C
:10A5F0000133DAB2059B5A71099B039A1A60039BD7
:10A60000019A1A60039B099304E0059800F00EF884
:10A61000002307E0089B01330893089A049B9A42A1
:10A62000DDD3059B18460BB05DF804FB00B58BB07D
:10A630000190019B0793079B5B798DF81B30019B71
:10A6400008939DF81B30013B05930023099305E017
:10A65000089B1B680893099B01330993099A059B82
:10A660009A42F5D3089B1B680493019B089300232F
:10A6700009930BE0089B1B68039308990498FFF764
:10A6800079FB039B0893099B013309939DF81B30C9
:10A69000099A9A42EED300BF00BF0BB05DF804FBED
:10A6A00000B585B00190019B0393039B0433012106
:10A6B0001846FFF73DFA00BF05B05DF804FB00B592
:10A6C00087B00190019B0593059B04330121184637
:10A6D000FFF746FA0346039303AB0493049B1B78EE
:10A6E000002B02D10198FFF7A1FF00BF07B05DF872
:10A6F00004FB000000B591B0039002910192009319
:10A70000039B002B03D14349B62003F081FD039B3B
:10A710000993039B0F93099BDB881A46099B5B797E
:10A7200003FB02F3043B0893009A089B9A4203D36D
:10A730003849C42003F06CFD099BDB880793009B1C
:10A740001A1D079BB2FBF3F30E93009B0433079A89
:10A75000B3FBF2F2079901FB02F29B1A0D93019BE6
:10A760001A68009B1344089A9A4203D2089A009BE5
:10A77000D31A01E0019B1B680C93019B0C9A1A6091
:10A7800005E00F9B1B680F930E9B013B0E930E9BE6
:10A79000002BF6D100230B93079A0D9BD31A0A9333
:10A7A0000A9A0C9B934228BF13460A932AE0029A06
:10A7B0000B9B134406930F9A0D9B1344043305938C
:10A7C0009DF84830002B05D00A9A0599069809F0A3
:10A7D000A6FE04E00A9A0699059809F0A0FE002357
:10A7E0000D930F9B1B680F930C9A0A9BD31A0C9323
:10A7F0000B9A0A9B13440B93079A0C9B934228BF16
:10A8000013460A930C9B002BD1D100BF00BF11B09F
:10A810005DF804FBC44D030000B589B005900491B8
:10A8200003920293039B079307AA00230093029BC2
:10A8300004990598FFF75EFF079B039A9A4203D09D
:10A840000349F62003F0E4FC00BF09B05DF804FB07
:10A85000C44D030000B589B00590049103920293A2
:10A86000039B079307AA01230093029B0499059871
:10A87000FFF740FF079B039A9A4204D004494FF424
:10A88000807003F0C5FC00BF09B05DF804FB00BF99
:10A89000C44D030082B003468DF807309DF80730A1
:10A8A00003F01F0206499DF907305B09012000FAF9
:10A8B00002F2603341F8232000BF02B0704700BFAE
:10A8C00000E100E0BFF34F8F00BF074BDB6803F4EC
:10A8D000E0620549054B1343CB60BFF34F8F00BFC8
:10A8E00000BF00BFFCE700BF00ED00E00400FA0578
:10A8F00000B583B00190019B002B03D10449C42013
:10A9000003F086FC019B5B68184603B05DF804FB0E
:10A910001C4E030000B583B00190019B002B03D1B6
:10A920000649722003F074FC019B00221A60BFF3F9
:10A930005F8F00BF00BF03B05DF804FB744E0300DF
:10A9400000B585B00190019B002B03D10A498520F9
:10A9500003F05EFC01210198FFF78BF80390BFF331
:10A960005F8F00BF039B002B0CBF01230023DBB2D2
:10A97000184605B05DF804FB744E030000B583B0C3
:10A980000190019B002B03D10A49922003F040FC67
:10A99000019B1B68012B03D00649932003F038FC70
:10A9A000BFF35F8F00BF019B00221A6000BF03B09E
:10A9B0005DF804FB744E030033DF704700BF184698
:10A9C00041DF704700BF18464FF080430122C3F8B3
:10A9D0000025BFF34F8F00BF20BF00BFFCE7000082
:10A9E00000B585B000238DF803300DF10303184640
:10A9F000FEF7D2FAF1EE103A0193019B0393039B09
:10AA000023F09F030293029BE1EE103A00BFBFF3D5
:10AA10005F8F00BF2620FFF73DFF9DF803301846EB
:10AA2000FEF7D0FA039B03F00703002B03D0044981
:10AA30007D2003F0EDFB00BF05B05DF804FB00BF17
:10AA4000BC4E030008B5064B00221A700548FFF7FC
:10AA500061FF0549054800F0D9F80023184608BDF4
:10AA60003432002030320020184F030038320020EA
:10AA700000B583B0FFF7B4FF08F056F80346002B8B
:10AA80000ED0FFF79DFF0190019B002B0ED0019B84
:10AA9000022B0BD007494FF4B07003F0B9FB05E06F
:10AAA00020BF00BF40BF00BF20BF00BF00BF03B03A
:10AAB0005DF804FBBC4E030000B583B00FE02348F3
:10AAC000FFF716FF0190019B1B68214A1278104680
:10AAD00098470346002B34D01C4800F0C1F81B48AF
:10AAE000FFF706FF0346002BE9D1FDF785FB00BF0A
:10AAF000FDF742F90346002BFAD1154B1B78032BC7
:10AB000003D0134B1B78022B02D1FFF7DBFE19E0B9
:10AB100008F00AF80346002B10D0FFF74DFF009015
:10AB2000009B002B07D0009B022B04D009494FF457
:10AB3000D17003F06DFB20BF00BFFCE7FFF744FFBF
:10AB400000E000BF03B05DF804FB00BF3832002016
:10AB50002C320020BC4E030000B583B003468DF8B4
:10AB600007301748FFF7ECFE034683F00103DBB222
:10AB7000002B21D19DF80730042B0ED0114B1B78F0
:10AB8000002B03D00E48FFF7F9FE16E00E4A9DF8A1
:10AB9000073013700B4B01221A700A4B1B78002BE5
:10ABA00004D10A4940F2D51003F032FBFFF784FFCD
:10ABB0000348FFF7E3FE00E000BF03B05DF804FBCD
:10ABC00030320020343200202C320020BC4E0300F2
:10ABD00082B00190019B9B6800229A60019B9B6858
:10ABE00000221A61019B9B6800225A61019B9B68AD
:10ABF0000022DA60019B9B6800225A60019B9B68DF
:10AC000000221A6000BF02B07047000000B583B098
:10AC100001900091019B002B03D11049502003F0BB
:10AC2000F7FA009B002B03D10C49512003F0F0FAF6
:10AC3000019B009A1A60019B1B681A68019B5A606D
:10AC4000019B5A68019B1B685B689A4202D1019B79
:10AC500000225A6000BF03B05DF804FB244F0300DC
:10AC600000B583B00190019B002B03D114496320F0
:10AC700003F0CEFA019B1B68002B03D1104964201E
:10AC800003F0C6FA019B5B68002B14D0019B5B6844
:10AC90001A46019B1B689B6813441A46019B5A6025
:10ACA000019B5A68019B1B685B689A4204D1019B17
:10ACB00000225A6000E000BF03B05DF804FB00BF53
:10ACC000244F030000B585B001900091019B002B3B
:10ACD00003D118493A2003F09BFA009B002B03D1C3
:10ACE00014493B2003F094FA019B5B6803930FE047
:10ACF000019B9B68039A1268009910469847034687
:10AD000083F00103DBB2002B07D1039B1B68039385
:10AD1000039B1B68002BEBD100E000BF039B1A686C
:10AD2000009B1A60039B009A1A6000BF05B05DF893
:10AD300004FB00BFA04F030000B585B00190019B4C
:10AD4000002B03D10C49512003F062FA019B5B6890
:10AD50001B680393019B5B681B68002B06D0019B5B
:10AD60005B681A68019B5B6812681A60039B18464F
:10AD700005B05DF804FB00BFA04F030000B583B031
:10AD80000190019B002B03D105495D2003F040FA9F
:10AD9000019B5B681B68184603B05DF804FB00BFAD
:10ADA000A04F030000B585B001900091019B002BDE
:10ADB00003D11649692003F02BFA009B002B03D125
:10ADC00012496A2003F024FA00238DF80B30019B0E
:10ADD0005B6803930FE0039B1B68009A9A4207D1BC
:10ADE000009B1A68039B1A6001238DF80B3006E064
:10ADF000039B1B680393039B1B68002BEBD19DF8FF
:10AE00000B30184605B05DF804FB00BFA04F0300EF
:10AE100000B585B00190019800F00EF80390039BF7
:10AE2000002B01D0039B00E0024B184605B05DF8F3
:10AE300004FB00BFFC4F030086B00190164B059346
:10AE4000164B04931FE0049A059BD31ADB10DA0F0C
:10AE500013445B10DB00059A13440393039B1B68A8
:10AE60000293029A019B9A4202D9039B04930AE03F
:10AE7000029A019B9A4203D2039B0833059302E096
:10AE8000039B5B6804E0059A049B9A42DBD3002392
:10AE9000184606B0704700BFFC530300245503005A
:10AEA000024B034A1A6000BF704700BF502B0020BE
:10AEB0000090D00308B500F02FF90346002B06D010
:10AEC000844B1B681B0A844A03F01F03136000F0C5
:10AED0004FF90346002B02D0804B814A1A6000F0E4
:10AEE00063F90346002B06D07E4B1B685B0B7E4A42
:10AEF00003F00703136000F083F90346002B05D02D
:10AF00007A4BDB68794A23F08073D36000F094F9C0
:10AF10000346002B0ED04FF080430022C3F80C21D3
:10AF20004FF080430022C3F810214FF080430022ED
:10AF3000C3F8382500F0ACF90346002B02D06C4B67
:10AF400003221A6000F0C0F90346002B0BD0694BB6
:10AF500005221A60684B01221A60684B00221A60B1
:10AF6000674B3F221A6000F0CBF90346002B76D0E6
:10AF70004FF08053634AD3F80434C2F820354FF0C1
:10AF80008053604AD3F80834C2F824354FF0805318
:10AF90005C4AD3F80C34C2F828354FF08053594A34
:10AFA000D3F81034C2F82C354FF08053554AD3F8FB
:10AFB0001434C2F830354FF08053524AD3F8183465
:10AFC000C2F834354FF080534E4AD3F81C34C2F8DF
:10AFD00040354FF080534B4AD3F82034C2F8443503
:10AFE0004FF08053474AD3F82434C2F848354FF025
:10AFF0008053444AD3F82834C2F84C354FF080537C
:10B00000404AD3F82C34C2F850354FF080533D4AB3
:10B01000D3F83034C2F854354FF08053394AD3F85E
:10B020003434C2F860354FF08053364AD3F83834A0
:10B03000C2F864354FF08053324AD3F83C34C2F83A
:10B0400068354FF080532F4AD3F84034C2F86C353E
:10B050004FF080532B4AD3F84434C2F8703500F0D7
:10B060006BF90346002B05D0274B1B68274A03F0DA
:10B070004F03136000F08CF90346002B0DD04FF006
:10B080008043D3F8003403F00103002B05D04FF0C8
:10B0900080436FF00102C3F8002400F0A5F90346D5
:10B0A000002B05D01A4B1B68194A43F480631360C8
:10B0B000184BD3F88830174A43F47003C2F888302D
:10B0C000BFF34F8F00BFBFF36F8F00BFFFF7E8FEE6
:10B0D00000BF08BD240300104035014074C0074084
:10B0E0000DF0ADBA440200103C050040F0ED00E068
:10B0F000A0050040105600408856004018560040F9
:10B100001456004000C0004058020010E40E0040F9
:10B110003C17004000ED00E0124B1B68DBB2062B31
:10B120001DD1114B1B6803F00F03002B17D10F4BE0
:10B130001B6803F0F003302B01D1012310E00B4B0F
:10B140001B6803F0F003402B01D1012308E0074BFB
:10B150001B6803F0F003502B01D1012300E0002312
:10B1600018467047E00F00F0E40F00F0E80F00F021
:10B170000A4B1B68DBB2062B0DD1094B1B6803F091
:10B180000F03002B07D1074B1B6803F0F003302B94
:10B1900001D1012300E0002318467047E00F00F0C2
:10B1A000E40F00F0E80F00F0124B1B68DBB2062B37
:10B1B0001DD1114B1B6803F00F03002B17D10F4B50
:10B1C0001B6803F0F003302B01D1012310E00B4B7F
:10B1D0001B6803F0F003402B01D1012308E0074B6B
:10B1E0001B6803F0F003502B01D1012300E0002382
:10B1F00018467047E00F00F0E40F00F0E80F00F091
:10B200000A4B1B68DBB2062B0DD1094B1B6803F000
:10B210000F03002B07D1074B1B6803F0F003302B03
:10B2200001D1012300E0002318467047E00F00F031
:10B23000E40F00F0E80F00F0124B1B68DBB2062BA6
:10B240001DD1114B1B6803F00F03002B17D10F4BBF
:10B250001B6803F0F003302B01D1012310E00B4BEE
:10B260001B6803F0F003402B01D1012308E0074BDA
:10B270001B6803F0F003502B01D1012300E00023F1
:10B2800018467047E00F00F0E40F00F0E80F00F000
:10B290000A4B1B68DBB2062B0DD1094B1B6803F070
:10B2A0000F03002B07D1074B1B6803F0F003302B73
:10B2B00001D1012300E0002318467047E00F00F0A1
:10B2C000E40F00F0E80F00F00A4B1B68DBB2062B1E
:10B2D0000DD1094B1B6803F00F03002B07D1074B5F
:10B2E0001B6803F0F003302B01D1012300E00023A1
:10B2F00018467047E00F00F0E40F00F0E80F00F090
:10B300000A4B1B68DBB2062B0DD1094B1B6803F0FF
:10B310000F03002B07D1074B1B6803F0F003502BE2
:10B3200001D1012300E0002318467047E00F00F030
:10B33000E40F00F0E80F00F0124B1B68DBB2062BA5
:10B340001DD1114B1B6803F00F03002B17D10F4BBE
:10B350001B6803F0F003302B01D1012310E00B4BED
:10B360001B6803F0F003402B01D1012308E0074BD9
:10B370001B6803F0F003502B01D1012300E00023F0
:10B3800018467047E00F00F0E40F00F0E80F00F0FF
:10B39000124B1B68DBB2062B1DD1114B1B6803F04F
:10B3A0000F03002B17D10F4B1B6803F0F003302B5A
:10B3B00001D1012310E00B4B1B6803F0F003402B7D
:10B3C00001D1012308E0074B1B6803F0F003502B69
:10B3D00001D1012300E0002318467047E00F00F080
:10B3E000E40F00F0E80F00F0064B1B68062B05D1B8
:10B3F000054B1B68062B01D1012300E000231846F2
:10B40000704700BF300100103401001082B00346C5
:10B410008DF807309DF8073003F01F0206499DF9AB
:10B4200007305B09012000FA02F2203341F82320A3
:10B4300000BF02B0704700BF00E100E008B507F0B0
:10B4400073FB034683F00103DBB2002B03D10549F4
:10B45000792002F0DDFE00F085FA034B00229A709D
:10B4600000BF08BD2C5503004032002000B583B05A
:10B4700000230193144B1B78002B02D085230193EA
:10B480001CE0114B00229A600F4B00225A600E4BB9
:10B4900000221A610C4B0022DA600C4800F028FAF6
:10B4A000019007F041FB034683F00103DBB2002B60
:10B4B00001D000F043FA044B01221A70019B184698
:10B4C00003B05DF804FB00BF40320020A5B50200C8
:10B4D00084B00190019B1B680393039B002B03D056
:10B4E000039B1A68019B1A60039B184604B07047BF
:10B4F00000B583B0164B1B78002B04D115494FF4CF
:10B50000857002F085FE124BDB68002B04D11149D7
:10B5100040F20B1002F07CFE00238DF807300DF195
:10B5200007031846FDF738FD094BDB68013B084A65
:10B53000D360074BDB68002B01D1FFF77FFF9DF83D
:10B5400007301846FDF73EFD00BF03B05DF804FB71
:10B55000403200202C55030000B585B003468DF81D
:10B5600007309DF80730002B02D10C4B039301E00C
:10B570000B4B03930398FFF7ABFF0290029B002B4A
:10B5800006D0029B5B689DF8072010469847F1E7BC
:10B5900000BF00BF05B05DF804FB00BF48320020CB
:10B5A0005032002000B583B003468DF807309DF877
:10B5B0000730002B05D10A4B01225A700020FFF7FB
:10B5C000CBFF9DF80730012B05D1054B01229A7066
:10B5D0000120FFF7C1FF00BF03B05DF804FB00BF0F
:10B5E0004032002000B583B001900091019B002BF8
:10B5F00005D1054B01225A700020FFF7ADFF00BFB7
:10B6000003B05DF804FB00BF4032002000B585B0F8
:10B61000034600918DF807309DF80730032B29D0A1
:10B62000032B35DC002B02D0012B04D030E00020AE
:10B63000FFF7ECFE2DE000238DF80F300DF10F0326
:10B640001846FDF7A9FC154B1B7883F00103DBB20C
:10B65000002B01D0FFF70AFF104BDB6801330F4AC4
:10B66000D3600E4B01229A709DF80F301846FDF7FB
:10B67000A9FC0EE0094B1B78002B04D1084940F2CD
:10B68000452002F0C5FD00F059F9FFF731FF00E059
:10B6900000BF00BF05B05DF804FB00BF40320020D2
:10B6A0002C55030082B003468DF807309DF8073013
:10B6B00003F01F0205499DF907305B09012000FADC
:10B6C00002F241F8232000BF02B0704700E100E021
:10B6D00082B0034600918DF807309DF90730002BAA
:10B6E0000CDA009BDAB20C499DF8073003F00F0327
:10B6F000043B5201D2B20B441A7609E0009BDAB245
:10B7000006499DF907305201D2B20B4483F8002359
:10B7100000BF02B0704700BF00ED00E000E100E0B4
:10B7200082B00190019B1B0B5BB2184602B07047C0
:10B7300000B583B003460A468DF8073013468DF8EE
:10B7400006309DF80630012B03D99DF80630032BF7
:10B750000BD99DF80630042B03D99DF80630072B32
:10B7600003D908496B2002F053FD9DF806209DF98E
:10B77000073011461846FFF7ABFF00BF03B05DF876
:10B7800004FB00BF8455030000B583B003468DF869
:10B7900007309DF907301846FFF784FF00BF03B05C
:10B7A0005DF804FB82B003468DF807300F4A9DF91F
:10B7B0000730002B00DA1F335B115BB252F82320F5
:10B7C0009DF90730594203F01F0301F01F0158BFD4
:10B7D0004B425BB222FA03F303F00103002B14BFC8
:10B7E00001230023DBB2184602B0704700E100E0FD
:10B7F00082B001904FF08042019BC2F8083300BF35
:10B8000002B0704782B003468DF807309DF80730CC
:10B8100003F1804301221A6000BF02B0704784B078
:10B820000346ADF80630BDF8063003F18043002230
:10B830001A60BDF8063003F180431B680393039B35
:10B8400000BF04B0704782B00346ADF80630BDF8C3
:10B85000063003F180431B68002B14BF0123002333
:10B86000DBB2184602B0704782B001904FF08042C0
:10B87000019BC2F8183500BF02B070474FF08043FB
:10B88000D3F818341B0C03F00103002B14BF012361
:10B890000023DBB21846704700B583B006238DF84D
:10B8A00007304FF08040FFF73BFF03461846FFF795
:10B8B00079FF034683F00103DBB2002B13D04FF076
:10B8C0008040FFF72DFF03461A469DF807301946C2
:10B8D0001046FFF72DFF4FF08040FFF721FF034692
:10B8E0001846FFF751FF00BF03B05DF804FB0000EE
:10B8F00000B585B00190019B002B03D10D49A42018
:10B9000002F086FC002303930B4B1B79002B02D023
:10B910008523039308E0084A019B1360064B01222C
:10B920001A71054B00225A71039B184605B05DF849
:10B9300004FB00BFC05503005432002008B5074B7C
:10B940001B79002B03D10649BD2002F061FCFFF7F3
:10B95000A3FF0120FFF788FF00BF08BD543200207D
:10B96000C055030008B50A4B1B79002B03D10949C8
:10B97000F72002F04DFC0C20FFF744FF00BFFFF75B
:10B980007DFF0346002BFAD100BF00BF08BD00BFFA
:10B9900054320020C055030008B54FF48070FFF703
:10B9A00052FF0346002B14D04FF48070FFF737FF8F
:10B9B0000120FFF71DFF114B5B7983F00103DBB220
:10B9C000002B06D00D4B01225A710C4B1B68002036
:10B9D00098474FF48270FFF736FF0346002B0AD0DA
:10B9E0004FF48270FFF71BFF0220FFF701FF034BAC
:10B9F0001B680120984700BF08BD00BF54320020DB
:10BA000082B003468DF807309DF8073003F01F021F
:10BA100005499DF907305B09012000FA02F241F85F
:10BA2000232000BF02B0704700E100E082B003466F
:10BA300000918DF807309DF90730002B0CDA009B40
:10BA4000DAB20C499DF8073003F00F03043B5201B2
:10BA5000D2B20B441A7609E0009BDAB206499DF98E
:10BA600007305201D2B20B4483F8002300BF02B06A
:10BA7000704700BF00ED00E000E100E000B583B0DA
:10BA800003460A468DF8073013468DF806309DF8B8
:10BA90000630012B03D99DF80630032B0BD99DF8F6
:10BAA0000630042B03D99DF80630072B03D908492B
:10BAB0006B2002F0ADFB9DF806209DF90730114682
:10BAC0001846FFF7B3FF00BF03B05DF804FB00BFEB
:10BAD0001456030000B583B003468DF807309DF976
:10BAE00007301846FFF78CFF00BF03B05DF804FB7A
:10BAF00000B583B00346ADF80630BDF806301846F1
:10BB000000F026F803461B68012B0CBF012300231D
:10BB1000DBB2184603B05DF804FB00B585B0034600
:10BB2000ADF80630BDF80630184600F011F80346AF
:10BB30001A4600231360BDF80630184600F008F8D6
:10BB400003461B680393039B00BF05B05DF804FB2D
:10BB500082B00346ADF80630BDF8063003F18043ED
:10BB600003F5C043184602B07047000082B0019050
:10BB7000034A019BC2F8043300BF02B0704700BF04
:10BB80000060004082B00190034BD3F80423019B76
:10BB90001340184602B070470060004084B0039024
:10BBA000029113468DF80730144A039B03F5A273E4
:10BBB00052F82330114923F44F3323F44073039A8E
:10BBC00002F5A27241F822300C4A039B03F5A273DE
:10BBD00052F82320029B1B0203F47C519DF807308E
:10BBE0001B0403F440330B4304491A43039B03F53E
:10BBF000A27341F8232000BF04B0704700600040EA
:10BC000082B00190054A019B03F5A27352F82330DC
:10BC10001B0A03F03F03184602B070470060004063
:10BC200082B00190064A019B03F5A27352F82330BB
:10BC30001B0C03F00303DBB2184602B0704700BFD1
:10BC40000060004084B00390029111461A460B46F2
:10BC50008DF8073013468DF80630184A039B03F51C
:10BC6000A27352F82330154923F4991323F4F8539F
:10BC7000039A02F5A27241F82230104A039B03F5A1
:10BC8000A27352F82320029B1B0203F47C519DF8FF
:10BC900007301B0403F4403319439DF806301B059D
:10BCA00003F480130B4305491A43039B03F5A27366
:10BCB00041F8232000BF04B0704700BF006000407F
:10BCC00000B583B00190019B1B682F2B04D90B4951
:10BCD00040F2CD1002F09CFA019B1B681F2B02D88A
:10BCE0004FF0A04306E0019B1B6803F01F02019B7D
:10BCF0001A60034B184603B05DF804FB4856030076
:10BD00000003005000B585B00190084611461A4660
:10BD100003468DF803300B468DF8023013468DF83C
:10BD2000013001AB1846FFF7CBFF03909DF80320CD
:10BD30009DF802305B001A439DF801309B001A43C6
:10BD40009DF818301B0242EA03019DF81C301B04C9
:10BD5000019A1943039B02F5E07243F8221000BFD9
:10BD600005B05DF804FB00B585B003900023019396
:10BD7000002300930023012201210398FFF7C2FF53
:10BD800000BF05B05DF804FB00B585B003900B461D
:10BD90008DF80B309DF80B300022019200220092AA
:10BDA000002200210398FFF7ADFF00BF05B05DF84A
:10BDB00004FB00B585B0019001AB1846FFF780FF8A
:10BDC0000390019A039B02F5E07253F8223023F0AE
:10BDD00002030293019A039B02F5E072029943F871
:10BDE000221000BF05B05DF804FB00B585B00190DE
:10BDF0000B468DF8033001AB1846FFF761FF039047
:10BE0000019A039B02F5E07253F82230019A23F461
:10BE10004031039B02F5E07243F82210019A039B24
:10BE200002F5E07253F822309DF803201204114607
:10BE3000019A1943039B02F5E07243F8221000BFF8
:10BE400005B05DF804FB00B585B0019001AB184664
:10BE5000FFF736FF0390019B012202FA03F3194614
:10BE6000039800F04BF800BF05B05DF804FB00B587
:10BE700085B0019001AB1846FFF722FF0390019BAC
:10BE8000012202FA03F31946039800F041F800BFBB
:10BE900005B05DF804FB00B585B0019001AB184614
:10BEA000FFF70EFF0390039800F020F80246019B75
:10BEB00022FA03F303F00103184605B05DF804FB12
:10BEC00000B585B0019001AB1846FFF7F9FE03906D
:10BED000019A039B02F5E07253F822301B0C03F029
:10BEE0000303DBB2184605B05DF804FB82B0019095
:10BEF000019BD3F81035184602B0704782B001900C
:10BF00000091019B009AC3F8082500BF02B070475A
:10BF100082B001900091019B009AC3F80C2500BFEC
:10BF200002B0704700B589B0039002910192184A9F
:10BF300005AB92E8030083E80300039A029B1344D5
:10BF4000022B04D9134940F2FD2002F061F9039B52
:10BF5000079311E0079B9B0008AA134453F80C3C7D
:10BF60001846FFF7C3FF0246019B1A60019B04338A
:10BF70000193079B01330793039A029B1344079A8B
:10BF80009A42E7D300BF00BF09B05DF804FB00BFD1
:10BF9000785603004856030084B001900091009B3E
:10BFA0000393019BDB080293019B03F007030193BA
:10BFB0000122019B02FA03F30399029A0A441278C0
:10BFC0001340184604B0704784B001900091009B64
:10BFD0000393019BDB080293019B03F0070301938A
:10BFE000039A029B13441B785AB20121019B01FA68
:10BFF00003F35BB2134359B2039A029B1344CAB2D0
:10C000001A7000BF04B0704782B00190074A019BCC
:10C010001344303393F90030B3F1FF3F14BF0123D1
:10C020000023DBB2184602B0704700BF5C3200202C
:10C0300082B001900C4A019B1344303393F90030D5
:10C04000002B09DB084A019B1344303393F900307D
:10C05000072B01DC012300E0002303F00103DBB226
:10C06000184602B0704700BF5C32002082B00190D9
:10C07000064A019B1344303393F90030DB43DBB2B3
:10C08000DB09DBB2184602B0704700BF5C3200200B
:10C0900084B00390029101928DF80330029B59B253
:10C0A0000E4A039B134430330A461A700B49029B15
:10C0B000019A41F823209DF8033083F00103DBB29D
:10C0C000002B08D0029B083B039A51B2034A134449
:10C0D0000A4683F8602000BF04B070475C3200203D
:10C0E00082B00190044A019B13443033FE221A703F
:10C0F00000BF02B0704700BF5C32002082B00190E8
:10C10000044A019B13443033FF221A7000BF02B06F
:10C11000704700BF5C32002000B583B00190044935
:10C120000198FFF751FF00BF03B05DF804FB00BFAB
:10C13000C032002082B00190044A019B1344303386
:10C1400093F90030184602B0704700BF5C320020FF
:10C1500082B00190034A019B52F82330184602B086
:10C16000704700BF5C32002000B589B00390029197
:10C1700013468DF80730FF238DF81F309DF80730E8
:10C18000002B01D0002300E0082305939DF8073021
:10C19000002B01D0082300E00C230493059B069399
:10C1A00014E00F4A069B52F82330B3F1FF3F0AD147
:10C1B0009DF80730029A06990398FFF769FF069BDE
:10C1C0008DF81F3006E0069B01330693069A049B08
:10C1D0009A42E6D39DF91F30184609B05DF804FB7A
:10C1E0005C32002082B003468DF807309DF807309E
:10C1F000094A4FF0FF3142F823109DF80730072B12
:10C2000007D99DF80730083B034A1344FF2283F8FF
:10C21000602000BF02B070475C32002000B583B0E0
:10C22000254B93F86A30002B03D008230193019B20
:10C230003EE000238DF8033009E09DF803301846F6
:10C24000FFF75CFF9DF8033001338DF803309DF854
:10C2500003302F2BF1D900238DF8033009E09DF82E
:10C2600003301846FFF7BEFF9DF8033001338DF809
:10C2700003309DF803300B2BF1D9062200210F4823
:10C2800008F076F906210620FFF7F8FB0620FFF7F5
:10C2900021FC4FF4BE70FFF740FC4FF00040FFF769
:10C2A00065FC054B012283F86A2000230193019B62
:10C2B000184603B05DF804FB5C320020C032002059
:10C2C00000B585B001900091019B2F2B04D92E4918
:10C2D0004FF4987001F09CFF2C4B93F86A30012BBF
:10C2E00004D0294940F2311001F092FF009B002B4D
:10C2F00004D125494FF4997001F08AFF002303937C
:10C300000198FFF781FE0346002B02D00823039318
:10C3100034E0009B9B78002B19D00122002101986A
:10C32000FFF722FF03468DF80B309DF90B30B3F178
:10C33000FF3F09D09DF90B00009B1A78009B5B78AA
:10C340000199FFF77FFC05E00423039302E00198C5
:10C35000FFF7C6FE039B002B10D1009B5B78012BDF
:10C3600003D10198FFF76FFD02E00198FFF77FFD11
:10C370000198FFF7F8FC0198FFF7CEFE039B1846E3
:10C3800005B05DF804FB00BF885603005C32002056
:10C3900000B583B00190019B2F2B04D912494FF4B3
:10C3A000BE7001F035FF0198FFF72EFE0346002B0B
:10C3B00004D10D4940F27D1001F02AFF0198FFF7EA
:10C3C00037FE034683F00103DBB2002B04D106499C
:10C3D0004FF4BF7001F01CFF0198FFF734FD00BF60
:10C3E00003B05DF804FB00BF8856030000B583B0BE
:10C3F0000190019B2F2B04D912494FF4C37001F017
:10C4000007FF0198FFF700FE0346002B04D10D49FA
:10C4100040F2871001F0FCFE0198FFF709FE034689
:10C4200083F00103DBB2002B04D106494FF4C47042
:10C4300001F0EEFE0198FFF71AFD00BF03B05DF8B2
:10C4400004FB00BF8856030000B587B0039002913B
:10C450000192039B2F2B04D9364940F2072001F0AB
:10C46000D7FE002305930398FFF700FE0346002B39
:10C4700002D00823059357E0029B9B78C3F3400347
:10C48000DBB21A4601990398FFF76EFE03468DF85A
:10C4900013309DF91330B3F1FF3F43D0029B9B78DB
:10C4A000C3F38003DBB283F00103DBB2002B13D0B4
:10C4B000029B9B7803F00103DBB2002B03D00398AF
:10C4C000FFF777FC05E0029B5B7819460398FFF7BE
:10C4D0005BFC0398FFF720FE029B9B7803F00203AE
:10C4E000DBB2002B08D09DF91300029B1B781A4683
:10C4F0000399FFF753FB17E09DF91330083B0E4AF1
:10C50000134493F96010029B1B789B015AB29DF96A
:10C510001330083B0A4351B2074A13440A4683F8D2
:10C52000602001E004230593059B184607B05DF8E1
:10C5300004FB00BF885603005C32002000B583B0C6
:10C540000190019B2F2B04D908494FF4227001F070
:10C550005FFE0198FFF79FFC0346002B14BF0123E9
:10C560000023DBB2184603B05DF804FB88560300D5
:10C5700000B599B00023149306AB00221A605A60EC
:10C580004FF48073ADF84A300123169300231393C0
:10C5900021E0BDF84A301846FFF7AAFA0346002BFF
:10C5A0000ED01698FFF7EEFA0346002B08D0BDF820
:10C5B0004A301846FFF7B1FA149A169B13431493A6
:10C5C000169B5B001693BDF84A300433ADF84A3031
:10C5D000139B01331393139B072BDAD94FF4BE70CF
:10C5E000FFF786FA0346002B0DD04FF4BE70FFF71D
:10C5F00094FA149B43F00043149306AB1A460221AD
:10C600000020FFF78FFC149BDBB2002B29D0012305
:10C6100016930023139321E0169A149B1340002BCA
:10C6200016D01398FFF7ECFA11901398FFF7F8FA69
:10C6300003468DF843301398FFF78AFD0F900F9B48
:10C64000002B05D09DF843200F9B11461198984769
:10C65000169B5B001693139B01331393139B072BBD
:10C66000DAD9149B002B80F2F08000238DF85F3024
:10C6700004AB00221A605A60002315930AE0159B50
:10C680009B0018AA13444FF0FF3243F8582C159B17
:10C6900001331593159B012BF1D900238DF85F30E1
:10C6A0000023139378E06B4A139B1344603393F990
:10C6B00000308DF83B309DF83B3023F0C0030D93E4
:10C6C000644A139B1344603393F90030B3F1FF3F86
:10C6D0005FD002AB19460D98FFF75EFC0346002BB6
:10C6E00057D09DF83B309B098DF833300D98FFF7FC
:10C6F00021FD03461846FFF72BFD0B900B9B002BEB
:10C7000003D19DF83330032B43D19DF83330032BF5
:10C7100004D104AB19460D98FFF756FC0D98FFF7AE
:10C72000CFFB03468DF82B3006AB19460D98FFF76B
:10C7300033FC0990099B002B03D09DF82B30022B72
:10C7400006D0099B002B24D19DF82B30032B20D140
:10C750009DF83330032B13D19DF82B30022B01D1E0
:10C76000032300E002238DF823309DF8233019467F
:10C770000D98FFF73AFB9DF85F3001338DF85F307D
:10C780000B9B002B05D09DF833200B9B11460D9879
:10C790009847139B01331393139B032B83D99DF865
:10C7A0005F30002B4CD001238DF85E306B461A466B
:10C7B00002210020FFF7B6FB0023159314E0159B20
:10C7C0009B0018AA134453F8602C159B9B0018A9D2
:10C7D0000B4453F8483C9A4203D000238DF85E3056
:10C7E00005E0159B01331593159B012BE7D99DF8A7
:10C7F0005E30002B03D000238DF85F3020E0002353
:10C8000015931AE0159B9B0018AA134453F8602C4B
:10C81000159B9B0018A90B4443F8482C159B9B00C3
:10C8200018AA134453F8502C159B9B0018A90B44CD
:10C8300043F8582C159B01331593159B012BE1D917
:10C840009DF85F30002B7FF428AF00BF19B05DF872
:10C8500004FB00BF5C32002008B5064B1B68002BB0
:10C8600003D10549512001F0D3FC024B1B689847C6
:10C8700000BF08BDC8320020E456030082B001901A
:10C88000019B044A934201D1034B00E00023184668
:10C8900002B0704700200040C832002000B587B0C9
:10C8A00001900091019B002B03D11C49772001F0DE
:10C8B000AFFC0198FFF7E2FF0590059B002B25D008
:10C8C00000238DF8133000238DF80B300DF10B038E
:10C8D0001846FCF761FB059B1B79002B03D0012355
:10C8E0008DF8133005E0059B009A1A60059B012224
:10C8F0001A719DF80B301846FCF764FB9DF8133055
:10C90000002B03D011230393039B02E00023039326
:10C91000039B184607B05DF804FB00BFE456030014
:10C9200082B003468DF807309DF8073003F01F02F0
:10C9300005499DF907305B09012000FA02F241F830
:10C94000232000BF02B0704700E100E082B0034640
:10C9500000918DF807309DF90730002B0CDA009B11
:10C96000DAB20C499DF8073003F00F03043B520183
:10C97000D2B20B441A7609E0009BDAB206499DF95F
:10C9800007305201D2B20B4483F8002300BF02B03B
:10C99000704700BF00ED00E000E100E082B00190D0
:10C9A000019B03F06043B3F1005F0CBF0123002340
:10C9B000DBB2184602B0704782B00190019B1B0B9E
:10C9C0005BB2184602B0704700B583B003460A4612
:10C9D0008DF8073013468DF806309DF80630012B90
:10C9E00003D99DF80630032B0BD99DF80630042B94
:10C9F00003D99DF80630072B03D908496B2001F0B5
:10CA000007FC9DF806209DF9073011461846FFF7F0
:10CA10009DFF00BF03B05DF804FB00BF3C5703005F
:10CA200000B583B003468DF807309DF907301846EE
:10CA3000FFF776FF00BF03B05DF804FB82B0019002
:10CA40000B468DF803309DF80330019A1344012200
:10CA50001A6000BF02B0704784B001900B46ADF879
:10CA60000230BDF80230019A134400221A60BDF86A
:10CA70000230019A13441B680393039B00BF04B068
:10CA8000704782B001900B46ADF80230BDF802301D
:10CA9000019A13441B68002B14BF01230023DBB24F
:10CAA000184602B0704782B001900091019B009A35
:10CAB000C3F8042300BF02B0704782B00190009118
:10CAC000019B009AC3F8082300BF02B0704782B0F0
:10CAD0000190019B0722C3F8002500BF02B07047F8
