:020000040002F8
:1060000000000120756302005D6302005F6302000F
:106010006163020063630200656302000000000028
:1060200000000000000000000000000067630200A4
:1060300069630200000000006B6302006D630200F0
:10604000D18502006F630200598A02006F6302006B
:10605000E59302006F630200D5880200E197020019
:106060006F6302006F6302006F6302006F630200E0
:106070006F6302006F6302006F6302006F630200D0
:106080006F630200257602006F6302006F630200F7
:106090006F6302006F63020019C202006F630200A7
:1060A0006F6302006F6302006F6302006F630200A0
:1060B0006F6302006F630200000000000000000038
:1060C0006F6302006F6302006F6302006F63020080
:1060D0006F6302006F6302006F6302000000000044
:1060E00000000000000000000000000000000000B0
:1060F00000000000000000000000000000000000A0
:10610000000000000000000000000000000000008F
:10611000000000000000000000000000000000007F
:10612000000000000000000000000000000000006F
:10613000000000000000000000000000000000005F
:10614000000000000000000000000000000000004F
:10615000000000000000000000000000000000003F
:10616000000000000000000000000000000000002F
:10617000000000000000000000000000000000001F
:10618000000000000000000000000000000000000F
:1061900000000000000000000000000000000000FF
:1061A00000000000000000000000000000000000EF
:1061B00000000000000000000000000000000000DF
:1061C00000000000000000000000000000000000CF
:1061D00000000000000000000000000000000000BF
:1061E00000000000000000000000000000000000AF
:1061F000000000000000000000000000000000009F
:10620000354936480A1A02D0072291438D4634494F
:1062100034480A1A06D00722914381F309880222E2
:1062200082F3148830483149314A00F044F831484B
:106230003149324A00F03FF831483249324A00F0E1
:106240003AF832483249334A00F035F83248334997
:10625000334A00F030F833483349344A00F02BF821
:1062600033483449344A00F026F83448344900228F
:1062700000F02CF833483449002200F027F8334866
:106280003349091A082902DB002202604160314AC1
:1062900090471F481F49884205D00268043003B464
:1062A000904703BCF7E700208646EC46002000211B
:1062B000294A9047FEE7884207D0521A05D0037852
:1062C00001300B700131013AF9D17047884202D098
:1062D00002700130FAE770470000012000E0002062
:1062E0000000012000000120B0420300F82A002035
:1062F0006C2B0020D0630200D063020060D9020042
:10630000B0420300F82A0020F82A0020A0DA020098
:10631000A0DA0200A0DA0200A0DA0200A0DA02008D
:10632000A0DA0200A0DA0200A0DA0200AF42030005
:10633000244303006C2B00206C2B00206C2B0020CE
:10634000C4790020C4790020C4790020C4790020D9
:10635000C49900209D63020085A40200FEE7FEE7C9
:10636000FEE7FEE7FEE7FEE7FEE7FEE7FEE7FEE705
:1063700000F002B8FFF7FCBF0F484FF00701884359
:1063800085460E4880470E48016841F4700101605F
:10639000BFF34F8FBFF36F8FFFF732BF09480A4932
:1063A0000A4A884207D0521A05D0037801300B7090
:1063B0000131013AF9D17047000001206D800200DF
:1063C00088ED00E0A0DA0200F82A0020F82A002078
:1063D0007047000007B5044B0093044A402300F0C7
:1063E00032F803B05DF804FBF16302006D2B00206E
:1063F0002DE9F84388461446B2B10F4B0F4E0325E2
:10640000002743F00109224608EB0701002004F0B1
:1064100059FA0744241A48B933782BB14FF47A401B
:10642000C847013D02D13570BDE8F88301233370C0
:10643000002CE8D1F8E700BFA0DA02006C2B0020A6
:10644000704704F073BAF0B595B01D46164608467D
:106450000C4601F099FC1A9B0D93CDE908650025C7
:106460002B46082205A920460A958DF82C500C953C
:1064700001F0A7FC079B0293069B03939DF8143041
:106480008DF8115003F00302012A1DD1BDF814202C
:10649000059DC3F3C203C2F383168DF81030B2001A
:1064A00008230EA9204601F08CFCC5F3952508AB06
:1064B0000093324602AB0EA9284600F055FB204659
:1064C00001F066FC15B0F0BD022AF8D1BDF81650F7
:1064D000C3F3C203C5F389158DF810300827082DC2
:1064E0002E4628BF08263B4632460EA9204601F01C
:1064F00068FCAD1B08AB02AA31460EA8374400F079
:1065000097FB002DEBD1DAE708B5FFF79AFF0448B7
:10651000042100F091FA034B01225A7108BD00BF1B
:1065200090DA0200F82A0020037813F0040216D053
:1065300003F00303012B03D0022B09D00120704785
:106540000A6800880232C0F3831002440A60F5E74B
:106550000B684288023303EB92130B60EEE71046A0
:10656000704700002DE9F04F87B000230446861CD9
:106570000DF107000F4615468DF8073000F0E2FEDA
:10658000454801683960D0E90132134401335B1A90
:10659000824600F21C4700F5836900F21448B342BA
:1065A0001CD30020002D73D004F00F039B0143F097
:1065B000050363F30F00DAF80020DAF8083013401F
:1065C000033316444AF823009DF80700CAF8006018
:1065D00000F0DCFE012007B0BDE8F08F0121384655
:1065E00001F0FDF8484601F012F9404601F00FF9BC
:1065F000DAF80400DAF808B0029000EA0B00033081
:106600000AEB800002A9FFF78FFF029B50BB0BEA49
:1066100003020AEB820203F1020CD26803920133F7
:1066200003EA0B0B0AEB8B0B02F00302012ADBF8E7
:106630000C10CDF808C023D0022A16D0834640465D
:1066400001F0E8F810B1029BCAF804305946384608
:1066500001F0C5F8DAE901231344DAF80020013328
:106660009B1A9CE70BEA0300C9E7BDF80E30C3F3A1
:10667000891303334FEA114B0CEB93030293DEE7CC
:10668000BDF80C30C3F383134FEA114B6344F5E7B5
:10669000A40544F006008EE7802C00200B4B0C482C
:1066A000FF2210B59A600022C3F81824C3E9002223
:1066B000C3F8142483F8202401F01FFB044610B90A
:1066C000044801F023FC204610BD00BF802C0020B0
:1066D000E4D90200DCDA020030B50A4C71B10A4A92
:1066E0000A49121BD20800239A4201D1002030BD72
:1066F00031F82350854202D00133F5E7034654F8C0
:106700003300F4E7F8D9020090DA0200F82A0020FA
:10671000094B013903EBC000032909D8DFE801F078
:106720000A020406042070470079704740797047D8
:106730000020704702207047F8D90200034BD3E9CC
:106740000030C31A58425841704700BF802C0020C7
:106750002DE9F04387B0FFF7F1FF0646002840F02F
:10676000F9807D4DC5F81804BFF34F8F6B68AC6896
:1067700002932340033305EB830002A9FFF7D4FE05
:10678000029B18B1D5F81824002A5FD004EA03024E
:10679000991C013305EB8202234005EB8303D26889
:1067A000DB68049302F00303022B0392029160D191
:1067B000BDF80E306948C3F38917502FB84628BF7B
:1067C0004FF0500868F38F1308F10801ADF80E3050
:1067D00001F0ABFA0646002800F0A78001F0D4FAD9
:1067E0000023082203A9304601F0E1FA029924EAC5
:1067F00001020132B8EB820F4FEA820332D95FFA0D
:1068000088F85BB32140DCB2A8EB040803315FFADF
:1068100088F9A046524C05EB8101082342463046D8
:1068200001F0C5FA34B108F108034A462146304662
:1068300001F0BDFA029B033703EB97070297D5F8E7
:106840001834002B49D1D5F8104459E02A689A42EF
:106850008FD86A60304607B0BDE8F08340491C46D7
:106860009946DAE70C40E11C0823424605EB81011A
:10687000DDE7012B59D1BDF80C303848C3F3831143
:10688000062928BF062161F3891302318900ADF87A
:106890000C3001F04AFA0646002846D001F074FA9E
:1068A0000023082203A9304601F081FA0027BDF831
:1068B0000C20C2F38312BB00974203F10803BED23F
:1068C00002994A1C21400331029205EB8101042206
:1068D000304601F06CFA0137E9E7304601F058FA2A
:1068E000FFF72CFF80F00100C6B2B3E7E3685B79E5
:1068F00023B1236831461B6820469847E3681C682B
:10690000002CF3D1304601F043FA0DF107008DF869
:10691000074000F017FDD5F818340BB9029B6B60E7
:106920009DF8070000F032FDDAE7D5F8104454B9BD
:106930000C4B0D480D49C01AC008000440F002007D
:1069400000F062F8CCE7236820469B689847E3682C
:106950001C68ECE700267DE7802C0020E4D90200CB
:106960008C2C0020F8D9020030DA0200C4DA0200D0
:106970002DE9F74F224D04460F46924601A9012208
:106980001846D5F808909B46FFF7ECFD20B3019E12
:106990004FF00008B21CD84508EB020126D1194877
:1069A000002100F0EDFE80F31000000440EA1440E6
:1069B000E400731C04F0380403EA090306EA09063C
:1069C00044F0010405EB8303033644EA881444EAE7
:1069D0008724D86045F8264095F820341BB1FFF78E
:1069E000B7FE0028FBD103B0BDE8F08F09EA010132
:1069F00005EB81015AF82830CB6008F10108CAE79D
:106A0000802C00209C30002000231A46FFF7B0BFE6
:106A100007B50123019201AAFFF7AAFF03B05DF8B1
:106A200004FB07B5CDE9002302236A46FFF7A0FF68
:106A300003B05DF804FB000030B50F49D1F8102415
:106A400003460020144634B9DC6820714AB9C1F805
:106A50001034226030BDE4682579854206D0246870
:106A6000F1E7D268116821601360F3E701300A286A
:106A7000E8D14FF0FF30EDE7802C0020094A38B50F
:106A80000123D2F8104482F820341D4604B938BDE1
:106A9000E3685D71236820465B689847E3681C687B
:106AA000F4E700BF802C002007B503460846197A9A
:106AB000052911D05B7A2BB1094A0A49019000F0EF
:106AC0000CFF01980849019000F007FF019803B0FE
:106AD0005DF804EB00F0F6BE002AF8D0F2E700BF44
:106AE000E8DA0200EDDA0200C5E3020030B5C3883F
:106AF00085B004460D4633B1144A00921449154A34
:106B0000284600F0EAFE217A05291DD0637A4BB1B0
:106B1000A088FFF7FDFD104B104953F820202846B0
:106B200000F0DBFE227A0E4BA08853F8222003925D
:106B30000021FFF7D1FD039A0A490346284605B014
:106B4000BDE8304000F0C9BE05B030BDE8DA020053
:106B5000F8DA0200F0DA020074DB0200EDDA02007B
:106B600098DB020010DB02002DE9F04385B01F46E0
:106B70000C9D002395F80C902B7306460C4690460E
:106B800029463846FFF7B2FFB8F1060F09D8DFE80B
:106B900008F00412181F283340003146284600F040
:106BA0009CFE002229463846FFF77EFF85F80C90B0
:106BB00005B0BDE8F08322683146284600F08DFE1E
:106BC000EFE7D4E900233146284600F086FEE8E7E7
:106BD000A36800933146D4E90023284600F07DFEE7
:106BE000DFE7E3680193A36800933146D4E900230B
:106BF000284600F072FED4E723690293E36801930C
:106C0000A36800933146D4E90023284600F065FECE
:106C1000C7E76369039323690293E3680193A36859
:106C200000933146D4E90023284600F056FEB8E729
:106C300008292DE9F74F80460E4617461C463CD8DA
:106C4000002593F80C901D7319461046FFF74EFF70
:106C5000DFF888A0DFF888B0AE4231D918F80520F7
:106C60005946204600F039FE0135082DF4D1194966
:106C7000194DDFF870A0204600F02FFE4FF0000BFA
:106C80005E4522D918F80B207E2A05D810460192BD
:106C900006F034FA019A00B92E225146204600F03F
:106CA0001CFE0BF1010BBBF1080FE9D101222146BB
:106CB0003846FFF7F9FE84F80C9003B0BDE8F08F7A
:106CC0005146204600F009FECEE72946204600F056
:106CD00004FEE6E724DB020022DB020020DB0200E8
:106CE0001ADB020026DB02001FB50021039001AA77
:106CF00044F20100CDE9011100F004F805B05DF89F
:106D000004FB000010B572B6FFF7B8FEFFF720FDD8
:106D10000028FBD1104B114C1149E41AE40824045B
:106D200044F00100FFF770FE0E4B1B68DB0700D537
:106D300000BE0D4944F00200FFF766FEBFF34F8F1F
:106D40000A490B4BCA6802F4E0621343CB60BFF3FD
:106D50004F8F00BFFDE700BFF8D9020030DA020014
:106D6000B7DB0200F0ED00E0C3DB020000ED00E065
:106D70000400FA0549B152B1531E1A4007D182608E
:106D800001608380C260104670470E207047092062
:106D9000704710B58468C2688388121B934208D379
:106DA000C26813400268D154C3680133C360002035
:106DB00010BD0420FCE78268C3689A420AD082684A
:106DC000838813400268D35C0B708368013383604F
:106DD0000020704705207047D0E90223D1E9020165
:106DE000994208BF90422CBF01200020704700004C
:106DF00008B50B4800F001FC0A4B0B49D3E900230E
:106E00001218D1E9000143F100038B4208BF82420E
:106E100003D212F1807243F100031046194608BDF7
:106E2000002B002040310020B831002037B5054646
:106E30000C460A4801A900F012FC60B105704460DC
:106E400001A9064800F035FC18B1054800F0DAFB4E
:106E5000002003B030BD0420FBE700BFA4310020B8
:106E6000002B002038B5184B1B78044613B90025B9
:106E7000284638BD0028FAD0037F03F0FF05002B19
:106E8000F5D0FFF7B5FFD4E90223994208BF90423D
:106E900014D3236903B92377D4E9053098472169CE
:106EA0000029E4D0237F03F0FF05002BDFD0D4E9D5
:106EB0000223521843F10003C4E902230348214688
:106EC00001F043F8D4E700BF48310020E0DB0200C6
:106ED00013B5114B11491868019008231048582226
:106EE00000F0AAFB044698B90E4A0F4801A900F029
:106EF00071FA044660B90C48012100F061FB0123DE
:106F00000A4A0948194600F0C3FA094B01221A70CF
:106F1000204602B010BD00BFDADB02004C31002079
:106F2000A4310020956F0200002B0020FFFF7F009E
:106F3000483100203AB103685A614A1E514251411A
:106F40001961002070470720704738B5037F044659
:106F50000D4683B98261FFF74BFF2369401941F168
:106F60000001C4E9020103B1256121460020BDE80A
:106F70003840FFF75BBF002038BD00230146037790
:106F80000120FFF753BF0000014800F036BB00BFEF
:106F9000002B00202DE9F04F85B0804600F018FB53
:106FA00040B15A4AD2E9003113F1807341F1000136
:106FB000C2E900310021404600F019FB38B1544EBF
:106FC000336823B13068FFF74DFF002333600121A0
:106FD000404600F00CFB20B1FFF70AFF4D4BC3E920
:106FE00000014D484A4F4D4EDFF8389103A900F09B
:106FF00070FB002845D1DFF82491454EDFF828A129
:10700000484600F0B8FF3368002875D07BB133687C
:10701000D0E90201D3E90223994208BF90422DD260
:1070200033681B7F1BB13168484600F08EFF48462D
:1070300000F09BFFD0E902B307460193FFF7D8FEAB
:10704000019BBBEB000463EB0105012C75F1000310
:1070500045DBB4F5350F40D3FFF796FF304A0244C5
:107060004FF496030021504600F032FA00283ED13A
:10707000336813B9404600F003FA376005B0BDE845
:10708000F08F0378012B1DD0022B09D14FF0000A9D
:10709000304600F06AFF002834D080F81CA0F7E7E3
:1070A0003BB941680B7F23B901230B77304600F0D1
:1070B0004CFF03A9184800F037FB03A9164800F05D
:1070C00008FB96E741683B68994202D100233B6088
:1070D000EFE7304600F052FFEBE7BA68C0E7002167
:1070E000504600F07AFA3846FFF7BCFE01E00D2862
:1070F000F9D00023336083E7002BBFD1404600F076
:10710000C3F9BBE7012389F80030D2E74031002002
:10711000C0310020B8310020A4310020E0DB0200A3
:10712000FFFFB40048310020002B00200648074A2A
:1071300003780749D35C012213B1043002F0E6B8AA
:107140000C3001F0ABBE00BF082B00203432002011
:10715000EC3100200648074A03780749D35C012236
:1071600013B1043002F07EB80C3001F045BE00BF10
:10717000082B002034320020ED31002037B505788F
:10718000012D0BD0022D2ED065B91E491E48FFF7E8
:1071900012FE002832D1FFF7DDFF03E0037A1BB9AE
:1071A000FFF7C4FF03B030BD4368184C1978204680
:1071B000FFF7EFFD80B18DF800500190144B684649
:1071C0001B689847A168E368A2885B1A9A42E7D2D5
:1071D000104B01221A70E5E7A268E3689A42F1D0E9
:1071E0008DF80000EAE7C3688DF800500193FFF7BF
:1071F0009DFF074B68461B689847D3E703238DF82C
:107200000030F6E7ED310020DC310020C8310020ED
:10721000C4310020D8310020F0B51F46234B89B07F
:1072200004461A600D4600293DD08A882048096826
:10723000FFF7A0FD002834D1AA89A9681D48FFF7EF
:1072400099FD00282DD11C4E0FCE6D460FC596E836
:107250000F0085E80F0063690693237C174A1848DE
:107260008DF81C70003B18BF01238DF81430637C2F
:10727000002B14BF0E2300238DF81530E368029312
:10728000A36803932368019369466368009301F040
:1072900037F930B90B4B18702368013301D0FFF771
:1072A00045FF09B0F0BD0720FBE700BFC431002057
:1072B000C8310020DC310020ECDB02007D710200CF
:1072C000082B0020D831002070B5084D0146084831
:1072D0002E78FFF770FD044636B100232B70FFF7C0
:1072E00025FF08B1FFF700FD204670BDD831002012
:1072F000C831002010B501460E48FFF74AFD04468C
:10730000A8B90D480D4A0378D35C63B1043001F08D
:10731000F1FF60B90A490748FFF74DFD38B9BDE8EC
:107320001040FFF717BF0C3001F0ACFDF1E720462D
:1073300010BD00BFDC310020082B002034320020BB
:10734000ED31002070B5EFF3108672B60C4A9468E8
:1073500001239CB993600B4B0B4DD3F8801029404F
:107360001160C3F88050D3F8841051604FF0FF32A1
:10737000C3F88420047006B962B670BD0370FAE7E2
:10738000F031002000E100E0FC06FFBD084B9A68E8
:1073900010B55AB150B9EFF3108172B6054A1C68A6
:1073A00014605C685460986001B962B610BD00BF9B
:1073B000F031002000E100E0435882B03BB10023EF
:1073C000435043580193019B012002B07047184677
:1073D000FBE70000F8B5224B4679224C43F8262003
:1073E000214A224B9B1A04EBC602DB0812791B04CC
:1073F000F70032B143F002001D49FFF705FB0820FA
:10740000F8BD02680D88C2F8085590F90450027959
:107410008978002DADBF05F1604CDFF85CC002F04B
:107420000F0E0CF5614C4FEA4111C9B2B4BF0CF814
:107430000E108CF800136D090121DFF840C002F036
:107440001F0201FA02F24CF82520E21944F8360036
:10745000117143F003000749FFF7D6FA0020CFE788
:1074600004320020FC310020F8D9020040DA02008A
:107470000CDC02002EDC020014ED00E000E100E074
:10748000036801221A607047036801225A6070473E
:1074900073B501F15005AD000068ADB24FF4803412
:1074A0008C400026C0F80843C0F84843465101F517
:1074B000A8714559019522F07F42019D40F8212095
:1074C000C0F844430BB1C0F8044302B070BD0000E3
:1074D0002DE9F74F0D4622F07F4402684FF48037C4
:1074E00005F150068F408046B60002EB8500C2F8D9
:1074F0004873B6B2C2F80873D2F8041599464FF033
:10750000000BD0F84035C0F8401542F806B05B1AC1
:107510009259009223F07F43012B009A4FEA850A8B
:107520000CD1264B4FF4806043F001039847D8F804
:10753000003043F806B09B590193019BD8F8001026
:10754000D1F80465C1F84473A31B23F07F43012BDA
:107550001CD11A4B05F5A875013443F0010341F81D
:1075600025404FF480609847D8F80030D3F80435B0
:107570009E4209D1D8F800300020C3F84473C3F804
:10758000047303B0BDE8F08F0D20FAE78A44C9F117
:10759000FF13CAF84045D1F80405221A013A22F037
:1075A0007F4203F57F439342EED3002AE2D10134B8
:1075B000CAF84045D1F804359842DAE740DC0200C9
:1075C00003680222C3F8442309B1C3F804237047B7
:1075D00000684FF48271FFF7EFBE4FF4803303FA77
:1075E00001F10368C3F84813C3F80813704750311A
:1075F0008900006889B2FFF7DFBE0368D3F804058D
:107600007047000090F9043001215A0903F01F036C
:1076100001FA03F34032024941F82230704700BFBB
:1076200000E100E0024B034A1B681068184700BFE6
:1076300004320020FC31002010B561B1B2FBF3F43C
:1076400003FB1424A4B244B9C0E90014846082810D
:10765000C381204610BD0E20FCE70920FAE737B5AC
:1076600050E8013F9DB2C48925448489A54228BFC2
:107670002D1B0489A54202BFBFF32F8F002207E014
:10768000C5EA030540E80154002CE9D14FF001029E
:107690008DF803200193019B9DF803200B6002F0FD
:1076A000FF0322B10B880068184403B030BD1846B0
:1076B000FBE70A884B889A4209D150E8012FC2EAB9
:1076C000024240E80123002BF7D10120704700203F
:1076D000704737B550E8023F1FFAA3F5C488A542AA
:1076E00002BFBFF32F8F00220DE0C4892544848997
:1076F000A54228BF2D1BC3EA054540E80254002CD3
:10770000E8D14FF001028DF803200193019B9DF811
:1077100003200B6002F0FF0322B14B88006818447D
:1077200003B030BD1846FBE70A884B889A4209D15E
:1077300050E8022FC2EA224240E80223002BF7D190
:10774000012070470020704701F01F024B09012102
:10775000914000EB830000F01EB801F01F030122EE
:107760009A404B0900EB8300D14300F02CB84B0941
:1077700001F01F0150F82300C84000F001007047DD
:1077800010B5034653E8000F0A4643E8002494F07E
:10779000000FF7D110BD10B5034653E8002F42EAA1
:1077A000010043E8000494F0000FF6D110BD10B5BD
:1077B000034653E8000F00EA010243E8002494F076
:1077C000000FF6D110BD10B5034653E8002F02EAB2
:1077D000010043E8000494F0000FF6D110BD10B58D
:1077E000034653E8002F02EB010043E8000494F045
:1077F000000FF6D110BD10B5034653E8002FA2EBE1
:10780000010043E8000494F0000FF6D110BD0121FF
:10781000FFF7C1BF0021FFF7CABF10B590B1D0E993
:10782000012301689B1ADBB20A60013BDBB2FF2B2C
:10783000026802D10020107110BD11684C1C146048
:107840000B70F2E70E20F7E737B5054600240DF17F
:1078500007008DF80740FFF775FD2A686B6811680F
:1078600099420ED9481E106011F8014CEB68298A24
:1078700001FB0434AB6811791B1ADBB2994238BFA3
:1078800013719DF80700FFF781FD204603B030BD5E
:1078900037B5054600230DF107000C468DF807307B
:1078A000FFF750FD2A681368591C1160E968641AD3
:1078B000298AB4FBF1F41C709DF80700FFF766FD00
:1078C00003B030BD826810B504462AB1436901682F
:1078D000006998470023A36010BD0EB403B5039957
:1078E00021B104AB01AA019300F076F802B05DF873
:1078F00004EB03B070470A2938B504460D4602D19F
:107900000D21FFF7F8FFA3682268591CA160D55428
:10791000D4E901329A4204D32046BDE83840FFF74B
:10792000D1BF38BD2DE9F84F9846DDE90A43154629
:1079300082460F460A464FF00109AA420FD2C145BE
:1079400038BFC14613F0010B01D16CB900240126E8
:10795000B8F1010F1BD908F1FF386E43F8E709F1C0
:107960000109B2FBF5F2E8E79B070ED5B8F1000F6D
:107970000CBF30262026A145E9D2013C31465046B5
:10798000FFF7B9FF002CF6D1E0E72026F3E7B7FBBD
:10799000F6F39D42E1D9DFF83C80B7FBF6F35046A1
:1079A00018F8031006FB1377FFF7A5FF3346AB4229
:1079B000B6FBF5F6F1D2BBF1000F02D00CB1A14538
:1079C00001D3BDE8F88F20215046013CFFF793FF1B
:1079D000F4E700BF46DC02002DE9F74F05461746E5
:1079E0008846002900F0428118F8011B49B92B7B19
:1079F000002B00F03B81284603B0BDE8F04FFFF7B5
:107A000061BF252940F0B780002698F800302D2B63
:107A1000424608F1010823D0302B24D02B2B25D04F
:107A200000242A2B02F1010123D13B681A1D1B6897
:107A30003A601C440A4613782E2B26D101324FF0AF
:107A4000000A104610F8011BA1F1300CBCF1090F1F
:107A50001DD80A2303FB0A13A3F1300A0246F0E7FC
:107A600046F00106D1E746F00206CEE746F00406EE
:107A7000CBE711F8013CA3F130000928DBD80A223A
:107A800002FB0434303C0A46CBE74FF0000A12F800
:107A9000011B01F0FB0068289046F8D0782909D82E
:107AA0006F290CD8632962D022D8252963D05829A0
:107AB00000F0888098F80030002B95D197E7703956
:107AC0000829F7D801A353F821F000BF477C020032
:107AD000B57A0200B57A0200D57B0200B57A0200C1
:107AE000B37B0200B57A0200B57A0200C57B0200C2
:107AF000642901D06929DDD13A68D2F80090111DBE
:107B000089EAE9723960A2EBE9724FF0010B092AA8
:107B100035DCD34538BFD3462CB1B9F1000F01DBBA
:107B2000720700D5013CB30702D5BAF1000F03D0AC
:107B3000F00701D44CBB0024B9F1000F2DDAC9F1D4
:107B400000092D212846FFF7D6FE06F00302022A7F
:107B500004D1BAF1000F01D11CBB0024CDE90046CD
:107B600053460A2249462846FFF7DCFEA2E73B6857
:107B70001A1D19783A602846FFF7BDFE9AE70A23D6
:107B80000BF1010BB2FBF3F2C1E7A345D4D22021E4
:107B90002846013CFFF7AFFECCE77107D5D52B2176
:107BA000D0E7A345DAD230212846013CFFF7A3FEF7
:107BB000D2E73968CDE900460A1D3A6053460A22E9
:107BC0000968D0E739680A1D3A60CDE90046534696
:107BD0001022F5E73B681A1D3A6016F00106D3F84B
:107BE000009028D1B9F1000F03D0484605F053FBAF
:107BF0000646B44200D904BB09F1FF3919F8011F48
:107C000000293FF457AF2846FFF775FEF6E72846F0
:107C10000136FFF770FE19F806100029F7D1A642C9
:107C2000BFF448AF002C3FF445AF20212846013C6B
:107C3000FFF761FEF3E70026EDE720212846013C2F
:107C4000FFF759FED5E73B681A1D3A6030212846F8
:107C50001C68FFF750FE78212846FFF74CFE0022F3
:107C60000823CDE90032214610227CE703B0BDE8AD
:107C7000F08F00BF2DE9F84FB0F806A04579D2F893
:107C800000B09DF828900AFB05F5043D88460BEBF3
:107C90000301A94203F1040488BFA5EB030BB4FB65
:107CA000FAF607460AFB1644C2F800B04EB9AAEB32
:107CB00004055D4528BF5D46BBF1000F04D1BDE85A
:107CC000F88F3F68013EF1E7043408EB06003C44BE
:107CD0002A46B9F1000F0DD02146ABEB050B05F09C
:107CE0005CFADA452E443F6855464FF0000428BF41
:107CF0005D46E1E701462046EFE7FFF78EBDF8B5A8
:107D000046790146721E0546002393422D6803D32F
:107D10000024A64202D8F8BD0133F6E70F682846D2
:107D2000FFF7B6FD01343946F3E72DE9F843068A3B
:107D3000CD1C0746FFF788FD043E35440446B5FBDD
:107D4000F6F5F0B14FF48073EDB28380C680013D4B
:107D5000076081464FF00008A84512D23846FFF769
:107D600073FD064648B163790133637108F1010878
:107D7000C9F8000007608146EEE72046FFF7BFFF25
:107D800034462046BDE8F88301210430FFF727BDC3
:107D900010B5012104460430FFF72DFD10F0FF0F50
:107DA00004D12046BDE81040FFF7A9BF10BD1FB5A4
:107DB00003920022009203AAFFF75CFF05B05DF872
:107DC00004FB1FB503920122009203AAFFF752FFA2
:107DD00005B05DF804FB33DF704741DF70470000FA
:107DE000064B10B500241C70054B1C60BFF35F8F61
:107DF0000449054800F093F8204610BD11320020D8
:107E00001432002060DC02000832002007B5002395
:107E10000DF107008DF80730FFF794FAF1EE103AF4
:107E200023F09F03E1EE103ABFF35F8F094B40222E
:107E3000C3F884219DF80700FFF7A8FA04F0D2F9EF
:107E400020B1FFF7CAFF03B05DF804FB20BF40BFBD
:107E500020BFF8E700E100E070B5264D044601219F
:107E60002846FFF78DFCBFF35F8F2E4638B9042CF0
:107E70000AD0214B1A781AB1BFF35F8F286070BD0A
:107E80001E4A147001221A701D4C1C4D6368BBB948
:107E9000FEF7F4FDFEF75CFC0028FBD1174B1B78C6
:107EA000023B012B14D8BFF34F8F1649164BCA68FB
:107EB00002F4E0621343CB60BFF34F8F00BFFDE7D6
:107EC0001B682878984788B1204600F032F8DDE733
:107ED00004F088F908B1FFF77EFF4FF080430122DC
:107EE000C3F80025BFF34F8F20BFFDE7BFF35F8FBF
:107EF0003060C4E71432002011320020103200201C
:107F00000832002000ED00E00400FA05836800223A
:107F10005A60C3E904229A60DA601A6070470B68FD
:107F20004A684360934208BF0023016008BF436072
:107F30007047436843B10268916852680B449342AA
:107F4000436004BF00234360704770B54468064631
:107F50000D46206818B1B3682946984718B92368B8
:107F60002B60256070BD2468F3E74368186808B18A
:107F700002681A6070474368186870474368186859
:107F800000B97047884203D102681A600120704727
:107F900003460068F4E7000010B50D49A1F594729E
:107FA000914201D800200FE08C1AE30F03EBE403A9
:107FB0005B1002EBC30452F83330834205D802D27F
:107FC00004F10802ECE7606810BD2146E8E700BF55
:107FD0006CE1020008B5FFF7DFFF024B002808BF85
:107FE000184608BD2FE0020010B50446C0B2FFF7E6
:107FF00081F9204610BD00000C4B1B78062B10D1D8
:108000000B4B1B681A070CD10A4B186800F0F003E1
:10801000302B08D000F0E000A0F140035842584156
:108020007047002070470120704700BFE00F00F04C
:10803000E40F00F0E80F00F0094B1B78062B0CD181
:10804000084B1B681A0708D1074B186800F0F000AE
:10805000A0F130035842584170470020704700BFDC
:10806000E00F00F0E40F00F0E80F00F008B5FFF7B4
:10807000C3FF28B17D4B7E4A1B68C3F30423136002
:10808000FFF7DAFF10B17B4B7B4A1A60FFF7B4FFB2
:1080900028B17A4B7A4A1B68C3F342331360FFF767
:1080A000CBFF20B1774AD36823F08073D360FFF70A
:1080B000A3FF40B14FF080430022C3F80C21C3F866
:1080C0001021C3F83825FFF7B7FF10B16E4B03221C
:1080D0001A60FFF7B1FF40B16C4B05221A60012214
:1080E0009A6700229A603F225A60694B1B78062BE0
:1080F00050D1684B1B6819074CD1674B1B6803F0C4
:10810000F003502B46D14FF08052644BD2F8041448
:10811000C3F82015D2F80814C3F82415D2F80C14AB
:10812000C3F82815D2F81014C3F82C15D2F814147B
:10813000C3F83015D2F81814C3F83415D2F81C144B
:10814000C3F84015D2F82014C3F84415D2F824140B
:10815000C3F84815D2F82814C3F84C15D2F82C14DB
:10816000C3F85015D2F83014C3F85415D2F83414AB
:10817000C3F86015D2F83814C3F86415D2F83C146B
:10818000C3F86815D2F84014C3F86C15D2F844242B
:10819000C3F87025FFF730FF28B1414B414A1B68F7
:1081A00003F04F031360FFF727FF48B14FF0804300
:1081B000D3F80024D20744BF6FF00102C3F80024B3
:1081C000394B1B68062B08D1384B1B68062B01BFA7
:1081D000374A136843F480631360364AD2F8883014
:1081E00043F47003C2F88830BFF34F8FBFF36F8F33
:1081F0004FF01023D3F80022002A03DBD3F8043217
:10820000002B2FDA2C4B0122C3F80425D3F80024CD
:10821000002AFBD04FF010221521C2F80012D3F82B
:108220000024002AFBD04FF010231522C3F80422AB
:10823000214B1A46D3F800140029FBD00021C3F8C3
:108240000415D2F80034002BFBD0BFF34F8F19492F
:108250001A4BCA6802F4E0621343CB60BFF34F8F3E
:1082600000BFFDE7164B174A1A6008BD2403001033
:108270004035014074C007400DF0ADBA4402001013
:108280003C050040F0ED00E0A00500401056004025
:10829000E00F00F0E40F00F0E80F00F000C0004035
:1082A00058020010E40E00403001001034010010AC
:1082B0003C17004000ED00E000E001400400FA053A
:1082C0001C2B00200090D003054A4FF0A043105C07
:1082D000D3F8043523FA00F0C04300F001007047E2
:1082E00070E10200044B1A5C012393404FF0A0425E
:1082F000C2F80C35704700BF70E10200044B1A5CF5
:10830000012393404FF0A042C2F80835704700BFE8
:1083100070E1020008B50020FFF7F0FF0120FFF731
:10832000EDFF0220FFF7EAFFBDE808400320FFF75A
:10833000E5BF08B50020FFF7D5FF0120FFF7D2FF0A
:108340000220FFF7CFFFBDE808400320FFF7CABFB8
:10835000074A4FF0A041105CD1F804350122824059
:1083600022EA03001340C1F80805C1F80C35704734
:1083700070E10200014B185C704700BF6CE1020025
:1083800038B5074C051E04F1080318BF1C462368C6
:108390002BB11A6822605B6828469847F7E738BD1A
:1083A0002032002020B9054B01225A70FFF7E8BFA8
:1083B000012802D1014A9070F8E770471832002076
:1083C00020B9034B01225A70FFF7DABF704700BF94
:1083D0001832002038B50B4C237883B90A48636003
:1083E000A3602361E36000F0C9F8054603F0FAFEDC
:1083F00008B900F0CFF801232370284638BD852541
:10840000FBE700BF18320020A583020037B50B4CF4
:1084100000230DF107008DF80730FEF793FFE368A6
:10842000013BE360E56815B900F0C6F8A5709DF85A
:108430000700FEF7ABFF03B030BD00BF18320020CD
:10844000012813B508D003281CD018B9104B0122FD
:10845000C3F8802002B010BD0E4C00230DF10700C0
:108460008DF80730FEF76EFF23780BB9FFF7B2FFE8
:10847000E3689DF807000133E3600123A370FEF772
:1084800085FFE7E700F086F8FFF7C0FFE2E700BFEF
:1084900000E100E0183200201FB503788DF80030AD
:1084A0004368019383688DF80830C368054A0393D5
:1084B000054B684653F8213052F82110984705B013
:1084C0005DF804FB2C320020303200201FB5037809
:1084D0008DF800304368019383688DF80830C368D5
:1084E000054A0393054B684653F8213052F8211092
:1084F000984705B05DF804FB2C3200203032002094
:10850000F0B5194B90F800C091F81DE043F82C200D
:10851000164B16460A6943F82C20154B03F80CE05D
:108520000C4607460FCC89B06D460FC594E80F0086
:1085300085E80F00CDF810C0BEF1000F09D0002E65
:108540000C4A694608BF3246381D00F0C3FD09B029
:10855000F0BD002E084A694608BF324607F10C00FC
:1085600000F08EFBF3E700BF303200202C320020F9
:108570003432002099840200CD840200044A137929
:1085800023B90121106091801846704785207047FB
:1085900038320020074B1A68D2075FBFC02283F829
:1085A000002301221A604FF080430122C3F81825EE
:1085B000704700BF00E100E0044B01221A604FF059
:1085C0008042D2F81834DB03FBD470470C00004023
:1085D000154B07B51A687AB100221A601B68009320
:1085E000009B4FF080430122C3F808230F4B5879BA
:1085F00010B95A711B6898470D4B1A6882B1002256
:108600001A601B680193019B4FF080430222C3F85C
:108610000823064B1B68012003B05DF804EB1847E4
:1086200003B05DF804FB00BF0001004038320020B9
:108630000401004000F1804000F5C040002382B0FA
:10864000036003680193019B02B07047800000F152
:10865000A040D0F8002722F44032C0F80027D0F81C
:10866000003743EA0141C0F800177047054B4FF04F
:10867000FF32072843F8202084BFC01880F8482024
:10868000704700BF4032002010B5174C94F85830A6
:1086900043BB04F130032021FF22013911F0FF0117
:1086A00003F8012BF9D1C8B2FFF7E0FF01310C2923
:1086B000F9D1042200210D4804F098FD0C4BC02292
:1086C00083F8062340221A604FF4BE70FFF7B2FF12
:1086D000084B4FF00042C3F80423012384F85830BC
:1086E000002010BD0820FCE740320020943200201A
:1086F00000E100E00060004030B52E4B1A1892F9FE
:108700003040013453D18C78002C4CD01C460022D0
:1087100054F8045B013541D11C1884F83020002442
:1087200043F82240920002F1804202F5C0420B78E9
:10873000D2F810554C7825F498151B04240525F41F
:10874000F85504F4801403F44033C2F81055234361
:108750000402D2F8105504F4F85423432B43C2F812
:1087600010354A780123012A4FF0A04203FA00F3A2
:108770000CBFC2F80835C2F80C3500F5E0730321D0
:1087800042F82310C2080C49012300F0070003FA45
:1087900000F08B5C18438854002003E00132082A63
:1087A000B6D1042030BDFE2382F83030D9E708204E
:1087B000F8E700BF4032002094320020012303FA82
:1087C00000F04FF0A043C3F808057047012303FAF7
:1087D00000F04FF0A043C3F80C057047F0B5364DDC
:1087E0002C1894F93040002C64DA8C78C4F34004DF
:1087F000002C0BBF082300230C260826B34201D10E
:108800000420F0BD55F8237001373FD12E1845F8EC
:10881000232086F8303014B9EA1882F848008A78A4
:10882000540713D4D60733D5820002F1A042D2F800
:10883000004724F00204C2F80047204EC20800F0AE
:1088400007070124BC40B75C3C43B4548A780C78D9
:1088500012F0020225D09B0003F1804303F5C043D0
:108860000202D3F8101521F4473121F44071C3F806
:1088700010152404D3F8101502F4F85204F440340F
:1088800022430A43C3F810250020BAE70133B5E7B5
:108890004C7800F5E0724FF0A046A40046F8224064
:1088A000CBE7083B2B4493F8501041EA841483F83B
:1088B0005040E9E70820A4E740320020943200202D
:1088C0004FF0A043D3F8103523FA00F000F0010078
:1088D000704700002DE9F04F87B000245A4D0394F3
:1088E0004FF48072012102F1804303F5C04390B23E
:1088F0001B68012B06D1D5F804330B4202D0FFF7D9
:1089000099FE0C430432B2F5907F4FEA4101EAD15F
:108910004E4B1B68012B0AD14FF4BE70FFF78AFE45
:108920004FF0A04344F00044D3F81035039314F003
:10893000FF0F1AD0464F00250126344210D0AB005D
:1089400003F1804303F5C043D3F81005D3F81015A5
:1089500057F8253023B1C1F30141C0F304209847F3
:108960000135082D4FEA4606E7D1002C65DA0021D3
:108970004FF0FF33CDE90413354D01274FF0000AC6
:10898000344ED1464FF0A04816F9013B5A1C45D051
:10899000C3F3C20106AA5018DCB210F8042C03F08D
:1089A0003F0B03F0070307FA03F31A4236D005EB37
:1089B0000B02A40992F9302055F8222052B9032C59
:1089C0002CD10DF1100E1EF801C04CEA030C0EF86C
:1089D00001C001E0032CF4D00BF5E07110F80C0C91
:1089E00058F821101842C1F3014105D0022915D1D0
:1089F000032C0FD1214604E003290FD1032C09D108
:108A000002215846019209F10109FFF71FFE019A60
:108A10005FFA89F912B12146584690470AF1010AD6
:108A2000BAF1040FB0D1B9F1000F06D04FF0A04356
:108A3000039AD3F81035934202D107B0BDE8F08F06
:108A40000393049B059399E7006000407C6100401C
:108A50004032002090320020014B1B68184700BFB5
:108A60009C3200200E4B984237B50C4602D00020B5
:108A700003B030BD00230DF107008DF80730FEF77D
:108A800061FC084B1D7915B901221C601A719DF813
:108A90000700FEF77BFC002DE9D01120E8E700BFBE
:108AA000002000409C3200200023435082B04358F5
:108AB0000193019B02B070470A4610B54FF48E71C6
:108AC000FFF7F2FF136A9168C95C136A01331362FE
:108AD000C0F81C1510BD024608B500684FF492712D
:108AE000FFF7E2FF4FF484711068FFF7DDFF1368B2
:108AF00001221A6008BD8B690A4610B54FF48471D3
:108B000023B9FFF7D1FFD0F8183510BDFFF7CCFF20
:108B1000536AD168D0F81805C854536A01335362B8
:108B2000F3E700001FB501238DF80030044BCDE9B9
:108B30000110D3E900126846904705B05DF804FBC8
:108B4000A432002030B54C48D0F8043313F4007F31
:108B500085B005464DD0D0F82431002B49D04FF4D4
:108B60009271FFF7A1FF4FF40173C0F80833434B34
:108B700093F829200AB9012242603F4902228DF868
:108B80000020D1F88024C1F8802403929A690292CF
:108B9000DA6801920022C3E906226846D3E900128E
:108BA00090473548D0F81C315BB134494A690B6AAB
:108BB0009A420A464AD991F82830002B46D1FFF74D
:108BC0007BFF2D48D0F844318BB14FF4A271FFF7F1
:108BD0006BFF2A4B93F829200AB1012202609A699F
:108BE0002AB10022586AD9689A61FFF79BFF05B045
:108BF00030BDD5F804335B07D3D5D5F80831002B49
:108C0000CFD01E4C1C482146FFF775FF636AA2694E
:108C10009A422346C5D1E269E1684AB12369E3601B
:108C20000023606AA261E3616362FFF77BFFB8E73C
:108C300094F829200AB901226A600F4A4FF40170A2
:108C4000C2F808030022586A9A61EEE70A484FF416
:108C50008E71FFF729FF5369002BB2D05169029141
:108C6000002391688DF80030019153616846D2E984
:108C700000139847A5E700BF00200040A432002061
:108C80002DE9F843574B057991462C2202FB05321A
:108C9000064692F82A200C469846002A40F09D800D
:108CA00051490068FFF7DEFE0746002840F0978034
:108CB00021683368481C0BD04FF0A04001228A4045
:108CC000C0F8082501F5E0724FF0030C40F822C00F
:108CD0006068421C1FBF00F5E0724FF0A04C4FF0DF
:108CE000000E4CF822E0A269C3F8242594F814C0C1
:108CF000627DBCF1010F4CEA0202C3F86C25C3F897
:108D00001405C3F80C151DD1A1684A1C1FBF01F53D
:108D1000E0724FF0A0404FF0000C40F822C0E26833
:108D2000501C0BD04FF0A04C01209040CCF808050F
:108D300002F5E0704FF0030E4CF820E0C3F8082570
:108D4000C3F810152C236B4308EB0302C2F8049000
:108D5000226948F80320B9F1000F2BD03068247F36
:108D60004FF48E71FFF7A0FE30684FF4A271FFF749
:108D70009BFE32681D4BC2F80433110B42F30732DD
:108D8000002AA8BF02F160404FEA4413BABF184856
:108D900001F00F0400F56140DBB2B4BF035580F869
:108DA000003301F01F01012303FA01F15209114BB5
:108DB00043F8221033680422C3F800252C2303FB58
:108DC00005830022C3E9062283F829205A61012283
:108DD00083F82A203846BDE8F8830827FAE71127E8
:108DE000F8E700BFA4320020458B0200800002009B
:108DF00014ED00E000E100E02DE9F047204F90F88D
:108E000004904FF02C0808FB097405466669002E93
:108E100034D162610068A16026624FF48E7184F8DB
:108E20002860FFF741FE2868012383602146FFF791
:108E300043FE6368A0468BB92868D4F814A0236A5F
:108E40009A4511D82A68D2F81C31002BFBD0012397
:108E5000D3602C2303FB097300225A613046BDE81E
:108E6000F08794F828303BB9D0F81C31002BF8D0AB
:108E70004146FFF721FEE2E70F26EAE71126EDE77C
:108E8000A43200200379044A2C2101FB03235869F2
:108E9000003818BF01207047A43200202DE9F843A4
:108EA000394F05792C2303FB057306465C6824B112
:108EB00003684FF40170C3F808032C2303FB057308
:108EC000986950B1D86900283ED024B133684FF476
:108ED0000172C3F80423112433E09A61D960586207
:108EE000D8612C2303FB057393F829301BB910B903
:108EF0003046FFF7F0FD4FF02C0909FB057830688C
:108F0000D8F80430002B34D14FF4A271C146FFF7DA
:108F1000CBFD3068D0F82431D0F80821D0F8444196
:108F2000B2B90CB9002BF4D02C2202FB057500223B
:108F3000AA6123BB2CBB95F8291033680122B1B17B
:108F40001A602046BDE8F8831961DA610120C8E79C
:108F5000002BE9D1002CE7D14946FFF7CCFDD8F82A
:108F60002430D8F818209A42D3D82346DCE75A6038
:108F7000E7E74FF40173C0F804330024E1E703246A
:108F8000DFE70F24DDE700BFA432002000234350B9
:108F900082B043580193019B02B070471FB5012373
:108FA0008DF80030044BCDE90110D3E9001268467A
:108FB000904705B05DF804FBD03200207FB5434AEE
:108FC000D2F82461002E60D010464FF49271FFF762
:108FD000DDFF02238DF80030D2F88034C2F88034EF
:108FE0000393D2F83C350293394BDA6801920022A0
:108FF000C3E906226846D3E9001290473348D0F807
:10900000443173B14FF4A271FFF7C0FF304B9A693E
:109010003AB10022C3E90622D968D0F83C05FFF72F
:10902000BDFF2A48D0F82031ABB14FF49071FFF763
:10903000ADFF0123C360264B5A6962B1D0F84C15CD
:109040000291002299688DF8002001915A616846CA
:10905000D3E9001290471D48D0F858319BB14FF426
:10906000AC71FFF793FF1A4B5A6962B1D0F84C15F7
:109070000291002299688DF8002001915A6168469A
:10908000D3E90012904704B070BDD2F81031002B24
:10909000B4D04FF488711046FFF778FF0C4BD2F82C
:1090A0003C0599698842A9D1DC69D96864B1D2F8D4
:1090B000005225F02005C2F800521A699C61DA605E
:1090C000DE61FFF76BFF99E79C61FAE70020004043
:1090D000D03200202DE9F8435D4B067991462422D9
:1090E00002FB0632044692F820200D469846002ADC
:1090F00040F0AA8057490068FFF7B4FC07460028F3
:1091000040F0A48029682368481C0BD04FF0A04091
:1091100001228A40C0F8082501F5E0724FF0030CE7
:1091200040F822C06868421C1FBF00F5E0724FF093
:10913000A04C4FF0000E4CF822E0AA69C3F8242599
:1091400095F814C06A7DBCF1010F4CEA0202C3F825
:109150006C25C3F80C15C3F814051DD1A9684A1C69
:109160001FBF01F5E0724FF0A0404FF0000C40F837
:1091700022C0EA68501C0BD04FF0A04C0120904058
:10918000CCF8080502F5E0704FF0030E4CF820E033
:10919000C3F80825C3F810152423734308EB030212
:1091A000C2F804902A6948F80320B9F1000F3AD0B8
:1091B00020682A7F4FF48871FFF7E8FE20684FF49B
:1091C0009071FFF7E3FE20684FF49271FFF7DEFE27
:1091D00020684FF4A271FFF7D9FE20684FF4AC71FC
:1091E000FFF7D4FE23681C49C3F80413190B43F39B
:1091F0000733002BAEBF03F1604001F00F051748A5
:109200004FEA4212A8BF00F56140D2B2B4BF425546
:1092100080F8002301F01F01012202FA01F15B092D
:109220000F4A42F8231023680822C3F8002524239C
:1092300003FB06830022C3E906225A61012283F858
:1092400020203846BDE8F8830827FAE71127F8E719
:10925000D0320020BD8F02001003420014ED00E068
:1092600000E100E001F06043B3F1005F2DE9F0415F
:10927000064638D11E4B0779242505FB073598464D
:109280006C69002C31D16A610068A9604FF490715B
:10929000FFF77CFE4FF4AC713068FFF777FE336860
:1092A0006A69A968C3F84415C3F8482501229A6081
:1092B0006A68AAB9D3F82021D3F858411AB9002C0A
:1092C000F8D00F2407E0002CFBD10122DA60D3F89C
:1092D0005821002AFBD0242303FB078700237B614E
:1092E0002046BDE8F0811024FAE71124F8E700BF1A
:1092F000D03200200379044A242101FB032358695A
:10930000003818BF01207047D0320020F8B501F0B6
:109310006043B3F1005F04460F465ED10379304DE0
:10932000242101FB0351496821B100684FF4047600
:10933000C0F80863242000FB03539E6956B1D86926
:10934000002839D021B123684FF40472C3F80423F4
:10935000112030E09A61DF60DE6120684FF488718F
:10936000FFF714FE20684FF4A271FFF70FFE236889
:10937000C3F83475C3F8382516BB01221A60217969
:10938000242202FB015252680ABBD3F81041D3F8E1
:109390004421D3F82401144302D10028F5D02246F9
:1093A000242303FB01550023984218BF03209A424F
:1093B000AB6118BF0F20F8BD1F61DA610126CCE751
:1093C000D3F8002242F02002C3F80022D7E74FF47E
:1093D0000472C3F804230020EDE71020EBE700BF80
:1093E000D03200204FF0402382B0D3F81831E3B1DF
:1093F0000F4B00221A601B680193019B0D4BD97F14
:10940000FF2907D0987F01228A404FF0A04148B140
:10941000C1F80C2500225A771A72D3E900210648B8
:1094200002B01047C1F80825F4E702B0704700BF4A
:1094300018410040F4320020FC3200202DE9F74FA3
:109440000679009090464FF0240A694A01930AFB7E
:1094500006FA02EB0A0B0C469BF81C1091460029F9
:1094600040F0C280056863492846FFF7FBFA0028F0
:1094700040F0BC8049F80A80019BCBF8043094F896
:1094800000C0227B4FF0A041012303FA0CF3012A14
:1094900094BFC1F80C35C1F808350CF5E0734FF0F6
:1094A000010E41F823E06378FF2B1FBF0EFA03FE85
:1094B000C1F80CE503F5E07E4FF0030A18BF41F850
:1094C0002EA0A17808BF4FF0FF33FF291FBF01F581
:1094D000E07E4FF0A04A4FF0040B4AF82EB04FF058
:1094E000240E0EFB069918BF0F4689F82010E1786C
:1094F00089F81F1008BF4FF0FF37FF29DFF8F09001
:1095000017D094F804A04FF0010B0BFA01FB4FF0B9
:10951000A04EBAF1000F5ED0CEF80CB501F5E071A7
:109520004FF0030B4EF821B0242101FB069181F886
:109530001EA0C5F808C5C5F80C35A368C5F8107598
:10954000C5F82435637B003B18BF0123022A45D0B0
:10955000032A46D0012A01D143F00203C5F854354D
:10956000A379C5F8C035B8F1000F02D04023C5F883
:1095700004330723C5F80035B8F1000F21D0009B54
:1095800062791B6843F307310029A8BF01F16044E9
:10959000C3F30733BCBF03F00F05174C4FEA421269
:1095A000A8BF04F56144D2B2B4BF625584F8002369
:1095B00003F01F03012202FA03F349090F4A42F89C
:1095C0002130242303FB069600237377012333778E
:1095D00003B0BDE8F08FCEF808B59FE743F0040371
:1095E000BCE743F00603B9E70820F1E71120EFE7F5
:1095F000F4320020E593020014ED00E000E100E009
:109600002DE9F3410679474F242373431446FA1892
:109610000D46517F8646002940F08180FB5823B1DA
:1096200014F0140F04BF0123537795E80F004FF097
:10963000240C0CFB067C0CF10C0888E80F009CF84D
:109640001F20FF2A08D09CF81E10012393404FF0E2
:10965000A042C1B1C2F80835296821B101F06043C8
:10966000B3F1005F06D1AA6882B102F06043B3F1A2
:10967000005F0BD0242303FB0676002373771020B2
:1096800002B0BDE8F081C2F80C35E5E7DEF8003045
:109690006868C3F84415C3F84805E968C3F8342579
:1096A0000022C3F83815C3F81821D3F81821019205
:1096B000019A14F0010218BF0122C3F8502514F0DA
:1096C000020218BF0122C3F8402522075CBF012215
:1096D0001A6124227243BA58B2B9D3F81821002A69
:1096E000FBD0242303FB0676F27FFF2A07D0B07F4E
:1096F000012393404FF0A04218B1C2F80C3500206E
:10970000BEE7C2F80835BBE714F004004FF0400292
:1097100002D0C3F80823F2E7C3F80423B0E711200E
:10972000AEE700BFF43200207FB503788DF8043037
:109730004368029383688DF80C30C368049303690F
:10974000064A8DF81430064B01A853F8213052F820
:109750002110984707B05DF804FB00BF18330020C4
:1097600024330020F0B50546174615F804CB124AFD
:1097700042F82C70114A42F82C30114B0C460FCB9A
:1097800085B06E4686E80F002368009323798DF834
:10979000053063798DF80630A3680293002FA38902
:1097A000084AADF80C3008BF3A46634631462846B1
:1097B000FFF744FE05B0F0BD24330020183300202D
:1097C0009CE102002997020000F1804000F5E04092
:1097D000002382B0036003680193019B02B07047CD
:1097E000F0B5504B504C1B6885B0002B3DD04FF46A
:1097F000827094F82E20FFF7E7FF2AB394F82F30F9
:1098000013BB4A4B1B68002B33D04FF48070FFF71B
:10981000DBFF638B94F82D108B424FD922895B1AA2
:109820009BB292B26383D31A626802EB4303404A4D
:10983000C2F82C36C2F830164FF48270FFF7C4FF1E
:109840003C4B01221A6014E0636802932389ADF84F
:109850000C30E36800218DF8041023BB23742368C7
:1098600001A89847002384F82F3094F82E30002B5D
:10987000C7D1314B1B685BB14FF48870FFF7A4FF71
:109880000023237402238DF8043001A8236898472D
:109890002A4B1B68EBB14FF48A70FFF795FF00234A
:1098A000237405B0F0BD208B608363602081E1608C
:1098B000002AD4D11E4B01221A60D0E7BCD1E36844
:1098C000012284F82F2013B100226283AFE7638363
:1098D000B2E766694FF000470125002EE1D0B6FAE5
:1098E00086F227FA02F34632920026EA030602F1D4
:1098F000804303F5E0431B68002BEED01046FFF7D2
:1099000063FFA2F58C72D30882F00402C2F38002D6
:109910008DF808308DF8045023688DF8092001A8CF
:109920009847DAE7047100403033002000710040AE
:10993000007000400470004010710040147100403D
:1099400038B51E4B044693F82C00A8BB1C4A19607E
:109950002178C2F8F0156178C2F8F415E57818742A
:10996000012183F82C1083F82D00586183F82F0013
:1099700083F82E506FF00043C2F808334FF4827022
:10998000FFF722FF4FF48070FFF71EFF4FF48A703D
:10999000FFF71AFFA3780B485B01DBB280F80733AF
:1099A000802303600223C2F804330DB1C2F804130C
:1099B000C2F80015002038BD0820FCE73033002035
:1099C0000070004000E100E070B52A4B1A7C02F004
:1099D000FF05002A4BD10A79012A9CBF264CC4F806
:1099E000005500F10C0503EB4504247924B993F8E4
:1099F0002D40013483F82D4003EB4503CC790D7ADB
:109A00008E781C715D714B7836021B0106F4E0669E
:109A100003F0300333430E7806F003063343CE7869
:109A2000360306F480563343160406F4E026334327
:109A30004E798979360506F480160906334301F01C
:109A400080710B430C4901EB0016000100F18040CE
:109A500000F5E040012AC6F81835C0F81455C0F8E2
:109A6000104502D80123C1F80035002000E0112084
:109A700070BD00BF303300200070004070B5264A32
:109A8000264B05461220C2F808031C7C022C03D189
:109A9000C2F80403112070BD187C01281DD1D868BC
:109AA00018B10223C2F80433F4E7DD60198393F898
:109AB0002E3063B91A4A1368002BFCD04FF4807023
:109AC000FFF782FE144BC3F82C56C3F83016124B26
:109AD0000222C3F804230020DDE7022093F82E4081
:109AE000C2F80403012600201E745D601981D8604D
:109AF0003CB1598393F82D30C2F82C56C2F8303659
:109B0000C9E7C2F82C564FF48070C2F83016FFF740
:109B10005BFE20461660BEE7007000403033002038
:109B200000710040084A117C0129CBB209D192F89A
:109B30002E0018B1054A002013607047044A1360D4
:109B400070470820704700BF30330020007000408D
:109B50000470004008B5094B1B7853B10020FEF794
:109B6000CDFB0120FEF7CAFBBDE808400320FEF74D
:109B7000C5BBBDE80840FEF7CDBB00BF6033002089
:109B8000F8B57B4C237805461BB100232370FFF703
:109B9000E1FF172D00F28880DFE805F00C1717436E
:109BA00054657680888D888D959A9A9A9A9AC4C9B8
:109BB000D1D9E4E4FFF7CEFF6E48FDF7DEF96E4B36
:109BC000002204461A702046F8BD0020FEF77CFBF8
:109BD000F8B10020FEF792FB022D0CBF4FF4E161BB
:109BE0004FF47A61644B1D704FF400404FF47A7467
:109BF0000025E0FB01454FF4FA6200232046294688
:109C000003F088F900220146BDE8F8405948FDF705
:109C10009CB9FEF767FB022D0CBFC8214FF4C87139
:109C2000E0E70020FEF750FB40B10020FEF766FBA6
:109C30004FF44871504B03221A70D5E7FEF752FBE0
:109C4000C821F7E70020FEF73FFB38B10020FEF700
:109C500055FB4FF47A61484B0422EDE7FEF742FBD7
:109C60004FF4C871F7E70020FEF72EFB48B1002043
:109C7000FEF744FB404B05221A7040F6CD4100220E
:109C8000C2E7FEF72FFBF5E70020FEF761FB3A4B3A
:109C900006221A70002240F26661B5E70020FEF746
:109CA00021FB354B07221A7000248CE7012020701D
:109CB000FEF74EFBEEE701202070FEF749FB002285
:109CC0004FF40051A0E7FEF734FB2B4B0C22EAE7E0
:109CD0002A482B4EFDF751F9D5F1110504461CD049
:109CE000D8B9012D13D0C8235D434FF400474FF47A
:109CF0007A7000214FF4FA620023C7FB050103F0DC
:109D000009F9224601461D48FDF71FF904460220C5
:109D1000FEF7E8FA0123337055E70220FEF7EEFA6A
:109D20000023F8E7FFF716FF134B1222BBE7FFF7FC
:109D300011FF0020FEF7D6FA0F4B1322B3E7FFF70F
:109D400009FF0120FEF7CEFA0B4B1422ABE7FFF719
:109D500001FF0020FEF7C6FA0120FEF7C3FA064B0A
:109D60001522A0E7FEF7E5FA034B1D709CE700BF44
:109D7000B833002088330020B93300206833002036
:109D800060330020044B1B6813F0010301D0FFF780
:109D9000F7BE1846704700BFB4330020032811D81F
:109DA000012A0AD101290FD100F10E02D2B20D4BC6
:109DB00000EB40001A54002070470129F7D0022917
:109DC00004D049B1072070470022F8E7054B00EBAB
:109DD000400018444270EEE7024B00EB400018448C
:109DE0008270E8E7A8330020032808B512D8FEF7F0
:109DF000C1FA800000F1A040D0F8003723F44033CE
:109E0000C0F80037D0F8003743F44033C0F80037CB
:109E1000002008BD0620FCE708B501220221002031
:109E2000FFF7BCFF08B1072810D10722022101204B
:109E3000FFF7B4FF08B1072808D100210A2208461D
:109E4000FFF7ACFF10B1072808BF002008BD0000D5
:109E50000388102B10B502D0112B1ED010BD1A4C48
:109E60002168B1B901220846FFF798FF08B1072819
:109E700024D1072202210120FFF790FF08B1072813
:109E80001CD1042202210020FFF788FF08B1072817
:109E900014D1236801332360E0E70B4A1368013BC8
:109EA0001360002BDAD1FFF7B7FF0028D6D0074B9D
:109EB0001B68002BD2D0BDE810401847034B1B682D
:109EC000002BE6D09847E4E7C0330020BC330020E5
:109ED00008B50020FFF788FF08B1062806D1012049
:109EE000FFF782FF10B1062808BF002008BD33DF4E
:109EF000704776DF70477ADF70477CDF70477FDF1F
:109F000070478FDF7047B1DF7047FCF7EDBE000090
:109F100013B513210190FFF7ECFF019A034660B1DE
:109F20000748084C0849241AE408240444F00200B5
:109F300002B0BDE81040FCF774BD02B010BD00BF18
:109F4000F8D9020030DA0200B2E1020008B50020C0
:109F5000FFF718FF08B1FCF7C7FEFFF7B9FF08B11C
:109F6000FCF7C2FEFFF7C3FF18B1BDE80840FCF7DD
:109F7000BBBE08BD08B5FFF7D5FD18B1BDE8084068
:109F8000FCF7B2BE08BD00000388212B13B50446C0
:109F90003DD007D8112B2BD0132B40D0102B0CD039
:109FA00002B010BD522B42D0562B01D03B2BF7D123
:109FB000A0881321FFF79DFF15E0214B214822497E
:109FC000C01AC008000440F00300FCF71DFD072084
:109FD000FFF7D8FE08B1FCF787FE1C4BA1881C4890
:109FE000198001F0C9FD0028DAD0FCF77DFED7E723
:109FF000134B14481749C01AC008000440F003006E
:10A00000FCF702FD114B4FF6FF721A80C8E70023E0
:10A0100001A98088ADF80430FFF773FFE3E70B4830
:10A0200000231A4685210088FFF769FFDBE7074810
:10A0300000231A4619460088FFF765FFD3E700BFE3
:10A04000F8D9020030DA0200F3E102002A2B0020E6
:10A05000F0730020FDE1020010B51F4B1F4A9B1A50
:10A06000DB088CB01B04032833D8DFE800F002269D
:10A070002C3043F003041A492046FCF7C5FC2C227F
:10A08000002101A803F0B2F844F250624021CDE96A
:10A090000512012313488DF8083001A98DF804300A
:10A0A00001F098F80021104801F0C0FA0F4902466B
:10A0B0002046FCF7ADFC0CB010BD0D4943F0030089
:10A0C000FCF7A2FCF7E70B4943F00100F8E70A4967
:10A0D000FAE70A49F8E700BF30DA0200F8D90200CF
:10A0E0000AE20200706F0020119F020038E20200B5
:10A0F0004FE2020072E20200ABE20200D8E202008C
:10A10000022807B50ED1094B09480A49C01AC008F0
:10A11000000440F003000190FCF776FC064901982A
:10A12000FCF772FC012003B05DF804FBF8D90200D3
:10A1300030DA0200FFE202002CE30200032807D11C
:10A140004FF08043A922C3F820250020FDF784BEEC
:10A150007047000008B503784BB9054B3B211888C0
:10A16000FFF7C7FE18B1BDE80840FCF7BDBD08BD4C
:10A170002A2B002038B50478002C65D140680121D5
:10A18000B0F90050FFF77AFC08B1FCF7ADFD4FF4D1
:10A19000167315FB03F3002BB8BF03F2FF339B12BA
:10A1A00003EB43035B0003F587739BB240F6B732C2
:10A1B000934247D840F654318B421FD9C3F53B63D5
:10A1C0003A24083363436FF0630493FBF4F464347C
:10A1D000E4B24FF6FE721D48214601F013FF30F045
:10A1E000080231D020F00202112A2DD043F20142A0
:10A1F000904229D0BDE83840FCF776BD40F6B42245
:10A20000934208D9CB1A18245C436FF09F0394FB48
:10A21000F3F42A34DCE740F688118B4206D9D41ACD
:10A220006FF0180394FBF3F41234D1E740F63402D4
:10A230009342CED9CB1A06245C43054B94FBF3F42E
:10A240000634C5E76424C4E738BD00BFA47300200A
:10A25000ACFEFFFF0D4B4A881B889A4214D10A8836
:10A2600040F677239A420FD18B88094A09480A4958
:10A27000033B9BB21380094A801AC00800041A46A7
:10A2800040F00300FCF7CDBB704700BF2A2B002035
:10A29000282B002030DA02005BE30200F8D902002C
:10A2A00008B548B103280BD10220FFF76BFD38B188
:10A2B000BDE80840FCF718BDBDE80840FFF746BE02
:10A2C00008BD0000F7B50378012B33D0022B31D045
:10A2D00073BB1A4C1A4D20782844FCF7F5FF2378FD
:10A2E0000133DBB21D44237015F8012C0A2A05D076
:10A2F0000D2A03D0134A12889A4219D8012B15D976
:10A30000114D0F4E114F2378ADF806300DF10602B6
:10A310002B883146384601F0A5FD082806D01328C1
:10A32000F1D0052802D008B1FCF7DEFC0023237031
:10A3300003B0F0BD4068FCF7D7FCF9E76C6F002074
:10A34000C8330020282B00202A2B00202C2B002093
:10A350002DE9F041057888B00646002D50D12A4CF1
:10A360002A4BDFF8BC80E41AE408240444F001041A
:10A37000B28A95420AD33369134413F8013C0D2B7A
:10A3800016D10A20FCF7B6FF1128F9E73369585DAA
:10A39000FCF7B0FF074648B11128F7D00246414606
:10A3A0002046FCF735FB3846FCF79EFC0135DFE71D
:10A3B0000121174802F06CFA3569284602F06BFF5C
:10A3C0002844002400F8014C284602F064FF1728B6
:10A3D00012D91822214602A802F008FF17222946A6
:10A3E00002A802F0B1FE0B4B00930948019402ABA6
:10A3F0002822214602F0DEFA0749084802F066F9F1
:10A4000008B0BDE8F08100BF30DA0200F8D90200E0
:10A41000FC730020502B0020D4340020BC340020DA
:10A4200077E3020008B50A7812B1012A0BD008BD03
:10A4300007484FF40041FCF788FD0028F7D0BDE83D
:10A440000840FCF751BC0248FCF797FDF5E700BF58
:10A45000B8730020FCF748BC08B50849084801F06B
:10A4600077FA08B1FCF740FC0548F72101F084FABF
:10A4700018B1BDE80840FCF737BC08BD55A2020082
:10A48000D873002030B5A84D0FCDB3B007AC0FC4C2
:10A4900095E80300A54BA64A03934FF4807384E824
:10A4A0000300CDE905230493A24A072303A907A8C3
:10A4B000FCF7B2FE08B1FCF717FC4FF48041002016
:10A4C000FCF7ECF808B1FCF70FFCFCF71DF802F004
:10A4D00079FC08B1FCF708FCFCF7FAFC08B1FCF7C2
:10A4E00003FC954A95480121FCF724FD08B1FCF7CF
:10A4F000FBFBFDF775FC08B1FCF7F6FB01F034FE41
:10A5000008B1FCF7F1FB002307A90120079301F034
:10A51000B9FE08B1FCF7E8FB07A801F085FF08B118
:10A52000FCF7E2FB112386488DF80C3002F0B3FEF5
:10A53000834982B203A8FFF7E0FC08B1FCF7D4FB23
:10A540000822002107A802F051FE7E484FF0C87390
:10A55000CDE9070307A8FFF7CEFC08B1FCF7C4FB61
:10A56000FFF77AFF78497948FFF7EAF908B1FCF775
:10A57000BBFB774A10685168127A07AB03C307A97F
:10A5800000201A70FFF720FA08B1FCF7ADFB714804
:10A590000121FFF773FA08B1FCF7A6FB6E48012111
:10A5A000FFF76CFA08B1FCF79FFB002303936B489D
:10A5B0006B4B029302A901F0CDFA08B1FCF794FBB2
:10A5C000684B039303A802F081FB08B1FCF78CFBF6
:10A5D0000021102207A802F009FE634B0793012314
:10A5E0008DF82030614B62480021CDE9091307A99D
:10A5F00001F094FC08B1FCF777FB042200210DEB7D
:10A60000020002F0F3FD5B4B5B48019301A901F0EE
:10A61000AFFB08B1FCF768FBAC22002107A802F0F1
:10A62000E5FD02238DF81C30ADF86830534B1B93C9
:10A630004FF4A0620123ADF81E208DF8983040221F
:10A6400044F25063CDE929234D484E4B309307A97E
:10A6500000F000FC08B1FCF747FB4948012100F07D
:10A66000F6FB1C220DEB0200002102F0BFFD0023CF
:10A670004FF4A032CDE90732ADF82A304FF4F02282
:10A680008DF82C30404B09920C9303223F4B8DF8F0
:10A69000282007A80D9300F0A7FE08B1FCF724FBC3
:10A6A0003B483C4C02F030FD3B4B3C49E41AE4088B
:10A6B000240444F003042046FCF7A6F9FCF748F80C
:10A6C0000028FBD12E48032100F043FC08B1FCF721
:10A6D0000BFB334D284601F046FFE0B931492046D7
:10A6E000FCF792F9D5E904232F49304802F0A0F88D
:10A6F0002E48012102F0CCF82D492046FCF784F9C0
:10A700002C49284601F0E2FFFCF722F80028FBD193
:10A71000FDF77CFBF8E720462749FCF775F94FF079
:10A72000FF3033B030BD00BF00E402000C740020E5
:10A730000C750020C5A20200759F020028E40200EB
:10A74000A2E3020010003C0075A1020021E4020017
:10A7500018E40200C4330020C6330020F073002048
:10A760000B9F020059A0020025A402006401010110
:10A77000A473002051A302002C2B0020202B0020CA
:10A78000706F0020A1A2020055A1020055A4020092
:10A79000A7E3020030DA0200F8D90200B6E30200B3
:10A7A000BC340020DDE30200D4340020FC73002020
:10A7B000F2E3020056E90200C8E302000369C1683F
:10A7C0008B429DBF8268D21802F1FF3203F1FF3342
:10A7D00094BF501A581A70472DE9F843D0E90294F3
:10A7E0000546A9EB04084068904520440F461444F0
:10A7F00004D902F0D2FCEC60BDE8F8834246A4EB39
:10A80000090402F0CAFC6868224607EB0801F0E779
:10A810002DE9F843C5680646894617464FF00008FB
:10A820003469B3687068A54228BFE418013C621B14
:10A830005C1BBC4228BF3C46944228BF1446494694
:10A840002844224602F0A9FCB3682544AB4208BF65
:10A8500000253F1BA044A144F560E1D14046BDE87E
:10A86000F883000010B5114C114AA2610223C4E91B
:10A870000433104BE361A2644FF400730E4A0F4996
:10A880002362E26400231022E01DA3626362E3629C
:10A89000A3656365E365226502F0DBFC0849204699
:10A8A00002F0D7FC2023A37110BD00BF0C7600205E
:10A8B0002CE40200947600208476002035E4020027
:10A8C00039E40200F8B5184C182300FB033503FBEC
:10A8D00000402544C46A012C0F4616460FD0022CB6
:10A8E0001AD0F4B92846FFF769FF864205D83246E8
:10A8F00039462846FFF770FF34462046F8BD284603
:10A90000FFF75CFF8642344628BF0446224639469C
:10A910002846FFF761FFF0E72846BDE8F840FFF75B
:10A9200077BF0024E9E700BF0C760020FFF79ABF4D
:10A930006DDF704779DF70477DDF704764DF7047F8
:10A940002DE9F04F85B000250E9CBDF83CB0B4F861
:10A9500000A00191074690461E46A9463A884A45FE
:10A960000DDC45B12388013BA3EB0A039BB2FF2B0F
:10A970003AD806F80A30002005B0BDE8F08F7A68B2
:10A9800052F82900039000220DF10B0103A8FFF7F4
:10A99000D5FF0028F0D19DF80B20424521D1228817
:10A9A000002D14BF0020022002EB0801014459458C
:10A9B0001ADC3DB9013292B2019B2280B354228845
:10A9C0000132228022880DF10B01324403A8FFF7E7
:10A9D000B5FF0028D0D121889DF80B200A442280A1
:10A9E000012509F10109B9E70C20C5E72DE9F3417B
:10A9F000089FBDF824801546CDE900780222044660
:10AA00001E46FFF79DFF50B93346102229462046C7
:10AA1000CDE9087802B0BDE8F041FFF791BF02B080
:10AA2000BDE8F0812DE9F04F00231788138090F8DE
:10AA30002D3085B006460D46144653B3082F01D875
:10AA40000C2027E102A8FFF773FF002840F02281C5
:10AA500023880822EA54238801339BB21B222380D7
:10AA6000EA542088013080B2208006220DF10901CD
:10AA7000284402F092FB23889DF8082006339BB2FD
:10AA800012F0FE0218BF01222380EA54238801330A
:10AA90002380B378FBB123880433BB42D0D802A80B
:10AAA000FFF748FF002840F0F58023880322EA548E
:10AAB000238801339BB219222380EA542388BDF8EE
:10AAC000082001339BB2E9182380EA54120A4A7025
:10AAD000238802332380F2789AB12388D91CB942A3
:10AAE000AED80221E954238801339BB2012123808F
:10AAF000E95423880B449BB22380EA5423880B44F7
:10AB000023807268AAB12388D91CB94298D802213F
:10AB100092F90020E954238801339BB20A21238053
:10AB2000E954238801339BB22380EA5423880133FC
:10AB300023803389002B40F0A180338A5BB1CDE9BB
:10AB400000472B460722032106F11000FFF74EFFB6
:10AB5000002840F09F80338B5BB1CDE900472B4646
:10AB60001522142106F11800FFF740FF002840F0DD
:10AB70009180326A002A40F09080D6F82480B8F1A3
:10AB8000000F30D0B8F804302188981C8A1C024489
:10AB9000BA423FF655AFFE283FF652AF03336B542F
:10ABA000238801339BB2FF222380EA542388013398
:10ABB0009BB22380B8F80020EA54E918120A4A70C0
:10ABC0002088023080B22080B8F804205AB1D8F82A
:10ABD000081000296BD0284402F0DFFA2388B8F867
:10ABE00004201344238096F82C30002B40F09A80E8
:10ABF000307800284ED03388012B58D0228802F1BB
:10AC0000020CBC453FF61CAF012805D17378023316
:10AC100013449F42FFF414AF023FBF1ABFB202A910
:10AC200005EB0C00ADF80870FFF786FE90BB31789D
:10AC3000BDF80830022900F0BA8072789A4202D337
:10AC4000BB4240F2B280012940F0B380974293B2F8
:10AC5000C0F0AF80ADF808300821BDF80830FE2BF9
:10AC60003FF6EEAE22880133AB542288013292B215
:10AC70002280A9542288134423800BE0CDE90047A9
:10AC80002B460622022106F10800FFF7AFFE00283E
:10AC90003FF453AF05B0BDE8F08FB4F800C00CF13D
:10ACA0000603BB423FF6CCAE1188052901D8072028
:10ACB000F0E76FF4486E01EB0E039BB24FF27D3E5E
:10ACC0007345F4D95388052BF1D96FF448601818EF
:10ACD00080B27045EBD94FF6FF70814203D08342BA
:10ACE00001D09942E3D8052305F80C3023880133BD
:10ACF0009BB212212380E954238801339BB2238025
:10AD00001188E954E818090A4170238802339BB27C
:10AD100023805288EA54E918120A4A7023880233C1
:10AD200023802AE7B36A002BC1D04FF000094FF00F
:10AD30000C0A4FF0160B96F82C305FFA89F293420A
:10AD40007FF656AFB16A0AFB02F201EB0208B8F8CF
:10AD50000430981CFE283FF673AE208803332B5432
:10AD6000238801339BB2238005F803B02388013385
:10AD70009BB223808A5AEA54E918120A4A70208842
:10AD8000023080B22080B8F804205AB1D8F80810F8
:10AD900000298CD0284402F000FA2388B8F8042057
:10ADA0001344238009F10109C5E7092155E7BB4296
:10ADB000FBD9ADF808704FE770B5E8B14AB1168815
:10ADC0000024B44203D305196D789D4208D0A142F6
:10ADD00001D8002010E0055D01352C44A4B2F0E755
:10ADE000A142F6D9005D0138A31C80B29DB210FAD1
:10ADF00083F38B42EDDC158070BD13B51346002242
:10AE0000ADF806200DF106020446FFF7D5FF10B19C
:10AE1000BDF80630E01802B010BD72DF704773DF76
:10AE2000704738B5012204460D46B0F81414D0F826
:10AE30001004FFF7E2FF00B1057004F13C0204F5D5
:10AE4000826104F15400BDE83840FFF7E6BF80F8A6
:10AE500030107047F8B504460F46002975D0002819
:10AE600073D091F87A301BB191F89830002B6ED1E5
:10AE7000D7F8A030042B6AD0D7F89C30042B66D0CA
:10AE80004FF0000C84F802C007F178060FCE251DA4
:10AE90000FC50FCE0FC596E8070085E8070084F8B8
:10AEA00030C0D7F8A4306363D7F8A830A3634FF657
:10AEB000FF7504F58263C4F82034A4F824540722F3
:10AEC000614604F2264002F091F923780BB984F828
:10AED000545094F82430002B14BFEE231F2304F1A8
:10AEE0005501C4F81014A4F8143404F2144238467E
:10AEF000FFF798FD40BB94F82430002B14BFEE23DD
:10AF00001F2304F23121C4F81814A4F81C3404F2ED
:10AF10001C4207F13C00FFF785FDA8B9A369A4F81E
:10AF200048304FF480730125A4F8503063692064E1
:10AF3000014684F83C50636404F13C0204F154007F
:10AF4000FFF76BFF00B92570F8BD0E20FCE7072066
:10AF5000FAE7F8B5077804460D46002F00F00381A4
:10AF600000F22646817007220021304602F03EF9A9
:10AF7000E38813B1A378012B04D0E3794BB1A37814
:10AF8000022B06D1636BA3B1012284F82D24082083
:10AF90009847334604F22C4113F8012F12B9994215
:10AFA000FAD117466B1E032B51D8DFE803F0050BCF
:10AFB0000F1284F82D34ECE7A3791BB194F82430F8
:10AFC00003B95FB9E3790BB1002F42D1237A002B8B
:10AFD00041D1637A002B0CBF00250425636BA5705B
:10AFE000002B3AD0033D012D37D86279AAB394F8EB
:10AFF0002E2492BB84F83024012284F82F240720C9
:10B00000984704F13C0518220021284602F0EEF88A
:10B01000E26A531E0121022B28BF0A4684F8512000
:10B0200094F8242084F83C1032B1A36A581E0228F8
:10B0300028BF0B4684F85230A178002384F85030A2
:10B0400004291BD8DFE801F0770D223559000025CF
:10B05000C4E70225C2E70325C0E7002384F82F34A4
:10B06000CFE7C4E91063C4F820340223012284F836
:10B070003C30802384F83120A4F84830A378002B9A
:10B080005CD1636B002B6AD1002067E00223002AA9
:10B0900084F8313014BF0723032384F83C3023693C
:10B0A000A4F848300023C4F82034E36826646364BD
:10B0B000E4E763696364A369A4F8483012B1062326
:10B0C00084F83C306379B3B194F82E349BB994F88A
:10B0D000303483B1022384F8503004212046FFF736
:10B0E000A0FE0028CAD1052384F8313004F582631C
:10B0F000C4F82034C2E70323F6E7E3696364236AF4
:10B10000A4F8483012B1062384F83C30637983B147
:10B1100094F82E346BB994F8303453B1022384F888
:10B12000503004212046FFF77CFE0028A6D10623DC
:10B13000DAE70423D8E784F831309FE7D4F8201405
:10B140002A4604F15400FFF768FE38B994F830102D
:10B1500094F85400FFF763FE002892D0F8BD94F8ED
:10B160003100984790E70820F8E70388112B10B5C5
:10B170000C460AD0262B1FD0102B05D1C37B012BE8
:10B1800002D18388A1F8243410BD0022838881F87D
:10B190002E24B1F824249A42F6D10B79002BF3D156
:10B1A00001212046FFF7D5FE0028EDD0A36B002B30
:10B1B000EAD0BDE810401847037A013B012BE3D8E1
:10B1C000897805230131B1FBF3F303EB8303C91A3B
:10B1D000C9B2E6E730B50D46041D0FCD0FC40FCD43
:10B1E0000FC495E8070084E8070030BD75DF70479D
:10B1F00076DF70477ADF70477BDF7047034B1A8832
:10B2000082420CBF18460020704700BFB078002073
:10B21000024B9B6903B11847704700BF9478002028
:10B2200073B585B22846FFF7E9FF044670B1164EA4
:10B23000027A337B9A420BD200F10A012846FFF7CB
:10B24000D5FFE8B1112801D0FFF7E2FF02B070BDD1
:10B2500000230372337C43B13B212846FFF7C8FF2C
:10B2600030F0080301D0FFF7D3FF7369002BEDD056
:10B2700000228DF80420ADF8065001A89847E5E7B4
:10B28000237A01332372E1E79478002037B50B4627
:10B29000497A0F4A71B9D2E901141D7A0246002D8C
:10B2A00018BF21465868FBF750FE08B1FFF7B0FF02
:10B2B00003B030BD002119725369002BF8D0012270
:10B2C000ADF806008DF8042001A89847F0E700BF0C
:10B2D000947800204B8802889A4213D842889A4278
:10B2E00010D380888A8840F2F313984294BF031ADF
:10B2F000C31A934206D800F2F310904234BF0020E4
:10B3000001207047002070470388122B70B501465A
:10B3100059D004D8102B1ED0112B44D070BD502B07
:10B32000FCD12F4BC288DB899A42F7D1038A022BCA
:10B33000F4D186883046FFF761FF05460028EDD03E
:10B3400001F1120000F0BCF938BB6868FBF715FE8C
:10B350000028E3D009E0C37B012BDFD14FF6FF705B
:10B36000FFF74CFF054620B90420BDE87040FFF709
:10B370004FBF1C4A8E880680002303721368C0F8F2
:10B380000A305368C0F80E3010310A30FFF7A2FFC0
:10B39000134B6872DB89002BC0D129463046BDE8CB
:10B3A0007040FFF773BF8088FFF728FF044600282E
:10B3B000B4D04068FBF7E1FD08B1FFF729FF4FF675
:10B3C000FF732380AAE786883046FFF717FF0546FC
:10B3D0000028A3D008310A30FFF77CFF6872DCE751
:10B3E00094780020C4780020F8B5064648B3054696
:10B3F0000FCD154F3C460FC495E8070084E80700C1
:10B400003068124C3C60B0B1FFF7F4FEC0B932684E
:10B4100013682360536863600D480E4A4FF6FF734C
:10B4200003800D4B40F8043F0021FBF783FD00280B
:10B4300018BF032004E02046FFF7DEFE0028EBD013
:10B44000F8BD0E20FCE700BF94780020C4780020EF
:10B45000B078002021B20200D0780020F7B517465E
:10B4600001900E4691B1019C6CB100252C462946F5
:10B4700001A8FCF77CF918B13946A8B2B0470134ED
:10B480000135142DF3D1204603B0F0BD0C46FAE788
:10B490000AB1FCF759B9FCF760B973B50191019C89
:10B4A00006466CB100252C46294601A8FCF75FF939
:10B4B00018B106EB440301349D800135142DF3D1FE
:10B4C0003046346002B070BD2DE9F04703888488AF
:10B4D000103B8CB005460A2B1FD8DFE803F0063F6F
:10B4E0001E1E1E1E1E1E1E604400314EB368DB432E
:10B4F000009371686846FCF766F9009901A8FFF7A8
:10B50000CCFF0DF108094FF00008019B984507D3C7
:10B51000132C13D90420FBF7E7FB0CB0BDE8F08730
:10B5200039F802AB00270137514606EB8700FCF7DC
:10B5300014F91E2FF7D108F10108E6E71D4821464E
:10B54000FCF702F91C482146FCF7FEF8EB7B012BC7
:10B55000E3D01A482146FCF7F7F8DEE71548214604
:10B56000FCF7FBF8D9E7027A15483F2A4FEA121593
:10B57000214694BF00220122FFF78AFF022D94BFCB
:10B58000002201220F482146FFF782FF012D0E48BD
:10B5900094BF002201222146FFF77AFFBDE7037A1C
:10B5A000002BBAD1427A0648C2F3C0022146F3E723
:10B5B000F0780020F8780020F4780020FC78002053
:10B5C0000879002004790020007900201328014622
:10B5D00002D80248FCF7CBB800207047F47800206E
:10B5E00007B50190FFF7F2FF019930B10448FCF76D
:10B5F000BEF8002814BF0220012003B05DF804FB50
:10B60000F878002010B5034B04465968FFF745FF52
:10B61000204610BDF078002010B50446FFF7D6FF95
:10B62000002814BF2046142010BD0000034B9B6867
:10B630000A4601461846FFF711BF00BFF078002008
:10B6400070B50546164608460AB90E2070BD00239F
:10B650001360002DF9D02B68002BF6D0EB8813F087
:10B6600003040ED1FFF7D8FFC0B214280BD02B79FA
:10B6700083420AD9EB882A6800FB03203060204609
:10B68000E4E70720E2E70520E0E70420DEE7AADFA1
:10B690007047ABDF7047002301380B70042806D8D1
:10B6A000DFE800F00306080A0C0011230B70704756
:10B6B0002123FBE73123F9E71223F7E72223F5E7FC
:10B6C000007800F0010070470078C0F34000704738
:10B6D0000B7803704B78437002207047F0B58B787D
:10B6E00091B0012B0C4638BF01238DF80E30054672
:10B6F0000B88ADF80C30002116466846032201F095
:10B7000075FD607C6946FFF7C6FFA07C0DF1010165
:10B71000FFF7C1FFE27B237B217D43EAC203227C4A
:10B7200043EA02139DF80220002922F0190203F0D7
:10B73000190314BF02210121134361F342031C22A8
:10B74000002109A88DF8023001F050FD637B13F051
:10B75000300F15D002AF03220021384601F046FD1C
:10B76000E07C0DF10901FFF796FF11238DF80830F9
:10B770009DF80A300E97012262F342038DF80A30D9
:10B78000637B8DF824301422A37B8DF825300021B3
:10B7900004A801F02BFD03AB0493A388ADF81C3083
:10B7A000A368CDF814D01BB1E288ADF81820089337
:10B7B000A369002B31D001AF03220021384601F0EC
:10B7C00015FDA3691A88ADF82C205A88ADF82E20F3
:10B7D0005A680D97187B0A923946FFF75CFFA369F8
:10B7E0000DF10501587BFFF756FFA269917A137A94
:10B7F00043EAC103D17A927B43EA01139DF8061014
:10B80000002A03F0190321F0190114BF02220122BA
:10B810000B4362F342038DF80630E36903B10C93E6
:10B82000334604AA09A92846FFF731FF11B0F0BD3D
:10B83000F0B50C4689B0054616460021142203A82F
:10B8400001F0D4FCA378A079012B38BF01238DF837
:10B850000A3001AF2388ADF80830394602AB0393B4
:10B86000FFF719FFE0790DF10501FFF714FFE2780A
:10B870006379217A049743EAC203227943EA0213E7
:10B880009DF80620002922F0190203F0190314BFC5
:10B8900002210121134361F342038DF806306389CD
:10B8A000ADF81430A389ADF81630E389ADF818303F
:10B8B00032462369079303A92846FFF7EAFE09B039
:10B8C000F0BD90DF7047A5DF7047B5DF704700001F
:10B8D0007FB50023ADF80810ADF80A106A4602A93A
:10B8E000064603930093ADF80430FFF7EAFF0546E0
:10B8F00000B3124B124CE41AE408FCF76BFB24046F
:10B9000044F0010403460F4932462046FBF789F80C
:10B91000BDF80020BDF8023052EA030103D00A4905
:10B920002046FBF77EF8BDF804201AB107492046EF
:10B93000FBF76EF8284604B070BD00BFF8D90200CE
:10B9400060DA020040E402008AE40200C9E4020076
:10B9500080B14FF0F7130360FB230371F723C3801B
:10B960001723038141F6FB32002301614381828169
:10B97000184670470E20704730B1A1F11703E02B35
:10B9800004D80180002070470E20704707207047C0
:10B9900013B5034680880C46B8B91A88242A00F0EB
:10B9A000968014D8112A71D0232A00F09E80102A84
:10B9B0003BD0A37A4BB1E1880020FFF784FF002839
:10B9C00040F099804FF48073638102B010BD3A2A31
:10B9D00065D0552AEDD1DB88C988A072172B38BFF6
:10B9E00017238B4228BF0B462381FFF76EFF60B100
:10B9F000FCF7F0FA484B4949024649481B1ADB0854
:10BA00001B0443F00100FBF703F8E37A002BD0D1CD
:10BA10002369002BCDD040F6772200922289ADF821
:10BA20000420694620469847C3E7DB7B0A790A73FE
:10BA3000012B13D0022B14D0E18823898B4205D22D
:10BA40000020FFF740FF70B90123E372217B637B85
:10BA50008B42AED20020FFF73BFFAAE70B88E380C2
:10BA6000EAE74B88FBE7112802D10123A372EDE737
:10BA7000FCF7B0FA284B2B49024629481B1ADB0871
:10BA80001B0443F00100FAF7C3FFDFE7F723CB8085
:10BA900017230B8141F6FB3348818B8189E75B8952
:10BAA000CA88934228BF1346172B0A6938BF172349
:10BAB0000B814AB1C97A39B140F677210091ADF8CE
:10BAC00004306946204690470023638171E71A7A63
:10BAD0000B694A73002B3FF46CAF4DF67A218DF859
