:020000022000DC
:1060000000000420756302005D6302005F6302000C
:106010006163020063630200656302000000000028
:1060200000000000000000000000000067630200A4
:1060300069630200000000006B6302006D630200F0
:10604000198002006F6302003D850200558F020037
:106050006F6302006F630200918302006F630200AE
:106060006F6302006F6302006F6302006F630200E0
:106070006F6302006F6302006F6302006F630200D0
:106080006F630200D96E02006F6302006F6302004B
:10609000756F02006F630200F5A502006F630200D6
:1060A0006F6302006F6302006F6302006F630200A0
:1060B0006F6302006F630200000000000000000038
:1060C0006F6302006F6302006F6302006F63020080
:1060D0006F6302006F6302006F6302006F63020070
:1060E0006F6302006F6302006F6302000000000034
:1060F000000000006F630200000000006F630200F8
:10610000000000000000000000000000000000008F
:10611000000000000000000000000000000000007F
:10612000000000000000000000000000000000006F
:10613000000000000000000000000000000000005F
:10614000000000000000000000000000000000004F
:10615000000000000000000000000000000000003F
:10616000000000000000000000000000000000002F
:10617000000000000000000000000000000000001F
:10618000000000000000000000000000000000000F
:1061900000000000000000000000000000000000FF
:1061A00000000000000000000000000000000000EF
:1061B00000000000000000000000000000000000DF
:1061C00000000000000000000000000000000000CF
:1061D00000000000000000000000000000000000BF
:1061E00000000000000000000000000000000000AF
:1061F000000000000000000000000000000000009F
:10620000354936480A1A02D0072291438D4634494F
:1062100034480A1A06D00722914381F309880222E2
:1062200082F3148830483149314A00F044F831484B
:106230003149324A00F03FF831483249324A00F0E1
:106240003AF832483249334A00F035F83248334997
:10625000334A00F030F833483349344A00F02BF821
:1062600033483449344A00F026F83448344900228F
:1062700000F02CF833483449002200F027F8334866
:106280003349091A082902DB002202604160314AC1
:1062900090471F481F49884205D00268043003B464
:1062A000904703BCF7E700208646EC46002000211B
:1062B000294A9047FEE7884207D0521A05D0037852
:1062C00001300B700131013AF9D17047884202D098
:1062D00002700130FAE770470000042000E003205C
:1062E0000000042000000420F0170300E02200203A
:1062F00030230020D4630200D46302001EB30200E6
:10630000F0170300E0220020E0220020F4B3020096
:10631000F4B30200F4B30200F4B30200F4B30200D9
:10632000F4B30200F4B30200F4B30200EE1703006A
:1063300040180300302300203023002030230020A9
:10634000BD2C0020C02C0020C02C0020C02C002020
:10635000C04C00209D6302005D940200FEE7FEE752
:10636000FEE7FEE7FEE7FEE7FEE7FEE7FEE7FEE705
:10637000704700BF1048804710484FF0070188431E
:1063800085460F4880470F48016841F4700101605D
:10639000BFF34F8FBFF36F8FFFF732BF0A480B4930
:1063A0000B4A884207D0521A05D0037801300B708F
:1063B0000131013AF9D170477163020000000420F5
:1063C000857B020088ED00E0F4B30200E0220020AB
:0463D000E0220020A7
:1063D400F0B595B01D46164608460C4601F012FB72
:1063E4001A9B0D93CDE9086500252B46082205A9C3
:1063F40020460A958DF82C500C9501F020FB079B44
:106404000293069B03939DF814308DF8115003F00A
:106414000302012A1DD1BDF81420059DC3F3C20354
:10642400C2F383168DF81030B20008230EA920465B
:1064340001F005FBC5F3952508AB0093324602AB8A
:106444000EA9284600F0D8FB204601F0DFFA15B06B
:10645400F0BD022AF8D1BDF81650C3F3C203C5F348
:1064640089158DF810300827082D2E4628BF0826D8
:106474003B4632460EA9204601F0E1FAAD1B08ABBB
:1064840002AA31460EA8374400F01AFC002DEBD1C5
:10649400DAE70000014B01221A70704771230020D3
:1064A4007047000070B5124D06460FCD88B06C469B
:1064B4000FC495E80F00002E84E80F004FF0FF335F
:1064C4004FF00602CDE90023CDE90233094A0A4818
:1064D4004FF0EB7308BF00226946069301F020FDDC
:1064E40008B100F049FC054B1E7008B070BD00BF38
:1064F400F4B3020099640200E0220020302300205B
:1065040007B5044B0093044A4023FFF761FF03B02F
:106514005DF804FB216502003123002038B50D4BE2
:106524000D4D002018700D4804782D5DD2B21C4624
:1065340065B1043002F05AFC08B100F01DFC084BB0
:106544001A7812B12378002BFBD038BD0C3002F03E
:106554003BFAF1E771230020642A0020E0220020A6
:106564003023002008B50848084A0378D35C3BB1BF
:10657400043002F0E7FBBDE808400020FFF792BFBB
:106584000C3002F0CDF9F6E7E0220020642A002066
:106594000120FFF787BF000008B5FFF7F9FF0448A3
:1065A400042100F091FA034B01225A7108BD00BF87
:1065B400E4B30200F4220020037813F0040216D09E
:1065C40003F00303012B03D0022B09D001207047F1
:1065D4000A6800880232C0F3831002440A60F5E7B7
:1065E4000B684288023303EB92130B60EEE710460C
:1065F400704700002DE9F04F87B000230446861C45
:106604000DF107000F4615468DF8073000F0A8FE7F
:10661400454801683960D0E90132134401335B1AFB
:10662400824600F21C4700F5836900F21448B34225
:106634001CD30020002D73D004F00F039B0143F002
:10664400050363F30F00DAF80020DAF8083013408A
:10665400033316444AF823009DF80700CAF8006083
:1066640000F0A2FE012007B0BDE8F08F01213846FA
:1066740000F0FBFE484600F010FF404600F00DFF1E
:10668400DAF80400DAF808B0029000EA0B000330EC
:106694000AEB800002A9FFF78FFF029B50BB0BEAB5
:1066A40003020AEB820203F1020CD2680392013363
:1066B40003EA0B0B0AEB8B0B02F00302012ADBF853
:1066C4000C10CDF808C023D0022A16D083464046C9
:1066D40000F0E6FE10B1029BCAF804305946384671
:1066E40000F0C3FEDAE901231344DAF80020013391
:1066F4009B1A9CE70BEA0300C9E7BDF80E30C3F30D
:10670400891303334FEA114B0CEB93030293DEE737
:10671400BDF80C30C3F383134FEA114B6344F5E720
:10672400A40544F006008EE7442400200B4B0C48DB
:10673400FF2210B59A600022C3F81824C3E900228E
:10674400C3F8142483F8202401F015F9044610B981
:10675400044801F0BDF9204610BD00BF44240020C8
:1067640068B3020048B4020030B50A4C71B10A4A59
:106774000A49121BD20800239A4201D1002030BDDD
:1067840031F82350854202D00133F5E7034654F82B
:106794003300F4E77CB30200E4B30200E0220020FB
:1067A400094B013903EBC000032909D8DFE801F0E4
:1067B4000A02040604207047007970474079704744
:1067C40000207047022070477CB30200034BD3E9DA
:1067D4000030C31A58425841704700BF4424002077
:1067E4002DE9F04387B0FFF7F1FF0646002840F09B
:1067F400F9807D4DC5F81804BFF34F8F6B68AC6802
:1068040002932340033305EB830002A9FFF7D4FE70
:10681400029B18B1D5F81824002A5FD004EA0302B9
:10682400991C013305EB8202234005EB8303D268F4
:10683400DB68049302F00303022B0392029160D1FC
:10684400BDF80E306948C3F38917502FB84628BFE6
:106854004FF0500868F38F1308F10801ADF80E30BB
:1068640001F0A1F80646002800F0A78001F0CAF85C
:106874000023082203A9304601F0D7F8029924EA3C
:1068840001020132B8EB820F4FEA820332D95FFA78
:1068940088F85BB32140DCB2A8EB040803315FFA4B
:1068A40088F9A046524C05EB810108234246304644
:1068B40001F0BBF834B108F108034A4621463046DA
:1068C40001F0B3F8029B033703EB97070297D5F85F
:1068D4001834002B49D1D5F8104459E02A689A425B
:1068E4008FD86A60304607B0BDE8F08340491C4643
:1068F4009946DAE70C40E11C0823424605EB810186
:10690400DDE7012B59D1BDF80C303848C3F38311AE
:10691400062928BF062161F3891302318900ADF8E5
:106924000C3001F040F80646002846D001F06AF821
:106934000023082203A9304601F077F80027BDF8A8
:106944000C20C2F38312BB00974203F10803BED2AA
:1069540002994A1C21400331029205EB8101042271
:10696400304601F062F80137E9E7304601F04EF8AD
:10697400FFF72CFF80F00100C6B2B3E7E3685B7950
:1069840023B1236831461B6820469847E3681C6896
:10699400002CF3D1304601F039F80DF107008DF8E1
:1069A400074000F0DDFCD5F818340BB9029B6B608E
:1069B4009DF8070000F0F8FCDAE7D5F8104454B964
:1069C4000C4B0D480D49C01AC008000440F00200E9
:1069D40000F062F8CCE7236820469B689847E36898
:1069E4001C68ECE700267DE74424002068B302001D
:1069F400502400207CB30200ACB3020031B4020086
:106A04002DE9F74F224D04460F46924601A9012273
:106A14001846D5F808909B46FFF7ECFD20B3019E7D
:106A24004FF00008B21CD84508EB020126D11948E2
:106A3400002100F0EBFC80F31000000440EA144055
:106A4400E400731C04F0380403EA090306EA0906A7
:106A540044F0010405EB8303033644EA881444EA52
:106A64008724D86045F8264095F820341BB1FFF7F9
:106A7400B7FE0028FBD103B0BDE8F08F09EA01019D
:106A840005EB81015AF82830CB6008F10108CAE708
:106A9400442400206028002000231A46FFF7B0BFDA
:106AA40007B50123019201AAFFF7AAFF03B05DF81D
:106AB40004FB07B5CDE9002302236A46FFF7A0FFD4
:106AC40003B05DF804FB000030B50F49D1F8102481
:106AD40003460020144634B9DC6820714AB9C1F871
:106AE4001034226030BDE4682579854206D02468DC
:106AF400F1E7D268116821601360F3E701300A28D6
:106B0400E8D14FF0FF30EDE744240020094A38B5BE
:106B14000123D2F8104482F820341D4604B938BD4C
:106B2400E3685D71236820465B689847E3681C68E6
:106B3400F4E700BF4424002007B503460846197A49
:106B4400052911D05B7A2BB1094A0A49019000F05A
:106B54000AFD01980849019000F005FD019803B071
:106B64005DF804EB00F0F4BC002AF8D0F2E700BFB3
:106B740054B4020059B4020079B4020030B5C38899
:106B840085B004460D4633B1144A00921449154A9F
:106B9400284600F0E8FC217A05291DD0637A4BB120
:106BA400A088FFF7FDFD104B104953F8202028461C
:106BB40000F0D9FC227A0E4BA08853F822200392CD
:106BC4000021FFF7D1FD039A0A490346284605B080
:106BD400BDE8304000F0C7BC05B030BD54B402007D
:106BE40064B402005CB40200E0B4020059B40200D0
:106BF40004B502007CB402002DE9F04385B01F46C1
:106C04000C9D002395F80C902B7306460C46904679
:106C140029463846FFF7B2FFB8F1060F09D8DFE876
:106C240008F00412181F283340003146284600F0AB
:106C34009AFC002229463846FFF77EFF85F80C901F
:106C440005B0BDE8F08322683146284600F08BFC8D
:106C5400EFE7D4E900233146284600F084FCE8E756
:106C6400A36800933146D4E90023284600F07BFC56
:106C7400DFE7E3680193A36800933146D4E9002376
:106C8400284600F070FCD4E723690293E36801937B
:106C9400A36800933146D4E90023284600F063FC3E
:106CA400C7E76369039323690293E3680193A368C5
:106CB40000933146D4E90023284600F054FCB8E799
:106CC40008292DE9F74F80460E4617461C463CD846
:106CD400002593F80C901D7319461046FFF74EFFDC
:106CE400DFF888A0DFF888B0AE4231D918F8052063
:106CF4005946204600F037FC0135082DF4D11949D6
:106D0400194DDFF870A0204600F02DFC4FF0000B69
:106D14005E4522D918F80B207E2A05D81046019228
:106D240004F06AFA019A00B92E225146204600F076
:106D34001AFC0BF1010BBBF1080FE9D1012221462A
:106D44003846FFF7F9FE84F80C9003B0BDE8F08FE5
:106D54005146204600F007FCCEE72946204600F0C5
:106D640002FCE6E790B402008EB402008CB4020088
:106D740086B4020092B402001FB50021039001AA58
:106D840044F20100CDE9011100F004F805B05DF80A
:106D940004FB000010B572B6FFF7B8FEFFF720FD44
:106DA4000028FBD1104B114C1149E41AE4082404C7
:106DB40044F00100FFF770FE0E4B1B68DB0700D5A3
:106DC40000BE0D4944F00200FFF766FEBFF34F8F8B
:106DD4000A490B4BCA6802F4E0621343CB60BFF369
:106DE4004F8F00BFFDE700BF7CB30200ACB30200CD
:106DF40018B50200F0ED00E024B5020000ED00E05B
:106E04000400FA05094A537891780133DBB29942B8
:106E140008BF0023117899421FBF037050781823CC
:106E240003FB002014BF0430002070470029002019
:106E340073B5054600240DF107000E468DF8074092
:106E440000F08EFA0DF10600FFF7DCFF90B106703A
:106E5400094B9DF8062045605A709DF8070000F024
:106E6400A3FA24B9054B4FF48012C3F8002120463D
:106E740002B070BD0424F0E70029002000E100E026
:106E8400024B4FF43C6043F00103184740B5020045
:106E940038B50C4B0C4C4FF40032C3F8802001255C
:106EA4004FF48033C4F84833C4F808336560FFF7FF
:106EB400E7FF064BA56000241C60FFF7E1FF044BCD
:106EC4001C7038BD00E100E0001001401C2A0020C5
:106ED4000D2A0020F8B51F4B1F491B680025C1F877
:106EE4004051C1F84451C1F84851C1F84C51C1F85E
:106EF4000051C1F804514BB3D1F80445174909684E
:106F0400641A24F07F442F461A68A24209D8A41AAE
:106F140015441A7CDE691AB1D3E905201F74904721
:106F2400AEB90F4A0F4B11781B788B4205D1013350
:106F3400DBB2022B08BF0023137012780A4B43F80C
:106F440022500A4B4FF48012C3F80021F8BD334697
:106F5400DAE700BF202A0020001001401C2A00208C
:106F6400192A0020182A0020102A002000E100E03D
:106F74002DE9F04FA24AA34913780978A24D99420A
:106F840085B03CD00133DBB2022B08BF0023137061
:106F94009E4912789E4B0F6853F822003B1823F049
:106FA4007F4300220B602B6816461446944613B99F
:106FB40042B12B6006E0196881420ED902B12B6000
:106FC400091A196001272B68DFF84CA201934FF0CE
:106FD4000008BEB9DFF848B262E0401A0C44D96830
:106FE400D3F81CE0C3F800C031B13A1922F07F4253
:106FF400C3E90121DE611E4673460122D7E700265C
:107004003746E0E73446F669804A63681268DFF879
:1070140014C2A068991A21F07F41614500F2A8804A
:1070240001442160012222742A680023C4E9013347
:10703400E361002A40F0A5802C60CAE79BF80210A7
:107044005A1CD2B291428BF8002004BF00228BF864
:107054000020182202FB03B32A6819799C680229CC
:1070640077D0032900F08180012919D1207CB8B997
:10707400D3E90312A2605A69E2609A69654BA2617E
:107084001B78002B0CBF0B4603466360BCE78C42A5
:1070940000F094808946C9690029F8D1002323743B
:1070A4009BF800309BF801209A42C7D12B68B8F1B5
:1070B400000F04D1019A9A4201D1002F43D0002B32
:1070C40079D0D3F800A0544D504BD5F804751C6802
:1070D400DFF854813E1B98F8003026F07F460336D3
:1070E4009BB94FF48033C5F84433C5F804334B4B94
:1070F4004FF400324FF00109C3F880211A60C5F83B
:107104000090FFF7BDFE88F80090B2452CBF5444B0
:10711400A41924F07F44C5F84045D5F80435DB1B99
:1071240023F07F43E41B033324F07F44A3420AD9B2
:10713400D5F80435C5F84035FFF7A2FE374B4FF4B8
:107144000032C3F80021334B00221A7005B0BDE8A9
:10715400F08F114691469FE71174D2690123002AEA
:10716400FAD1002B9CD02A609AE700231946F6E74F
:10717400D31A23F07F43834234BFC31A002323600E
:1071840050E721681368994213D8591A1160E261D3
:1071940052E7091AD8691A4638B103461868884272
:1071A400F7D3401A1860184613462160E061DC6189
:1071B4000FE71346F2E7FFF76BFEC4E74C4511D126
:1071C400D3692B6073B9DFF844E00120CDE90212E2
:1071D400CAF80800CEF800300E4B1870FFF750FEC6
:1071E400DDE902120B68C969C9F81C1011B10868FD
:1071F40003440B602B68934218BF4FF001084DE71E
:10720400182A0020192A0020202A00201C2A0020E5
:10721400102A00200C2A00200010014000E100E0A8
:1072240000290020FEFF7F000D2A002008B5FFF78B
:107234002FFE104B00200B2218809A700E4B186002
:107244000E4B18700E4B18700E4B4FF48012C02169
:10725400C3F8802183F814131A6002F18042A2F566
:107264006F22C2F8080583F81113074BD2F80425DE
:107274001A6008BD00290020202A0020182A0020B6
:10728400192A002000E100E01C2A0020074B9B780B
:107294004BB132B128B10368187C20B959745A61D2
:1072A4007047072070470820704700BF002900205E
:1072B4002DE9F743DFF8848098F8023005460E463E
:1072C4001746ABB3A0B3042930D9436983B3437CD5
:1072D4000024012B0DF107000CBF8946A1468DF84F
:1072E400074000F03DF80DF10600FFF78BFDD8B123
:1072F400012303700F4B4560D3F80435C0E90497AC
:10730400C0E902369DF8063088F801309DF8070080
:1073140000F04AF824B9084B4FF48012C3F8002156
:10732400204603B0BDE8F0830424EFE70724F7E721
:107334000824F5E70010014000E100E000290020E6
:10734400064A92783AB130B1426922B100220274FD
:107354000221FFF76DBD0820704700BF00290020FF
:1073640070B5EFF3108672B60C4A946801239CB989
:1073740093600B4B0B4DD3F8801029401160C3F878
:107384008050D3F8841051604FF0FF32C3F884204A
:10739400047006B962B670BD0370FAE7242A0020AF
:1073A40000E100E0FC06FFBD084B9A6810B55AB135
:1073B40050B9EFF3108172B6054A1C6814605C681A
:1073C4005460986001B962B610BD00BF242A002041
:1073D40000E100E001F01F024B090121914000EBA4
:1073E400830000F01EB801F01F0301229A404B09EC
:1073F40000EB8300D14300F02CB84B0901F01F01CE
:1074040050F82300C84000F00100704710B503464F
:1074140053E8000F0A4643E8002494F0000FF7D124
:1074240010BD10B5034653E8002F42EA010043E8BB
:10743400000494F0000FF6D110BD10B5034653E8D4
:10744400000F00EA010243E8002494F0000FF6D193
:1074540010BD10B5034653E8002F02EA010043E8CB
:10746400000494F0000FF6D110BD10B5034653E8A4
:10747400002F02EB010043E8000494F0000FF6D162
:1074840010BD10B5034653E8002FA2EB010043E8FA
:10749400000494F0000FF6D110BD0121FFF7C1BF25
:1074A4000021FFF7CABF10B590B1D0E901230168EC
:1074B4009B1ADBB20A60013BDBB2FF2B026802D1EC
:1074C4000020107110BD11684C1C14600B70F2E7A1
:1074D4000E20F7E737B5054600240DF107008DF8B7
:1074E4000740FFF73DFF2A686B68116899420ED97F
:1074F400481E106011F8014CEB68298A01FB043422
:10750400AB6811791B1ADBB2994238BF13719DF82D
:107514000700FFF749FF204603B030BD37B50546E5
:1075240000230DF107000C468DF80730FFF718FF14
:107534002A681368591C1160E968641A298AB4FB23
:10754400F1F41C709DF80700FFF72EFF03B030BD67
:10755400826810B504462AB14369016800699847F6
:107564000023A36010BD0EB403B5039921B104AB8D
:1075740001AA019300F06EF802B05DF804EB03B0C9
:107584007047826830B40468551C8560A154D0E902
:1075940001329A4202D330BCFFF7DABF30BC7047E5
:1075A4002DE9F84F9846DDE90A43154682460F4611
:1075B4000A464FF00109AA420FD2C14538BFC1465D
:1075C40013F0010B01D16CB900240126B8F1010FAD
:1075D4001BD908F1FF386E43F8E709F10109B2FB42
:1075E400F5F2E8E79B070ED5B8F1000F0CBF302683
:1075F4002026A145E9D2013C31465046FFF7C1FFA0
:10760400002CF6D1E0E72026F3E7B7FBF6F39D4222
:10761400E1D9DFF83C80B7FBF6F3504618F80310C5
:1076240006FB1377FFF7ADFF3346AB42B6FBF5F627
:10763400F1D2BBF1000F02D00CB1A14501D3BDE8DA
:10764400F88F20215046013CFFF79BFFF4E700BF71
:1076540046B502002DE9F74F05461746884600292E
:1076640000F0428118F8011B49B92B7B002B00F074
:107674003B81284603B0BDE8F04FFFF769BF2529D9
:1076840040F0B780002698F800302D2B424608F1D0
:10769400010823D0302B24D02B2B25D000242A2BD7
:1076A40002F1010123D13B681A1D1B683A601C4496
:1076B4000A4613782E2B26D101324FF0000A1046C9
:1076C40010F8011BA1F1300CBCF1090F1DD80A23DD
:1076D40003FB0A13A3F1300A0246F0E746F0010661
:1076E400D1E746F00206CEE746F00406CBE711F8F0
:1076F400013CA3F130000928DBD80A2202FB043440
:10770400303C0A46CBE74FF0000A12F8011B01F0A7
:10771400FB0068289046F8D0782909D86F290CD83E
:10772400632962D022D8252963D0582900F08880A3
:1077340098F80030002B95D197E770390829F7D8CD
:1077440001A353F821F000BFC77802003577020087
:10775400357702005578020035770200337802004D
:10776400357702003577020045780200642901D09C
:107774006929DDD13A68D2F80090111D89EAE972CD
:107784003960A2EBE9724FF0010B092A35DCD345CD
:1077940038BFD3462CB1B9F1000F01DB720700D515
:1077A400013CB30702D5BAF1000F03D0F00701D4AE
:1077B4004CBB0024B9F1000F2DDAC9F100092D21C9
:1077C4002846FFF7DEFE06F00302022A04D1BAF1CE
:1077D400000F01D11CBB0024CDE9004653460A2208
:1077E40049462846FFF7DCFEA2E73B681A1D1978D4
:1077F4003A602846FFF7C5FE9AE70A230BF1010B0E
:10780400B2FBF3F2C1E7A345D4D220212846013CC0
:10781400FFF7B7FECCE77107D5D52B21D0E7A345F9
:10782400DAD230212846013CFFF7ABFED2E73968B3
:10783400CDE900460A1D3A6053460A220968D0E79A
:1078440039680A1D3A60CDE9004653461022F5E72F
:107854003B681A1D3A6016F00106D3F8009028D14F
:10786400B9F1000F03D0484603F027FD0646B442A1
:1078740000D904BB09F1FF3919F8011F00293FF4AD
:1078840057AF2846FFF77DFEF6E728460136FFF797
:1078940078FE19F806100029F7D1A642BFF448AFC4
:1078A400002C3FF445AF20212846013CFFF769FE38
:1078B400F3E70026EDE720212846013CFFF761FEAF
:1078C400D5E73B681A1D3A60302128461C68FFF74B
:1078D40058FE78212846FFF754FE00220823CDE9FC
:1078E4000032214610227CE703B0BDE8F08F00BFD0
:1078F4002DE9F84FB0F806A04579D2F800B09DF80C
:1079040028900AFB05F5043D88460BEB0301A942C8
:1079140003F1040488BFA5EB030BB4FBFAF6074696
:107924000AFB1644C2F800B04EB9AAEB04055D4543
:1079340028BF5D46BBF1000F04D1BDE8F88F3F6856
:10794400013EF1E7043408EB06003C442A46B9F151
:10795400000F0DD02146ABEB050B03F052FCDA45CA
:107964002E443F6855464FF0000428BF5D46E1E7CA
:1079740001462046EFE7FFF796BDF8B54679014684
:10798400721E0546002393422D6803D30024A642A9
:1079940002D8F8BD0133F6E70F682846FFF7BEFDAD
:1079A40001343946F3E72DE9F843068ACD1C07462E
:1079B400FFF790FD043E35440446B5FBF6F5F0B1FF
:1079C4004FF48073EDB28380C680013D0760814629
:1079D4004FF00008A84512D23846FFF77BFD064653
:1079E40048B163790133637108F10108C9F80000F3
:1079F40007608146EEE72046FFF7BFFF3446204686
:107A0400BDE8F88301210430FFF72FBD10B5012133
:107A140004460430FFF735FD10F0FF0F04D1204673
:107A2400BDE81040FFF7A9BF10BD1FB503920022A7
:107A3400009203AAFFF75CFF05B05DF804FB1FB5D5
:107A440003920122009203AAFFF752FF05B05DF8EA
:107A540004FB41DF70470000064B10B500241C7086
:107A6400054B1C60BFF35F8F0449054800F039F8EB
:107A7400204610BD382A00203C2A002060B50200B0
:107A8400302A002007B500230DF107008DF80730D8
:107A9400FFF766FCF1EE103A23F09F03E1EE103A93
:107AA400BFF35F8F094B4022C3F884219DF8070080
:107AB400FFF77AFC02F082FD20B1FFF7CAFF03B0A2
:107AC4005DF804FB20BF40BF20BFF8E700E100E001
:107AD400836800225A60C3E904229A60DA601A605B
:107AE40070470B684A684360934208BF00230160F3
:107AF40008BF43607047436843B1026891685268A5
:107B04000B449342436004BF00234360704700006A
:107B140010B50D49A1F59472914201D800200FE0EF
:107B24008C1AE30F03EBE4035B1002EBC30452F87B
:107B34003330834205D802D204F10802ECE76068CE
:107B440010BD2146E8E700BF64BA020008B5FFF79C
:107B5400DFFF024B002808BF184608BD26B9020003
:107B6400054B1B68082B01BF044B1868B0FA80F062
:107B7400400918BF00207047300100103401001084
:107B840008B54FF080430022C3F80C21C3F810213C
:107B9400C3F838254FF0805203F54043D2F804145B
:107BA400C3F82015D2F80814C3F82415D2F80C141D
:107BB400C3F82815D2F81014C3F82C15D2F81414ED
:107BC400C3F83015D2F81814C3F83415D2F81C14BD
:107BD400C3F84015D2F82014C3F84415D2F824147D
:107BE400C3F84815D2F82814C3F84C15D2F82C144D
:107BF400C3F85015D2F83014C3F85415D2F834141D
:107C0400C3F86015D2F83814C3F86415D2F83C14DC
:107C1400C3F86815D2F84014C3F86C15D2F844249C
:107C2400C3F87025FFF79CFF10B1384B384A1A602F
:107C3400FFF796FF18B1374BFB22C3F81825FFF75F
:107C44008FFF48B13449354B0A681B6822F00F0294
:107C540003F00F0313430B60FFF782FF18B1304B9F
:107C64004FF400721A604FF08043D3F80024D20717
:107C740044BF6FF00102C3F800242A4AD2F88830C6
:107C840043F47003C2F88830BFF34F8FBFF36F8F94
:107C94004FF01023D3F80022002A03DBD3F8043278
:107CA400002B2FDA204B0122C3F80425D3F800243B
:107CB400002AFBD04FF010221221C2F80012D3F890
:107CC4000024002AFBD04FF010231222C3F8042210
:107CD400154B1A46D3F800140029FBD00021C3F831
:107CE4000415D2F80034002BFBD0BFF34F8F0D499D
:107CF4000E4BCA6802F4E0621343CB60BFF34F8FAC
:107D040000BFFDE70A4B0B4A1A6008BD8C560040C1
:107D14004881030000F00040E40E004058020010C7
:107D24004096024000ED00E000E001400400FA0546
:107D3400FC2200200090D00338B5074C051E04F146
:107D4400080318BF1C4623682BB11A6822605B68BD
:107D540028469847F7E738BD482A002020B9054B44
:107D640001225A70FFF7E8BF012802D1014A90703E
:107D7400F8E77047402A002020B9034B01225A70CB
:107D8400FFF7DABF704700BF402A002038B50B4C1C
:107D9400237883B90A486360A3602361E36000F039
:107DA400FDF8054602F00AFC08B900F003F90123C6
:107DB4002370284638BD8525FBE700BF402A0020F4
:107DC400617D020037B5184CA378054603F0FF0225
:107DD4009BB110B143680120984700230DF10700BF
:107DE4008DF80730FFF7BCFAE3689DF8070001330C
:107DF400E360FFF7D9FA03B030BD0DF107008DF849
:107E04000720FFF7ADFA25B1226913463BB92A6072
:107E14002561E368002BE7D100F0DEF8E4E79D423A
:107E2400F7D01B68F2E700BF402A002037B50B4C9F
:107E340000230DF107008DF80730FFF791FAE3688E
:107E4400013BE360E56815B900F0D8F8A5709DF82A
:107E54000700FFF7A9FA03B030BD00BF402A002095
:107E6400012813B508D003281CD018B9104B0122DF
:107E7400C3F8802002B010BD0E4C00230DF10700A2
:107E84008DF80730FFF76CFA23780BB9FFF77EFF04
:107E9400E3689DF807000133E3600123A370FFF753
:107EA40083FAE7E700F086F8FFF7C0FFE2E700BFD8
:107EB40000E100E0402A00201FB503788DF800306F
:107EC4004368019383688DF80830C368054A0393B7
:107ED400054B684653F8213052F82110984705B0F5
:107EE4005DF804FB542A00205C2A00201FB50378A7
:107EF4008DF800304368019383688DF80830C368B7
:107F0400054A0393054B684653F8213052F8211073
:107F1400984705B05DF804FB542A00205C2A002031
:107F2400F0B5194B90F800C0DFF86CE043F82C2052
:107F3400164B16460A6943F82C204B7F0EF80C307A
:107F44000C4607460FCC89B06D460FC594E80F0068
:107F540085E80F001EF80C30CDF810C04BB1002E90
:107F64000B4A694608BF3246381D00F00DFE09B0C1
:107F7400F0BD002E074A694608BF324607F10C00DF
:107F840000F0F8FBF3E700BF5C2A0020542A00202D
:107F9400BD7E0200F17E0200642A0020044A1379A7
:107FA40023B90121106091801846704785207047DD
:107FB400682A0020074B1A68D2075FBFC02283F8E3
:107FC400002301221A604FF080430122C3F81825D0
:107FD400704700BF00E100E0074B00221A6082B046
:107FE4001B680193019B4FF080430222C3F80423D2
:107FF40001229A6002B0704704010040044B012240
:108004001A604FF08042D2F81834DB03FBD4704777
:108014000C000040154B07B51A687AB100221A60AB
:108024001B680093009B4FF080430122C3F8082390
:108034000F4B587910B95A711B6898470D4B1A6841
:1080440082B100221A601B680193019B4FF08043A8
:108054000222C3F80823064B1B68012003B05DF815
:1080640004EB184703B05DF804FB00BF00010040B7
:10807400682A00200401004000F1804000F5C0405F
:10808400002382B0036003680193019B02B0704730
:1080940003681F2B83BF03F01F03036001484FF0E5
:1080A400A04070470003005007B5019001A8FFF7F6
:1080B400EFFF019B00EB8300D0F8003723F440333B
:1080C400C0F80037D0F8003743EA0141C0F8001780
:1080D40003B05DF804FB0000054B4FF0FF320728A6
:1080E40043F8202084BFC01880F85820704700BF90
:1080F400702A002010B5174C94F86A3043BB04F181
:1081040030033021FF22013911F0FF0103F8012B64
:10811400F9D1C8B2FFF7E0FF01310C29F9D10622E9
:1081240000210D4803F096F80C4BC02283F8062377
:1081340040221A604FF4BE70FFF79EFF084B4FF0C9
:108144000042C3F80423012384F86A30002010BDE0
:108154000820FCE7702A0020D42A002000E100E077
:108164000060004037B5354B1A18044692F93000C8
:10817400013061D18878002852D01846002250F886
:10818400045B013546D1181980F83020002043F8EB
:108194002200920002F1804202F5C0420B78D2F82C
:1081A4001055487825F499151B04000525F4F85555
:1081B40000F4801003F44033C2F810550343200246
:1081C400D2F8105500F47C5003432B43C2F8103509
:1081D4004A780194012A01A826D1FFF759FF019B8F
:1081E4009A40C0F8082501A80194FFF751FF019BAC
:1081F400134903F5E073032240F8232024FA02F222
:10820400012304F0070003FA00F08B5C1843885440
:10821400002003E00132082AB1D1042003B030BDAC
:10822400FE2382F83030D3E7FFF732FF019A0123AF
:108234009340C0F80C35D6E70820EFE7702A0020F9
:10824400D42A002007B5019001A8FFF721FF019A65
:1082540001239340C0F8083503B05DF804FB07B56B
:10826400019001A8FFF714FF019A01239340C0F87D
:108274000C3503B05DF804FBF7B53B4E33180546E7
:1082840093F93030002B6CDA8B78C3F34003002B66
:108294000BBF082400240C200820844202D10420AF
:1082A40003B0F0BD56F82470013743D1701946F875
:1082B400242080F8304013B9331983F858508B7850
:1082C4005A0717D4D80737D501A80195FFF7E0FE60
:1082D400019B00EB8300D0F8003723F00203C0F8C1
:1082E40000372248EA0805F007070123BB40875CF2
:1082F4003B4383548B780A7813F0020328D0A400FC
:1083040004F1804404F5C0442D02D4F8103523F45C
:108314004F3323F44073C4F810351204D4F81035E5
:1083240005F47C5502F4403215431D43C4F810553E
:108334000020B5E70134B0E701A84A780195FFF7BA
:10834400A7FE019B03F5E073920040F82320C8E7E1
:10835400083C344494F8605045EA821284F8602062
:10836400E6E708209CE700BF702A0020D42A0020FA
:1083740007B5019001A8FFF78BFE019BD0F810050B
:10838400D84000F0010003B05DF804FB2DE9F04F84
:10839400002489B0CDE90244624D4FF4807201217A
:1083A40002F1804303F5C04390B21B68012B06D150
:1083B400D5F804330B4202D0FFF75EFE0C430432BF
:1083C400B2F5907F4FEA4101EAD1574B1B68012B6C
:1083D4000ED14FF4BE70FFF74FFE4FF0A04344F0B0
:1083E4000044D3F810350293504BD3F8103503935F
:1083F40014F0FF0F1AD04E4F00250126344210D03E
:10840400AB0003F1804303F5C043D3F81005D3F860
:10841400101557F8253023B1C1F30141C0F30520ED
:1084240098470135082D4FEA4606E7D1002C75DA46
:1084340004AF002304937B604FF0FF33CDE9063390
:10844400DFF8EC90DFF8EC800026354618F9012BB4
:10845400531C4AD0C2F3C2000123D4B202F03F0B32
:1084640002F0070203FA02F208AB191811F8083CEB
:1084740013423AD009EB0B03A40993F9303059F8AD
:1084840023A0BAF1000F08D1032C2ED117F800C095
:108494004CEA020C07F800C001E0032CF6D001A856
:1084A400CDF804B0FFF7F4FD019B11F8181C03F597
:1084B400E07C114250F82C00C0F3014005D00228A2
:1084C40013D1032C0BD1214604E003280DD1032C36
:1084D40005D102215846FFF7E7FD0135EDB2BAF1A7
:1084E400000F02D021465846D0470136042EADD1A4
:1084F400A5B14FF0A0430299D3F8102503F54073BA
:108504009142D3F8103502D10399994206D00292D0
:108514000393049A059B0692079393E709B0BDE879
:10852400F08F00BF006000407C61004000030050F9
:10853400702A0020D02A0020014B1B68184700BF76
:10854400DC2A00200E4B984237B50C4602D000209E
:1085540003B030BD00230DF107008DF80730FEF79E
:10856400FFFE084B1D7915B901221C601A719DF894
:108574000700FEF719FF002DE9D01120E8E700BF3E
:1085840000200040DC2A0020034B984201BF034B2B
:1085940000221A601A71704700200040DC2A002073
:1085A4000023435082B043580193019B02B07047AB
:1085B4000A4610B54FF48E71FFF7F2FF136A916803
:1085C400C95C136A01331362C0F81C1510BD8B69B2
:1085D4000A4610B54FF4847123B9FFF7E1FFD0F8D0
:1085E400183510BDFFF7DCFF536AD168D0F81805C1
:1085F400C854536A01335362F3E700001FB50123E3
:108604008DF80030044BCDE90110D3E9001268461F
:10861400904705B05DF804FBE42A002030B54B48D0
:10862400D0F8043313F4007F85B005464DD0D0F85C
:108634002431002B49D04FF49271FFF7B1FF4FF46E
:108644000173C0F80833424B93F829200AB9012278
:1086540042603E4902228DF80020D1F88024C1F8FE
:10866400802403929A690292DA6801920022C3E993
:1086740006226846D3E9001290473448D0F81C31EA
:108684005BB133490A6A4B699A420A464AD291F865
:108694002830002B46D1FFF78BFF2C48D0F844310B
:1086A4008BB14FF4A271FFF77BFF294B93F829207C
:1086B4000AB1012202609A692AB10022586AD96873
:1086C4009A61FFF79BFF05B030BDD5F804335B0713
:1086D400D3D5D5F80831002BCFD01D4C1B482146EB
:1086E400FFF775FF636AA2699A422346C5D1E2691E
:1086F400E1684AB12369E3600023606AA261E3612F
:108704006362FFF77BFFB8E794F829200AB90122D6
:108714006A600E4A4FF40170C2F808030022586AD6
:108724009A61EEE74FF48E710848FFF739FF5169FB
:108734000029B2D00023029191688DF80030019194
:1087440053616846D2E900139847A6E70020004029
:10875400E42A00201F2886BF00F01F00044B4FF0BE
:10876400A04300F5E070022243F82020704700BFC8
:10877400000300502DE9F843634B057991462C2200
:1087840002FB0532064692F82A200C469846002A37
:1087940040F0B6805D490068FFF7D4FE0746002824
:1087A40040F0B08021684A1C10D01F2987BF584A66
:1087B40001F01F030B464FF0A0420120984003F53F
:1087C400E073C2F80805032042F823006068431CE4
:1087D4000DD01F288BBF00F01F0303464C4A4FF0F7
:1087E400A04203F5E0734FF0000C42F823C0336855
:1087F400A269C3F8242594F814C0627DBCF1010F6A
:108804004CEA0202C3F86C25C3F81405C3F80C152E
:108814002BD1A168481C0DD01F298BBF01F01F026A
:108824000A463B484FF0A04002F5E0724FF0000CBE
:1088340040F822C0E068421C13D01F2887BF344A86
:1088440000F01F0C84464FF0A0424FF0010E0EFAC8
:108854000CFE0CF5E07CC2F808E54FF0030E42F87C
:108864002CE0C3F80805C3F810152C236B4308EB60
:108874000302C2F80490226948F80320B9F1000FFA
:108884002BD03068247F4FF48E71FFF789FE306857
:108894004FF4A271FFF784FE32681E4BC2F8043312
:1088A400110B42F30732002AA8BF02F160404FEADD
:1088B4004413BABF184801F00F0400F56140DBB25D
:1088C400B4BF035580F8003301F01F01012303FAFC
:1088D40001F15209114B43F8221033680422C3F802
:1088E40000252C2303FB05830022C3E9062283F819
:1088F40029205A61012283F82A203846BDE8F883EA
:108904000827FAE71127F8E7E42A00202186020065
:10891400000300508000020014ED00E000E100E0DC
:108924002DE9F04103680479244D0022C3F80025A1
:108934002C2202FB0452014652686AB1204AC3F851
:10894400082343F30732C3F3043652090120B0402D
:1089540020321C4E46F82200D3F80C05D3F81485B7
:10896400D3F80865D3F810754FF0FF329042C3F87E
:108974001425C3F80C25C3F80825C3F8102501D025
:10898400FFF7E8FEB8F1FF3F02D04046FFF7E2FEF2
:108994007A1C02D03846FFF7DDFE731C02D0304645
:1089A400FFF7D8FE0868FFF7EFFD2C2303FB045400
:1089B400002384F82A306360BDE8F081E42A0020B3
:1089C4008402020000E100E02DE9F843204B07791E
:1089D4004FF02C0909FB0734054666699846002EBA
:1089E40033D100686261A16026624FF48E7184F80D
:1089F4002860FFF7D5FD2868012383602146FFF72F
:108A0400D7FD6368A14683B92868226A63699A42DC
:108A140011D32B68D3F81C21002AFBD00122DA6081
:108A24002C2303FB078300225A613046BDE8F883F8
:108A340094F828303BB9D0F81C31002BF8D04946C3
:108A4400FFF7B6FDE1E70F26EAE71126EDE700BFE1
:108A5400E42A00200023435082B043580193019B31
:108A640002B070471FB501238DF80030044BCDE9E7
:108A74000110D3E900126846904705B05DF804FB85
:108A8400102B00207FB5364AD2F82461002E46D040
:108A940010464FF49271FFF7DDFF02238DF800308A
:108AA400D2F88034C2F880340393D2F83C35029370
:108AB4002C4BDA6801920022C3E906226846D3E906
:108AC400001290472648D0F8443173B14FF4A27194
:108AD400FFF7C0FF234B9A693AB10022C3E906228B
:108AE400D968D0F83C05FFF7BDFF1D48D0F8203108
:108AF4009BB14FF49071FFF7ADFF1A4B5A6962B105
:108B0400D0F84C150291002299688DF8002001914B
:108B14005A616846D3E90012904704B070BDD2F898
:108B24001031002BCED04FF488711046FFF792FF1E
:108B34000C4BD2F83C0599698842C3D1DC69D968E9
:108B440064B1D2F8005225F02005C2F800521A6927
:108B54009C61DA60DE61FFF785FFB3E79C61FAE7A9
:108B640000200040102B00201F2886BF00F01F00AB
:108B7400044B4FF0A04300F5E070022243F820209C
:108B8400704700BF000300502DE9F843674B067996
:108B94009146242202FB0632044692F820200D4618
:108BA4009846002A40F0BE8061490068FFF7CAFC7D
:108BB4000746002840F0B8802868421C10D01F28BF
:108BC40087BF5C4A00F01F0303464FF0A042012117
:108BD400994003F5E073C2F80815032142F8231005
:108BE40069684B1C0DD01F298BBF01F01F030B4676
:108BF400504A4FF0A04203F5E0734FF0000C42F8E6
:108C040023C02368AA69C3F8242595F814C06A7D93
:108C1400BCF1010F4CEA0202C3F86C25C3F80C0541
:108C2400C3F814152BD1A968481C0DD01F298BBF7C
:108C340001F01F020A463F484FF0A04002F5E072DF
:108C44004FF0000C40F822C0E868421C13D01F28E3
:108C540087BF384A00F01F0C84464FF0A0424FF003
:108C6400010E0EFA0CFE0CF5E07CC2F808E54FF09C
:108C7400030E42F82CE0C3F80805C3F810152423AA
:108C8400734308EB0302C2F804902A6948F80320EE
:108C9400B9F1000F35D020682A7F4FF48871FFF7AF
:108CA400D9FE20684FF49071FFF7D4FE20684FF48A
:108CB4009271FFF7CFFE20684FF4A271FFF7CAFE4E
:108CC40023681D49C3F80413190B43F30733002B1E
:108CD400AEBF03F1604001F00F0518484FEA42129D
:108CE400A8BF00F56140D2B2B4BF425580F800235A
:108CF40001F01F01012202FA01F15B09104A42F856
:108D0400231023680822C3F80025242303FB0683C9
:108D14000022C3E906225A61012283F82020384642
:108D2400BDE8F8830827FAE71127F8E7102B00209D
:108D3400898A0200000300501003020014ED00E0D1
:108D440000E100E02DE9F04103680479244D00229C
:108D5400C3F80025242202FB0452014652686AB17A
:108D6400204AC3F8082343F30732C3F304365209F5
:108D74000120B04020321C4E46F82200D3F80C05E6
:108D8400D3F81485D3F80865D3F810754FF0FF3283
:108D94009042C3F80C25C3F81425C3F80825C3F87A
:108DA400102501D0FFF7E0FEB8F1FF3F02D04046A6
:108DB400FFF7DAFE7A1C02D03846FFF7D5FE731CA3
:108DC40002D03046FFF7D0FE0868FFF7DDFB24230E
:108DD40003FB0454002384F820306360BDE8F08171
:108DE400102B00201003020000E100E001F06043BA
:108DF400B3F1005F2DE9F041064632D11B4B0779F0
:108E0400242505FB073598466C6964BB6A610068D4
:108E1400A9604FF49071FFF71DFE4FF4AC713068F8
:108E2400FFF718FE33686A69A968C3F84415C3F8E4
:108E3400482501229A606A6862B9D3F82021D3F8E0
:108E4400584152B9002CF8D00F24242303FB078780
:108E540000237B612046BDE8F081002C18BF0F245D
:108E6400F3E71024F6E71124F4E700BF102B0020E9
:108E74007FB503788DF804304368029383688DF8D6
:108E84000C30C36804930369064A8DF81430064B0A
:108E940001A853F8213052F82110984707B05DF823
:108EA40004FB00BF342B0020442B0020F0B5054602
:108EB400174615F804CB124A42F82C70114A42F8AE
:108EC4002C30114B0C460FCB85B06E4686E80F0054
:108ED4002368009323798DF8053063798DF8063083
:108EE400A3680293002FA389084AADF80C3008BF89
:108EF4003A4663463146284600F056F805B0F0BDC0
:108F0400442B0020342B002088BA0200758E020006
:108F14001F2886BF054A00F01F004FF0A04201231E
:108F240003FA00F0C2F80805704700BF00030050C0
:108F34001F2886BF054A00F01F004FF0A0420123FE
:108F440003FA00F0C2F80C05704700BF000300509C
:108F5400114BD3F8183107B5D3B1104B1049002287
:108F64001A60C87F1B680193FF28019B03D08B7F85
:108F74005BB1FFF7DDFF00234B770B72D1E90031C2
:108F8400084803B05DF804EB1847FFF7C1FFF2E7A8
:108F940003B05DF804FB00BF00300040183100400E
:108FA400542B00205C2B00202DE9F74F0679734FDA
:108FB4004FF0240A0AFB06FA07EB0A0B0C469BF84F
:108FC4001C10CDE900328046002940F0D0800568AD
:108FD4006B492846FFF7B6FA8146002840F0CA805C
:108FE400019A47F80A20009BCBF80430237B2078B1
:108FF400012B00F2AA80FFF79BFF23781F2B86BF6B
:1090040003F01F035F4A4FF0A04203F5E073012110
:1090140042F823106178FF2900F09A800846FFF790
:1090240087FF1F298BBF01F01F030B46554A4FF0E2
:10903400A04203F5E073032042F82300A378FF2B3A
:1090440000F089801F2B8BBF03F01F021A464D4886
:109054004FF0A04002F5E0724FF0040C40F822C03B
:109064009A46242202FB067282F82030E078D077F8
:10907400FF2816D02379002B70D0FFF759FFE3782F
:109084001F2B86BF03F01F033E4A4FF0A04203F597
:10909400E073032042F82300242303FB06732279A0
:1090A4009A772378C5F80835A368C5F80C15C5F870
:1090B40010A5C5F82435637B227B003B18BF012330
:1090C400022A4ED0032A4FD0012A01D143F00203D1
:1090D400C5F85435A379C5F8C03524237343FB5828
:1090E40013B14022C5F804230722C5F800250BB3A9
:1090F400D8F80030627943F307310029A8BF01F1A1
:109104006040C3F30733BCBF03F00F041E484FEAAB
:109114004212A8BF00F56140D2B2B4BF025580F834
:10912400002303F01F03012202FA03F34909174A3B
:1091340042F82130242303FB0676002373770123AE
:109144003377484603B0BDE8F08FFFF7E1FE54E7FC
:109154004FF0FF3172E74FF0FF3A82E7FFF7D8FE96
:109164008DE743F00403B3E743F00603B0E74FF0A1
:109174000809E6E74FF01109E3E700BF542B00208C
:10918400558F02000003005014ED00E000E100E000
:109194002DE9F3410679424F242373431446FA1808
:1091A4000D46517F8046002978D1FB5823B114F035
:1091B400140F04BF0123537795E80F004FF0240CDC
:1091C4000CFB067C0CF10C0E8EE80F009CF81F00C3
:1091D400FF2804D09CF81E30C3B1FFF799FE29681C
:1091E40021B101F06043B3F1005F06D1AA6882B1F6
:1091F40002F06043B3F1005F0BD0242303FB067637
:1092040000237377102002B0BDE8F081FFF790FED1
:10921400E5E7D8F800306868C3F84415C3F8480592
:10922400E968C3F834250022C3F83815C3F81821B7
:10923400D3F818210192019A14F0010218BF0122F7
:10924400C3F8502514F0020218BF0122C3F84025C8
:1092540022075CBF01221A6124227243BA5892B9D0
:10926400D3F81821002AFBD0242303FB0676F07FD1
:10927400FF2803D0B47F1CB1FFF75AFE0020C2E7D9
:10928400FFF746FEFAE714F004004FF0400202D064
:10929400C3F80823F2E7C3F80423B4E71120B2E7C4
:1092A400542B002072DF704773DF704776DF7047FE
:1092B4007ADF70477CDF70477FDF70478FDF70474E
:1092C400B1DF70477047FDF757BD000008B5054B87
:1092D40001211878FFF7E8FF18B1BDE80840FDF751
:1092E4004BBD08BD102300200388212B13B5044671
:1092F40041D007D8112B25D0132B34D0102B0CD0F0
:1093040002B010BD522B3ED0562B01D03B2BF7D1CF
:10931400A0881321FFF7CAFF0FE01F4B1F48204905
:10932400C01AC008000440F00300FDF7B5FB1D4B54
:10933400A1881D48198001F05DF80028E0D0FDF7F0
:109344001BFDDDE7144B15481849C01AC00800047A
:1093540040F00300FDF7A0FB124B4FF6FF721A809A
:10936400FFF7B4FFCCE70F4800231A468521008895
:10937400FFF7A2FFE1E7002301A98088ADF80430DC
:10938400FFF79CFFD9E7074800231A4619460088CF
:10939400FFF796FFD1E700BF7CB30200ACB3020035
:1093A4009DBA020012230020DC2B0020A7BA020081
:1093B40008B503784BB9054B3B211888FFF776FFB6
:1093C40018B1BDE80840FDF7D7BC08BD1223002042
:1093D400FDF7D2BC08B54FF400410020FDF7A6F913
:1093E40008B1FDF7C9FCBDE80840FDF7D5B8000099
:1093F4004FF01023D3F8043303F00703072B24D1D1
:10940400124B0122C3F80425D3F80024002AFBD010
:109414004FF01021D1F8042322F00702C1F80423ED
:109424000022C3F80425094AD2F80034002BFBD0EB
:10943400BFF34F8F0649074BCA6802F4E062134337
:10944400CB60BFF34F8F00BFFDE7704700E00140E2
:1094540000ED00E00400FA0570B54FF08043ADF56F
:109464006B5DD3F84036D9078EB001D5FFF7C0FF46
:10947400FFF7B0FFFEF78AFC08B1FDF77DFC002082
:10948400FEF7A0FCFDF7D2FE08B1FDF775FCFEF770
:10949400E3FA08B1FDF770FC01F052F808B1FDF7EA
:1094A4006BFC002318A90120189301F0F1F808B10E
:1094B400FDF762FC18A801F09DF908B1FDF75CFC0A
:1094C4001123A9488DF8243001F0F7FEA64982B291
:1094D40009A8FFF7EFFE08B1FDF74EFC08220021B2
:1094E40018A801F0B7FEA14AA14B18A8CDE918238A
:1094F400FFF7DEFE08B1FDF73FFC9E48002100F0B7
:1095040071FE08B1FDF738FC002309939A489B4B80
:10951400189318A900F05CFF08B1FDF72DFC984BD7
:109524009848099309A901F07DFD08B1FDF724FCD1
:10953400BC23ADF80830934B02AC9B7AA3703C2259
:10954400002109A801F086FE02238DF824303C2274
:1095540040F20163002118A8ADF8263001F07AFE2C
:109564001D94894C2246012352F8041BADF8703037
:1095740009A800F0A7F908B1FDF7FEFB834AA1682A
:1095840018A800F09FF908B1FDF7F6FB1822002196
:1095940003A801F05FFE00230122ADF81830049304
:1095A4004FF480738DF80C20ADF82030764978485C
:1095B400FF2303AA0593FFF775FE08B1FDF7DCFB53
:1095C4001C22002118A801F045FE00234FF420229C
:1095D400CDE91832ADF86E304FF420328DF870308A
:1095E4006C4B1A921D9303226B4B8DF86C2018A8B8
:1095F4001E9300F02FFC08B1FDF7BEFBFFF766FEDB
:10960400664C674B6749E41AE408240444F00304F5
:109614002046FDF741FA64492046FDF73DFA6149C9
:109624002046FDF739FAFDF7DBF80028FBD109A83D
:1096340001F05FF9002840F08D805C492046FDF779
:109644002BFAFDF7CDF805460028FAD1DDE90D2304
:1096540018A903A801F0ADFA4FF48C76012103A8F0
:1096640001F0D7FA01950096B4235022142103A8DF
:1096740001F0D3FBCDE90065B4235022142103A8E3
:1096840001F071FBCDE9006514235022B42103A835
:1096940001F069FBCDE900654FF4B4730126502253
:1096A400C82103A801F0F5FB00963C23A0224FF447
:1096B400967103A801F013FC00951E23D2225A21AF
:1096C40003A801F04FFC1E232946019500930622AE
:1096D4004FF4C87303A801F0DCFB0196344E354BFC
:1096E40000960A22642103A801F025FBCDE9006558
:1096F400314B324D2822642103A801F01CFB304970
:109704002046FDF7C9F918A909A801F0A5F942F204
:10971400107645F001054FF47A40A847013EFAD18E
:1097240020462849FDF7B8F9274909A801F094F91A
:1097340042F210744FF47A40A847013CFAD1FDF785
:109744004FF80028FBD1FDF74BF80028F7D1FEF7BE
:1097540099F9F4E720461D49FDF79EF94FF0FF30D3
:109764000DF56B5D0EB070BDB4BA02005000A000E0
:1097740002009001C82B0020DC2B0020CB920200B9
:10978400C9920200782B0020002300200C23002023
:1097940010230020B5930200D5930200ACB302005D
:1097A4007CB30200B9BA0200DDBA020016BB0200A3
:1097B400142300202BBB020038BB020070BB020044
:1097C40045BB020055BB0200E6DA020001BB020001
:1097D4006DDF704779DF70477DDF704764DF704766
:1097E4002DE9F04F85B000250E9CBDF83CB0B4F8CF
:1097F40000A00191074690461E46A9463A884A456C
:109804000DDC45B12388013BA3EB0A039BB2FF2B7C
:109814003AD806F80A30002005B0BDE8F08F7A681F
:1098240052F82900039000220DF10B0103A8FFF761
:10983400D5FF0028F0D19DF80B20424521D1228884
:10984400002D14BF0020022002EB080101445945F9
:109854001ADC3DB9013292B2019B2280B3542288B2
:109864000132228022880DF10B01324403A8FFF754
:10987400B5FF0028D0D121889DF80B200A4422800E
:10988400012509F10109B9E70C20C5E72DE9F341E8
:10989400089FBDF824801546CDE9007802220446CD
:1098A4001E46FFF79DFF50B9334610222946204635
:1098B400CDE9087802B0BDE8F041FFF791BF02B0EE
:1098C400BDE8F0812DE9F04F00231788138090F84C
:1098D4002D3085B006460D46144653B3082F01D8E3
:1098E4000C2027E102A8FFF773FF002840F0228133
:1098F40023880822EA54238801339BB21B22238045
:10990400EA542088013080B2208006220DF109013A
:10991400284401F076FC23889DF8082006339BB286
:1099240012F0FE0218BF01222380EA542388013377
:109934002380B378FBB123880433BB42D0D802A878
:10994400FFF748FF002840F0F58023880322EA54FB
:10995400238801339BB219222380EA542388BDF85B
:10996400082001339BB2E9182380EA54120A4A7092
:10997400238802332380F2789AB12388D91CB94210
:10998400AED80221E954238801339BB201212380FC
:10999400E95423880B449BB22380EA5423880B4464
:1099A40023807268AAB12388D91CB94298D80221AD
:1099B40092F90020E954238801339BB20A212380C1
:1099C400E954238801339BB22380EA54238801336A
:1099D40023803389002B40F0A180338A5BB1CDE929
:1099E40000472B460722032106F11000FFF74EFF24
:1099F400002840F09F80338B5BB1CDE900472B46B4
:109A04001522142106F11800FFF740FF002840F04A
:109A14009180326A002A40F09080D6F82480B8F110
:109A2400000F30D0B8F804302188981C8A1C0244F6
:109A3400BA423FF655AFFE283FF652AF03336B549C
:109A4400238801339BB2FF222380EA542388013305
:109A54009BB22380B8F80020EA54E918120A4A702D
:109A64002088023080B22080B8F804205AB1D8F897
:109A7400081000296BD0284401F0C3FB2388B8F8F0
:109A840004201344238096F82C30002B40F09A8055
:109A9400307800284ED03388012B58D0228802F128
:109AA400020CBC453FF61CAF012805D17378023384
:109AB40013449F42FFF414AF023FBF1ABFB202A97E
:109AC40005EB0C00ADF80870FFF786FE90BB31780B
:109AD400BDF80830022900F0BA8072789A4202D3A5
:109AE400BB4240F2B280012940F0B380974293B266
:109AF400C0F0AF80ADF808300821BDF80830FE2B67
:109B04003FF6EEAE22880133AB542288013292B282
:109B14002280A9542288134423800BE0CDE9004716
:109B24002B460622022106F10800FFF7AFFE0028AB
:109B34003FF453AF05B0BDE8F08FB4F800C00CF1AA
:109B44000603BB423FF6CCAE1188052901D8072095
:109B5400F0E76FF4486E01EB0E039BB24FF27D3ECB
:109B64007345F4D95388052BF1D96FF4486018185C
:109B740080B27045EBD94FF6FF70814203D0834227
:109B840001D09942E3D8052305F80C30238801332A
:109B94009BB212212380E954238801339BB2238092
:109BA4001188E954E818090A4170238802339BB2EA
:109BB40023805288EA54E918120A4A70238802332F
:109BC40023802AE7B36A002BC1D04FF000094FF07D
:109BD4000C0A4FF0160B96F82C305FFA89F2934278
:109BE4007FF656AFB16A0AFB02F201EB0208B8F83D
:109BF4000430981CFE283FF673AE208803332B54A0
:109C0400238801339BB2238005F803B023880133F2
:109C14009BB223808A5AEA54E918120A4A702088AF
:109C2400023080B22080B8F804205AB1D8F8081065
:109C340000298CD0284401F0E4FA2388B8F80420E1
:109C44001344238009F10109C5E7092155E7BB4203
:109C5400FBD9ADF808704FE775DF704776DF7047C2
:109C64007ADF70477BDF7047034B1A8882420CBF50
:109C740018460020704700BF042C0020024B9B694B
:109C840003B11847704700BFE82B002073B585B2B5
:109C94002846FFF7E9FF044670B1164E027A337B7B
:109CA4009A420BD200F10A012846FFF7D5FFE8B12A
:109CB400112801D0FFF7E2FF02B070BD0023037248
:109CC400337C43B13B212846FFF7C8FF30F008033B
:109CD40001D0FFF7D3FF7369002BEDD000228DF87C
:109CE4000420ADF8065001A89847E5E7237A01332C
:109CF4002372E1E7E82B002037B50B46497A0F4A77
:109D040071B9D2E901141D7A0246002D18BF21460B
:109D14005868FDF7CDFA08B1FFF7B0FF03B030BDC6
:109D2400002119725369002BF8D00122ADF8060006
:109D34008DF8042001A89847F0E700BFE82B002025
:109D44004B8802889A4213D842889A4210D380885A
:109D54008A8840F2F313984294BF031AC31A9342B9
:109D640006D800F2F310904234BF0020012070475F
:109D7400002070470388122B70B5014659D004D8CF
:109D8400102B1ED0112B44D070BD502BFCD12F4B67
:109D9400C288DB899A42F7D1038A022BF4D18688E0
:109DA4003046FFF761FF05460028EDD001F11200AF
:109DB40000F023F938BB6868FDF7C2FA0028E3D045
:109DC40009E0C37B012BDFD14FF6FF70FFF74CFF97
:109DD400054620B90420BDE87040FFF74FBF1C4A78
:109DE4008E880680002303721368C0F80A30536813
:109DF400C0F80E3010310A30FFF7A2FF134B68721F
:109E0400DB89002BC0D129463046BDE87040FFF7FE
:109E140073BF8088FFF728FF04460028B4D0406849
:109E2400FDF78EFA08B1FFF729FF4FF6FF73238081
:109E3400AAE786883046FFF717FF05460028A3D017
:109E440008310A30FFF77CFF6872DCE7E82B00205A
:109E5400182C0020F8B5064648B305460FCD154F1B
:109E64003C460FC495E8070084E807003068124CAC
:109E74003C60B0B1FFF7F4FEC0B9326813682360E8
:109E8400536863600D480E4A4FF6FF7303800D4B11
:109E940040F8043F0021FDF7F9F9002818BF03201A
:109EA40004E02046FFF7DEFE0028EBD0F8BD0E20CC
:109EB400FCE700BFE82B0020182C0020042C002015
:109EC400919C0200202C002073B50191019C064650
:109ED4006CB100252C46294601A8FDF78EFA18B16D
:109EE40006EB440301349D800135142DF3D1304633
:109EF400346002B070BD00002DE9F0470388848807
:109F0400112B8CB005463CD01A2B3FD0102B17D107
:109F1400284EB368DB43009371686846FDF799FAED
:109F2400009901A8FFF7D0FF0DF108094FF00008D0
:109F3400019B984507D3132C13D90420FCF71CFF6D
:109F44000CB0BDE8F08739F802AB00270137514661
:109F540006EB8700FDF747FA1D2FF7D108F101083A
:109F6400E6E715482146FDF735FA14482146FDF782
:109F740031FAEB7B012BE3D011482146FDF72AFA95
:109F8400DEE70D482146FDF72EFAD9E7037A0D489E
:109F94001F2B4FEA1315214606D9FDF71BFA022D94
:109FA40009482146EAD1EEE7FDF71DFA06482146A5
:109FB400E9E700BF402C0020482C0020442C00205E
:109FC4004C2C0020502C0020542C0020AADF704779
:109FD400002301380B70042806D8DFE800F00306DC
:109FE400080A0C0011230B7070472123FBE731236F
:109FF400F9E71223F7E72223F5E7007800F00100E0
:10A004007047F0B58B7891B0012B0C4638BF012313
:10A014008DF80E3005460B88ADF80C30002116463D
:10A024006846032201F016F9607C6946FFF7D0FF09
:10A03400A07C0DF10101FFF7CBFFE27B237B217DA7
:10A0440043EAC203227C43EA02139DF8022000295A
:10A0540022F0190203F0190314BF02210121134352
:10A0640061F342031C22002109A88DF8023001F09B
:10A07400F1F8637B13F0300F15D002AF03220021F7
:10A08400384601F0E7F8E07C0DF10901FFF7A0FF85
:10A0940011238DF808309DF80A300E97012262F3DF
:10A0A40042038DF80A30637B8DF824301422A37B9D
:10A0B4008DF82530002104A801F0CCF803AB0493FB
:10A0C400A388ADF81C30A368CDF814D01BB1E28886
:10A0D400ADF818200893A369002B31D001AF0322F7
:10A0E4000021384601F0B6F8A3691A88ADF82C208F
:10A0F4005A88ADF82E205A680D97187B0A92394673
:10A10400FFF766FFA3690DF10501587BFFF760FFB8
:10A11400A269917A137A43EAC103D17A927B43EA22
:10A1240001139DF80610002A03F0190321F0190108
:10A1340014BF022201220B4362F342038DF806305E
:10A14400E36903B10C93334604AA09A92846FFF72F
:10A154003DFF11B0F0BD90DF7047A5DF7047B5DF5C
:10A16400704700007FB50023ADF80810ADF80A1061
:10A174006A4602A9064603930093ADF80430FFF73C
:10A18400EAFF054600B3124B124CE41AE408FDF74B
:10A19400DDFC240444F0010403460F493246204602
:10A1A400FCF787FCBDF80020BDF8023052EA030139
:10A1B40003D00A492046FCF77CFCBDF804201AB100
:10A1C40007492046FCF76CFC284604B070BD00BF6C
:10A1D4007CB30200BCB3020076BB0200C0BB020029
:10A1E400FFBB020078B14FF0171303601B23037108
:10A1F4001723C380038141F61B320023016143818D
:10A204008281184670470E207047000013B503463C
:10A2140080880C46B8B91A88242A00F0958014D88E
:10A22400112A71D0232A00F09D80102A3BD0A37AF2
:10A234004BB1E1880020FFF790FF002840F09880A0
:10A244004FF48073638102B010BD3A2A64D0552A5A
:10A25400EDD1DB88C988A072172B38BF17238B4236
:10A2640028BF0B462381FFF77AFF60B1FDF76EFC30
:10A27400484B4949024649481B1ADB081B0443F072
:10A284000100FCF70DFCE37A002BD0D12369002BED
:10A29400CDD040F6772200922289ADF80420694699
:10A2A40020469847C3E7DB7B0A790A73012B13D056
:10A2B400022B14D0E18823898B4205D20020FFF7BA
:10A2C4004CFF70B90123E372217B637B8B42AED2D6
:10A2D4000020FFF747FFAAE70B88E380EAE74B88F3
:10A2E400FBE7112802D10123A372EDE7FDF72EFC51
:10A2F400284B2B49024629481B1ADB081B0443F050
:10A304000100FCF7CDFBDFE71723CB800B8141F67F
:10A314001B3348818B818AE75B89CA88934228BFB3
:10A324001346172B0A6938BF17230B814AB1C97A20
:10A3340039B140F677210091ADF8043069462046E2
:10A3440090470023638172E71A7A0B694A73002BE2
:10A354003FF46DAF4DF67A218DF8050000918DF82C
:10A3640004209CE7197A237B994228BF1946B0E759
:10A3740011283FF468AFFDF7E9FB064B0849024694
:10A3840006481B1ADB081B0443F00100FCF788FB9A
:10A3940059E700BFBCB3020086BC02007CB30200D4
:10A3A40055BC0200B0DF704766DF704710B500216E
:10A3B40004464088FFF7F8FF034608B9237210BD2E
:10A3C400112801D10123F9E76368BDE8104018475B
:10A3D40060B159B10378DE2B0AD00B684360DE23E9
:10A3E40003704FF6FF734380002070470E207047C0
:10A3F4000820704728B10378DE2B04D14180002067
:10A4040070470E20704708207047F0B5054685B0A8
:10A414000C46F1B1E8B10B78DE2B1AD182884B8857
:10A424009A4204D10B7A13B10846FFF7BFFF2B8879
:10A43400112B32D0512B0ED0012B0AD12B7A012BA8
:10A4440007D1A9886288914203D123722046FFF77D
:10A45400ADFF05B0F0BDAE886388B342F9D1AF79E2
:10A46400022FF6D1AD7B2B1F022BF2D80021102234
:10A47400684600F0EFFE052D14BF4FF4C0730023AF
:10A48400694630468DF80070ADF80430FFF78AFF56
:10A494000028DED063689847DBE76388AA889A427D
:10A4A40004BF4FF6FF736380D3E710DF70470000EB
:10A4B40013B5044609496846FDF713FB019808B92A
:10A4C40002B010BDD0E900212046904718B168467B
:10A4D400FDF711FBF2E71120F2E700BFD0BC020048
:10A4E40013B5044607496846FDF7FBFA019B0BB90F
:10A4F40002B010BD2046D3E9002190476846FDF71D
:10A50400FAFAF3E7E8BC02000B4991F816335A094A
:10A51400EC231341DB0706D5084B9A683AB94FF48C
:10A5240080030B60704742F20200FCF725BC1A68F6
:10A5340042F480021A60704700E100E0242A0020FF
:10A54400F7B5194F3C7864BB184E01252046357089
:10A55400FFF7AEFF112821D02046FFF7C1FF144BAF
:10A564008DF80340186801900DF10300FCF7F8FE24
:10A57400104901A8FFF799FF0446B0FA80F040099A
:10A5840038709DF80300FCF70FFF3CB90A4B347098
:10A594001C70FFF7B9FF2846FFF7A2FF204603B05F
:10A5A400F0BD0824FAE700BFB92C0020B82C002025
:10A5B400CABC0200996D0200BA2C0020014B187825
:10A5C400704700BFB92C002007B508496846FDF75D
:10A5D40088FA019B13B903B05DF804FBD3E90020AA
:10A5E40090476846FDF787FAF3E700BFDCBC02003A
:10A5F400FFF7EABF4BDF70471FB50D4C01A8FFF70B
:10A60400F9FF70B9214602A8FDF76BFA039B002BF2
:10A61400F4D00198D3E90021904702A8FDF76BFA22
:10A62400F4E7052801D0FCF7A7FB04B010BD00BF78
:10A6340000BD020060DF704769DF704761DF70476B
:10A6440030B5114B1B7891B0E3B1104D34240DF1AA
:10A65400020103A8ADF80240FFF7F0FF70B92946E4
:10A6640001A8FDF73EFA029B002BF0D003A8D3E922
:10A674000021904701A8FDF73EFAF4E7052801D030
:10A68400FCF77AFB11B030BDBB2C002044BF0200A4
:10A6940030B5054685B00C46002900F099804D4B35
:10A6A4000B600C22002101A800F0D4FD01238DF8D9
:10A6B400063022688DF80450062301A92020ADF845
:10A6C4000830FFF7B9FF60B1FDF740FA424B434948
:10A6D400024643481B1ADB081B0443F00100FCF745
:10A6E400DFF90C22002101A800F0B4FD01238DF84C
:10A6F40005302268002301A94020ADF80630FFF799
:10A704009BFF60B1FDF722FA334B364902463448C9
:10A714001B1ADB081B0443F00100FCF7C1F90C22EF
:10A72400002101A800F096FD0A2322688DF8043068
:10A7340001A90120FFF780FF60B1FDF707FA264B5E
:10A744002949024626481B1ADB081B0443F0010072
:10A75400FCF7A6F90C22002101A800F07BFD4FF4C0
:10A76400B0632268019301A9A120FFF765FF60B1DE
:10A77400FDF7ECF9184B1D49024619481B1ADB0872
:10A784001B0443F00100FCF78BF90C22002101A803
:10A7940000F060FD9DF8043022686FF3000301A906
:10A7A400A0208DF80430FFF747FF034668B1FDF79A
:10A7B400CDF9094B0E49024609481B1ADB081B0454
:10A7C40043F00100FCF76CF90023184605B030BDD6
:10A7D4000E23FAE7E0220020CCB302000CBD0200F5
:10A7E4007CB3020052BD02009EBD0200EABD02001D
:10A7F4003BBE020073B505460668FFF71BFF2B68D6
:10A80400B34204461DD91A481A4B1B491B1ADB08CC
:10A814001B0443F002000190FCF73EF92B68174932
:10A8240001983246FCF745F94FF080532A68D3F873
:10A834000C31134901989B0203F100539A1AFCF757
:10A844002FF92CB90F4B01221A70204602B070BDAB
:10A854002046FDF77BF9074B0B49024604481B1AB7
:10A86400DB081B0443F00100FCF71AF9EDE700BF15
:10A874007CB30200CCB302008EBE0200BDBE020057
:10A88400EEBE0200BB2C002018BF020010B54068C9
:10A894000C46002100F037F92046BDE8104000F0D6
:10A8A4004BB910B540680C46012100F02CF9204644
:10A8B400BDE8104000F040B910B50446E06800F06F
:10A8C40028F900B110BD642000F028F9F6E710B5AE
:10A8D40000210446006800F016F9C82000F01EF9B3
:10A8E4002068012100F00FF9BDE81040C82000F0F5
:10A8F40015B90522282370B5C0E9002306260023D4
:10A90400C0E902364FF4C8714FF49673C0E90413DA
:10A91400044600F03BF90546002847D12046FFF7DE
:10A92400D6FF01212046FFF7B1FF03212046FFF7A0
:10A93400B8FF29462046FFF7B4FF2B212046FFF736
:10A94400B0FF2B212046FFF7ACFFFF212046FFF785
:10A95400A8FF31462046FFF799FF17212046FFF74D
:10A96400A0FF17212046FFF79CFF17212046FFF781
:10A9740098FF04212046FFF789FF2046FFF79CFF3C
:10A9840029462046FFF782FFBF212046FFF789FFB3
:10A994000B212046FFF785FF30212046FFF776FF85
:10A9A4003C212046FFF77DFF284670BD4FF0FF3560
:10A9B400FAE7000070B520210446FFF767FF214E37
:10A9C400002516F8011B20460135FFF76AFF2C2DE0
:10A9D400F7D121212046FFF759FF1B4E002516F819
:10A9E400011B20460135FFF75CFF2A2DF7D12221F8
:10A9F4002046FFF74BFF154E002516F8011B204695
:10AA04000135FFF74EFF2A2DF7D123212046FFF70A
:10AA14003DFF0F4E002516F8011B20460135FFF7B8
:10AA240040FF2A2DF7D124212046FFF72FFF094E9E
:10AA3400002516F8011B20460135FFF732FF2A2DA9
:10AA4400F7D170BD5CDA0200B2DA020032DA020039
:10AA540008DA020088DA020070B504460D46612166
:10AA6400FFF714FF01212046FFF71BFF902120462A
:10AA7400FFF717FF01212046FFF713FF2C21204683
:10AA8400FFF70FFF82212046FFF700FF1221204627
:10AA9400FFF707FF50212046FFF7F8FE97212046D5
:10AAA400FFF7F4FE05B310212046FFF7EFFE43F64F
:10AAB4009826FF212046FFF7F4FE013EF9D102203B
:10AAC40000F02CF813212046FFF7E0FE6E1E05F57A
:10AAD4006A55173516F8011F2046FFF7E2FEB54206
:10AAE400F8D1022000F01AF82046FFF763FF204651
:10AAF4001221FFF7CBFE642000F010F82046BDE8D9
:10AB04007040FFF7D9BE012901D1FDF79BBBFDF7CA
:10AB1400A6BB08B5FDF72CFC08BD000038B50446FB
:10AB240038B1044D45F001054FF47A40A847013C83
:10AB3400FAD138BDE0DA020007B501218DF807002B
:10AB44000DF1070000F0DCFA03B05DF804FB07B573
:10AB5400002301A9ADF804308DF80630FDF702FB9F
:10AB640008B1FCF709F903B05DF804FB07B502234B
:10AB7400002201A98DF80620ADF80430FDF77CFB16
:10AB840008B1FCF7F9F803B05DF804FB08B500F070
:10AB94009BFAFDF7AFFA08B1FCF7EEF80520FFF7D2
:10ABA400D6FF2820FFF7D3FF0620FFF7DFFF0020A2
:10ABB40008BD30B50024C46012F00704016008D059
:10ABC400514201F0070102F10805224658BF4A42EA
:10ABD400AA1AC0E9012330BD002930B516DB446848
:10ABE4008C4213DD002A11DB856895420EDD02FBE1
:10ABF40004120568D21001F00701802444FA01F11F
:10AC0400A85649B21BB120EA0100A85430BD08433C
:10AC1400FBE770B50B46044600256268AA420BDCCC
:10AC240070BD324629462046FFF7D6FF0136A2689A
:10AC3400B242F6DC0135F0E70026F8E7F0B4C76865
:10AC44000D46144667B9002937DB47688F4234DD67
:10AC5400002A32DB856895422FDDF0BCFFF7BCBFCC
:10AC6400012F0CD1002928DB82688A4225DD002CC3
:10AC740023DB4168A14220DD2A46091BEDE7022FB0
:10AC84000CD1002919DB4168A94216DD002A14DB26
:10AC94008268A24211DD121B491BDEE7032F0CD18F
:10ACA40000290ADB82688A4207DD002C05DB416843
:10ACB400A14202DD521B2146CFE7F0BC70472DE9CB
:10ACC400F74F0C9DAC88914614F0070218BF01227F
:10ACD40002EBD402EC88203B5C432B68884604FBDF
:10ACE400023400274FF0800BEB88BB421FDC03B01B
:10ACF400BDE8F08F217806F0070A4BFA0AF31942EF
:10AD040008D00D9B019206EB08010090FFF796FF17
:10AD1400DDE90002BAF1070F08BF01340136AB8840
:10AD2400B342E7DC5B0718BF01340137DCE70026D8
:10AD340009EB0702F3E72DE9F341089F06460C46A9
:10AD440090465D1E15F8013F13B902B0BDE8F081CD
:10AD5400099A2146CDE9007230464246FFF7AFFF1B
:10AD6400BB881C44EEE72DE9F04F85B05E1ADDF890
:10AD74003880002EA8EB0205B8BF76428B42CCBFC8
:10AD84004FF001094FF0FF39002DB8BF6D421F4647
:10AD9400C5F1000B9045CCBF4FF0010A4FF0FF3ACC
:10ADA400741BB94201D0424502D105B0BDE8F08F11
:10ADB4000F9B0190CDE90212FFF740FFDDE901018D
:10ADC400BBEB440FD8BF641B039AD8BF4944B6EB0E
:10ADD400440FA4BFA4195244E3E7F8B50646174646
:10ADE4000C46CD18A54200DCF8BD2146069B3A4628
:10ADF4003046FFF723FF0134F4E7F8B506460F4663
:10AE04001446D518A54200DCF8BD2246069B3946F7
:10AE14003046FFF713FF0134F4E72DE9FF410F46F5
:10AE2400DDE90A48BB421946A8BF3946BB42B8BF50
:10AE34003B46944227461D46A8BF17465B1A9442D8
:10AE4400B8BF1446064601333A46CDF80080039352
:10AE54000291FFF7C2FF039B0299CDF800802246BE
:10AE64003046E41B0391FFF7B8FF631C0399CDF848
:10AE740000803A4630460293FFF7BFFF029BCDF8AD
:10AE840028803A462946304604B0BDE8F041FFF731
:10AE9400B4BF2DE9F341089C8B421E46A8BF0E4661
:10AEA4008B42B8BF0B469442A046A8BF904694423A
:10AEB400ACBFC8EB0404C8EB020405461F460134CA
:10AEC400BE4202DD02B0BDE8F081099B0093314629
:10AED400234642462846FFF790FF0136F0E72DE966
:10AEE400F3471C4665420A9BC4F1010407468846A1
:10AEF400914664000026A8EB050A06EB09025146B8
:10AF040038460092FFF79AFE05EB0801009A01917A
:10AF14003846FFF793FEA9EB0602019900923846E2
:10AF2400FFF78CFE009A51463846FFF787FEA6428B
:10AF340014DB013604EB4602EE4202F1010202D1B7
:10AF4400A54202DB0024A5420ADA013502EB4504DE
:10AF54000134002DCFDD02B0BDE8F0872246F2E7D0
:10AF64001446F6E72DE9F04F87B0CDE902125D42B1
:10AF7400109FC3F101035C000026029B0490A3EB25
:10AF8400050B039B06EB030A52463B465946FFF763
:10AF940055FE029B049805EB030852463B46414686
:10AFA400FFF74CFE039B0498A3EB06094A463B4675
:10AFB4004146FFF743FE04984A465946FFF73EFED2
:10AFC4006FF001036B4301330498009752464146E6
:10AFD4000593FFF702FF0498059B00974A464146F4
:10AFE400FFF7FBFEA642049814DB013604EB46038C
:10AFF400EE4203F1010302D1A54202DB0024A54283
:10B004000ADA013503EB45040134002DB5DD07B040
:10B01400BDE8F08F2346F2E71C46F6E7A8DF704749
:10B0240062DF7047F0B50B68C3608FB0224B02AA91
:10B03400044603F11007164618685968154603C5F7
:10B044000833BB422A46F7D104F10A013046FFF720
:10B05400E7FF70BBA37A8DF8063022464FF4A05365
:10B0640001A90120ADF80430FFF7D8FF08BB014661
:10B07400202206A800F0EEF841F20143ADF81830A2
:10B08400A37A8DF81A304FF0061307939DF82530F4
:10B09400224623F0120343F012038DF8253032F8D0
:10B0A400020B012306A98DF829308DF82B30FEF709
:10B0B400A8FF0FB0F0BD00BF7E150300014B0122B5
:10B0C4001A707047BC2C00201FB5094B0FCB6C467F
:10B0D40084E80F00074B0093074A084800232146E1
:10B0E400FDF7E4FE08B1FBF747FE04B010BD00BF56
:10B0F400901503001C1D1E1FC1B00200A015030003
:10B1040010B586B0CDE902010DF1070300220B480A
:10B11400049302A90592FEF73BF8044608B1FBF735
:10B124002BFE074B074A117829B9013BFBD10D24AB
:10B13400204606B010BD00231370F9E7A4150300E0
:10B1440040420F00BC2C00207F2805D8034B185C1C
:10B15400034B5B5C1840704700207047BC1503002C
:10B164003C160300A0F16103192B98BF20387047E7
:10B17400A0F14103192B98BF203070477F2805D8D0
:10B18400034B185C034B5B5C18407047002070470E
:10B19400BC1503003C160300A0F16103192B98BFF2
:10B1A40020387047A0F14103192B98BF2030704715
:10B1B4007F299ABF017001206FF02E0070475AB1A9
:10B1C4000A787F2A0AD800B1026000211960596008
:10B1D400501A18BF01207047002070476FF02E00EE
:10B1E4007047000008B5034B5B689B681B68984771
:10B1F40008BD00BF1C23002008B50921FFF7F2FF9A
:10B2040008BD844640EA010313F0030F18D18446B5
:10B21400202A0BD32DE9F007B1E8F807A0E8F807D6
:10B22400A2F12002202AF7D2BDE8F007042A07D3AE
:10B2340051F8043B40F8043BA2F10402042AF7D27B
:10B24400002A05D011F8013B00F8013B013AF9D17D
:10B25400604670478446002A2DD010F0030F04D0B6
:10B2640000F8011B013A26D0F7E7C9B241EA0121EF
:10B2740041EA0141202A12D3A2F120022DE9F00370
:10B284000B460C460D460E460F4688468946A0E8F6
:10B29400FA03203AFBD2BDE8F00320320BD0042A93
:10B2A40005D340F8041B043A05D0042AF9D200F867
:10B2B400011B013AFBD16046704700F1010110F017
:10B2C400030F11D010F8012B002A23D010F0030F24
:10B2D4000AD010F8012B002A1CD010F0030F03D061
:10B2E40010F8012B002A15D02DE970004FF001321F
:10B2F4004FF0803350F8044BA4EB020525EA040513
:10B304001D4000D1F6E7A0F1040070BC10F8012B39
:0AB31400002AFBD1A0EB01007047F6
:08B320007D7D02000000000029
:10B32800FD9E02000000000011A20200C82B0020B0
:10B33800799D0200000000000FA40200DC2B002011
:08B34800ED920200000000007C
:10B35000FDA502000000000045A60200000000005C
:08B36000657E02000000000000
:10B36800742300203C240020442400207C23002057
:04B3780018000000B9
:10B37C006ABA02000000000070BA0200000000006F
:10B38C0077BA02000000000098BA0200000000002A
:10B39C007BBA02000000000080BA0200000000002E
:10B3AC0042B402000000030364BA02000000000073
:10B3BC00B5BC020000000303C2BC02000000030382
:10B3CC0035BF020000000303F4BC020000000303BD
:08B3DC0056B50200000000005C
:10B3E40014B402000000000020B40200F422002083
:10B3F400FFFFFFFFFFFFFFFFFFFFFFFFFFFFFFFF59
:10B4040000000000000000000000D601060100005A
:10B414000565020069650200A56402007561727425
:10B424005F6C6F675F6261636B656E64004261634A
:10B434006B656E647320666C757368656400617017
:10B4440070000000682800207F000000E828002029
:10B454001B5B306D002573001B5B313B33316D008A
:10B4640025734C6F67732064726F70706564202855
:10B4740025642925730D0A003C25733E2025733A63
:10B484002000202530327800202020007C00256315
:10B49400001B5B313B33306D001B5B313B33326D42
:10B4A400001B5B313B33336D001B5B313B33346D2D
:10B4B400001B5B313B33356D001B5B313B33366D19
:10B4C400001B5B313B33376D007761726E696E67C9
:10B4D40000696E666F0064656275670054B40200AB
:10B4E40095B402005CB402009DB40200A5B402004D
:10B4F400ADB40200B5B40200BDB40200C5B402008C
:10B50400000000001EB50200CDB40200D5B4020054
:10B51400DAB40200466174616C206572726F720065
:10B5240053797374656D207265736574000000004F
:10B534000000000000000000000000000338FDD8F7
:10B544007047303132333435363738394142434429
:10B5540045467077725F6D676D74000028B3020012
:10B5640028B30200040000004E52465F5355434383
:10B57400455353004E52465F4552524F525F535605
:10B58400435F48414E444C45525F4D495353494EE5
:10B5940047004E52465F4552524F525F534F4654F6
:10B5A4004445564943455F4E4F545F454E41424CD6
:10B5B4004544004E52465F4552524F525F494E54E5
:10B5C40045524E414C004E52465F4552524F525FD7
:10B5D4004E4F5F4D454D004E52465F4552524F52BD
:10B5E4005F4E4F545F464F554E44004E52465F45A2
:10B5F40052524F525F4E4F545F535550504F525416
:10B604004544004E52465F4552524F525F494E5692
:10B61400414C49445F504152414D004E52465F45B2
:10B6240052524F525F494E56414C49445F53544124
:10B634005445004E52465F4552524F525F494E5652
:10B64400414C49445F4C454E475448004E52465F76
:10B654004552524F525F494E56414C49445F464C05
:10B66400414753004E52465F4552524F525F494E36
:10B6740056414C49445F44415441004E52465F4553
:10B6840052524F525F444154415F53495A45004E10
:10B6940052465F4552524F525F54494D454F55549F
:10B6A400004E52465F4552524F525F4E554C4C002D
:10B6B4004E52465F4552524F525F464F52424944A2
:10B6C40044454E004E52465F4552524F525F494EDA
:10B6D40056414C49445F41444452004E52465F45F2
:10B6E40052524F525F42555359004E52465F455293
:10B6F400524F525F434F4E4E5F434F554E54004E90
:10B7040052465F4552524F525F5245534F55524332
:10B714004553004E52465F4552524F525F4D4F447F
:10B72400554C455F4E4F545F494E495449414C492D
:10B734005A4544004E52465F4552524F525F4D5552
:10B744005445585F494E49545F4641494C4544006D
:10B754004E52465F4552524F525F4D555445585FC5
:10B764004C4F434B5F4641494C4544004E52465F63
:10B774004552524F525F4D555445585F554E4C4FAC
:10B78400434B5F4641494C4544004E52465F455247
:10B79400524F525F4D555445585F434F4E445F4995
:10B7A4004E49545F4641494C4544004E52465F451C
:10B7B40052524F525F4D4F44554C455F414C524598
:10B7C4004144595F494E495449414C495A45440002
:10B7D4004E52465F4552524F525F53544F52414767
:10B7E400455F46554C4C004E52465F4552524F52AF
:10B7F4005F4150495F4E4F545F494D504C454D4554
:10B804004E544544004E52465F4552524F525F4695
:10B814004541545552455F4E4F545F454E41424C4D
:10B824004544004E52465F4552524F525F494F5F66
:10B8340050454E44494E47004E52465F4552524F82
:10B84400525F4452565F5457495F4552525F4F56B8
:10B85400455252554E004E52465F4552524F525F2A
:10B864004452565F5457495F4552525F414E4143DB
:10B874004B004E52465F4552524F525F4452565F00
:10B884005457495F4552525F444E41434B004E5218
:10B89400465F4552524F525F424C455F49505350A8
:10B8A4005F52585F504B545F5452554E4341544578
:10B8B40044004E52465F4552524F525F424C455FE0
:10B8C400495053505F4348414E4E454C5F414C52A2
:10B8D400454144595F455849535453004E52465FBD
:10B8E4004552524F525F424C455F495053505F4C52
:10B8F400494E4B5F444953434F4E4E454354454490
:10B90400004E52465F4552524F525F424C455F498A
:10B914005053505F504545525F52454A4543544544
:10B924004400556E6B6E6F776E206572726F722075
:10B93400636F646500000000000000006CB5020045
:10B944000100000078B502000200000096B5020074
:10B9540003000000B7B5020004000000CAB50200ED
:10B9640005000000DBB5020006000000EFB5020090
:10B974000700000007B60200080000001FB602001E
:10B984000900000037B602000A00000050B60200A9
:10B994000B00000068B602000C0000007FB6020035
:10B9A4000D00000093B602000E000000A5B60200D0
:10B9B4000F000000B4B6020010000000C8B6020078
:10B9C40011000000DFB6020012000000EEB6020013
:10B9D4001300000003B702008000000017B7020044
:10B9E4008100000038B702008200000054B7020052
:10B9F4008300000070B70200840000008EB70200CC
:10BA040085000000AFB7020086000000D4B7020032
:10BA140090000000EBB702009100000009B802009A
:10BA24009200000027B80200008200003CB8020027
:10BA3400018200005AB802000282000076B80200B7
:10BA44000084000092B8020001840000B6B802002D
:10BA540002840000E0B802000384000005B902007B
:10BA6400636C6F636B00434C4F434B004750494F2B
:10BA740054450050525300554152540055415254BC
:10BA840045000000FFFFFFFF0006FF00000000402C
:10BA9400000000005350494D00436F6E6E6563749F
:10BAA400656400446973636F6E6E656374656400F6
:10BAB40044434E44002323232323232323232323E8
:10BAC4002323232323232323232323232323232342
