:020000040002F8
:1060000000000120756302005D6302005F6302000F
:106010006163020063630200656302000000000028
:1060200000000000000000000000000067630200A4
:1060300069630200000000006B6302006D630200F0
:106040000DB402006F6302009DC202006F63020084
:1060500035E502006F630200BDBF02003DE90200AA
:106060006F6302006F6302006F6302006F630200E0
:106070006F6302006F6302006F6302006F630200D0
:106080006F630200558D02006F6302006F630200B0
:106090006F6302006F6302000D4303006F63020031
:1060A0006F6302006F6302006F6302006F630200A0
:1060B0006F6302006F630200000000000000000038
:1060C0006F6302006F6302006F6302006F63020080
:1060D0006F6302006F6302006F6302000000000044
:1060E00000000000000000000000000000000000B0
:1060F00000000000000000000000000000000000A0
:10610000000000000000000000000000000000008F
:10611000000000000000000000000000000000007F
:10612000000000000000000000000000000000006F
:10613000000000000000000000000000000000005F
:10614000000000000000000000000000000000004F
:10615000000000000000000000000000000000003F
:10616000000000000000000000000000000000002F
:10617000000000000000000000000000000000001F
:10618000000000000000000000000000000000000F
:1061900000000000000000000000000000000000FF
:1061A00000000000000000000000000000000000EF
:1061B00000000000000000000000000000000000DF
:1061C00000000000000000000000000000000000CF
:1061D00000000000000000000000000000000000BF
:1061E00000000000000000000000000000000000AF
:1061F000000000000000000000000000000000009F
:10620000354936480A1A02D0072291438D4634494F
:1062100034480A1A06D00722914381F309880222E2
:1062200082F3148830483149314A00F044F831484B
:106230003149324A00F03FF831483249324A00F0E1
:106240003AF832483249334A00F035F83248334997
:10625000334A00F030F833483349344A00F02BF821
:1062600033483449344A00F026F83448344900228F
:1062700000F02CF833483449002200F027F8334866
:106280003349091A082902DB002202604160314AC1
:1062900090471F481F49884205D00268043003B464
:1062A000904703BCF7E700208646EC46002000211B
:1062B000294A9047FEE7884207D0521A05D0037852
:1062C00001300B700131013AF9D17047884202D098
:1062D00002700130FAE770470000012000E0002062
:1062E00000000120000001206CE20300D82A0020F9
:1062F000842B0020D0630200D06302009868030062
:106300006CE20300D82A0020D82A0020D8690300B4
:10631000D8690300D8690300D8690300D86903006D
:10632000D8690300D8690300D86903006BE2030051
:1063300018E30300842B0020842B0020842B0020F2
:10634000FC790020FC790020FC790020FC790020F9
:10635000FC9900209D63020075060300FEE7FEE73E
:10636000FEE7FEE7FEE7FEE7FEE7FEE7FEE7FEE705
:1063700000F002B8FFF7FCBF0F484FF00701884359
:1063800085460E4880470E48016841F4700101605F
:10639000BFF34F8FBFF36F8FFFF732BF09480A4932
:1063A0000A4A884207D0521A05D0037801300B7090
:1063B0000131013AF9D1704700000120A1A4020087
:1063C00088ED00E0D8690300D82A0020D82A0020F0
:1063D00000B585B00190019B002B0AD0074B43F01C
:1063E00001030393019B9B010293039B029898472F
:1063F00000E000BF05B05DF804FB00BFF0690300DA
:1064000000B583B00190019B002B0AD04FF47A7045
:10641000FFF7DEFF019B013B0193019B002BF5D1B0
:1064200000E000BF03B05DF804FB08B50AF09CFB78
:1064300000BF08BD00B589B0039002910192019B95
:10644000002B33D00023079303230693029A079B64
:106450001344019A194600200AF036FB0590079A6A
:10646000059B13440793019A059BD31A0193059B3F
:10647000002B13D10F4B1B7883F00103DBB2002BF1
:1064800013D10120FFF7BCFF069B013B0693069B3F
:10649000002B03D1074B00221A7007E0054B0122A5
:1064A0001A70019B002BD1D100E000BF00BF09B0E2
:1064B0005DF804FB842B002000B585B003900291A9
:1064C000054B00934023054A0299039800F012F807
:1064D00000BF05B05DF804FB35640200882B002086
:1064E00082B0019000BF02B0704782B0019000BF3F
:1064F00002B0704700B5A1B00590049103920293D9
:10650000049803F09FFB039B1593029B16930023B3
:10651000179300238DF8603000231993229B1A9360
:1065200000231F930FA91F9B0822049803F064FC0B
:1065300008231F93119B1293BDF84030ADF84C30E7
:10654000BDF84230ADF84E3000238DF851309DF843
:106550003C3003F00303DBB2012B26D10F9BC3F3C6
:1065600095231C939DF83C30C3F3C203DBB28DF836
:106570005030BDF83C30C3F38313DBB21B931B9B3D
:106580009A0009A91F9B049803F036FC1B9B9B00F3
:106590001F9A13441F9312AA09A915AB009313461F
:1065A0001B9A1C9800F0D6FE2FE09DF83C3003F0BB
:1065B0000303DBB2022B28D1BDF83E30C3F38913AD
:1065C0009BB21E939DF83C30C3F3C203DBB28DF83F
:1065D00050301E9B082B28BF08231D9307A91F9B23
:1065E0001D9A049803F008FC1F9A1D9B13441F93E7
:1065F0001E9A1D9BD31A1E9315AB12AA07A81D99AC
:1066000000F04AFF1E9B002BE3D1049803F029FB06
:1066100000BF21B05DF804FB82B00190019BDB68F4
:1066200001225A7100BF02B07047000000B583B06C
:106630004FF0FF330193FFF7F8FE0421084800F004
:10664000A3FD0190019B002B03DA0649412009F0CC
:10665000B1F90348FFF7E0FF00BF03B05DF804FBAA
:10666000C8690300086A030000B583B00190009177
:10667000019B1B681B6800990198984700BF03B0F5
:106680005DF804FB00B583B00190019B1B685B685B
:106690000198984700BF03B05DF804FB00B583B0D4
:1066A0000190019B1B689B680198984700BF03B04D
:1066B0005DF804FB82B001900B468DF80330019B1E
:1066C000DB689DF803201A7100BF02B0704782B0EA
:1066D0000190019BDB681B79184602B0704782B0BD
:1066E0000190019BDB6801225A7100BF02B0704724
:1066F00082B00190019BDB685B79184602B070475D
:1067000000B585B001900091154BFF229A60144BA3
:1067100000221A60124B00225A60114B0022C3F86B
:1067200018240F4B0022C3F814240D4B002283F8C9
:1067300020240C4803F0EAF90390039B002B01D0BE
:10674000039B08E0084803F015FD084A084BD31ADC
:10675000DB0802930023184605B05DF804FB00BF78
:10676000302D00201C690300706A0300C869030013
:1067700030690300024A034BD31ADB0818467047FE
:10678000C86903003069030000B587B001900B466B
:106790008DF803309DF80330002B1FD0FFF7EAFF80
:1067A00004900023059313E0059B9B000E4A1344BD
:1067B0000393039B1B881A46019B1B689A4204D1D2
:1067C000019B059A1A60002309E0059B013305939C
:1067D000059A049B9A42E7D3052300E0002318465C
:1067E00007B05DF804FB00BFD82A002000B585B0D3
:1067F00001900B468DF803309DF8032001AB114644
:106800001846FFF7C1FF0346002B07D1019BDB00B1
:10681000054A13440393039B1B6800E000231846BA
:1068200005B05DF804FB00BF3069030084B001903F
:106830000B468DF80330019BDB00174A134402938B
:106840009DF80330013B032B1CD801A252F823F022
:106850006168020069680200716802007B680200DA
:1068600002238DF80F3011E004238DF80F300DE076
:10687000029B1B798DF80F3008E0029B5B798DF845
:106880000F3003E000238DF80F3000BF9DF80F306C
:10689000184604B0704700BF3069030084B001900F
:1068A000009100238DF80F30019B1B7803F0040347
:1068B000DBB2002B24D0019B1B78C3F30103DBB2B6
:1068C000012B02D0022B0CD017E0009B1B68019A11
:1068D0001288C2F38312D2B213449A1C009B1A602E
:1068E0000BE0009B1B68019A5288C2F3891292B296
:1068F00013449A1C009B1A6000BF01238DF80F30CF
:106900009DF80F30184604B07047000000B58BB0FA
:106910000023ADF826303E4802F004FC3D4802F06A
:1069200001FC3D4B5B6804933B4B9B680693049AC8
:10693000069B134002339B00374A134404330893E9
:1069400004AB19460898FFF7A9FF0346002B09D0AE
:10695000049A069B134002339B002F4A13440433CE
:106960000893EDE700BF0023079311E0049B5A1C36
:106970000492069A1340079A920001A90A442649F4
:1069800002339B000B445B681360079B0133079342
:10699000079B012BEAD99DF80430C3F30103DBB256
:1069A000012B10D0022B1CD1BDF80A30ADF82630D7
:1069B000BDF80630C3F389139BB203339A08049BD6
:1069C0001344049313E0BDF80A30ADF82630BDF847
:1069D0000430C3F38313DBB21A46049B13440493BD
:1069E00005E00E494FF4BF7008F0E4FF00BF09480E
:1069F00002F0A4FB0590059B002B02D0049B064AE5
:106A00005360BDF8263018460BB05DF804FB00BF9C
:106A10004831002044310020302D0020806A0300DE
:106A200000B585B00021074802F0EDFA0390039B02
:106A30000293029B83F310030193019B184605B058
:106A40005DF804FB4C31002000B589B00390029141
:106A500001920093039B1B0C0793FFF7E1FF069045
:106A6000FFF788FE0246079B934204D3214940F278
:106A7000A31008F09FFF069B1904009B5A1C0A9B59
:106A80001340079A0A431C4902339B000B445A6087
:106A9000009A0A9B134002339B00174A13440433A5
:106AA0000593039B03F00703D9B2059A137861F3AA
:106AB000C5031370019B03F00F03D9B2059A138825
:106AC00061F389131380029BC3F31501059A1368C0
:106AD00061F39F231360059A1378012161F3010389
:106AE0001370059A13786FF38203137000BF09B017
:106AF0005DF804FB806A0300302D002000B58DB0E6
:106B00000390029113468DF80730039B02330A93DA
:106B100001238DF8273000238DF81B300DF11B0366
:106B2000184601F003FD404B1A68029B1A603E4B69
:106B30009A683D4B59683C4B1B68CB1A1344013390
:106B40000B9314E00121394802F0BCFAFFF7DEFE96
:106B500007900799354802F0B5FA334B9A68324BE3
:106B60005968314B1B68CB1A134401330B930A9AB3
:106B70000B9B9A42E6D89DF82730002B48D0002383
:106B800005939DF80730002B17D09DF81430012293
:106B900062F301038DF814309DF8143043F00403C0
:106BA0008DF81430039B03F00F03DAB2BDF81430F4
:106BB00062F38913ADF8143016E09DF81430022208
:106BC00062F301038DF814309DF8143043F0040390
:106BD0008DF81430039BC3F309039AB2BDF8163045
:106BE00062F38F13ADF816300F4B1A680E4B9B688B
:106BF000134002339B000C4A134404330893059A54
:106C0000089B1A60084B1A680A9B1344064A1360D3
:106C10009DF81B30184601F09FFC9DF82730184660
:106C20000DB05DF804FB00BF302D00204C3100207A
:106C300000B58BB005900491039202931F4B9B68A3
:106C4000079306AB012219460298FFF757FF034648
:106C5000002B24D0069B023309930023089311E0F4
:106C6000089B9B00039A1A44099B591C0991079998
:106C70000B401268114902339B000B445A60089B79
:106C800001330893089A029B9A42E9D3069A079B1C
:106C900000931346029A04990598FFF7D5FE074B17
:106CA00093F82034002B05D000BF00F065F80346B0
:106CB000002BFAD100BF0BB05DF804FB302D002093
:106CC00000B583B001900091002300220099019843
:106CD000FFF7AEFF00BF03B05DF804FB00B587B05F
:106CE000039002910192019B059305AA0123029949
:106CF0000398FFF79DFF00BF07B05DF804FB00B5E8
:106D000087B00390029101920093019B0493009B32
:106D1000059304AA022302990398FFF789FF00BF95
:106D200007B05DF804FB00B58BB0039002910192AF
:106D30000093019B0593009B06930C9B07930D9B6F
:106D400008930E9B099305AA052302990398FFF760
:106D50006FFF00BF0BB05DF804FB0000054B5A68E5
:106D6000044B1B689A420CBF01230023DBB2184678
:106D7000704700BF302D002000B599B0FFF7EEFF3F
:106D80000346002B01D00023BEE19B4B0022C3F839
:106D90001824BFF34F8F00BF974B5B680493964B4B
:106DA0009B681093049A109B134002339B00924AF5
:106DB00013440433119300231793002316930023E5
:106DC0000F9304AB19461198FFF768FD0346002B9B
:106DD00019D0894BD3F81834002B14D1864B1A687C
:106DE000049B9A4205D8844B1B68834A5360002356
:106DF0008AE1049A109B134002339B007E4A13449D
:106E000004331193DDE70023159311E0049B5A1C12
:106E10000492109A1340159A920001A90A447649E7
:106E200002339B000B445B681360159B0133159381
:106E3000159B012BEAD99DF8043003F00303DBB264
:106E4000022B40F09C80BDF80630C3F389139BB23F
:106E50000D93BDF80630C3F389139BB2502B28BFA6
:106E600050239BB20C930C9BC3F309039AB2BDF859
:106E7000063062F38F13ADF806300C9B08330B938A
:106E80009DF80430C3F3C203DBB20F930B995B4848
:106E900002F047FE1790179B002B00F0D180179847
:106EA00002F0D0FE01A9169B0822179802F086FF77
:106EB000169B08331693049BDA43109B134001334F
:106EC0009B000A930C9A0A9B9A4242D90A9B002B78
:106ED00008D0049A109B134002339B00464A134487
:106EE000043300E0464B08930A9B002B02D00A9B18
:106EF000DBB201E00C9BDBB28DF81F300A9B002B4C
:106F000001D03F4B00E0002306930A9B002B06D0E4
:106F10000C9BDAB20A9BDBB2D31ADBB200E000238F
:106F20008DF817309DF81F20169B0899179802F0CE
:106F300045FF9DF81F30169A13441693069B002BAD
:106F400016D09DF81720169B0699179802F036FF69
:106F50000EE0049A109B134002339B00264A134410
:106F600004330993169B0C9A0999179802F026FF8F
:106F70000D9B03339A08049B1344049360E09DF82F
:106F8000043003F00303DBB2012B59D1BDF8043008
:106F9000C3F38313DBB2062B28BF0623DAB2BDF896
:106FA000043062F38913ADF80430BDF80430C3F344
:106FB0008313DBB202330E939DF80430C3F3C20394
:106FC000DBB20F930E9B9B0019460C4802F0A9FD03
:106FD0001790179B002B33D0179802F033FE01A9AE
:106FE000169B0822179802F0E9FE169B08331693A9
:106FF000002315931BE000BF302D00201C69030007
:107000003C2D0020049B5A1C0492109A134002331A
:107010009B003F4A1344191D169B0422179802F047
:10702000CDFE169B04331693159B01331593BDF8C3
:107030000430C3F38313DBB21A46159B9342E1D3AA
:10704000179B002B40D0324BD3F810341493304BA5
:10705000D3F81834002B1BD0179802F002FE4DE035
:1070600000238DF84F301498FFF742FB0346002BA6
:1070700002D001238DF84F309DF84F30002B03D004
:1070800017991498FFF7F0FA149BDB681B681493A8
:10709000149B002BE4D1179802F0E3FD00238DF838
:1070A00003300DF10303184601F040FA184BD3F8F2
:1070B0001834002B02D1049B154A53609DF803300D
:1070C000184601F049FA19E0114BD3F81034129325
:1070D00006E01298FFF7E2FA129BDB681B68129336
:1070E000129B002BF5D10B4A0B4BD31ADB081B0468
:1070F00043F0020309491846FFF7E2FDFFF72EFEB1
:10710000034683F00103DBB2184619B05DF804FBB7
:10711000302D00206869030030690300E06A030035
:1071200000B585B00023039323E0164BD3F8103449
:10713000029301238DF807300FE00298FFF7C7FA9A
:1071400003461A46039B934203D100238DF8073070
:1071500006E0029BDB681B680293029B002BECD1CC
:107160009DF80730002B01D0039B07E0039B013300
:107170000393039B092BD8DD4FF0FF33184605B06E
:107180005DF804FB302D002000B585B001900B4662
:107190008DF80330FFF7C4FF0390039BB3F1FF3F6B
:1071A00001D1039B22E0039BDBB219460198FFF754
:1071B00081FA104BD3F81034002B08D10D4A019BF3
:1071C000C2F81034019BDB6800221A600DE0094B05
:1071D000D3F81034DA68019BDB6812681A60054B3B
:1071E000D3F81034DB68019A1A60039B184605B087
:1071F0005DF804FB302D002000B583B00D4BD3F8B3
:10720000103401930B4B012283F8202409E00198EC
:10721000FFF765FA0198FFF735FA019BDB681B68F9
:107220000193019B002BF2D100BF00BF03B05DF8BA
:1072300004FB00BF302D002082B00190009100BF00
:1072400002B0704710B584B003900291039BDB88B5
:10725000002B0AD0039BDB881A461F4B0093134672
:107260001E4A1F49029802F0A5F8039B1B7A052BC2
:107270002ED0039B5B7A002B12D0039B9B881A466F
:10728000039B1B7A19461046FFF7D0FA03461A46AD
:10729000144B53F822301A461349029802F08AF828
:1072A000039B1B6819460298FFF7C6FF039B1B7AD6
:1072B0001A460E4B53F82240039B9B880021184628
:1072C000FFF794FA034622460949029802F072F841
:1072D00000BF04B010BD00BF146B0300246B03009B
:1072E0005C6B0300F42A0020746B0300E02A00208A
:1072F000786B030000B585B00390029113468DF8BA
:107300000730039B1B7A052B0FD0039B5B7A002B66
:1073100006D00D4B1B681A460C49029802F04AF839
:107320000B49029802F046F807E09DF80730002B61
:1073300003D00749029802F03DF8029802F018F8CD
:1073400000BF05B05DF804FBF42A0020746B030055
:10735000846B030030B58BB00790069105920493BF
:107360000E9B1B7B8DF827300E9B00221A730E9903
:107370000498FFF767FF059B062B7FD801A252F800
:1073800023F000BFA1730200AB730200BB730200C5
:10739000CF730200ED730200157402004574020001
:1073A00007990E9802F006F869E0069B1B681A46DA
:1073B00007990E9801F0FEFF61E0069B1A68069B94
:1073C00004331B6807990E9801F0F4FF57E0069B01
:1073D0001A68069B04331968069B08331B680093E0
:1073E0000B4607990E9801F0E5FF48E0069B1968E7
:1073F000069B04331868069B08331B68069A0C32F8
:1074000012680192009303460A4607990E9801F00C
:10741000D1FF34E0069B1868069B04331C68069B6A
:1074200008331B68069A0C321268069910310968F5
:107430000291019200932346024607990E9801F0AB
:10744000B9FF1CE0069B1C68069B04331D68069B65
:1074500008331B68069A0C321268069910310968C5
:1074600006981430006803900291019200932B4615
:10747000224607990E9801F09DFF00E000BF002210
:107480000E990498FFF736FF0E9B9DF827201A737C
:1074900000BF0BB030BD00BF00B587B003900291B4
:1074A00001920093029B082B60D8009B1B7B8DF8F8
:1074B0001330009B00221A7300990198FFF7C2FE57
:1074C0000023059314E0059A029B9A4209D2039A7D
:1074D000059B13441B781A462649009801F06AFF61
:1074E00003E02549009801F065FF059B01330593F2
:1074F000059B072BE7D92149009801F05BFF00238A
:10750000059326E0059A029B9A421BD2039A059B9B
:1075100013441B788DF812309DF812307E2B0AD858
:107520009DF8123018460EF09DFD0346002B02D048
:107530009DF8123000E02E231A461149009801F000
:1075400039FF03E00F49009801F034FF059B013338
:107550000593059B072BD5D9012200990198FFF7C8
:10756000C9FE009B9DF813201A7300E000BF07B00E
:107570005DF804FB886B0300906B0300946B0300C1
:10758000986B03009C6B030086B0039002910192FC
:1075900001238DF817309DF81730214A039B1360A3
:1075A0001F4A029B53601E4A019B9360039B44F257
:1075B0000102934213D0039B44F20202934221D171
:1075C000019B174AD360164BDB681B881A46144B85
:1075D0009A61134BDB685B68114AD36112E0019B2F
:1075E0000F4A13610E4B1B699B680D4A53610C4B8C
:1075F0001B691B680A4A9361094B1B695B68084A4F
:10760000D36100BF72B600BF00BF9DF81730DBB278
:10761000002BFAD162B600BF00BF06B0704700BFB2
:107620005431002000B583B002900091019244F2E1
:10763000010071466A4600F003F803B000BD00BFC8
:1076400030B58BB007900691059272B600BFFFF778
:10765000D3FD00BFFFF790FB0346002BFAD1079B39
:1076600044F2020293422FD0079B44F2020293425B
:1076700069D8079B44F20102934237D0079B44F23A
:10768000010293425FD8079B012B05D0079B41F273
:10769000010293420CD056E0394A3A4BD31ADB0828
:1076A0001B0443F0010338491846FFF709FB57E074
:1076B000334A344BD31ADB081B0443F0010333492C
:1076C0001846FFF7FDFA4BE0059B09932C4A2D4B1A
:1076D000D31ADB081B0443F00100099B5B681A46C0
:1076E000099B1B882A49FFF70AFB39E0059B089391
:1076F000234A244BD31ADB081B0443F00104089BE4
:107700009D68089B9B68184602F054FE0346184685
:10771000089B5B681946089B1B68069A02920193B6
:10772000009103462A461B492046FFF7FCFA144AFB
:10773000144BD31ADB081B0443F001031649184607
:10774000FFF7BEFA0CE00E4A0E4BD31ADB081B04FF
:1077500043F00103069A11491846FFF7BFFA00BF2C
:107760000F4B1B6803F00103002B00D000BE059AED
:1077700006990798FFF708FF00BF0BB030BD00BFA8
:107780006869030030690300046C0300246C030083
:10779000486C0300646C03008C6C0300A06C030055
:1077A000F0ED00E084B00190019B9B680393019B86
:1077B000DA68039BD31A184604B0704782B0019070
:1077C0000B468DF80330019B1A68019BDB68019919
:1077D00089880B4013449DF803201A70019BDB68D5
:1077E0005A1C019BDA6000BF02B0704784B003905E
:1077F0000B460192ADF80A30039B1A68039B996807
:10780000BDF80A300B44039989880B4013441A7859
:10781000019B1A7000BF04B0704700B583B001909F
:107820000091009A00210198FFF7E0FF019B9B68FF
:107830005A1C019B9A6000BF03B05DF804FB84B042
:10784000039002911346ADF80630029B002B01D144
:107850000E231DE0BDF80630002B07D0BDF8063022
:107860005A1EBDF806301340002B01D009230FE04B
:10787000039B029A1A60BDF80630013B9AB2039B43
:107880009A80039B00229A60039B0022DA60002307
:10789000184604B0704700B583B001900B468DF8D0
:1078A00003300198FFF77EFF0246019B9B889A42B6
:1078B00007D89DF8033019460198FFF77FFF002392
:1078C00000E00423184603B05DF804FB00B583B064
:1078D000019000910198FFF765FF0346002B05D04A
:1078E00000990198FFF799FF002300E0052318464F
:1078F00003B05DF804FB0000F0B583B0124801F05E
:107900000FFA034618464FF00001104BD3E900234D
:10791000861841EB0307CDE900670D4BD3E900233F
:10792000DDE90001994208BF904207D2DDE900235A
:1079300012F1807443F10005CDE90045DDE9002333
:107940001046194603B0F0BD182B002080310020EE
:107950008831002088B001900091019B0793009B23
:107960000693079BD3E90223CDE90423069BD3E9C1
:107970000223CDE90223DDE90423DDE90201994276
:1079800008BF90422CBF01230023DBB2184608B089
:107990007047000030B585B00190019B5B69002BFA
:1079A00003D12B49A22008F005F800238DF80F30F1
:1079B000284B1B78002B45D0019B002B42D0019B0C
:1079C0001B7FDBB2002B3DD0FFF796FF019BD3E975
:1079D0000223994208BF90422CD3019B1B69002BC4
:1079E00002D1019B00221A77019B5B69019A92697F
:1079F00010469847019B1B69002B23D0019B1B7FDE
:107A0000DBB2002B1ED0019BD3E90201019B1B6955
:107A10001A464FF00003841841EB0305019BC3E9AC
:107A20000245019B19460C4802F01EFC01238DF80B
:107A30000F3007E0019B1946074802F015FC0123AF
:107A40008DF80F309DF80F30184605B030BD00BFDF
:107A5000C46C030078310020206D0300F0B589B0BC
:107A6000019000910D230793009B00221A70019B47
:107A7000D3E90245FFF740FF02460B46A61A65EB25
:107A80000307CDE90467DDE90423012A73F100034C
:107A90001BDB049BB3F5350F05D300F0A9FA0246B2
:107AA000154B134403E0019BD3E9022313460393D0
:107AB0004FF49603039A0021104801F033F8079021
:107AC000079B002B05D1012313E000210B4801F097
:107AD00001F9079B0D2B07D10198FFF75BFF0346C8
:107AE0001A46009B1A7003E00549F52007F062FF73
:107AF0000023184609B0F0BDFFFFB400182B00208A
:107B0000C46C030000B583B0044802F0E7FB0190A9
:107B1000019B184603B05DF804FB00BF206D030015
:107B200000B583B0044802F0FBFB0190019B1846AE
:107B300003B05DF804FB00BF206D030000B583B007
:107B4000FFF7E0FF0190019B002B02D0019B002278
:107B50001A77019B002BF3D100BF00BF03B05DF883
:107B600004FB0000054BD3E9002312F1807043F1C0
:107B70000001024BC3E9000100BF704780310020C3
:107B800000B583B00190134B1B68002B1DD00198EA
:107B900001F0C6F80F4B1B68D3E90223134623F00C
:107BA0007F43194600F018FA0346B3F5960F04D345
:107BB00009494FF4957007F0FDFE064B1B68184607
:107BC000FFF7E8FE034B00221A6000BF03B05DF828
:107BD00004FB00BF74310020C46C030000B583B007
:107BE0000190FFF789FE02460B460349C1E90023D5
:107BF00000BF03B05DF804FB8831002000B585B0FC
:107C00000190FFF78DFF039000238DF80B30039B4D
:107C1000002B48D02B4B1B68002B03D101238DF880
:107C20000B3019E0039BD3E90201264B1B68D3E913
:107C30000223994208BF90420ED201238DF80B30E7
:107C4000204B1B681B7FDBB2002B05D01D4B1B6834
:107C500019461D4802F008FB9DF80B30002B2AD076
:107C6000FFF750FF03900DF10A0319460398FFF741
:107C7000F5FE0346002B12D0124B1B68002B02D1DD
:107C8000019800F05BFE0F4A039B13609DF80A30D9
:107C900083F00103DBB2002BB3D000BF0EE0094B31
:107CA00000221A60ADE7074B1B68002B05D1019835
:107CB00000F05AFE01E000BF00E000BF00BF05B0C9
:107CC0005DF804FB74310020206D030000B587B01F
:107CD00001902C4A03AB1946104601F01EF905909D
:107CE00048E0059B1B78022B2ED0022B32DC002BA8
:107CF00002D0012B14D02DE0059B5B681B7FDBB20B
:107D000083F00103DBB2002B26D0059B5B680122C8
:107D10001A77059B5B6819461B4802F0A5FA1BE021
:107D2000059B5A68194B1B689A4203D1174B0022D6
:107D30001A6012E0059B5B681946134802F004FBC9
:107D400003468DF8133008E0FFF7F8FE104B0122D0
:107D50001A7002E000BF00E000BF0A4A03AB1946F8
:107D6000104601F0F3F8074A03AB1946104601F03C
:107D7000D4F80590059B002BB3D100BF00BF07B01E
:107D80005DF804FBE8310020206D03007431002011
:107D90007831002000B583B00190019800F08DFF8C
:107DA0000346002B01D0FFF7DDFE0021019800F013
:107DB000A2FF0346002B02D00198FFF7E1FE01214C
:107DC000019800F098FF0346002B02D00198FFF7BE
:107DD00005FF0198FFF77AFF0198FFF70FFF00BF3B
:107DE00003B05DF804FB000008B5024800F0A5FFF1
:107DF00000BF08BD182B002000B585B003460091D8
:107E00008DF80730114A02AB1946104601F058F8B8
:107E10000390039B002B13D0039B9DF807201A703F
:107E2000039B009A5A60094A02AB1946104601F0BA
:107E300060F80346002B01D0FFF7D6FF002300E0D7
:107E40000423184605B05DF804FB00BFE8310020AC
:107E500000B583B0164B1B680093164808235822C0
:107E6000154900F0FAFF0190019B002B01D0019B06
:107E700019E06B46114A1946114800F0E1FC0190E7
:107E8000019B002B01D0019B0DE001210C4800F06B
:107E900003FF01230B4A0121094800F07BFD0A4B37
:107EA00001221A70019B184603B05DF804FB00BF65
:107EB0001C6D0300E831002090310020957D020008
:107EC000182B0020FFFF7F007831002000B587B01D
:107ED00003900B4601928DF80B30039B002B04D1CD
:107EE000134940F22E2007F065FD019B002B04D1C1
:107EF0000F4940F22F2007F05DFD019B002B01D1BF
:107F0000072310E0039B1B680593059B019A5A61A8
:107F10009DF80B30012B0CBF01230023DBB21A4666
:107F2000059B1A610023184607B05DF804FB00BFEB
:107F3000C46C030030B587B0039002910192039B9B
:107F4000002B04D1154940F23E2007F033FD039B7E
:107F50000593059B1B7FDBB2002B01D000231AE0A9
:107F6000059B019A9A61FFF7C7FC029B1A464FF0E6
:107F70000003841841EB0305059BC3E90245059BFB
:107F80001B69002B02D0059B029A1A6105990020FB
:107F9000FFF732FF0346184607B030BDC46C03003C
:107FA00000B585B00190019B002B04D109494FF425
:107FB000157007F0FFFC019B0393039B00221A77C7
:107FC00003990120FFF718FF0346184605B05DF836
:107FD00004FB00BFC46C030082B001900091019AC1
:107FE000009BD31A23F07F43184602B0704700006D
:107FF00008B5034800F094FE0346184608BD00BFCC
:10800000182B002000B587B00390029113468DF81D
:10801000073000230593039B1B781A46114B9B5C8A
:10802000002B09D0039B04339DF8072002991846C2
:1080300005F0E0FA05900FE0039B1B781A46094B08
:108040009B5C002B08D1039B0C339DF80720029901
:10805000184604F0A1FC0590059B184607B05DF892
:1080600004FB00BF7032002000B585B001900023F2
:108070008DF80F30019B1B781A46114B9B5C002B2F
:1080800008D0019B0433184605F072FB03468DF8B7
:108090000F300EE0019B1B781A46094B9B5C002BAE
:1080A00007D1019B0C33184604F0FEFC03468DF803
:1080B0000F309DF80F30184605B05DF804FB00BF87
:1080C0007032002000B587B00390029113468DF8FE
:1080D000073000230593039B1B781A46114B9B5CCA
:1080E000002B09D0039B04339DF807200299184602
:1080F00005F056FB05900FE0039B1B781A46094BD1
:108100009B5C002B08D1039B0C339DF80720029940
:10811000184604F021FD0590059B184607B05DF850
:1081200004FB00BF7032002084B00190019B9B686B
:108130000393019BDA68039BD31A184604B0704777
:1081400000B587B001900091019B1B78022B45D0B0
:10815000022B6ADC002B52D0012B66D1019B1B7ACB
:10816000002B05D1012233493348FFF7ABFF5DE017
:10817000019B5B681B7819463048FFF78CFB059024
:10818000059B002B0AD001238DF80C30059B04932E
:108190002B4B1B6803AA104698470DE02748FFF7B2
:1081A000C3FF0346002B07D000238DF80C30244B6F
:1081B0001B6803AA104698472048FFF7B5FF0346FF
:1081C0001E4A9288934205D801221A491A48FFF79D
:1081D00079FF2BE01B4B01221A7027E002238DF858
:1081E0000C30019BDB680493012212491248FFF70F
:1081F00069FF134B1B6803AA1046984716E0124903
:108200001248FFF763FB0346002B05D101220E49FC
:108210000948FFF7F7FE09E003238DF80C30084BFF
:108220001B6803AA1046984700E000BF00BF07B0D4
:108230005DF804FB04320020202B002008320020CF
:10824000FC310020053200200032002018320020CE
:1082500030B591B00390029101928DF803303C4A01
:10826000019B1360029B002B01D107236DE0029B51
:108270001968029B5B689BB21A463648FFF7DFFA23
:108280000F900F9B0E930E9B002B01D00E9B5CE07A
:10829000029B9968029BDB689BB21A462E48FFF747
:1082A000CEFA0F900F9B0D930D9B002B01D00D9BD1
:1082B0004BE02A4B04AC1D460FCD0FC495E80F00D0
:1082C00084E80F00039B5B690A93039B1B7C002BD4
:1082D00014BF01230023DBB28DF824309DF8033056
:1082E0008DF82C30039B5B7C002B01D00E2300E02B
:1082F00000238DF82530039BDB680693039B9B6866
:108300000793039B1B680593039B5B68049304AB73
:10831000134A1946134802F09FFE0F900F9B0C93CF
:108320000C9B002B01D00C9B0FE00F4B00221A700E
:10833000039B1B68B3F1FF3F06D001220B4909489C
:10834000FFF7C0FE034600E00023184611B030BD21
:10835000FC31002008320020183200202C6D030070
:1083600041810200202B0020053200200432002031
:1083700000B587B00190019B002B03D11449CA209E
:1083800007F018FB134B1B788DF817300199124832
:10839000FFF79CFA04909DF81730002B12D00D4B7C
:1083A00000221A7001220D490D48FFF78BFE039041
:1083B000039B0293029B002B04D0054AD62102980E
:1083C000FFF730F9049B184607B05DF804FB00BFC7
:1083D0004C6D0300053200200832002004320020DA
:1083E000202B002000B585B003468DF807309DF89E
:1083F000073019461048FFF74EFA0390039B002BF5
:1084000015D10E48FFF730FE034683F00103DBB2BF
:10841000002B0CD00A490848FFF758FA0346002BF6
:1084200005D1012206490548FFF7ECFD0390039BA7
:10843000184605B05DF804FB18320020202B002000
:108440000032002082B0EFF310830093009B019371
:1084500072B600BF019B184602B0704762B600BFFB
:1084600000BF704700B585B00190FFF7EBFF0390A8
:10847000164B9B68002B1BD1144B01229A60144BA6
:10848000D3F88020134B1340104A1360104B114A4D
:10849000C3F880200E4BD3F884300C4A53600C4B49
:1084A0004FF0FF32C3F88420019B00221A7002E0D3
:1084B000019B01221A70039B002B01D1FFF7CEFF15
:1084C0000023184605B05DF804FB00BF28320020E9
:1084D00000E100E0FC06FFBD00B585B003468DF865
:1084E0000730104B9B68002B16D09DF80730002BEF
:1084F00012D1FFF7A7FF03900B4A0A4B1B681360CA
:10850000094A084B5B685360064B00229A60039B44
:10851000002B01D1FFF7A2FF0023184605B05DF83C
:1085200004FB00BF2832002000E100E000B583B06A
:10853000019000F02BF80346012B03D0054943209E
:1085400007F038FA0198FFF78DFF00BF03B05DF820
:1085500004FB00BFA46D030000B583B003468DF893
:10856000073000F013F80346012B03D006495120D1
:1085700007F020FA9DF807301846FFF7ADFF00BF5F
:1085800003B05DF804FB00BFA46D030084B0EFF3FB
:1085900005830193019BC3F308030393039B002B03
:1085A0000DD1EFF314830093009B0293029B03F021
:1085B0000103002B0CBF01230023DBB200E00123E9
:1085C000184604B07047000082B003468DF80730AB
:1085D0009DF8073003F01F0205499DF907305B093C
:1085E000012000FA02F241F8232000BF02B07047D8
:1085F00000E100E082B003468DF807309DF80730B7
:1086000003F01F0206499DF907305B09012000FABB
:1086100002F2403341F8232000BF02B0704700BF90
:1086200000E100E082B0034600918DF807309DF92B
:108630000730002B0CDA009BDAB20C499DF80730AA
:1086400003F00F03043B5201D2B20B441A7609E047
:10865000009BDAB206499DF907305201D2B20B44B1
:1086600083F8002300BF02B0704700BF00ED00E0B8
:1086700000E100E000B583B003460A468DF80730FC
:1086800013468DF806309DF80630012B03D99DF86E
:108690000630032B0BD99DF80630042B03D99DF827
:1086A0000630072B03D908496B2007F083F99DF8A2
:1086B00006209DF9073011461846FFF7B3FF00BFAB
:1086C00003B05DF804FB00BF006E030000B583B08B
:1086D00003468DF807309DF907301846FFF774FF01
:1086E00000BF03B05DF804FB00B585B00190019BAD
:1086F000002B0AD0074B43F001030393019B9B011E
:108700000293039B0298984700E000BF05B05DF814
:1087100004FB00BF106F030084B00390029101922C
:10872000039B029A02F5A872019943F8221000BF38
:1087300004B0704782B001900091019B009A02F54D
:10874000A87253F82230184602B0704782B00190E8
:108750000091019B009AC3F8042300BF02B0704748
:1087600082B001900091019B009AC3F8082300BFDA
:1087700002B0704782B001900B46ADF80230BDF8F0
:108780000230019A13441B68184602B0704784B047
:1087900001900B46ADF80230BDF80230019A134447
:1087A00000221A60BDF80230019A13441B6803933B
:1087B000039B00BF04B0704782B00190019BD3F8C7
:1087C0000435184602B0704700B583B0019000919F
:1087D000009BB3F5805F04D306494FF4BE7007F0E9
:1087E000E9F8019B009AC3F8082500BF03B05DF8C3
:1087F00004FB00BF346E030082B001900B468DF87D
:1088000003309DF80320019B13441A460123136093
:1088100000BF02B0704782B001900091019B009AA6
:10882000C3F8442300BF02B0704782B001900091AA
:10883000019B009AC3F8482300BF02B070470000B4
:1088400000B587B0039002910192039B002B03D1E6
:108850003349552007F0AEF8029B002B03D1304975
:10886000562007F0A7F8019B002B03D12C49572075
:1088700007F0A0F8039B5B7919462A4A019B42F84E
:108880002130039B5B79284ADB0013441B79002BC2
:108890000ED008230593254A254BD31ADB081B0469
:1088A00043F0020323491846FEF70AFA059B32E01B
:1088B000039B1A68029B1B8819461046FFF784FF2A
:1088C000039B93F90420029B9B7819461046FFF7FF
:1088D000D1FE039B93F904301846FFF7F7FE039B84
:1088E0005B79114ADB00134401221A71039B5B7907
:1088F00019460D4A039B42F83130002305930B4A79
:108900000B4BD31ADB081B0443F003030A49184638
:10891000FEF7D6F9059B184607B05DF804FB00BFCB
:10892000646E03003432002038320020786903007E
:1089300030690300B86E0300DC6E030000B583B03D
:108940000190019B002B03D10649872007F032F8E4
:10895000019B1B6800211846FFF74EFF00BF03B0C4
:108960005DF804FB646E030000B583B00190019BC9
:10897000002B03D106498D2007F01CF8019B1B68D2
:1089800004211846FFF738FF00BF03B05DF804FB71
:10899000646E030000B587B00390029101928DF8D8
:1089A0000330039B002B03D12149962007F002F8E6
:1089B0004FF48032029B02FA03F30593029B50337B
:1089C0009BB29B00ADF81230019B23F07F430193D3
:1089D000039B1B6805991846FFF7C2FE039B1B68A3
:1089E00005991846FFF721FF039B1B68BDF812206D
:1089F00011461846FFF7CBFE039B1B68019A0299AC
:108A00001846FFF789FE039B1B6805991846FFF778
:108A100002FF9DF80330002B05D0039B1B680599CE
:108A20001846FFF793FE00BF07B05DF804FB00BFD8
:108A3000646E030000B585B00390029113468DF873
:108A40000730039B002B03D10B49A92006F0B2FF8E
:108A5000039B1B6802991846FFF7DDFE9DF807305F
:108A6000002B05D0039B1B6802991846FFF76EFE8A
:108A700000BF05B05DF804FB646E030000B583B071
:108A800001900091019B002B03D10A49B32006F00D
:108A900091FF019B1B6800991846FFF7C6FE019BDA
:108AA0001B6800991846FFF75BFE00BF03B05DF836
:108AB00004FB00BF646E030000B583B001900B4659
:108AC000ADF80230019B002B03D10F49BA2006F00C
:108AD00071FF019B1B68BDF8022011461846FFF785
:108AE00049FE0346002B09D0019B1B68BDF80220FC
:108AF00011461846FFF74BFE012300E000231846FD
:108B000003B05DF804FB00BF646E030082B0019007
:108B10000091019A009BD31A23F07F43184602B0BC
:108B20007047000000B58BB0039002910192009352
:108B3000039B002B03D15749CD2006F03BFF4FF498
:108B40008032029B02FA03F30993029B50339BB2DB
:108B50009B00ADF82230019B23F07F4301930999DC
:108B60000398FFF78BFF039B1B681846FFF724FE53
:108B70000790039B1B6802991846FFF7DBFD0690E0
:108B8000039B1B68079A02991846FFF7C5FD039BD4
:108B90001B68BDF8222011461846FFF7F8FD07991B
:108BA0000698FFF7B3FF0346012B0AD11020FFF709
:108BB0009BFD039B1B68BDF8222011461846FFF75A
:108BC000E6FD039B1B681846FFF7F6FD0790079923
:108BD0000198FFF79BFF0590039B1B6809991846B6
:108BE000FFF719FE059B012B15D1039B1868019B0C
:108BF00001331A460299FFF78FFD1020FFF774FD2D
:108C0000039B1B681846FFF7D7FD0246079B93425C
:108C100035D00D2339E0039B1B68019A0299184651
:108C2000FFF77AFD039B1B681846FFF7C5FD079009
:108C3000019B013B07991846FFF768FF0590009BD1
:108C4000C3F1FF1303F57F43059A9A4201D90D231F
:108C50001BE0059B002B12D1039B1868019B01337D
:108C60001A460299FFF758FD039B1B681846FFF749
:108C7000A3FD0246079B934201D00D2305E001228C
:108C800009990398FFF7D6FE002318460BB05DF84C
:108C900004FB00BF646E030000B583B001900B4677
:108CA0008DF803309DF803301A4602210198FFF732
:108CB000C1FE00BF03B05DF804FB00B583B00190B6
:108CC0004FF482710198FFF7F7FE0346184603B090
:108CD0005DF804FB00B583B0019000914FF4803241
:108CE000009B02FA03F319460198FFF7C7FE00BF85
:108CF00003B05DF804FB00B585B001900091009BC6
:108D000050339BB29B00ADF80E30BDF80E301946C3
:108D10000198FFF7D1FE0346184605B05DF804FB45
:108D200000B583B00190019B1B681846FFF744FD16
:108D30000346184603B05DF804FB00B583B001900C
:108D4000019B93F904301846FFF754FC00BF03B0B1
:108D50005DF804FB08B5044B1B68044A1268104612
:108D6000984700BF08BD00BF3432002038320020D1
:108D700086B001900091019B53E8011F8AB2D88907
:108D800002449889824228BF121A1889824202BF7F
:108D9000BFF32F8F002307E0C2EA010243E801205E
:108DA0000028E9D14FF001038DF80F3005900291B2
:108DB0000492029A009B1A609DF80F30DBB21846AD
:108DC00006B0704784B00190019951E8013FC3EAB1
:108DD000034341E80132002AF7D10392029300BF16
:108DE00004B0704786B001900091019B53E8021FC8
:108DF0001FFAA1F2D888824202BFBFF32F8F00234F
:108E00000DE0D88902449889824228BF121AC1EA2B
:108E1000024243E802200028E8D14FF001038DF818
:108E20000F30059002910492029A009B1A609DF8FF
:108E30000F30DBB2184606B0704784B0019001993C
:108E400051E8023FC3EA234341E80232002AF7D146
:108E50000392029300BF04B0704784B00390029164
:108E600011461A460B46ADF806301346ADF80430ED
:108E7000029B002B01D10E231FE0BDF80630BDF888
:108E80000420B3FBF2F102FB01F29B1A9BB2002B10
:108E900001D0092311E0039B029A1A60039B002270
:108EA0005A60039B00229A60039BBDF806209A81BA
:108EB000039BBDF80420DA810023184604B07047F4
:108EC00000B585B001900091009B19460198FFF70D
:108ED0004FFF0346002B07D0019B1B68009A1288A6
:108EE00013440393039B00E00023184605B05DF88C
:108EF00004FB00B583B001900091009B1A88009B91
:108F00005B889A4204D10198FFF75CFF012300E0DF
:108F10000023184603B05DF804FB00B585B001904E
:108F20000091009B19460198FFF75CFF0346002B58
:108F300007D0019B1B68009A528813440393039B3C
:108F400000E00023184605B05DF804FB00B583B0CF
:108F500001900091009B1A88009B5B889A4204D183
:108F60000198FFF76AFF012300E00023184603B0D1
:108F70005DF804FB00B585B001900091009B5B0992
:108F80009B00019A1A44009B03F01F03012101FA80
:108F900003F31946104600F04DF8039000BF05B0EA
:108FA0005DF804FB00B585B001900091009B5B0962
:108FB0009B00019A1A44009B03F01F03012101FA50
:108FC00003F3DB431946104600F064F8039000BF3A
:108FD00005B05DF804FB82B001900091009B5B0935
:108FE0009B00019A13441A68009B03F01F0322FAA6
:108FF00003F303F00103002B14BF01230023DBB2B2
:10900000184602B0704710B487B001900091019BE0
:10901000009A53E8004F104643E8000191F0000F1A
:10902000F7D1059404900391059B184607B05DF8AD
:10903000044B704710B487B001900091019B009AD7
:1090400053E8004F44EA020043E8000191F0000FAA
:10905000F6D1059404900391049B184607B05DF87F
:10906000044B704710B487B001900091019B009AA7
:1090700053E8004F04EA020043E8000191F0000FBA
:10908000F6D1059404900391059B184607B05DF84E
:10909000044B704710B487B001900091019B009A77
:1090A00053E8004F04EA020043E8000191F0000F8A
:1090B000F6D1059404900391049B184607B05DF81F
:1090C000044B704710B487B001900091019B009A47
:1090D00053E8004F04EB020043E8000191F0000F59
:1090E000F6D1059404900391049B184607B05DF8EF
:1090F000044B704710B487B001900091019B009A17
:1091000053E8004FA4EB020043E8000191F0000F88
:10911000F6D1059404900391049B184607B05DF8BE
:10912000044B704700B583B0019001210198FFF70F
:1091300081FF0346184603B05DF804FB00B583B019
:10914000019000210198FFF78DFF0346184603B0F8
:109150005DF804FB00B583B001900B468DF8033039
:10916000019B002B03D10849E82006F023FC019B5A
:10917000DA689DF803300199098A01FB03F313446F
:10918000184603B05DF804FB186F030000B583B008
:1091900001900091019B002B03D10849F52006F0B6
:1091A00009FC009B019AD2689B1A019A128AB3FBB0
:1091B000F2F3DBB2184603B05DF804FB186F03004E
:1091C00000B585B00190019B002B01D10E234CE02E
:1091D000019B1B68002B03D12649FF2006F0EAFB08
:1091E000019B5B68002B04D122494FF4807006F08C
:1091F000E1FB019B9B68002B04D11E4940F201104A
:1092000006F0D8FB019BDB68002B04D119494FF411
:10921000817006F0CFFB019B1B8A002B04D11549FE
:1092200040F2031006F0C6FB019B9A68019B5B6845
:10923000D31A8DF80F30019B1B68019A52681A608F
:1092400007E0019B1A681368591C11609DF80F20F4
:109250001A709DF80F305A1E8DF80F20002BF0D198
:10926000019B1B6800221A710023184605B05DF8A7
:1092700004FB00BF186F030000B585B00190019B8F
:10928000002B04D11F494FF4927006F093FB00238A
:10929000039300238DF80A300DF10A031846FFF7F7
:1092A00045F9019B1B681A68019B5B689A421FD9AC
:1092B000019B1B681A68013A1A601B681B781946E3
:1092C0000198FFF747FF0390019B9A68019B1B6879
:1092D0001B68D31A8DF80B30019B1B681B799DF816
:1092E0000B209A4204D9019B1B689DF80B201A7130
:1092F0009DF80A301846FFF72FF9039B184605B072
:109300005DF804FB186F030010B584B00190009164
:10931000019B002B04D1154940F2471006F04AFB8F
:10932000009B002B04D111494FF4A47006F042FBBE
:10933000009B039300238DF80B300DF10B031846AF
:10934000FFF7F4F8019B1B681C68621C1A60039904
:109350000198FFF71BFF034623709DF80B3018465A
:10936000FFF7FAF800BF04B010BD00BF186F03008C
:1093700000B583B00190019B002B03D10C49312033
:1093800006F018FB019B9B68002B0CD0019B5B69CE
:10939000019A1069019A1168019A92689847019B95
:1093A00000229A6000E000BF03B05DF804FB00BF3C
:1093B000706F03000EB400B584B00190019B002BC8
:1093C00003D11849422006F0F5FA019B5B69002B96
:1093D00003D11449432006F0EDFA019B1B68002BD2
:1093E00003D11049442006F0E5FA019B5B68002B8D
:1093F00003D10C49452006F0DDFA059B002B0AD06D
:109400000023039306AB039303AB1A460599019817
:1094100000F0B8F900E000BF04B05DF804EB03B061
:10942000704700BF706F030000B583B001900B461A
:109430008DF803309DF803300A2B03D10D210198DC
:10944000FFF7F2FF019B1A68019B9B68581C01996A
:10945000886013449DF803201A70019B9A68019B51
:109460005B689A4202D30198FFF782FF00BF03B006
:109470005DF804FB00B587B0039002910192009360
:1094800000230593009B03F00103002B24D00BE085
:10949000029B01330293059B013305939DF8133022
:1094A00019460398FFF7C0FF029B1B788DF8133015
:1094B0009DF81330002BEBD106E0019B013B01939B
:1094C00020210398FFF7B0FF019A059B9A422ED9FD
:1094D000019B002BF1D12AE0029B002B0BD00298BC
:1094E0000CF075FE059006E0019B013B01932021E5
:1094F0000398FFF799FF019A059B9A420FD9019BA8
:10950000002BF1D10BE0029B01330293059B013349
:1095100005939DF8133019460398FFF785FF029BCA
:109520001B788DF813309DF81330002BEBD100BF62
:1095300007B05DF804FB000000B589B0039002910C
:1095400001920093029B07930123069307E0079A79
:10955000019BB2FBF3F30793069B01330693079A33
:10956000019B9A42F3D2009A069B9A4201D9009B32
:1095700006930B9B03F00103002B22D10A9B002BC7
:109580001FD00B9B03F00203002B06D0009B002B87
:1095900003D130238DF8173002E020238DF81730E7
:1095A00008E00A9B013B0A939DF81730194603987F
:1095B000FFF73AFF0A9B002B03D0069A0A9B9A42B8
:1095C000EFD301230793009B012B03D9009B013BA1
:1095D000009309E0029A079BB2FBF3F30493049A09
:1095E000019B9A4200D205E0079B019A02FB03F31C
:1095F0000793E8E7029A079BB2FBF3F30493049BFB
:10960000079A02FB03F3029AD31A0293154A049BAA
:1096100013441B7819460398FFF706FF079A019B2E
:10962000B2FBF3F30793079B002BE3D10B9B03F0F3
:109630000103002B11D00A9B002B0ED006E00A9BE1
:10964000013B0A9320210398FFF7EEFE0A9B002BB3
:1096500003D0069A0A9B9A42F1D300BF09B05DF885
:1096600004FB00BF1470030000B589B0059004919D
:1096700003920293049B002BB8BF5B420693012325
:10968000079307E0039B069A92FBF3F30693079B6D
:1096900001330793039B069A9A42F3DA029A079BD7
:1096A0009A4201D9029B07930A9B002B0AD0049B84
:1096B000002B04DB0B9B03F00403002B02D00A9B5E
:1096C000013B0A930B9B03F00203002B02D0029B89
:1096D000002B16D00B9B03F00103002B11D10A9B2A
:1096E000002B0ED006E00A9B013B0A93202105982F
:1096F000FFF79AFE0A9B002B03D0079A0A9B9A4217
:10970000F1D3049B002B07DA049B5B4204932D21C9
:109710000598FFF789FE08E00B9B03F00403002B7C
:1097200003D02B210598FFF77FFE0B9B03F002036C
:10973000002B19D00B9B03F00103002B14D1029BCB
:10974000002B11D10A9B002B0ED006E00A9B013B97
:109750000A9330210598FFF767FE0A9B002B03D080
:10976000079A0A9B9A42F1D304990B9B01930A9B97
:109770000093029B039A0598FFF7DEFE00BF09B035
:109780005DF804FB00B58FB0059004910392059B32
:10979000002B04D1B64940F2522006F00BF9059B8C
:1097A0005B69002B04D1B2494FF4157006F002F941
:1097B000059B1B68002B04D1AD4940F2552006F0F3
:1097C000F9F8059B5B68002B04D1A94940F25620AB
:1097D00006F0F0F8049B002B00F09381049B1B78AB
:1097E0008DF83730049B013304939DF83730002BFC
:1097F00000F07E819DF83730252B40F06D810023ED
:109800000A9301230C93049B1B788DF837309DF845
:109810003730302B0DD0302B1BDC2B2B11D02D2BC8
:1098200017D10A9B43F001030A93049B013304936D
:1098300012E00A9B43F002030A93049B0133049352
:109840000AE00A9B43F004030A93049B0133049348
:1098500002E000230C9300BF0C9B002BD3D100230C
:1098600009939DF837302A2B0CD1039B1B68191DD7
:10987000039A11601B68099A13440993049B0133EE
:1098800004931AE0049B1B788DF837309DF837302D
:109890002F2B12D99DF83730392B0ED8049B01336A
:1098A0000493099A13469B0013445B001A469DF8E3
:1098B00037301344303B0993D3E700230B93049BC9
:1098C0001B788DF837309DF837302E2B1DD1049B37
:1098D00001330493049B1B788DF837309DF83730A3
:1098E0002F2B12D99DF83730392B0ED8049B01331A
:1098F00004930B9A13469B0013445B001A469DF891
:1099000037301344303B0B93E4E7049B1B788DF80E
:1099100037309DF837306C2B03D09DF83730682BEB
:1099200007D1049B01330493049B1B788DF83730D7
:10993000EFE79DF83730252B00F0C480252BC0F2CF
:10994000C680782B00F3C380582BC0F2C080583BF0
:10995000202B00F2BC8001A252F823F04B9A0200A7
:10996000CF9A0200CF9A0200CF9A0200CF9A02004B
:10997000CF9A0200CF9A0200CF9A0200CF9A02003B
:10998000CF9A0200CF9A0200E1990200039A0200E6
:10999000CF9A0200CF9A0200CF9A0200CF9A02001B
:1099A000039A0200CF9A0200CF9A0200CF9A0200D7
:1099B000CF9A0200CF9A0200CF9A0200919A020039
:1099C000CF9A0200CF9A0200759A0200CF9A020045
:1099D000279A0200CF9A0200CF9A02004B9A020007
:1099E000039B1B68191D039A11601B680C930C9B49
:1099F0008DF81F309DF81F3019460598FFF714FDAC
:109A000066E0039B1B68191D039A11601B680C9389
:109A10000A9B0193099B00930B9B0A220C990598C2
:109A2000FFF722FE54E0039B1B68191D039A116087
:109A30001B680C930C990A9B0193099B00930B9B49
:109A40000A220598FFF778FD42E0039B1B68191D69
:109A5000039A11601B680C930C990A9B0193099B54
:109A600000930B9B10220598FFF766FD30E000BFC6
:109A7000C06F0300039B1B68191D039A11601B68CC
:109A800008930A9B099A08990598FFF7F3FC1FE0D1
:109A9000039B1B68191D039A11601B680C933021EE
:109AA0000598FFF7C1FC78210598FFF7BDFC0C99DC
:109AB0000023019308230093082310220598FFF741
:109AC0003BFD05E025210598FFF7AEFC00E000BF57
:109AD000049B0133049305E09DF83730194605983F
:109AE000FFF7A2FC049B1B78002B7FF477AE00E00D
:109AF00000BF059B1B7B002B04D00598FFF738FCAB
:109B000000E000BF0FB05DF804FB00BF00B583B0FC
:109B100001900198FFF754FB0346184603B05DF827
:109B200004FB00B58BB001900091019B1B8A043BA4
:109B30000793009A079B1344DA1C079BB2FBF3F3CD
:109B40008DF81B300198FFF797FB0590059B002BC4
:109B500001D1002338E0059B00221A71059B0122E8
:109B60005A71079B9AB2059BDA80059B09939DF871
:109B70001B30013B0493099B019A1A600023089350
:109B80001DE00198FFF778FB0390039B002B0ED09C
:109B9000059B5B790133DAB2059B5A71099B039AE5
:109BA0001A60039B019A1A60039B099304E00598CD
:109BB00000F00EF8002307E0089B01330893089A91
:109BC000049B9A42DDD3059B18460BB05DF804FB5D
:109BD00000B58BB00190019B0793079B5B798DF8D3
:109BE0001B30019B08939DF81B30013B059300231C
:109BF000099305E0089B1B680893099B01330993AF
:109C0000099A059B9A42F5D3089B1B680493019B14
:109C10000893002309930BE0089B1B6803930899A2
:109C20000498FFF771FB039B0893099B0133099389
:109C30009DF81B30099A9A42EED300BF00BF0BB0CB
:109C40005DF804FB00B585B00190019B0393039B75
:109C5000043301211846FFF735FA00BF05B05DF85F
:109C600004FB00B587B00190019B0593059B04336D
:109C700001211846FFF73EFA0346039303AB049312
:109C8000049B1B78002B02D10198FFF7A1FF00BFB6
:109C900007B05DF804FB000000B591B0039002919D
:109CA00001920093039B002B03D14349B62005F09A
:109CB00081FE039B0993039B0F93099BDB881A4644
:109CC000099B5B7903FB02F3043B0893009A089B12
:109CD0009A4203D33849C42005F06CFE099BDB8807
:109CE0000793009B1A1D079BB2FBF3F30E93009B97
:109CF0000433079AB3FBF2F2079901FB02F29B1AB5
:109D00000D93019B1A68009B1344089A9A4203D250
:109D1000089A009BD31A01E0019B1B680C93019BDE
:109D20000C9A1A6005E00F9B1B680F930E9B013B7A
:109D30000E930E9B002BF6D100230B93079A0D9BDD
:109D4000D31A0A930A9A0C9B934228BF13460A938C
:109D50002AE0029A0B9B134406930F9A0D9B13441F
:109D6000043305939DF84830002B05D00A9A0599D5
:109D700006980CF0AEF904E00A9A069905980CF0E2
:109D8000A8F900230D930F9B1B680F930C9A0A9B55
:109D9000D31A0C930B9A0A9B13440B93079A0C9BB0
:109DA000934228BF13460A930C9B002BD1D100BFCE
:109DB00000BF11B05DF804FB2470030000B589B04A
:109DC0000590049103920293039B079307AA002333
:109DD0000093029B04990598FFF75EFF079B039A87
:109DE0009A4203D00349F62005F0E4FD00BF09B014
:109DF0005DF804FB2470030000B589B00590049160
:109E000003920293039B079307AA01230093029BEB
:109E100004990598FFF740FF079B039A9A4204D0E4
:109E200004494FF4807005F0C5FD00BF09B05DF82E
:109E300004FB00BF2470030082B003468DF8073096
:109E40009DF8073003F01F0206499DF907305B09B2
:109E5000012000FA02F2603341F8232000BF02B073
:109E6000704700BF00E100E0BFF34F8F00BF074B1A
:109E7000DB6803F4E0620549054B1343CB60BFF395
:109E80004F8F00BF00BF00BFFCE700BF00ED00E048
:109E90000400FA0500B583B00190019B002B03D1AB
:109EA0000449C42005F086FD019B5B68184603B099
:109EB0005DF804FB7C70030000B583B00190019B4A
:109EC000002B03D10649722005F074FD019B00228E
:109ED0001A60BFF35F8F00BF00BF03B05DF804FBE3
:109EE000D470030000B585B00190019B002B03D115
:109EF0000A49852005F05EFD01210198FFF783F8EE
:109F00000390BFF35F8F00BF039B002B0CBF0123A7
:109F10000023DBB2184605B05DF804FBD4700300E3
:109F200000B583B00190019B002B03D10A49922018
:109F300005F040FD019B1B68012B03D006499320CF
:109F400005F038FDBFF35F8F00BF019B00221A6050
:109F500000BF03B05DF804FBD470030033DF70472B
:109F600000BF184641DF704700BF18464FF08043DE
:109F70000122C3F80025BFF34F8F00BF20BF00BFF1
:109F8000FCE7000000B585B000238DF803300DF12B
:109F900003031846FEF7CAFAF1EE103A0193019B4B
:109FA0000393039B23F09F030293029BE1EE103A7D
:109FB00000BFBFF35F8F00BF2620FFF73DFF9DF876
:109FC00003301846FEF7C8FA039B03F00703002B83
:109FD00003D004497D2005F0EDFC00BF05B05DF81D
:109FE00004FB00BF1C71030008B5064B00221A7069
:109FF0000548FFF761FF0549054800F0D9F800233F
:10A00000184608BD48320020443200207871030011
:10A010004C32002000B583B0FFF7B4FF0AF048F9D6
:10A020000346002B0ED0FFF79DFF0190019B002BF4
:10A030000ED0019B022B0BD007494FF4B07005F0F6
:10A04000B9FC05E020BF00BF40BF00BF20BF00BF7C
:10A0500000BF03B05DF804FB1C71030000B583B0C2
:10A060000FE02348FFF716FF0190019B1B68214A70
:10A070001278104698470346002B34D01C4800F055
:10A08000C1F81B48FFF706FF0346002BE9D1FDF797
:10A09000B3F800BFFCF770FE0346002BFAD1154B56
:10A0A0001B78032B03D0134B1B78022B02D1FFF735
:10A0B000DBFE19E00AF0FCF80346002B10D0FFF796
:10A0C0004DFF0090009B002B07D0009B022B04D07B
:10A0D00009494FF4D17005F06DFC20BF00BFFCE7CB
:10A0E000FFF744FF00E000BF03B05DF804FB00BFD2
:10A0F0004C320020403200201C71030000B583B0B8
:10A1000003468DF807301748FFF7ECFE034683F04F
:10A110000103DBB2002B21D19DF80730042B0ED0B8
:10A12000114B1B78002B03D00E48FFF7F9FE16E009
:10A130000E4A9DF8073013700B4B01221A700A4B20
:10A140001B78002B04D10A4940F2D51005F032FCEF
:10A15000FFF784FF0348FFF7E3FE00E000BF03B012
:10A160005DF804FB443200204832002040320020D9
:10A170001C71030082B00190019B9B6800229A60D1
:10A18000019B9B6800221A61019B9B6800225A6117
:10A19000019B9B680022DA60019B9B6800225A6049
:10A1A000019B9B6800221A6000BF02B0704700004C
:10A1B00000B583B001900091019B002B03D11049A1
:10A1C000502005F0F7FB009B002B03D10C495120D8
:10A1D00005F0F0FB019B009A1A60019B1B681A684E
:10A1E000019B5A60019B5A68019B1B685B689A42FD
:10A1F00002D1019B00225A6000BF03B05DF804FB4E
:10A200008471030000B583B00190019B002B03D142
:10A210001449632005F0CEFB019B1B68002B03D182
:10A220001049642005F0C6FB019B5B68002B14D02D
:10A23000019B5B681A46019B1B689B6813441A4686
:10A24000019B5A60019B5A68019B1B685B689A429C
:10A2500004D1019B00225A6000E000BF03B05DF80A
:10A2600004FB00BF8471030000B585B0019000912C
:10A27000019B002B03D118493A2005F09BFB009B62
:10A28000002B03D114493B2005F094FB019B5B6834
:10A2900003930FE0019B9B68039A12680099104694
:10A2A0009847034683F00103DBB2002B07D1039BE1
:10A2B0001B680393039B1B68002BEBD100E000BFDE
:10A2C000039B1A68009B1A60039B009A1A6000BFE8
:10A2D00005B05DF804FB00BF0072030000B585B057
:10A2E0000190019B002B03D10C49512005F062FB2A
:10A2F000019B5B681B680393019B5B681B68002BD9
:10A3000006D0019B5B681A68019B5B6812681A6043
:10A31000039B184605B05DF804FB00BF0072030004
:10A3200000B583B00190019B002B03D105495D204E
:10A3300005F040FB019B5B681B68184603B05DF8A5
:10A3400004FB00BF0072030000B585B001900091CE
:10A35000019B002B03D11649692005F02BFB009BC4
:10A36000002B03D112496A2005F024FB00238DF84D
:10A370000B30019B5B6803930FE0039B1B68009A03
:10A380009A4207D1009B1A68039B1A6001238DF83B
:10A390000B3006E0039B1B680393039B1B68002B99
:10A3A000EBD19DF80B30184605B05DF804FB00BFFB
:10A3B0000072030000B585B00190019800F00EF81E
:10A3C0000390039B002B01D0039B00E0024B184637
:10A3D00005B05DF804FB00BF5C72030086B001901D
:10A3E000164B0593164B04931FE0049A059BD31A52
:10A3F000DB10DA0F13445B10DB00059A1344039360
:10A40000039B1B680293029A019B9A4202D9039B09
:10A4100004930AE0029A019B9A4203D2039B0833F9
:10A42000059302E0039B5B6804E0059A049B9A4253
:10A43000DBD30023184606B0704700BF5C760300EC
:10A440008477030000B583B001900091019BDBB2DB
:10A450001846FDF7C7FF019B184603B05DF804FBE3
:10A46000BFF34F8F00BF074BDB6803F4E062054981
:10A47000054B1343CB60BFF34F8F00BF00BF00BF3E
:10A48000FCE700BF00ED00E00400FA05024B034AC0
:10A490001A6000BF704700BF342B00200090D0032B
:10A4A00008B500F069F90346002B06D0A04B1B68E5
:10A4B0001B0AA04A03F01F03136000F089F903464A
:10A4C000002B02D09C4B9D4A1A6000F09DF9034678
:10A4D000002B06D09A4B1B685B0B9A4A03F00703CC
:10A4E000136000F0BDF90346002B05D0964BDB68E6
:10A4F000954A23F08073D36000F0CEF90346002B19
:10A500000ED04FF080430022C3F80C214FF080435F
:10A510000022C3F810214FF080430022C3F83825F1
:10A5200000F0E6F90346002B02D0884B03221A60A4
:10A5300000F0FAF90346002B0BD0854B05221A6078
:10A54000844B01221A60844B00221A60834B3F2205
:10A550001A6000F005FA0346002B76D04FF08053C6
:10A560007F4AD3F80434C2F820354FF080537C4A38
:10A57000D3F80834C2F824354FF08053784AD3F822
:10A580000C34C2F828354FF08053754AD3F8103494
:10A59000C2F82C354FF08053714AD3F81434C2F806
:10A5A00030354FF080536E4AD3F81834C2F8343542
:10A5B0004FF080536A4AD3F81C34C2F840354FF04C
:10A5C0008053674AD3F82034C2F844354FF08053A3
:10A5D000634AD3F82434C2F848354FF08053604AB8
:10A5E000D3F82834C2F84C354FF080535C4AD3F886
:10A5F0002C34C2F850354FF08053594AD3F83034D8
:10A60000C2F854354FF08053554AD3F83434C2F869
:10A6100060354FF08053524AD3F83834C2F864356D
:10A620004FF080534E4AD3F83C34C2F868354FF0AF
:10A6300080534B4AD3F84034C2F86C354FF0805306
:10A64000474AD3F84434C2F8703500F0A5F9034600
:10A65000002B05D0434B1B68434A03F04F031360A4
:10A6600000F0C6F90346002B0DD04FF08043D3F81D
:10A67000003403F00103002B05D04FF080436FF04E
:10A680000102C3F8002400F0DFF90346002B05D0D7
:10A69000364B1B68354A43F480631360344BD3F860
:10A6A0008830334A43F47003C2F88830BFF34F8FC9
:10A6B00000BFBFF36F8F00BF4FF01023D3F80032FD
:10A6C000002B05DB4FF01023D3F80432002B2BDADC
:10A6D000284B0122C3F8042500BF264BD3F80034D1
:10A6E000002BFAD04FF010231522C3F8002200BF30
:10A6F000204BD3F80034002BFAD04FF01023152252
:10A70000C3F8042200BF1B4BD3F80034002BFAD04F
:10A71000184B0022C3F8042500BF164BD3F80034B1
:10A72000002BFAD0FFF79CFEFFF7B0FE00BF08BD7C
:10A73000240300104035014074C007400DF0ADBA4D
:10A74000440200103C050040F0ED00E0A005004090
:10A7500010560040885600401856004014560040DD
:10A7600000C0004058020010E40E00403C170040BA
:10A7700000ED00E000E00140124B1B68DBB2062B4D
:10A780001DD1114B1B6803F00F03002B17D10F4B8A
:10A790001B6803F0F003302B01D1012310E00B4BB9
:10A7A0001B6803F0F003402B01D1012308E0074BA5
:10A7B0001B6803F0F003502B01D1012300E00023BC
:10A7C00018467047E00F00F0E40F00F0E80F00F0CB
:10A7D0000A4B1B68DBB2062B0DD1094B1B6803F03B
:10A7E0000F03002B07D1074B1B6803F0F003302B3E
:10A7F00001D1012300E0002318467047E00F00F06C
:10A80000E40F00F0E80F00F0124B1B68DBB2062BE0
:10A810001DD1114B1B6803F00F03002B17D10F4BF9
:10A820001B6803F0F003302B01D1012310E00B4B28
:10A830001B6803F0F003402B01D1012308E0074B14
:10A840001B6803F0F003502B01D1012300E000232B
:10A8500018467047E00F00F0E40F00F0E80F00F03A
:10A860000A4B1B68DBB2062B0DD1094B1B6803F0AA
:10A870000F03002B07D1074B1B6803F0F003302BAD
:10A8800001D1012300E0002318467047E00F00F0DB
:10A89000E40F00F0E80F00F0124B1B68DBB2062B50
:10A8A0001DD1114B1B6803F00F03002B17D10F4B69
:10A8B0001B6803F0F003302B01D1012310E00B4B98
:10A8C0001B6803F0F003402B01D1012308E0074B84
:10A8D0001B6803F0F003502B01D1012300E000239B
:10A8E00018467047E00F00F0E40F00F0E80F00F0AA
:10A8F0000A4B1B68DBB2062B0DD1094B1B6803F01A
:10A900000F03002B07D1074B1B6803F0F003302B1C
:10A9100001D1012300E0002318467047E00F00F04A
:10A92000E40F00F0E80F00F00A4B1B68DBB2062BC7
:10A930000DD1094B1B6803F00F03002B07D1074B08
:10A940001B6803F0F003302B01D1012300E000234A
:10A9500018467047E00F00F0E40F00F0E80F00F039
:10A960000A4B1B68DBB2062B0DD1094B1B6803F0A9
:10A970000F03002B07D1074B1B6803F0F003502B8C
:10A9800001D1012300E0002318467047E00F00F0DA
:10A99000E40F00F0E80F00F0124B1B68DBB2062B4F
:10A9A0001DD1114B1B6803F00F03002B17D10F4B68
:10A9B0001B6803F0F003302B01D1012310E00B4B97
:10A9C0001B6803F0F003402B01D1012308E0074B83
:10A9D0001B6803F0F003502B01D1012300E000239A
:10A9E00018467047E00F00F0E40F00F0E80F00F0A9
:10A9F000124B1B68DBB2062B1DD1114B1B6803F0F9
:10AA00000F03002B17D10F4B1B6803F0F003302B03
:10AA100001D1012310E00B4B1B6803F0F003402B26
:10AA200001D1012308E0074B1B6803F0F003502B12
:10AA300001D1012300E0002318467047E00F00F029
:10AA4000E40F00F0E80F00F0064B1B68062B05D161
:10AA5000054B1B68062B01D1012300E0002318469B
:10AA6000704700BF300100103401001000B583B002
:10AA70000190019B1B681F2B04D9054940F2CD10A2
:10AA800004F098FF4FF0A043184603B05DF804FBB4
:10AA90008477030000B585B0019001AB1846FFF73D
:10AAA000E5FF0390019B012202FA03F31946039884
:10AAB00000F069F800BF05B05DF804FB00B585B093
:10AAC000019001AB1846FFF7D1FF0390019B0122D3
:10AAD00002FA03F31946039800F05FF800BF05B0CF
:10AAE0005DF804FB00B585B0019001AB1846FFF797
:10AAF000BDFF0390039BD3F804350293029BDA4316
:10AB0000019B012101FA03F31A40039BC3F80825B6
:10AB1000019B01229A40029B1A40039BC3F80C251B
:10AB200000BF05B05DF804FB00B583B00190009153
:10AB3000009B002B03D10198FFF7C0FF02E00198B2
:10AB4000FFF7A8FF00BF03B05DF804FB00B585B0B8
:10AB5000019001AB1846FFF789FF0390039800F0BE
:10AB60000AF80246019B22FA03F303F00103184698
:10AB700005B05DF804FB82B00190019BD3F8043569
:10AB8000184602B0704782B001900091019B009A74
:10AB9000C3F8082500BF02B0704782B00190009151
:10ABA000019B009AC3F80C2500BF02B0704700005B
:10ABB00000B585B00190019B032B03D911493A20C0
:10ABC00004F0F8FE104A019B13441B781846FFF767
:10ABD000BDFF0346002B14BF012300238DF80F3067
:10ABE0009DF80F30002B14BF01230023DBB283F04C
:10ABF0000103DBB203F00103DBB2184605B05DF8D8
:10AC000004FB00BFB47703000078030000B583B0F5
:10AC10000190019B032B03D90749412004F0CAFE90
:10AC2000064A019B13441B7800211846FFF77CFF5E
:10AC300000BF03B05DF804FBB477030000780300A5
:10AC400000B583B00190019B032B03D9074947202E
:10AC500004F0B0FE064A019B13441B7801211846FC
:10AC6000FFF762FF00BF03B05DF804FBB477030099
:10AC70000078030000B583B00023019305E001983C
:10AC8000FFF7DEFF019B01330193019B032BF6D9F4
:10AC900000BF00BF03B05DF804FB00B583B0002324
:10ACA000019305E00198FFF7B1FF019B0133019388
:10ACB000019B032BF6D900BF00BF03B05DF804FB76
:10ACC00000B583B00190019B032B03D907495F2096
:10ACD00004F070FE064A019B13441B781846FFF7E8
:10ACE00001FF00BF03B05DF804FB00BFB4770300B1
:10ACF0000078030000B583B00190019B032B03D9BA
:10AD00000549CB2004F056FE044A019B13441B78EE
:10AD1000184603B05DF804FBB47703000478030021
:10AD200082B003468DF807309DF8073003F01F020C
:10AD300006499DF907305B09012000FA02F2203331
:10AD400041F8232000BF02B0704700BF00E100E0DF
:10AD500008B509F0ADFA034683F00103DBB2002B1E
:10AD600003D10549792004F025FE00F035FB034BA3
:10AD700000229A7000BF08BD1078030054320020F2
:10AD800000B583B000230193144B1B78002B02D035
:10AD9000852301931CE0114B00229A600F4B002287
:10ADA0005A600E4B00221A610C4B0022DA600C48EC
:10ADB00000F0D8FA019009F07BFA034683F0010312
:10ADC000DBB2002B01D000F0F3FA044B01221A7021
:10ADD000019B184603B05DF804FB00BF543200200D
:10ADE000B9AE020084B00190019B1B680393039BE2
:10ADF000002B03D0039B1A68019B1A60039B184623
:10AE000004B0704700B583B0164B1B78002B04D1FB
:10AE100015494FF4857004F0CDFD124BDB68002B13
:10AE200004D1114940F20B1004F0C4FD00238DF849
:10AE300007300DF107031846FDF778FB094BDB6877
:10AE4000013B084AD360074BDB68002B01D1FFF7B9
:10AE50007FFF9DF807301846FDF77EFB00BF03B06B
:10AE60005DF804FB543200201078030000B585B073
:10AE700003468DF807309DF80730002B02D10C4BAC
:10AE8000039301E00B4B03930398FFF7ABFF029092
:10AE9000029B002B06D0029B5B689DF807201046A2
:10AEA0009847F1E700BF00BF05B05DF804FB00BFA5
:10AEB0005C3200206432002000B583B003468DF878
:10AEC00007309DF80730002B05D10A4B01225A703C
:10AED0000020FFF7CBFF9DF80730012B05D1054B74
:10AEE00001229A700120FFF7C1FF00BF03B05DF897
:10AEF00004FB00BF5432002000B583B001900091E4
:10AF0000019B002B05D1054B01225A700020FFF751
:10AF1000ADFF00BF03B05DF804FB00BF543200205A
:10AF200000B585B0034600918DF807309DF80730D5
:10AF3000032B29D0032B35DC002B02D0012B04D0AE
:10AF400030E00020FFF7ECFE2DE000238DF80F30FD
:10AF50000DF10F031846FDF7E9FA154B1B7883F046
:10AF60000103DBB2002B01D0FFF70AFF104BDB68B7
:10AF700001330F4AD3600E4B01229A709DF80F30B7
:10AF80001846FDF7E9FA0EE0094B1B78002B04D1B7
:10AF9000084940F2452004F00DFD00F009FAFFF7E2
:10AFA00031FF00E000BF00BF05B05DF804FB00BF4B
:10AFB000543200201078030000B589B00190009150
:10AFC000009B0793019B1B788DF80C30019B5B68FD
:10AFD0000493019B9B68DBB28DF81430019BDB6806
:10AFE0000693074A079B52F823300649079A51F8FF
:10AFF000221003AA1046984700BF09B05DF804FB71
:10B00000683200206C32002000B589B001900091B8
:10B01000009B0793019B1B788DF80C30019B5B68AC
:10B020000493019B9B68DBB28DF81430019BDB68B5
:10B030000693074A079B52F823300649079A51F8AE
:10B04000221003AA1046984700BF09B05DF804FB20
:10B05000683200206C32002030B58FB0039002912E
:10B060000192039B1B780C9326490C9B019A41F893
:10B070002320029B1A6924490C9B41F82320029B40
:10B080005B7F1946214A0C9B13440A461A70029BA7
:10B0900004AC1D460FCD0FC495E80F0084E80F00E7
:10B0A0000C9B089300230D93039B1B781A46174BA8
:10B0B0009B5C002B0DD0039B181D019B002B01D026
:10B0C000134A00E0002204AB194602F02DFA0D905D
:10B0D00014E0039B1B781A460C4B9B5C002B0DD194
:10B0E000039B03F10C00019B002B01D0094A00E0F7
:10B0F000002204AB194601F09BFB0D900D9B1846F6
:10B100000FB030BD683200206C3200207032002059
:10B11000B9AF020009B0020082B003468DF80730D3
:10B120009DF8073003F01F0205499DF907305B09C0
:10B13000012000FA02F241F8232000BF02B070475C
:10B1400000E100E082B0034600918DF807309DF9E0
:10B150000730002B0CDA009BDAB20C499DF807305F
:10B1600003F00F03043B5201D2B20B441A7609E0FC
:10B17000009BDAB206499DF907305201D2B20B4466
:10B1800083F8002300BF02B0704700BF00ED00E06D
:10B1900000E100E082B00190019B1B0B5BB21846FE
:10B1A00002B0704700B583B003460A468DF80730F9
:10B1B00013468DF806309DF80630012B03D99DF813
:10B1C0000630032B0BD99DF80630042B03D99DF8CC
:10B1D0000630072B03D908496B2004F0EBFB9DF8E0
:10B1E00006209DF9073011461846FFF7ABFF00BF58
:10B1F00003B05DF804FB00BF6878030000B583B0BE
:10B2000003468DF807309DF907301846FFF784FF95
:10B2100000BF03B05DF804FB82B003468DF8073031
:10B220000F4A9DF90730002B00DA1F335B115BB228
:10B2300052F823209DF90730594203F01F0301F013
:10B240001F0158BF4B425BB222FA03F303F0010324
:10B25000002B14BF01230023DBB2184602B0704755
:10B2600000E100E082B001904FF08042019BC2F803
:10B27000083300BF02B0704782B003468DF8073034
:10B280009DF8073003F1804301221A6000BF02B02D
:10B29000704784B00346ADF80630BDF8063003F1C0
:10B2A000804300221A60BDF8063003F180431B681A
:10B2B0000393039B00BF04B0704782B00346ADF810
:10B2C0000630BDF8063003F180431B68002B14BF25
:10B2D00001230023DBB2184602B0704782B0019010
:10B2E0004FF08042019BC2F8183500BF02B0704792
:10B2F0004FF08043D3F818341B0C03F00103002BEC
:10B3000014BF01230023DBB21846704700B583B099
:10B3100006238DF807304FF08040FFF73BFF0346D0
:10B320001846FFF779FF034683F00103DBB2002BD9
:10B3300013D04FF08040FFF72DFF03461A469DF8CB
:10B34000073019461046FFF72DFF4FF08040FFF7FA
:10B3500021FF03461846FFF751FF00BF03B05DF819
:10B3600004FB000000B585B00190019B002B03D1C8
:10B370000D49A42004F01EFB002303930B4B1B7903
:10B38000002B02D08523039308E0084A019B136039
:10B39000064B01221A71054B00225A71039B184675
:10B3A00005B05DF804FB00BFA478030074320020F0
:10B3B00008B5074B1B79002B03D10649BD2004F0CB
:10B3C000F9FAFFF7A3FF0120FFF788FF00BF08BDD0
:10B3D00074320020A478030008B50A4B1B79002BB7
:10B3E00003D10949F72004F0E5FA0C20FFF744FFE8
:10B3F00000BFFFF77DFF0346002BFAD100BF00BF5F
:10B4000008BD00BF74320020A478030008B54FF4D3
:10B410008070FFF752FF0346002B14D04FF480706A
:10B42000FFF737FF0120FFF71DFF114B5B7983F01A
:10B430000103DBB2002B06D00D4B01225A710C4BDD
:10B440001B68002098474FF48270FFF736FF0346D1
:10B45000002B0AD04FF48270FFF71BFF0220FFF78A
:10B4600001FF034B1B680120984700BF08BD00BFC8
:10B470007432002082B003468DF807309DF8073003
:10B4800003F01F0205499DF907305B09012000FA0E
:10B4900002F241F8232000BF02B0704700E100E053
:10B4A00082B0034600918DF807309DF90730002BDC
:10B4B0000CDA009BDAB20C499DF8073003F00F0359
:10B4C000043B5201D2B20B441A7609E0009BDAB277
:10B4D00006499DF907305201D2B20B4483F800238C
:10B4E00000BF02B0704700BF00ED00E000E100E0E7
:10B4F00000B583B003460A468DF8073013468DF831
:10B5000006309DF80630012B03D99DF80630032B39
:10B510000BD99DF80630042B03D99DF80630072B74
:10B5200003D908496B2004F045FA9DF806209DF9DF
:10B53000073011461846FFF7B3FF00BF03B05DF8B0
:10B5400004FB00BFF878030000B583B003468DF814
:10B5500007309DF907301846FFF78CFF00BF03B096
:10B560005DF804FB00B583B00346ADF80630BDF8C6
:10B570000630184600F026F803461B68012B0CBF66
:10B5800001230023DBB2184603B05DF804FB00B5CD
:10B5900085B00346ADF80630BDF80630184600F019
:10B5A00011F803461A4600231360BDF8063018460A
:10B5B00000F008F803461B680393039B00BF05B027
:10B5C0005DF804FB82B00346ADF80630BDF80630E6
:10B5D00003F1804303F5C043184602B070470000F2
:10B5E00082B00190034A019BC2F8043300BF02B04D
:10B5F000704700BF0060004082B00190034BD3F859
:10B600000423019B1340184602B0704700600040BD
:10B6100084B00390029113468DF80730144A039BBF
:10B6200003F5A27352F82330114923F4473323F46E
:10B630004073039A02F5A27241F822300C4A039B30
:10B6400003F5A27352F82320029B1B0203F4F85166
:10B650009DF807301B0403F440330B4304491A439D
:10B66000039B03F5A27341F8232000BF04B0704789
:10B670000060004082B00190054A019B03F5A2736F
:10B6800052F823301B0A03F01F03184602B070471C
:10B690000060004082B00190064A019B03F5A2734E
:10B6A00052F823301B0C03F00303DBB2184602B040
:10B6B000704700BF0060004084B0039002911146C3
:10B6C0001A460B468DF8073013468DF80630184A97
:10B6D000039B03F5A27352F82330154923F4981302
:10B6E00023F4F853039A02F5A27241F82230104A6B
:10B6F000039B03F5A27352F82320029B1B0203F461
:10B70000F8519DF807301B0403F4403319439DF8AA
:10B7100006301B0503F480130B4305491A43039BB2
:10B7200003F5A27341F8232000BF04B0704700BFA7
:10B730000060004000B583B00190019B1B681F2B87
:10B7400004D9054940F2CD1004F034F94FF0A0437C
:10B75000184603B05DF804FB2C79030000B585B0F2
:10B760000190084611461A4603468DF803300B46F1
:10B770008DF8023013468DF8013001AB1846FFF703
:10B78000D9FF03909DF803209DF802305B001A4317
:10B790009DF801309B001A439DF818301B0242EAC5
:10B7A00003019DF81C301B04019A1943039B02F509
:10B7B000E07243F8221000BF05B05DF804FB00B54D
:10B7C00085B00390002301930023009300230122FE
:10B7D00001210398FFF7C2FF00BF05B05DF804FB2D
:10B7E00000B585B003900B468DF80B309DF80B30FB
:10B7F0000022019200220092002200210398FFF70C
:10B80000ADFF00BF05B05DF804FB00B585B0019049
:10B8100001AB1846FFF78EFF0390019A039B02F5D8
:10B82000E07253F8223023F002030293019A039B43
:10B8300002F5E072029943F8221000BF05B05DF8EE
:10B8400004FB00B585B001900B468DF8033001ABC9
:10B850001846FFF76FFF0390019A039B02F5E07211
:10B8600053F82230019A23F44031039B02F5E07231
:10B8700043F82210019A039B02F5E07253F822303C
:10B880009DF8032012041146019A1943039B02F507
:10B89000E07243F8221000BF05B05DF804FB00B56C
:10B8A00085B0019001AB1846FFF744FF0390019B60
:10B8B000012202FA03F31946039800F04BF800BF87
:10B8C00005B05DF804FB00B585B0019001AB1846EA
:10B8D000FFF730FF0390019B012202FA03F31946A0
:10B8E000039800F041F800BF05B05DF804FB00B517
:10B8F00085B0019001AB1846FFF71CFF0390039839
:10B9000000F020F80246019B22FA03F303F0010342
:10B91000184605B05DF804FB00B585B0019001AB99
:10B920001846FFF707FF0390019A039B02F5E072A8
:10B9300053F822301B0C03F00303DBB2184605B0AA
:10B940005DF804FB82B00190019BD3F810351846D6
:10B9500002B0704782B001900091019B009AC3F839
:10B96000082500BF02B0704782B001900091019B92
:10B97000009AC3F80C2500BF02B0704700B587B02D
:10B980000390029101924FF0A0430493039A029B0B
:10B990001344012B04D9124940F2FD2004F00AF8A7
:10B9A000039B059311E0059B9B0006AA134453F8E3
:10B9B000083C1846FFF7C6FF0246019B1A60019B30
:10B9C00004330193059B01330593039A029B1344AF
:10B9D000059A9A42E7D300BF00BF07B05DF804FBA9
:10B9E0002C79030084B001900091009B0393019B8C
:10B9F000DB080293019B03F0070301930122019BE3
:10BA000002FA03F30399029A0A4412781340184683
:10BA100004B0704784B001900091009B0393019B98
:10BA2000DB080293019B03F007030193039A029B37
:10BA300013441B785AB20121019B01FA03F35BB254
:10BA4000134359B2039A029B1344CAB21A7000BF3F
:10BA500004B0704782B00190074A019B1344303311
:10BA600093F90030B3F1FF3F14BF01230023DBB291
:10BA7000184602B0704700BF7C32002082B00190AF
:10BA80000C4A019B1344303393F90030002B09DB3F
:10BA9000084A019B1344303393F90030072B01DC33
:10BAA000012300E0002303F00103DBB2184602B0DB
:10BAB000704700BF7C32002082B00190064A019B93
:10BAC0001344303393F90030DB43DBB2DB09DBB2E4
:10BAD000184602B0704700BF7C32002084B003904B
